BL51 BANKED LINKER/LOCATER V6.22.2.0                                                    09/16/2021  23:14:32  PAGE 1


BL51 BANKED LINKER/LOCATER V6.22.2.0, INVOKED BY:
D:\KEIL_V5\C51\BIN\BL51.EXE .\Objects\STARTUP.obj, .\Objects\IIC.obj TO .\Objects\IIC PRINT (.\Listings\IIC.m51) RAMSIZE
>>  (256)


MEMORY MODEL: LARGE


INPUT MODULES INCLUDED:
  .\Objects\STARTUP.obj (?C_STARTUP)
  .\Objects\IIC.obj (IIC)


LINK MAP OF MODULE:  .\Objects\IIC (?C_STARTUP)


            TYPE    BASE      LENGTH    RELOCATION   SEGMENT NAME
            -----------------------------------------------------

            * * * * * * *   D A T A   M E M O R Y   * * * * * * *
            REG     0000H     0008H     ABSOLUTE     "REG BANK 0"
            IDATA   0008H     0001H     UNIT         ?STACK

            * * * * * * *  X D A T A   M E M O R Y  * * * * * * *
            XDATA   0000H     0006H     UNIT         _XDATA_GROUP_
            XDATA   0006H     0002H     UNIT         ?XD?_AT24C02WRITE?IIC
            XDATA   0008H     0001H     UNIT         ?XD?IIC

            * * * * * * *   C O D E   M E M O R Y   * * * * * * *
            CODE    0000H     0003H     ABSOLUTE     
            CODE    0003H     007CH     UNIT         ?PR?_I2C_SENDBYTE?IIC
            CODE    007FH     0047H     UNIT         ?PR?I2CREADBYTE?IIC
            CODE    00C6H     0034H     UNIT         ?PR?_AT24C02READ?IIC
            CODE    00FAH     0029H     UNIT         ?PR?_AT24C02WRITE?IIC
            CODE    0123H     001FH     UNIT         ?PR?DELAY10US?IIC
            CODE    0142H     001DH     UNIT         ?PR?_DELAYMS?IIC
            CODE    015FH     001AH     UNIT         ?PR?MAIN?IIC
            CODE    0179H     0014H     UNIT         ?PR?I2C_START_SIGNAL?IIC
            CODE    018DH     0012H     UNIT         ?PR?I2C_STOP_SIGNAL?IIC
            CODE    019FH     0010H     UNIT         ?CO?IIC
            CODE    01AFH     000CH     UNIT         ?C_C51STARTUP



OVERLAY MAP OF MODULE:   .\Objects\IIC (?C_STARTUP)


SEGMENT                            XDATA_GROUP
  +--> CALLED SEGMENT            START    LENGTH
------------------------------------------------
?C_C51STARTUP                    -----    -----
  +--> ?PR?MAIN?IIC

?PR?MAIN?IIC                     -----    -----
  +--> ?PR?_AT24C02READ?IIC
  +--> ?CO?IIC

?PR?_AT24C02READ?IIC             0000H    0002H
BL51 BANKED LINKER/LOCATER V6.22.2.0                                                  09/16/2021  23:14:32  PAGE 2


  +--> ?PR?I2C_START_SIGNAL?IIC
  +--> ?PR?_I2C_SENDBYTE?IIC
  +--> ?PR?I2CREADBYTE?IIC
  +--> ?PR?I2C_STOP_SIGNAL?IIC

?PR?I2C_START_SIGNAL?IIC         -----    -----
  +--> ?PR?DELAY10US?IIC

?PR?_I2C_SENDBYTE?IIC            0002H    0004H
  +--> ?PR?DELAY10US?IIC

?PR?I2CREADBYTE?IIC              0002H    0002H
  +--> ?PR?DELAY10US?IIC

?PR?I2C_STOP_SIGNAL?IIC          -----    -----
  +--> ?PR?DELAY10US?IIC



SYMBOL TABLE OF MODULE:  .\Objects\IIC (?C_STARTUP)

  VALUE           TYPE          NAME
  ----------------------------------

  -------         MODULE        ?C_STARTUP
  C:01AFH         SEGMENT       ?C_C51STARTUP
  I:0008H         SEGMENT       ?STACK
  C:0000H         PUBLIC        ?C_STARTUP
  D:00E0H         SYMBOL        ACC
  D:00F0H         SYMBOL        B
  D:0083H         SYMBOL        DPH
  D:0082H         SYMBOL        DPL
  N:0000H         SYMBOL        IBPSTACK
  N:0100H         SYMBOL        IBPSTACKTOP
  N:0080H         SYMBOL        IDATALEN
  C:01B2H         SYMBOL        IDATALOOP
  N:0000H         SYMBOL        PBPSTACK
  N:0100H         SYMBOL        PBPSTACKTOP
  N:0000H         SYMBOL        PDATALEN
  N:0000H         SYMBOL        PDATASTART
  N:0000H         SYMBOL        PPAGE
  N:0000H         SYMBOL        PPAGEENABLE
  D:00A0H         SYMBOL        PPAGE_SFR
  D:0081H         SYMBOL        SP
  C:01AFH         SYMBOL        STARTUP1
  N:0000H         SYMBOL        XBPSTACK
  N:0000H         SYMBOL        XBPSTACKTOP
  N:0000H         SYMBOL        XDATALEN
  N:0000H         SYMBOL        XDATASTART
  C:0000H         LINE#         126
  C:01AFH         LINE#         133
  C:01B1H         LINE#         134
  C:01B2H         LINE#         135
  C:01B3H         LINE#         136
  C:01B5H         LINE#         185
  C:01B8H         LINE#         196
  -------         ENDMOD        ?C_STARTUP
BL51 BANKED LINKER/LOCATER V6.22.2.0                                                  09/16/2021  23:14:32  PAGE 3



  -------         MODULE        IIC
  C:0000H         SYMBOL        _ICE_DUMMY_
  D:0080H         PUBLIC        P0
  D:00A0H         PUBLIC        P2
  C:019FH         PUBLIC        table
  C:0179H         PUBLIC        I2C_Start_signal
  C:015FH         PUBLIC        main
  C:018DH         PUBLIC        I2C_Stop_signal
  C:0123H         PUBLIC        Delay10us
  C:0003H         PUBLIC        _I2C_SendByte
  B:00A0H.6       PUBLIC        shi
  B:00A0H.0       PUBLIC        SDA
  C:00C6H         PUBLIC        _At24c02Read
  B:00A0H.1       PUBLIC        SCL
  C:00FAH         PUBLIC        _At24c02Write
  C:0142H         PUBLIC        _delayms
  C:007FH         PUBLIC        I2cReadByte
  X:0008H         PUBLIC        address_point
  -------         PROC          I2C_START_SIGNAL
  C:0179H         LINE#         21
  C:0179H         LINE#         22
  C:0179H         LINE#         23
  C:017BH         LINE#         24
  C:017EH         LINE#         25
  C:0180H         LINE#         26
  C:0183H         LINE#         27
  C:0185H         LINE#         28
  C:0188H         LINE#         29
  C:018AH         LINE#         30
  -------         ENDPROC       I2C_START_SIGNAL
  -------         PROC          I2C_STOP_SIGNAL
  C:018DH         LINE#         40
  C:018DH         LINE#         41
  C:018DH         LINE#         42
  C:018FH         LINE#         43
  C:0192H         LINE#         44
  C:0194H         LINE#         45
  C:0197H         LINE#         46
  C:019AH         LINE#         47
  C:019CH         LINE#         48
  -------         ENDPROC       I2C_STOP_SIGNAL
  -------         PROC          _I2C_SENDBYTE
  X:0002H         SYMBOL        dat
  X:0003H         SYMBOL        ack
  -------         DO            
  X:0004H         SYMBOL        a
  X:0005H         SYMBOL        b
  C:0010H         SYMBOL        Replay
  -------         ENDDO         
  C:0003H         LINE#         59
  C:000BH         LINE#         60
  C:000BH         LINE#         62
  C:0010H         LINE#         63
  C:0010H         LINE#         64
  C:0015H         LINE#         65
  C:0026H         LINE#         66
BL51 BANKED LINKER/LOCATER V6.22.2.0                                                  09/16/2021  23:14:32  PAGE 4


  C:0026H         LINE#         67
  C:0035H         LINE#         68
  C:0039H         LINE#         69
  C:003CH         LINE#         70
  C:003EH         LINE#         71
  C:0041H         LINE#         72
  C:0043H         LINE#         73
  C:0046H         LINE#         74
  C:004EH         LINE#         76
  C:0050H         LINE#         77
  C:0053H         LINE#         78
  C:0055H         LINE#         79
  C:0060H         LINE#         80
  C:0060H         LINE#         81
  C:0066H         LINE#         82
  C:0070H         LINE#         83
  C:0070H         LINE#         84
  C:0072H         LINE#         85
  C:0075H         LINE#         87
  C:0077H         LINE#         89
  C:0077H         LINE#         90
  C:0077H         LINE#         92
  C:0079H         LINE#         93
  C:007CH         LINE#         94
  C:007EH         LINE#         95
  -------         ENDPROC       _I2C_SENDBYTE
  -------         PROC          I2CREADBYTE
  -------         DO            
  X:0002H         SYMBOL        a
  X:0003H         SYMBOL        dat
  -------         ENDDO         
  C:007FH         LINE#         104
  C:007FH         LINE#         105
  C:007FH         LINE#         106
  C:0086H         LINE#         107
  C:0088H         LINE#         108
  C:008BH         LINE#         109
  C:009DH         LINE#         110
  C:009DH         LINE#         111
  C:009FH         LINE#         112
  C:00A2H         LINE#         113
  C:00AAH         LINE#         114
  C:00B0H         LINE#         115
  C:00B3H         LINE#         116
  C:00B5H         LINE#         117
  C:00B8H         LINE#         118
  C:00C0H         LINE#         119
  C:00C5H         LINE#         120
  -------         ENDPROC       I2CREADBYTE
  -------         PROC          DELAY10US
  -------         DO            
  D:0006H         SYMBOL        a
  D:0007H         SYMBOL        b
  -------         ENDDO         
  C:0123H         LINE#         129
  C:0123H         LINE#         130
  C:0123H         LINE#         132
BL51 BANKED LINKER/LOCATER V6.22.2.0                                                  09/16/2021  23:14:32  PAGE 5


  C:012FH         LINE#         133
  C:0141H         LINE#         135
  -------         ENDPROC       DELAY10US
  -------         PROC          _AT24C02WRITE
  X:0006H         SYMBOL        addr
  X:0007H         SYMBOL        dat
  C:00FAH         LINE#         144
  C:0102H         LINE#         145
  C:0102H         LINE#         146
  C:0105H         LINE#         147
  C:010CH         LINE#         148
  C:0116H         LINE#         149
  C:0120H         LINE#         150
  -------         ENDPROC       _AT24C02WRITE
  -------         PROC          _AT24C02READ
  X:0000H         SYMBOL        addr
  -------         DO            
  X:0001H         SYMBOL        num
  -------         ENDDO         
  C:00C6H         LINE#         160
  C:00CBH         LINE#         161
  C:00CBH         LINE#         163
  C:00CEH         LINE#         164
  C:00D5H         LINE#         165
  C:00DFH         LINE#         166
  C:00E2H         LINE#         167
  C:00E9H         LINE#         168
  C:00F1H         LINE#         169
  C:00F4H         LINE#         170
  C:00F9H         LINE#         171
  -------         ENDPROC       _AT24C02READ
  -------         PROC          _DELAYMS
  D:0007H         SYMBOL        x
  -------         DO            
  D:0007H         SYMBOL        a
  D:0006H         SYMBOL        b
  -------         ENDDO         
  C:0142H         LINE#         172
  C:0142H         LINE#         173
  C:0142H         LINE#         175
  C:014CH         LINE#         176
  C:015EH         LINE#         178
  -------         ENDPROC       _DELAYMS
  -------         PROC          MAIN
  -------         DO            
  D:0007H         SYMBOL        temp
  -------         ENDDO         
  C:015FH         LINE#         180
  C:015FH         LINE#         181
  C:015FH         LINE#         186
  C:0167H         LINE#         196
  C:0167H         LINE#         197
  C:0167H         LINE#         198
  C:016AH         LINE#         199
  C:0175H         LINE#         200
  C:0177H         LINE#         201
  -------         ENDPROC       MAIN
BL51 BANKED LINKER/LOCATER V6.22.2.0                                                  09/16/2021  23:14:32  PAGE 6


  -------         ENDMOD        IIC

*** WARNING L16: UNCALLED SEGMENT, IGNORED FOR OVERLAY PROCESS
    SEGMENT: ?PR?_AT24C02WRITE?IIC

*** WARNING L16: UNCALLED SEGMENT, IGNORED FOR OVERLAY PROCESS
    SEGMENT: ?PR?_DELAYMS?IIC

Program Size: data=9.0 xdata=9 code=443
LINK/LOCATE RUN COMPLETE.  2 WARNING(S),  0 ERROR(S)
