:0300000002049760
:0C049700787FE4F6D8FD7581470204DE92
:05000300344310100160
:1006E20001220118303F065B4F666D7D077F6F77F1
:1006F2007C395E79717638373E735C400004248F12
:030702004F2F1F57
:040748007F0A7E00A6
:10074C00EF1FAA0670011E4A600FE4FDEDC3947002
:09075C007480948050EA0D80F3D2
:010765002271
:100780001F43A0F074302DF8E6F58074242FF8E6AE
:0907900052A07F057E0002074C17
:10072800AC03AB05AD077F04120780AD037F03124E
:100738000780AD047F02120780AD1B7F010207808E
:10079900758902758C14E4F58AD2AFD2A9D28C225C
:10052300AB077A00AD037C00E41201B9E4FBFA796E
:100533008078431201177B007A40799C784512003A
:100543000E1201F2AA06AB077C007D0A1202C28DCD
:100553002F7C007D0AAF03AE021202C27C007D0A2B
:100563001202C28D2E7C007D64AF03AE021202C262
:100573007C007D0A1202C28D2DAE02AF037C037D87
:06058300E81202C28F2CF9
:01058900224F
:100325009000FF75B0FE85B01C531CF0E51C64F011
:10033500604D12074885B01C531CF0E51C64F06045
:100345002785B01CE51C2482601B24C0601224E0B4
:10035500600924F07012900001800D900002800861
:10036500900003800390000AE51C64F0600885B0E6
:100375001C531CF080F2AF8274302FF8E6F58075BF
:10038500B0FD85B01C531CF0E51C64F0604D1207F0
:100395004885B01C531CF0E51C64F0602785B01C33
:1003A500E51C2483601B24C0601224E0600924F04E
:1003B5007012900004800D90000580089000068062
:1003C5000390000BE51C64F0600885B01C531CF01D
:1003D50080F2AF8274302FF8E6F58075B0FB85B0FA
:1003E5001C531CF0E51C64F0604D12074885B01CD9
:1003F500531CF0E51C64F0602785B01CE51C2483C4
:10040500601B24C0601224E0600924F07012900083
:1004150007800D9000088008900009800390000C6B
:10042500E51C64F0600885B01C531CF080F2AF82B7
:1004350074302FF8E6F58075B0F785B01C531CF0C5
:10044500E51C64F0604712074885B01C531CF0E5B5
:100455001C64F0602185B01CE51C2483601524C054
:10046500600A24E0600624F0700C8000E4F583F552
:1004750082800390000DE51C64F0600885B01C5374
:100485001CF080F2AF8274302FF8E6F580AE83AFB2
:0104950082E4
:010496002243
:0907B600C290D293C291D29522A7
:10070600E4FEEEC39408748094805015EF339294FF
:10071600EF25E0FFD291A292E4334207C2910E8008
:01072600E1F1
:0107270022AF
:090766007D017F2112076F7F2243
:10076F00C293120706AC07AF05120706D293AF0468
:01077F002257
:0C07A900C293120706E4FF120706D29369
:0107B5002221
:060655008B148A158916C2
:10065B00C293120706AD07E4FCECC395175017E4E1
:10066B00FF120706AB14AA15A9168C82758300EF2F
:0A067B001202A00C80E3D293AF0539
:010685002252
:0B061B007BFF7A0079037512057F2A2F
:060626008B0F8A10891100
:10062C00C293120706AD07E4FCECC395125015AB50
:10063C000FAA10A9118C82758300120273FF120786
:08064C00060C80E5D293AF0516
:010654002283
:10068600C29012061B1207667D287F2512076F7D12
:10069600047F3112076F7D077F2612076F7D0F7F5C
:0E06A6002012076F7F967E0012074CD2902222
:10058A008B0B8A0C890DC2907BFF7A007903751256
:10059A00057F3012062612061BAB0BAA0CA90D7595
:1005AA0012047FA01206261207667D0A7F2412070C
:1005BA006F7D287F2512076F7D077F2612076F7DC3
:1005CA000E7F2012076F7F967E0012074CD2902270
:1006B4007FC87E0012074C2095FD7FFF1207068F2E
:1006C400203004083008057FE1120706AD207F279B
:0E06D40012076FD2953005037F00227FFF22B0
:1005DA00E4F508F509750A1FFF7E03782CE4F6088E
:1005EA00DEFC7E007F031207B6120799C2B6D2B6A6
:1005FA00C2B630B5FDD2B4AFA01205237B007A0093
:10060A00792C12058AC2081206B4120748C2B480AD
:01061A00DB04
:03000B00020008E8
:03000800B2B7325A
:10000E00EC4D6011E8497017ED33EC3304600DE4EC
:10001E00FCFFFEFD22E933E8330470F802025E12A3
:10002E00022958046009E4CC2481500628500902A4
:10003E000268284003020265C0E0EB4A7044B980B2
:10004E0006D0E0FB020254EF4E701CBD8008EBFFA1
:10005E00EAFEE9FD80EBE98DF0A4FEE5F00200F783
:10006E00E9CDF9EAFEEBFFEF89F0A4FCE5F0CE89CD
:10007E00F0A42EFFE435F0CD89F0A42DFEE435F08A
:10008E008067EF4E7005BD80D780C3EF8BF0A4ACB8
:10009E00F0EE8BF0A42CFCE435F0F8EF8AF0A42CF3
:1000AE00E5F038FCE433CB8DF0A42CFCE5F03BF806
:1000BE00EE8AF0A42CFCE5F038F8E433CF89F0A4F6
:1000CE002CFCE5F038CF3400CE89F0A42FFFE5F0FC
:1000DE003EFEE433C98DF0A42EFEE5F039CD8AF054
:1000EE00A42FFFE5F03EFEE43DFD33D0E0FB5007CC
:1000FE000BBB000F020268EC2CFCEF33FFEE33FE5D
:06010E00ED33FD0202408A
:10011400020268EC5D046005E85904700302025EA3
:10012400120229580460F6EC4860F2EC7004FDFEFB
:10013400FF22C860DB2481C85009C39860025006BE
:100144000202659850CAF582E9294B4A7005AB82D0
:1001540002025475F0007C1A7880C3EF9BEE9AED8E
:1001640099400DC3EF9BFFEE9AFEED99FDE842F036
:10017400DC23ACF0D0E0FFD0E0FED0E0FDAB822089
:10018400E7101BEB60BAEC2CFCEF33FFEE33FEED13
:1001940033FD020240E803F830E705C0F075F000D3
:1001A400EF2FFFEE33FEED33FD40B830E7C280AAF7
:1001B40075F020800E75F010800575F0087D007EC6
:1001C400007F003392D530D503120317EC3340106F
:1001D400EF33FFEE33FEED33FDEC33FCD5F0ED22CF
:0E01E400E5F0247EA2D513CC92E7CDCEFF220B
:1001F200EDD2E7CD33EC3392D524814006E4FFFE05
:10020200FDFC22FCE4CFCECDCC24E0501174FF8063
:10021200EDC3CC13CCCD13CDCE13CECF13CF047000
:07022200F030D5DE020317E6
:10022900E9D2E7C933E833F892D5EDD2E7CD33EC1B
:0702390033FC5002B2D52294
:10024000EC30E7100FBF000C0EBE00080DBD00041F
:100250000BEB6014A2D5EB13FCED92E7FD2274FFCB
:10026000FCFDFEFF22E480F8A2D574FF13FC7D8024
:03027000E480EF38
:1004A3000205DAE493A3F8E493A34003F68001F290
:1004B30008DFF48029E493A3F85407240CC8C3335A
:1004C300C4540F4420C8834004F456800146F6DF29
:1004D300E4800B01020408102040809006E2E47ED1
:1004E300019360BCA3FF543F30E509541FFEE4931E
:1004F300A360010ECF54C025E060A840B8E493A3E5
:10050300FAE493A3F8E493A3C8C582C8CAC583CA0F
:10051300F0A3C8C582C8CAC583CADFE9DEE780BEC7
:0107050000F3
:10027300BB010CE58229F582E5833AF583E0225040
:1002830006E92582F8E622BBFE06E92582F8E2228A
:0D029300E58229F582E5833AF583E49322A4
:1002A000F8BB010DE58229F582E5833AF583E8F094
:1002B000225006E92582C8F622BBFE05E92582C840
:0202C000F22228
:1002C200BC000BBE0029EF8DF084FFADF022E4CC20
:1002D200F875F008EF2FFFEE33FEEC33FCEE9DECE9
:1002E200984005FCEE9DFE0FD5F0E9E4CEFD22ED2F
:1002F200F8F5F0EE8420D21CFEADF075F008EF2F79
:10030200FFED33FD4007985006D5F0F222C398FD69
:050312000FD5F0EA2206
:0E031700C3E49FFFE49EFEE49DFDE49CFC22F7
:00000001FF
