:03000000020727CD
:0C072700787FE4F6D8FD75814D02076E66
:1009C10025627500256275200A00344310100177F5
:0909D1006169740072656376002F
:0B0A4400010C0102080000020A000083
:1009EE00759850D29C758920758DFD758BFDD299A9
:0309FE00D28E2274
:1008A700AB31AA32A933853582853483120690FF8E
:0708B700120A137F057E0009
:1008BE00EF1FAA0670011E4A600FE4FDEDC394708F
:0908CE007480948050EA0D80F35F
:0108D70022FE
:100A0100C2A7C2A68F80D2A57F0A7E001208BEC2ED
:020A1100A5221C
:100A1300D2A7C2A68F80D2A57F0A7E001208BEC2CB
:020A2300A5220A
:1009DA007F01120A017F38120A017F0F120A017F72
:0409EA0006020A01F6
:100A2500E4FF120677600A0F740129F9E43AFA80A7
:010A3500F1CF
:010A3600229D
:0B0A5000C290D293C291D295C2A422A2
:10098500E4FEEEC39408748094805015EF3392947E
:10099500EF25E0FFD291A292E4334207C2910E8087
:0109A500E170
:0109A600222E
:0909A7007D017F211209B07F22BD
:1009B000C293120985AC07AF05120985D293AF0423
:0109C0002214
:0C0A3700C293120985E4FF120985D293D6
:010A43002290
:0608D8008B318A328933E6
:1008DE00C293120985AD07E4FCECC395345017E4BE
:1008EE00FF120985AB31AA32A9338C82758300EFD2
:0A08FE001206BD0C80E3D293AF0593
:0109080022CC
:0B086D007BFF7A0979CB7534057F2AE8
:060878008B318A32893346
:10087E00C293120985AD07E4FCECC395345015AB59
:10088E0031AA32A9338C82758300120690FF1209A9
:08089E00850C80E5D293AF0543
:0108A600222F
:10090900C29012086D1209A77D287F251209B07DB2
:10091900057F311209B07D077F261209B07D0F7F4F
:0E092900201209B07F967E001208BED29022E6
:10081D008B188A19891AC2907BFF7A0979CB7534A6
:10082D00057F3012087812086DAB18AA19A91A7530
:10083D0034057FA01208781209A77D0A7F241209BA
:10084D00B07D287F251209B07D077F261209B07D66
:10085D000E7F201209B07F967E001208BED2902224
:100937002095FD7FFF1209858F20300408301105AF
:100947007FE1120985AD207F271209B0D2953005C6
:07095700037F00227FFF2255
:08035F008F308B318A328933A3
:10036700120677F53D7BFF7A0979C1120065AB313B
:10037700AA32A933900001120690F53D7BFF7A0956
:1003870079C1120065AB31AA32A933900002120677
:1003970090F53D7BFF7A0979C1120065AB31AA322E
:1003A700A933900003120690F53D7BFF7A0979C1C6
:1003B700120065AB31AA32A933900004120690F5FA
:1003C7003D7BFF7A0979C5120065E5301470030299
:1003D700054314700302056224026003020580AB23
:1003E70031AA32A933120A25E4C4F854F0C868FECA
:1003F700EFC4540F482401F537E43EF536E4F538E9
:10040700F539C3E5399537E5389536400302058058
:10041700E539C4F8540FC868F535E538C454F048D1
:10042700F534E5392401FFE43538FEEFC4F8540FFD
:10043700C868FFEEC454F048FEC3E5359FE5349E17
:100447004003020538AB31AA32A93385358285349A
:1004570083120690F53D7BFF7A0979C5120065ABDB
:1004670031AA32A933853582853483120690640A0E
:100477007003020538E5392401FFEF20E024E50B7E
:1004870024C0FF120A01D3E50B940EE50A9400403D
:1004970007E4F50AF50B8037050BE50B7031050A04
:1004A700802DE509450870057F01120A01E5092439
:1004B70080FF120A01D3E509940EE508940040076E
:1004C700E4F508F50980080509E50970020508AB98
:1004D70031AA32A933853582853483120690FF7E8F
:1004E70000D39430748094805029EF2430FFEE338A
:1004F700FEC3EF943AEE9400400774072FFFE43EE3
:10050700FEEF64424E701C7F01120A01E4F508F504
:10051700098013AB31AA32A933853582853483121A
:100527000690FF120A130535E535700205340204FB
:10053700290539E539700205380204097F80120A56
:1005470001E4F534F5351208A70535E535700205E0
:1005570034C39403E534940040EC227FC0120A01AF
:10056700E4F534F5351208A70535E535700205348D
:09057700C39403E534940040EC48
:010580002258
:1007B30078237C007D007BFF7A0979D07E007F055A
:1007C30012065178287C007D007BFF7A0979D57E5B
:1007D300007F051206511209DA1209EE120A5012AD
:1007E30009097F07120A378F203006117B007A0030
:1007F300790E7534057F611208D8750D01AD207F20
:10080300271209B0E50D60DA7B007A00790EE4FF68
:0A08130012035FE4F50DC2A480C8D3
:100733000207B3E493A3F8E493A34003F68001F222
:1007430008DFF48029E493A3F85407240CC8C333C7
:10075300C4540F4420C8834004F456800146F6DF96
:10076300E4800B0102040810204080900A44E47ED8
:10077300019360BCA3FF543F30E509541FFEE4938B
:10078300A360010ECF54C025E060A840B8E493A352
:10079300FAE493A3F8E493A3C8C582C8CAC583CA7D
:1007A300F0A3C8C582C8CAC583CADFE9DEE780BE35
:010A4F0000A6
:10058100E709F608DFFA8046E709F208DFFA803E5C
:1005910088828C83E709F0A3DFFA8032E309F60849
:1005A100DFFA8078E309F208DFFA807088828C83B1
:1005B100E309F0A3DFFA806489828A83E0A3F60865
:1005C100DFFA805889828A83E0A3F208DFFA804C3F
:1005D10080D280FA80C680D4806980F28033801016
:1005E10080A680EA809A80A880DA80E280CA80337F
:1005F10089828A83ECFAE493A3C8C582C8CCC583F7
:10060100CCF0A3C8C582C8CCC583CCDFE9DEE780C6
:100611000D89828A83E493A3F608DFF9ECFAA9F045
:10062100EDFB2289828A83ECFAE0A3C8C582C8CC9B
:10063100C583CCF0A3C8C582C8CCC583CCDFEADEB4
:10064100E880DB89828A83E493A3F208DFF980CC16
:1006510088F0EF60010E4E60C388F0ED2402B4040F
:100661000050B9F582EB2402B4040050AF232345B6
:0606710082239005D17305
:10067700BB010689828A83E0225002E722BBFE0281
:09068700E32289828A83E49322B4
:10069000BB010CE58229F582E5833AF583E022501F
:1006A00006E92582F8E622BBFE06E92582F8E22269
:0D06B000E58229F582E5833AF583E4932283
:1006BD00F8BB010DE58229F582E5833AF583E8F073
:1006CD00225006E92582C8F622BBFE05E92582C81F
:0206DD00F22207
:10000300E549243DF8E6054922783A300F02783D68
:10001300E475F0011206F10206772008EB7F2ED279
:10002300088018EF540F2490D43440D4FF300C0BC5
:10003300EF24BFB41A0050032461FFE54A600215A0
:100043004A054DE54D7002054C300F0D783AE475C5
:10005300F0011206F1EF0206DF02095E7403D20F0C
:100063008003E4C20FF5498B3A8A3B893CE4F54AA5
:10007300F54CF54DE54A60077F2012003E80F5758B
:100083004BFFC209C208C20AC20BC20DC20EC21084
:1000930012000CFF700D300F057F0012004FAF4DA3
:1000A300AE4C22B4255FC2D5C20C12000CFF24D083
:1000B300B40A00501A75F00A784A30D50508B6FF1D
:1000C3000106C6A426F620D5047002D20B80D924DB
:1000D300CFB41A00EF5004C2E5D20C02024FD2098A
:1000E30080C6D20880C0D20A80BCD2D580BAD20DD5
:1000F30080B47F2012003E200A077401B54A0040F5
:10010300F1120003FF12003E020077D210D20E80DC
:1001130095120003FB120003FA120003F94A4B7015
:100123000679207A037BFF200A2EE54A602A7E00A7
:100133008E8275830012069060060EEE654B70F09A
:10014300C2D5EBC0E0EAC0E0E9C0E0EE120296D00F
:10015300E0F9D0E0FAD0E0FB120677FF60AAEBC02B
:10016300E0EAC0E0E9C0E012003ED0E02401F9D0AB
:10017300E03400FAD0E0FBE54B0460DCD54BD980DA
:10018300877BFF7A027992D20A809C791080027968
:1001930008C20EC2108008D2D5790A8004790AC237
:1001A300D5E54B047002F54BE4FAFDFEFF120003A4
:1001B300FC7B08200913120003FD7B1030080A1290
:1001C3000003FE120003FF7B20EC3382D592D5504F
:1001D30013C3E43008069FFFE49EFEE42009039D59
:1001E300FDE49CFCE4CBF8C209EC700CCFCECDCC83
:1001F300E824F8F870F38017C3EF33FFEE33FEED16
:1002030033FDEC33FCEB33FB994002FB0FD8E9EBF6
:10021300300905F8D0E0C448B209C0E00AEC4D4EFD
:100223004F78207B0070C2EAB54B0040BCC0E0129F
:100233000298D0F0D0E0200904C4C0E0C4B209C0E1
:10024300F0120027D0F0D5F0EB020077120701017E
:100253001453018E5800E54C00E14201924F019A7C
:0F02630044019A4900FA4301A0550184460184E1
:100272004501844703405000E92D00ED2E01102B6B
:1002820000F123010E2003292A00A94800000108D9
:100292003F3F3F00790AA2D5200B14300D09B91057
:1002A200020404B9080104A2D5200E025001042060
:1002B2000A68920AB54A005034C0E07F20300B1918
:1002C2007F30A20A720E720D500F1202EFC20AC2E2
:1002D2000EC20DC2107F30800F300D03E9C0E01254
:1002E200003E300D03D0E0F9D0E0B54ACC300D1716
:1002F2007F30B9100C12003E7F58300C077F788097
:1003020003B9080312003E300A057F2D02003E7F2A
:10031200202010F87F2B200EF322920A80CF286E25
:10032200756C6C2900D2091200033009F8C20978F1
:100332004A30D50108F60200A92D5043495812004F
:10034200032403B405004001E490033B9312002F01
:0D035200743A12002FD20B754A0402018E7E
:1006DF00BB010689828A83F0225002F722BBFE01FA
:0206EF00F322F4
:1006F100FAE6FB0808E6F925F0F618E6CA3AF6220A
:10070100D083D082F8E4937012740193700DA3A387
:1007110093F8740193F5828883E47374029368609B
:06072100EFA3A3A380DF9B
:10095E00EFB40A07740D120969740A309811A89938
:10096E00B8130CC2983098FDA899C298B811F630F9
:07097E0099FDC299F59922D1
:00000001FF
