BL51 BANKED LINKER/LOCATER V6.22.2.0                                                    08/27/2021  00:23:55  PAGE 1


BL51 BANKED LINKER/LOCATER V6.22.2.0, INVOKED BY:
D:\KEIL_V5\C51\BIN\BL51.EXE .\Objects\STARTUP.obj, .\Objects\lora.obj TO .\Objects\lora PRINT (.\Listings\lora.m51)


MEMORY MODEL: SMALL


INPUT MODULES INCLUDED:
  .\Objects\STARTUP.obj (?C_STARTUP)
  .\Objects\lora.obj (LORA)
  D:\KEIL_V5\C51\LIB\C51S.LIB (?C_INIT)


LINK MAP OF MODULE:  .\Objects\lora (?C_STARTUP)


            TYPE    BASE      LENGTH    RELOCATION   SEGMENT NAME
            -----------------------------------------------------

            * * * * * * *   D A T A   M E M O R Y   * * * * * * *
            REG     0000H     0008H     ABSOLUTE     "REG BANK 0"
            DATA    0008H     000EH     UNIT         ?DT?LORA
            IDATA   0016H     0001H     UNIT         ?STACK

            * * * * * * *   C O D E   M E M O R Y   * * * * * * *
            CODE    0000H     0003H     ABSOLUTE     
            CODE    0003H     001AH     UNIT         ?PR?_DELAYMS?LORA
            CODE    001DH     0005H     UNIT         ?PR?MAIN?LORA
                    0022H     0001H                  *** GAP ***
            CODE    0023H     0003H     ABSOLUTE     
            CODE    0026H     008CH     UNIT         ?C_C51STARTUP
            CODE    00B2H     0047H     UNIT         ?PR?UART_ONE_INTERRUPT_RECEIVE?LORA
            CODE    00F9H     0016H     UNIT         ?PR?UARTINIT?LORA
            CODE    010FH     0005H     UNIT         ?C_INITSEG



OVERLAY MAP OF MODULE:   .\Objects\lora (?C_STARTUP)


SEGMENT
  +--> CALLED SEGMENT
---------------------
?C_C51STARTUP
  +--> ?PR?MAIN?LORA
  +--> ?C_INITSEG

?PR?MAIN?LORA
  +--> ?PR?UARTINIT?LORA



SYMBOL TABLE OF MODULE:  .\Objects\lora (?C_STARTUP)

  VALUE           TYPE          NAME
  ----------------------------------

  -------         MODULE        ?C_STARTUP
BL51 BANKED LINKER/LOCATER V6.22.2.0                                                  08/27/2021  00:23:55  PAGE 2


  C:0026H         SEGMENT       ?C_C51STARTUP
  I:0016H         SEGMENT       ?STACK
  C:0000H         PUBLIC        ?C_STARTUP
  D:00E0H         SYMBOL        ACC
  D:00F0H         SYMBOL        B
  D:0083H         SYMBOL        DPH
  D:0082H         SYMBOL        DPL
  N:0000H         SYMBOL        IBPSTACK
  N:0100H         SYMBOL        IBPSTACKTOP
  N:0080H         SYMBOL        IDATALEN
  C:0029H         SYMBOL        IDATALOOP
  N:0000H         SYMBOL        PBPSTACK
  N:0100H         SYMBOL        PBPSTACKTOP
  N:0000H         SYMBOL        PDATALEN
  N:0000H         SYMBOL        PDATASTART
  N:0000H         SYMBOL        PPAGE
  N:0000H         SYMBOL        PPAGEENABLE
  D:00A0H         SYMBOL        PPAGE_SFR
  D:0081H         SYMBOL        SP
  C:0026H         SYMBOL        STARTUP1
  N:0000H         SYMBOL        XBPSTACK
  N:0000H         SYMBOL        XBPSTACKTOP
  N:0000H         SYMBOL        XDATALEN
  N:0000H         SYMBOL        XDATASTART
  C:0000H         LINE#         126
  C:0026H         LINE#         133
  C:0028H         LINE#         134
  C:0029H         LINE#         135
  C:002AH         LINE#         136
  C:002CH         LINE#         185
  C:002FH         LINE#         196
  -------         ENDMOD        ?C_STARTUP

  -------         MODULE        LORA
  C:0000H         SYMBOL        _ICE_DUMMY_
  D:0090H         PUBLIC        P1
  D:00B0H         PUBLIC        P3
  B:00A8H.7       PUBLIC        EA
  D:00A8H         PUBLIC        IE
  C:0003H         PUBLIC        _DelayMS
  B:00A8H.4       PUBLIC        ES
  D:00B8H         PUBLIC        IP
  B:0098H.0       PUBLIC        RI
  B:0098H.1       PUBLIC        TI
  C:001DH         PUBLIC        main
  D:0008H         PUBLIC        dataCount
  D:0099H         PUBLIC        SBUF
  D:0087H         PUBLIC        PCON
  D:0098H         PUBLIC        SCON
  D:0089H         PUBLIC        TMOD
  D:0088H         PUBLIC        TCON
  D:000AH         PUBLIC        tempLenth
  C:00B2H         PUBLIC        UART_one_Interrupt_Receive
  D:000CH         PUBLIC        RevBuf
  D:008DH         PUBLIC        TH1
  D:008BH         PUBLIC        TL1
  C:00F9H         PUBLIC        uartInit
BL51 BANKED LINKER/LOCATER V6.22.2.0                                                  08/27/2021  00:23:55  PAGE 3


  B:0088H.6       PUBLIC        TR1
  D:00C8H         PUBLIC        T2CON
  D:00D0H         PUBLIC        PSW
  -------         PROC          _DELAYMS
  D:0006H         SYMBOL        ms
  -------         DO            
  D:0005H         SYMBOL        i
  -------         ENDDO         
  C:0003H         LINE#         5
  C:0003H         LINE#         6
  C:0003H         LINE#         8
  C:000DH         LINE#         9
  C:001CH         LINE#         11
  -------         ENDPROC       _DELAYMS
  -------         PROC          UARTINIT
  C:00F9H         LINE#         12
  C:00F9H         LINE#         13
  C:00F9H         LINE#         14
  C:00FCH         LINE#         15
  C:00FFH         LINE#         16
  C:0102H         LINE#         17
  C:0108H         LINE#         18
  C:010AH         LINE#         19
  C:010CH         LINE#         20
  C:010EH         LINE#         22
  -------         ENDPROC       UARTINIT
  -------         PROC          MAIN
  C:001DH         LINE#         34
  C:001DH         LINE#         35
  C:001DH         LINE#         36
  C:0020H         LINE#         37
  C:0020H         LINE#         38
  C:0020H         LINE#         41
  -------         ENDPROC       MAIN
  -------         PROC          UART_ONE_INTERRUPT_RECEIVE
  C:00B2H         LINE#         43
  C:00BDH         LINE#         45
  C:00C0H         LINE#         46
  C:00C0H         LINE#         47
  C:00C2H         LINE#         48
  C:00C9H         LINE#         49
  C:00C9H         LINE#         50
  C:00C9H         LINE#         51
  C:00CFH         LINE#         52
  C:00D2H         LINE#         53
  C:00D4H         LINE#         54
  C:00D4H         LINE#         55
  C:00DCH         LINE#         56
  C:00E3H         LINE#         57
  C:00EBH         LINE#         58
  C:00EBH         LINE#         59
  C:00EBH         LINE#         60
  C:00EBH         LINE#         61
  C:00EEH         LINE#         63
  C:00F0H         LINE#         64
  -------         ENDPROC       UART_ONE_INTERRUPT_RECEIVE
  -------         ENDMOD        LORA
BL51 BANKED LINKER/LOCATER V6.22.2.0                                                  08/27/2021  00:23:55  PAGE 4



*** WARNING L16: UNCALLED SEGMENT, IGNORED FOR OVERLAY PROCESS
    SEGMENT: ?PR?_DELAYMS?LORA

Program Size: data=23.0 xdata=0 code=275
LINK/LOCATE RUN COMPLETE.  1 WARNING(S),  0 ERROR(S)
