BL51 BANKED LINKER/LOCATER V6.22.2.0                                                    09/06/2021  23:03:50  PAGE 1


BL51 BANKED LINKER/LOCATER V6.22.2.0, INVOKED BY:
D:\KEIL_V5\C51\BIN\BL51.EXE .\Objects\STARTUP.obj, .\Objects\uart.obj TO .\Objects\uart PRINT (.\Listings\uart.m51)


MEMORY MODEL: SMALL


INPUT MODULES INCLUDED:
  .\Objects\STARTUP.obj (?C_STARTUP)
  .\Objects\uart.obj (UART)
  D:\KEIL_V5\C51\LIB\C51S.LIB (?C_INIT)
  D:\KEIL_V5\C51\LIB\C51S.LIB (?C?CLDPTR)


LINK MAP OF MODULE:  .\Objects\uart (?C_STARTUP)


            TYPE    BASE      LENGTH    RELOCATION   SEGMENT NAME
            -----------------------------------------------------

            * * * * * * *   D A T A   M E M O R Y   * * * * * * *
            REG     0000H     0008H     ABSOLUTE     "REG BANK 0"
            DATA    0008H     0007H     UNIT         ?DT?UART
            DATA    000FH     0003H     UNIT         _DATA_GROUP_
            IDATA   0012H     0001H     UNIT         ?STACK

            * * * * * * *   C O D E   M E M O R Y   * * * * * * *
            CODE    0000H     0003H     ABSOLUTE     
            CODE    0003H     001DH     UNIT         ?PR?MAIN?UART
                    0020H     0003H                  *** GAP ***
            CODE    0023H     0003H     ABSOLUTE     
            CODE    0026H     008CH     UNIT         ?C_C51STARTUP
            CODE    00B2H     0037H     UNIT         ?PR?UART?UART
            CODE    00E9H     0025H     UNIT         ?PR?_SENDSTRING?UART
            CODE    010EH     0019H     UNIT         ?C?LIB_CODE
            CODE    0127H     0013H     UNIT         ?PR?UARTINIT?UART
            CODE    013AH     0011H     UNIT         ?CO?UART
            CODE    014BH     000AH     UNIT         ?PR?_SENDDATA?UART
            CODE    0155H     000AH     UNIT         ?C_INITSEG



OVERLAY MAP OF MODULE:   .\Objects\uart (?C_STARTUP)


SEGMENT                          DATA_GROUP 
  +--> CALLED SEGMENT          START    LENGTH
----------------------------------------------
?C_C51STARTUP                  -----    -----
  +--> ?PR?MAIN?UART
  +--> ?C_INITSEG

?PR?MAIN?UART                  -----    -----
  +--> ?PR?UARTINIT?UART
  +--> ?CO?UART
  +--> ?PR?_SENDSTRING?UART

?PR?_SENDSTRING?UART           000FH    0003H
BL51 BANKED LINKER/LOCATER V6.22.2.0                                                  09/06/2021  23:03:50  PAGE 2


  +--> ?PR?_SENDDATA?UART



SYMBOL TABLE OF MODULE:  .\Objects\uart (?C_STARTUP)

  VALUE           TYPE          NAME
  ----------------------------------

  -------         MODULE        ?C_STARTUP
  C:0026H         SEGMENT       ?C_C51STARTUP
  I:0012H         SEGMENT       ?STACK
  C:0000H         PUBLIC        ?C_STARTUP
  D:00E0H         SYMBOL        ACC
  D:00F0H         SYMBOL        B
  D:0083H         SYMBOL        DPH
  D:0082H         SYMBOL        DPL
  N:0000H         SYMBOL        IBPSTACK
  N:0100H         SYMBOL        IBPSTACKTOP
  N:0080H         SYMBOL        IDATALEN
  C:0029H         SYMBOL        IDATALOOP
  N:0000H         SYMBOL        PBPSTACK
  N:0100H         SYMBOL        PBPSTACKTOP
  N:0000H         SYMBOL        PDATALEN
  N:0000H         SYMBOL        PDATASTART
  N:0000H         SYMBOL        PPAGE
  N:0000H         SYMBOL        PPAGEENABLE
  D:00A0H         SYMBOL        PPAGE_SFR
  D:0081H         SYMBOL        SP
  C:0026H         SYMBOL        STARTUP1
  N:0000H         SYMBOL        XBPSTACK
  N:0000H         SYMBOL        XBPSTACKTOP
  N:0000H         SYMBOL        XDATALEN
  N:0000H         SYMBOL        XDATASTART
  C:0000H         LINE#         126
  C:0026H         LINE#         133
  C:0028H         LINE#         134
  C:0029H         LINE#         135
  C:002AH         LINE#         136
  C:002CH         LINE#         185
  C:002FH         LINE#         196
  -------         ENDMOD        ?C_STARTUP

  -------         MODULE        UART
  C:0000H         SYMBOL        _ICE_DUMMY_
  D:0090H         PUBLIC        P1
  D:00B0H         PUBLIC        P3
  B:00A8H.7       PUBLIC        EA
  C:00E9H         PUBLIC        _SendString
  D:00A8H         PUBLIC        IE
  D:0008H         PUBLIC        ready
  B:00A8H.4       PUBLIC        ES
  D:00B8H         PUBLIC        IP
  B:0098H.0       PUBLIC        RI
  B:0098H.1       PUBLIC        TI
  C:0003H         PUBLIC        main
  C:014BH         PUBLIC        _sendData
BL51 BANKED LINKER/LOCATER V6.22.2.0                                                  09/06/2021  23:03:50  PAGE 3


  D:0099H         PUBLIC        SBUF
  D:0098H         PUBLIC        SCON
  C:0127H         PUBLIC        UartInit
  D:0089H         PUBLIC        TMOD
  D:0088H         PUBLIC        TCON
  C:00B2H         PUBLIC        uart
  D:0009H         PUBLIC        busy
  D:008DH         PUBLIC        TH1
  D:008BH         PUBLIC        TL1
  B:0088H.6       PUBLIC        TR1
  D:000AH         PUBLIC        str
  D:00C8H         PUBLIC        T2CON
  D:000EH         PUBLIC        i
  D:00D0H         PUBLIC        PSW
  -------         PROC          UARTINIT
  C:0127H         LINE#         11
  C:0127H         LINE#         12
  C:0127H         LINE#         13
  C:012AH         LINE#         14
  C:012DH         LINE#         15
  C:0130H         LINE#         16
  C:0133H         LINE#         17
  C:0135H         LINE#         18
  C:0137H         LINE#         19
  C:0139H         LINE#         20
  -------         ENDPROC       UARTINIT
  -------         PROC          _SENDDATA
  D:0007H         SYMBOL        d
  C:014BH         LINE#         21
  C:014BH         LINE#         22
  C:014BH         LINE#         23
  C:014FH         LINE#         25
  C:0152H         LINE#         26
  C:0154H         LINE#         27
  -------         ENDPROC       _SENDDATA
  -------         PROC          _SENDSTRING
  D:000FH         SYMBOL        s
  C:00E9H         LINE#         28
  C:00EFH         LINE#         29
  C:00EFH         LINE#         30
  C:00FAH         LINE#         31
  C:00FAH         LINE#         32
  C:010BH         LINE#         33
  C:010DH         LINE#         34
  -------         ENDPROC       _SENDSTRING
  -------         PROC          MAIN
  C:0003H         LINE#         35
  C:0003H         LINE#         36
  C:0003H         LINE#         37
  C:0006H         LINE#         38
  C:000FH         LINE#         39
  C:000FH         LINE#         40
  C:000FH         LINE#         41
  C:0013H         LINE#         42
  C:0013H         LINE#         43
  C:0016H         LINE#         44
  C:001EH         LINE#         45
BL51 BANKED LINKER/LOCATER V6.22.2.0                                                  09/06/2021  23:03:50  PAGE 4


  C:001EH         LINE#         46
  -------         ENDPROC       MAIN
  -------         PROC          UART
  -------         DO            
  D:0007H         SYMBOL        temp
  -------         ENDDO         
  C:00B2H         LINE#         49
  C:00BDH         LINE#         52
  C:00C0H         LINE#         53
  C:00C0H         LINE#         54
  C:00C2H         LINE#         55
  C:00C4H         LINE#         56
  C:00CBH         LINE#         57
  C:00CDH         LINE#         58
  C:00D3H         LINE#         59
  C:00D3H         LINE#         60
  C:00D5H         LINE#         61
  C:00D8H         LINE#         62
  C:00D8H         LINE#         63
  C:00D8H         LINE#         64
  C:00DBH         LINE#         65
  C:00DBH         LINE#         66
  C:00DDH         LINE#         67
  C:00E0H         LINE#         68
  C:00E0H         LINE#         69
  -------         ENDPROC       UART
  -------         ENDMOD        UART

  -------         MODULE        ?C?CLDPTR
  C:010EH         PUBLIC        ?C?CLDPTR
  -------         ENDMOD        ?C?CLDPTR

Program Size: data=19.0 xdata=0 code=348
LINK/LOCATE RUN COMPLETE.  0 WARNING(S),  0 ERROR(S)
