:0605540001120101130079
:10051C00759850438920758DFD758BFDD299D28EBF
:03052C00D2AC222C
:0A0541008F99E51270FC751201227B
:05055B00D2A8D28822A5
:10035C0012055BC292C2911201B6EF60FAD2AFE500
:10036C0013640270FAC294C290D290C290D294D20A
:10037C0090C2AFFDFCE4FBFAC290AFA08F827583F4
:10038C0000E582758200F583D290C290AFA0EFF5A4
:10039C0082D2901205410BBB00010AEB64F04A704B
:1003AC00D70DBD00010CBC01CCBD40C9D2AFE4F5EA
:0303BC001380ACFF
:0300030002049B59
:10049B00C0E0C0D075D000C006C007AF137E00EF20
:1004AB007013C293C290D290C290D293D290751314
:1004BB0001D291800BEF64014E7005C2917513024E
:0904CB00D007D006D0D0D0E032F9
:0300230002054B88
:09054B00309905C29975120032C5
:1000260032002A00110012461206427F4D0063F08C
:10003600641F650066006700690013FF0D410FC568
:10004600140122FF23012476255026A12B006BAA3A
:1000560013FF900A910192019301945F95539611B3
:10006600971A983D995A9A9E9B009C20A740A840B3
:10007600A980AA809E119F02A6067E0C7F16802A62
:10008600814E8261836F847B8586868E879788A45E
:1000960089AF8AC58BD78CE88D204EEF4F10506004
:1000A600510052005324547A55FC330022992303FD
:1000B6004A00491347084B144C1746050E753D82F6
:1000C6000C503EE229502C783A044010121432802B
:1000D6001716180419021A7B03060C0C15023E00AB
:1000E6007000710172117309A20211007A207B1C43
:1000F6007C287D3C7E557F68807681808288838FD0
:10010600849685A386AF87C488D789E813E0000064
:1001160010000D001420A505AB072475256326A540
:100126009F78A068A103A6DFA7DFA8F0A990AA94EC
:1001360013E50E610F4B16021E2721022291290795
:10014600330B350B371D3871392A3C784D404E201C
:10015600695D6B4074198D4F8E008F009000910081
:10016600920096009A80B084B10CB20EB382B80A9F
:10017600431444F0453446584728483A59885A8823
:100186005B445C675D495E0E640465206605940405
:1001960095086C0A6D554F80508051005222535E6F
:1001A60054806E116F9F5540564057407000710045
:1004D400D2B67F327E00120000D2B77F327E001285
:1004E4000000C2B67F327E00120000C2B77F327EA7
:0404F4000002000002
:10000600C2B67F327E00120000D2B77F327E001267
:0B0016000000D2B67F327E0002000026
:1004F800D2B67F327E00120000D2B77F327E001261
:100508000000C2B77F327E00120000C2B67F327E82
:0405180000020000DD
:0202F2008F0F6C
:1002F400E4F510C3E5109408748094805033AF1073
:10030400A807E50F088002C333D8FC30E704D2B64F
:100314008002C2B67F327E00120000D2B77F327EE6
:1003240000120000C2B77F147E0012000005108086
:10033400C27F0A7E00120000D2B77F507E001200F6
:100344000030B605E4F5118003751101C2B77F32A0
:070354007E00120000AF1152
:01035B00227F
:10046000E4F50F7F32FE120000751008D3E51094FA
:1004700000748094804021D2B77F327E0012000049
:10048000E50F25E0F50F30B602050FC2B77F327ECB
:0A04900000120000151080D4AF0F19
:01049A00223F
:06041D003CF583E493FDB1
:100423008F0B8D0C1204D47F421202F2EF70028004
:10043300207F147E00120000AF0B1202F2EF700255
:10044300800F7F147E00120000AF0C1202F2EF70D7
:0D045300061200067F00221200067F012223
:1003BF008F0B8B0C8A0D890E1204D47F421202F21E
:1003CF00EF700280267F147E00120000AF0B120226
:1003DF00F2EF700280151200067F147E00120000EB
:1003EF001204D47F431202F2EF70061200067F0050
:1003FF00227F147E00120000120460AB0CAA0DA91C
:0E040F000EEF12052F1204F81200067F0122D4
:1001B600E4F509F50A750880AD087F12120423EFED
:1001C6007002FF227F207E4E1200007B007A0079AB
:1001D600087F0B1203BFEF7002FF22E508647370FD
:1001E6003CF509F50AE50A25E0FDE50933FC74CE80
:1001F6002DF58274003CF583E493FF74CF2DF582D0
:10020600740012041DEF7002FF22050AE50A70024F
:100216000509C39474E509940040CA8040E5086462
:1002260021703AF509F50AE50A25E0FDE50933FCF2
:1002360074262DF58274003CF583E493FF74272D14
:10024600F582740012041DEF7002FF22050AE50A0A
:0F02560070020509C39454E509940040CAAF082B
:010265002276
:0300000002026693
:0C026600787FE4F6D8FD7581130202AD2C
:10052F00BB010689828A83F0225002F722BBFE01AB
:02053F00F322A5
:1002720002035CE493A3F8E493A34003F68001F243
:1002820008DFF48029E493A3F85407240CC8C3338D
:10029200C4540F4420C8834004F456800146F6DF5C
:1002A200E4800B0102040810204080900554E47E93
:1002B200019360BCA3FF543F30E509541FFEE49351
:1002C200A360010ECF54C025E060A840B8E493A318
:1002D200FAE493A3F8E493A3C8C582C8CAC583CA43
:1002E200F0A3C8C582C8CAC583CADFE9DEE780BEFB
:01055A0000A0
:00000001FF
