:03000000020003F8
:0C000300787FE4F6D8FD75810E02004AFB
:050285007465737400B4
:03028A00010E4E14
:05027F00120284D2B65A
:010284002257
:0A026100D2B7120284D2B602028462
:0A026B00D2B712027FC2B70202846C
:0A027500C2B712027FD2B702028462
:0301D0001201A970
:1001D300D2B612028430B70FC3E50D94FA7480943B
:0C01E300805004050D80EEC2B6020284BC
:1001A900E4FEEEC39408748094805011EF25E0FFBB
:1001B900C2B612028492B712027F0E80E5C2B6124D
:0701C9000284D2B702028498
:10017B00C2B6120284D2B7120284E4FEEEC3940814
:10018B00748094805017D2B6120284EF25E0FDA242
:0D019B00B7E4334DFFC2B61202840E80DFC0
:0101A8002234
:10024F00AD0712026BAF0E1201D0AF051201D00233
:02025F00027526
:10023B0012026B7F711201A91201D312017B120101
:04024B00D302027563
:1001EF00EFD394007480948040127EC8EED39400B5
:0C01FF007480948040031E80F31F80E495
:01020B0022D0
:02011500AC0735
:10011700EC440FFB54FCFF12024F7F021201EFEB7E
:1001270054F8FF12024FECC454F0FC43040FEC5494
:10013700FCFF12024F7F021201EFEC54F8FF02029C
:010147004F68
:02014800AC0702
:10014A00EC440FFB54FDFF12024F7F021201EFEB4A
:10015A0054F9FF12024FECC454F0FC43040FEC5460
:10016A00FDFF12024F7F021201EFEC54F9FF020267
:01017A004F35
:1000D9007F331201157F061201EF7F321201157F5E
:1000E900061201EF7F281201157F061201EF7F0129
:1000F9001201157F061201EF7F061201157F061204
:0C01090001EF7F0C1201157F060201EFD0
:06008F007BFF7A02798577
:100095008F088D098B0A8A0B890CEF64017009E5BD
:1000A50009144480FF120115E50864027009E50989
:1000B5001444C0FF120115AB0AAA0BA90C12020CBD
:1000C500FF60101201487401250CF50CE4350BF5A1
:0400D5000B80E42296
:100225001202611200D97D017F0112008F7D057FC9
:060235000212008F80F7A9
:10000F00020225E493A3F8E493A34003F68001F2E0
:10001F0008DFF48029E493A3F85407240CC8C333F2
:10002F00C4540F4420C8834004F456800146F6DFC1
:10003F00E4800B010204081020408090028AE47EC5
:10004F00019360BCA3FF543F30E509541FFEE493B6
:10005F00A360010ECF54C025E060A840B8E493A37D
:10006F00FAE493A3F8E493A3C8C582C8CAC583CAA8
:10007F00F0A3C8C582C8CAC583CADFE9DEE780BE60
:01028D000070
:10020C00BB010689828A83E0225002E722BBFE02F0
:09021C00E32289828A83E4932223
:00000001FF
