BL51 BANKED LINKER/LOCATER V6.22.2.0                                                    09/19/2021  12:58:09  PAGE 1


BL51 BANKED LINKER/LOCATER V6.22.2.0, INVOKED BY:
D:\KEIL_V5\C51\BIN\BL51.EXE .\Objects\STARTUP.obj, .\Objects\test.obj TO .\Objects\test PRINT (.\Listings\test.m51) RAMS
>> IZE (256)


MEMORY MODEL: SMALL


INPUT MODULES INCLUDED:
  .\Objects\STARTUP.obj (?C_STARTUP)
  .\Objects\test.obj (TEST)
  D:\KEIL_V5\C51\LIB\C51S.LIB (?C_INIT)


LINK MAP OF MODULE:  .\Objects\test (?C_STARTUP)


            TYPE    BASE      LENGTH    RELOCATION   SEGMENT NAME
            -----------------------------------------------------

            * * * * * * *   D A T A   M E M O R Y   * * * * * * *
            REG     0000H     0008H     ABSOLUTE     "REG BANK 0"
            DATA    0008H     0001H     UNIT         ?DT?TEST
            IDATA   0009H     0001H     UNIT         ?STACK

            * * * * * * *   C O D E   M E M O R Y   * * * * * * *
            CODE    0000H     0003H     ABSOLUTE     
            CODE    0003H     0004H     UNIT         ?C_INITSEG
                    0007H     0004H                  *** GAP ***
            CODE    000BH     0003H     ABSOLUTE     
            CODE    000EH     008CH     UNIT         ?C_C51STARTUP
            CODE    009AH     0078H     UNIT         ?PR?TIMER0?TEST
            CODE    0112H     0045H     UNIT         ?PR?_SENDTO595?TEST
            CODE    0157H     002EH     UNIT         ?PR?_HC595SENDBYTE?TEST
            CODE    0185H     001FH     UNIT         ?PR?_DELAY?TEST
            CODE    01A4H     0018H     UNIT         ?CO?TEST
            CODE    01BCH     000EH     UNIT         ?PR?MAIN?TEST



OVERLAY MAP OF MODULE:   .\Objects\test (?C_STARTUP)


SEGMENT
  +--> CALLED SEGMENT
---------------------
?C_C51STARTUP
  +--> ?PR?MAIN?TEST
  +--> ?C_INITSEG

*** NEW ROOT ***************************************************

?PR?TIMER0?TEST
  +--> ?PR?_SENDTO595?TEST
  +--> ?PR?_DELAY?TEST

?PR?_SENDTO595?TEST
  +--> ?PR?_DELAY?TEST
BL51 BANKED LINKER/LOCATER V6.22.2.0                                                  09/19/2021  12:58:09  PAGE 2


  +--> ?CO?TEST



SYMBOL TABLE OF MODULE:  .\Objects\test (?C_STARTUP)

  VALUE           TYPE          NAME
  ----------------------------------

  -------         MODULE        ?C_STARTUP
  C:000EH         SEGMENT       ?C_C51STARTUP
  I:0009H         SEGMENT       ?STACK
  C:0000H         PUBLIC        ?C_STARTUP
  D:00E0H         SYMBOL        ACC
  D:00F0H         SYMBOL        B
  D:0083H         SYMBOL        DPH
  D:0082H         SYMBOL        DPL
  N:0000H         SYMBOL        IBPSTACK
  N:0100H         SYMBOL        IBPSTACKTOP
  N:0080H         SYMBOL        IDATALEN
  C:0011H         SYMBOL        IDATALOOP
  N:0000H         SYMBOL        PBPSTACK
  N:0100H         SYMBOL        PBPSTACKTOP
  N:0000H         SYMBOL        PDATALEN
  N:0000H         SYMBOL        PDATASTART
  N:0000H         SYMBOL        PPAGE
  N:0000H         SYMBOL        PPAGEENABLE
  D:00A0H         SYMBOL        PPAGE_SFR
  D:0081H         SYMBOL        SP
  C:000EH         SYMBOL        STARTUP1
  N:0000H         SYMBOL        XBPSTACK
  N:0000H         SYMBOL        XBPSTACKTOP
  N:0000H         SYMBOL        XDATALEN
  N:0000H         SYMBOL        XDATASTART
  C:0000H         LINE#         126
  C:000EH         LINE#         133
  C:0010H         LINE#         134
  C:0011H         LINE#         135
  C:0012H         LINE#         136
  C:0014H         LINE#         185
  C:0017H         LINE#         196
  -------         ENDMOD        ?C_STARTUP

  -------         MODULE        TEST
  C:0000H         SYMBOL        _ICE_DUMMY_
  D:0090H         PUBLIC        P1
  D:00A0H         PUBLIC        P2
  D:00B0H         PUBLIC        P3
  B:00A8H.7       PUBLIC        EA
  C:01A4H         PUBLIC        table
  D:00A8H         PUBLIC        IE
  B:00B0H.6       PUBLIC        SH_CP
  C:0185H         PUBLIC        _delay
  B:00B0H.4       PUBLIC        DS
  D:00B8H         PUBLIC        IP
  B:00B0H.5       PUBLIC        ST_CP
  C:01BCH         PUBLIC        main
BL51 BANKED LINKER/LOCATER V6.22.2.0                                                  09/19/2021  12:58:09  PAGE 3


  B:00A0H.0       PUBLIC        qian
  B:00A0H.1       PUBLIC        bai
  D:0098H         PUBLIC        SCON
  D:0088H         PUBLIC        TCON
  B:00A0H.2       PUBLIC        shi
  B:00A8H.1       PUBLIC        ET0
  B:00A0H.3       PUBLIC        ge
  D:008CH         PUBLIC        TH0
  D:008AH         PUBLIC        TL0
  C:009AH         PUBLIC        timer0
  B:0088H.4       PUBLIC        TR0
  D:00C8H         PUBLIC        T2CON
  D:0008H         PUBLIC        i
  C:0157H         PUBLIC        _Hc595SendByte
  C:0127H         PUBLIC        _SendTo595
  D:00D0H         PUBLIC        PSW
  -------         PROC          _DELAY
  D:0006H         SYMBOL        s
  -------         DO            
  D:0004H         SYMBOL        i
  D:0002H         SYMBOL        j
  -------         ENDDO         
  C:0185H         LINE#         38
  C:0185H         LINE#         39
  C:0185H         LINE#         41
  C:018FH         LINE#         42
  C:01A3H         LINE#         44
  -------         ENDPROC       _DELAY
  -------         PROC          MAIN
  C:01BCH         LINE#         63
  C:01BCH         LINE#         64
  C:01BCH         LINE#         65
  C:01BFH         LINE#         66
  C:01C2H         LINE#         67
  C:01C4H         LINE#         68
  C:01C6H         LINE#         69
  C:01C8H         LINE#         70
  C:01C8H         LINE#         71
  C:01C8H         LINE#         76
  -------         ENDPROC       MAIN
  -------         PROC          TIMER0
  C:009AH         LINE#         78
  C:00B7H         LINE#         80
  C:00BAH         LINE#         81
  C:00BDH         LINE#         82
  C:00C0H         LINE#         83
  C:00C3H         LINE#         84
  C:00C5H         LINE#         85
  C:00C7H         LINE#         86
  C:00C7H         LINE#         87
  C:00C7H         LINE#         88
  C:00C7H         LINE#         89
  C:00CAH         LINE#         90
  C:00CCH         LINE#         91
  C:00CEH         LINE#         92
  C:00CEH         LINE#         93
  C:00CEH         LINE#         94
BL51 BANKED LINKER/LOCATER V6.22.2.0                                                  09/19/2021  12:58:09  PAGE 4


  C:00CEH         LINE#         95
  C:00D1H         LINE#         96
  C:00D3H         LINE#         97
  C:00D5H         LINE#         98
  C:00D7H         LINE#         99
  C:00D7H         LINE#         100
  C:00D7H         LINE#         101
  C:00DAH         LINE#         102
  C:00DCH         LINE#         103
  C:00DEH         LINE#         104
  C:00E0H         LINE#         105
  C:00E2H         LINE#         106
  C:00E9H         LINE#         107
  C:00F4H         LINE#         108
  C:00F7H         LINE#         109
  -------         ENDPROC       TIMER0
  C:0114H         SYMBOL        L?0027
  C:011DH         SYMBOL        L?0028
  -------         PROC          L?0026
  -------         ENDPROC       L?0026
  C:0114H         SYMBOL        L?0027
  C:011DH         SYMBOL        L?0028
  -------         PROC          _SENDTO595
  D:0007H         SYMBOL        Data
  -------         DO            
  D:0006H         SYMBOL        i
  -------         ENDDO         
  C:0127H         LINE#         111
  C:0127H         LINE#         112
  C:0127H         LINE#         113
  C:0129H         LINE#         114
  C:013AH         LINE#         115
  C:013AH         LINE#         116
  C:013CH         LINE#         117
  C:0140H         LINE#         118
  C:014AH         LINE#         119
  C:014CH         LINE#         120
  C:014DH         LINE#         121
  C:0150H         LINE#         123
  C:0152H         LINE#         124
  C:0153H         LINE#         125
  C:0154H         LINE#         126
  C:0156H         LINE#         127
  -------         ENDPROC       _SENDTO595
  -------         PROC          _HC595SENDBYTE
  D:0007H         SYMBOL        dat
  -------         DO            
  D:0002H         SYMBOL        i
  -------         ENDDO         
  C:0157H         LINE#         129
  C:0157H         LINE#         130
  C:0157H         LINE#         132
  C:0159H         LINE#         133
  C:015BH         LINE#         134
  C:015EH         LINE#         135
  C:015EH         LINE#         136
  C:0169H         LINE#         137
BL51 BANKED LINKER/LOCATER V6.22.2.0                                                  09/19/2021  12:58:09  PAGE 5


  C:016DH         LINE#         138
  C:016FH         LINE#         139
  C:0170H         LINE#         140
  C:0171H         LINE#         141
  C:0173H         LINE#         142
  C:017EH         LINE#         143
  C:0180H         LINE#         144
  C:0181H         LINE#         145
  C:0182H         LINE#         146
  C:0184H         LINE#         147
  -------         ENDPROC       _HC595SENDBYTE
  -------         ENDMOD        TEST

*** WARNING L16: UNCALLED SEGMENT, IGNORED FOR OVERLAY PROCESS
    SEGMENT: ?PR?_HC595SENDBYTE?TEST

Program Size: data=10.0 xdata=0 code=454
LINK/LOCATE RUN COMPLETE.  1 WARNING(S),  0 ERROR(S)
