:030000000204F700
:0C04F700787FE4F6D8FD7581160204A29F
:0A0503003F065B4F666D7D077F6FBA
:0403F8008E128F13BF
:1003FC007B027A00AE12AF137C007D0A12030DED66
:10040C002430FF74142BF8A607AE12AF137C007DBA
:10041C000A12030D8E128F13EB1B70011AC3EA64C0
:07042C0080948050CF7F1483
:0104330022A6
:10043400AE10AF117C001202B87C007D0A1202B823
:1004440074032DF58274053CF583E493F5807F01F4
:020454007E0028
:10045600EF1FAA0670011E4A600FE4FDEDC39470FB
:090466007480948050EA0D80F3CB
:01046F00226A
:060470008B0C8A0D890EC1
:10047600E4F50FF510AB0CAA0DA90E851082850FB9
:100486008312028B60152430F5990510E510700271
:0B049600050F7F0A7E0012045680DA7A
:0104A1002238
:100351007510008F11AC10AD11E41201D1E4FBFA5C
:100361007980784312012F7B007A40799C7845127D
:10037100002612020A8E108F1175B07FAE10AF11D8
:1003810012043D75B0BF7D0A12043475B0DF7D647F
:1003910012043475B0EFAE10AF117C037DE8120288
:1003A100B874032FF58274053EF583E493448012FB
:1003B1000450AE10AF117C007D0A1202B88D0FAE51
:1003C10010AF117C007D0A1202B87C007D0A120276
:1003D100B88D0EAE10AF117C007D641202B87C00A6
:1003E1007D0A1202B88D0DAE10AF117C037DE812AB
:0603F10002B88F0C7F0C26
:0103F70022E3
:1004E700758902758C14E4F58AD2AFD2A9D28C2211
:10000E00758920759850758BFD758DFDD28ED2AC8D
:03001E00D2AF223C
:1004A2001204E712000EC292D292C2923091FDD291
:1004B20090AFA01203518F087B007A0079081204D2
:0C04C200707FE87E03120456C29080DABE
:03000B00020003ED
:03000300B2933283
:030023000204CE06
:0704CE00C0D075D000C0078B
:0D04D500309808C298AF998F998002C299A3
:0504E200D007D0D0326C
:10002600EC4D6011E8497017ED33EC3304600DE4D4
:10003600FCFFFEFD22E933E8330470F80202761273
:10004600024158046009E4CC248150062850090274
:10005600028028400302027DC0E0EB4A7044B9806A
:1000660006D0E0FB02026CEF4E701CBD8008EBFF71
:10007600EAFEE9FD80EBE98DF0A4FEE5F002010F52
:10008600E9CDF9EAFEEBFFEF89F0A4FCE5F0CE89B5
:10009600F0A42EFFE435F0CD89F0A42DFEE435F072
:1000A6008067EF4E7005BD80D780C3EF8BF0A4ACA0
:1000B600F0EE8BF0A42CFCE435F0F8EF8AF0A42CDB
:1000C600E5F038FCE433CB8DF0A42CFCE5F03BF8EE
:1000D600EE8AF0A42CFCE5F038F8E433CF89F0A4DE
:1000E6002CFCE5F038CF3400CE89F0A42FFFE5F0E4
:1000F6003EFEE433C98DF0A42EFEE5F039CD8AF03C
:10010600A42FFFE5F03EFEE43DFD33D0E0FB5007B3
:100116000BBB000F020280EC2CFCEF33FFEE33FE2C
:06012600ED33FD0202585A
:10012C00020280EC5D046005E8590470030202765B
:10013C00120241580460F6EC4860F2EC7004FDFECB
:10014C00FF22C860DB2481C85009C39860025006A6
:10015C0002027D9850CAF582E9294B4A7005AB82A0
:10016C0002026C75F0007C1A7880C3EF9BEE9AED5E
:10017C0099400DC3EF9BFFEE9AFEED99FDE842F01E
:10018C00DC23ACF0D0E0FFD0E0FED0E0FDAB822071
:10019C00E7101BEB60BAEC2CFCEF33FFEE33FEEDFB
:1001AC0033FD020258E803F830E705C0F075F000A3
:1001BC00EF2FFFEE33FEED33FD40B830E7C280AADF
:1001CC0075F020800E75F010800575F0087D007EAE
:1001DC00007F003392D530D503120343EC3340102B
:1001EC00EF33FFEE33FEED33FDEC33FCD5F0ED22B7
:0E01FC00E5F0247EA2D513CC92E7CDCEFF22F3
:10020A00EDD2E7CD33EC3392D524814006E4FFFEEC
:10021A00FDFC22FCE4CFCECDCC24E0501174FF804B
:10022A00EDC3CC13CCCD13CDCE13CECF13CF0470E8
:07023A00F030D5DE020343A2
:10024100E9D2E7C933E833F892D5EDD2E7CD33EC03
:0702510033FC5002B2D5227C
:10025800EC30E7100FBF000C0EBE00080DBD000407
:100268000BEB6014A2D5EB13FCED92E7FD2274FFB3
:10027800FCFDFEFF22E480F8A2D574FF13FC7D800C
:03028800E480EF20
:10028B00BB010CE58229F582E5833AF583E0225028
:10029B0006E92582F8E622BBFE06E92582F8E22272
:0D02AB00E58229F582E5833AF583E493228C
:1002B800BC000BBE0029EF8DF084FFADF022E4CC2A
:1002C800F875F008EF2FFFEE33FEEC33FCEE9DECF3
:1002D800984005FCEE9DFE0FD5F0E9E4CEFD22ED39
:1002E800F8F5F0EE8420D21CFEADF075F008EF2F83
:1002F800FFED33FD4007985006D5F0F222C398FD74
:050308000FD5F0EA2210
:10030D00C2D5EC30E709B2D5E4C39DFDE49CFCEE0B
:10031D0030E715B2D5E4C39FFFE49EFE1202B8C3C9
:10032D00E49DFDE49CFC80031202B830D507C3E4C4
:06033D009FFFE49EFE227A
:0E034300C3E49FFFE49EFEE49DFDE49CFC22CB
:00000001FF
