:0300000002000EED
:0C000E00787FE4F6D8FD758108020055EB
:1001A4003F065B4F666D7D077F6F777C395E7971A3
:0801B4007638373E735C400011
:03000300010800F1
:10018500E4FDFCC3ED9FEC9E50147B727A00EB1BE3
:0E01950070011AEB4A70F70DBD00010C80E5F9
:0101A3002239
:0E01BC00758C4CE4F58AD28CD2A9D2AF80FEAD
:03000B0002009A56
:10009A00C0E0C0F0C083C082C0D075D000C000C02C
:1000AA0001C002C003C004C005C006C007758C4C5D
:1000BA00758A0043A00F12011DC2A0D2A11201121B
:1000CA00D2A0C2A1120112D2A0D2A1C2A2120114BC
:1000DA00D2A0D2A1D2A2C2A37F147E00120185D3DC
:1000EA00E5089408748094804003750800D007D00E
:1000FA0006D005D004D003D002D001D000D0D0D091
:08010A0082D083D0F0D0E03276
:10011200D2A2D2A37F147E00120185AF080508EF98
:050122009001A493FF11
:10012700E4FEEEFD3395E0FCC3ED9408EC648094A7
:10013700805016C2B6EF3392B47801EF08800123DE
:0F014700D8FDFFD2B6000E80D9D2B50000C2B5E8
:010156002286
:10015700C2B6C2B5E4FBFAEFC4131313540124FF6C
:1001670092B4EF25E0FFD2B60000C2B60BBB000188
:0D0177000AEB64084A70E0D2B50000C2B582
:010184002258
:10001A000201BCE493A3F8E493A34003F68001F23F
:10002A0008DFF48029E493A3F85407240CC8C333E7
:10003A00C4540F4420C8834004F456800146F6DFB6
:10004A00E4800B0102040810204080900003E47E43
:10005A00019360BCA3FF543F30E509541FFEE493AB
:10006A00A360010ECF54C025E060A840B8E493A372
:10007A00FAE493A3F8E493A3C8C582C8CAC583CA9D
:10008A00F0A3C8C582C8CAC583CADFE9DEE780BE55
:0100060000F9
:00000001FF
