:03000000020B569A
:0C0B5600787FE4F6D8FD758142020B9D0B
:0B0E0900256275000A00344310100140
:03000300010801F0
:0C0DED00120DF9D2A6120DF9C2A6D2A771
:030DF900000022D5
:090D7B007F20120DC97F967E0055
:100D8400EF1FAA0670011E4A600FE4FDEDC39470C4
:090D94007480948050EA0D80F394
:010D9D002233
:090E1400C290D293C291D2952242
:100D9E00E4FEEEC39408748094805015EF33929461
:100DAE00EF25E0FFD291A292E4334207C2910E806A
:010DBE00E153
:010DBF002211
:090DC0007D017F21120DC97F2283
:100DC900C293120D9EAC07AF05120D9ED293AF04CC
:010DD90022F7
:0C0DFC00C293120D9EE4FF120D9ED293D4
:010E080022C7
:060CD0008B158A1689173E
:100CD600C293120D9EAD07E4FCECC395185017E4C1
:100CE600FF120D9EAB15AA16A9178C82758300EF0D
:0A0CF6001205650C80E3D293AF05F0
:010D000022D0
:0B0C96007BFF7A0E790F752E057F2A78
:060CA1008B2B8A2C892D2B
:100CA700C293120D9EAD07E4FCECC3952E5015AB15
:100CB7002BAA2CA92D8C82758300120526FF120DF5
:080CC7009E0C80E5D293AF05FD
:010CCF002202
:100D5600C290120C96120DC07D287F25120DC97DFA
:100D6600057F31120DC97D077F26120DC97D0F1231
:050D76000D7BD290226C
:100C4F008B278A288929C2907BFF7A0E790F752E00
:100C5F00057F30120CA1120C96AB27AA28A9297573
:100C6F002E057FA0120CA1120DC07D0A7F24120D3C
:100C7F00C97D287F25120DC97D077F26120DC97DDD
:070C8F000E120D7BD2902232
:100D01007FC87E00120D842095FD7FFF120D9E8FFE
:100D1100203004083008057FE1120D9EAD207F27A9
:0E0D2100120DC9D2953005037F00227FFF22FC
:100BE200E4FFFEC2A5C2A6D2A7120DEDD2A6120D37
:100BF200F9C2A6C2A7120DEDFDEDC394087480944C
:100C0200805017D2A6120DF9C2A6120DF9A2A7E4BE
:100C120033FCEF25E04CFF0D80DFE4FDEDC39408CB
:100C220074809480501DA2A7E433FCA805088002BA
:100C3200C333D8FC4206D2A6120DF9C2A6120DF990
:0C0C42000D80D9D2A5EFB50601227F007D
:010C4E002283
:100DDA00759840D29C758920758DFD758BFDD299C9
:030DEA00D28E2284
:100A8F00E4F523F524F525F526FF7E04780F740A87
:100A9F00F608DEFC7E007F04120DDA120BE28F24C3
:100AAF00AC24E41201BE7B007A40799C7845120099
:100ABF000EE4FBFA798078431201171201F28E25AA
:100ACF008F267C007D0A1205878D12AE25AF267CFE
:100ADF00007D0A1205877C007D0A1205878D11AEF5
:100AEF0025AF267C007D641205877C007D0A1205E8
:100AFF00878D10AE25AF267C037DE81205878F0FFB
:100B0F0075130AE4F523C3E523940474809480508D
:100B1F00157BFF7A0E7909740F2523F8E6F52A1253
:100B2F000682052380E07BFF7A0E790D1206827B09
:100B3F00007A00790F120C4FC208120D017F647EEC
:070B4F0000120D84020AAA46
:03000B00020007E9
:03000700B2A6326C
:10000E00EC4D6011E8497017ED33EC3304600DE4EC
:10001E00FCFFFEFD22E933E8330470F802025E12A3
:10002E00022958046009E4CC2481500628500902A4
:10003E000268284003020265C0E0EB4A7044B980B2
:10004E0006D0E0FB020254EF4E701CBD8008EBFFA1
:10005E00EAFEE9FD80EBE98DF0A4FEE5F00200F783
:10006E00E9CDF9EAFEEBFFEF89F0A4FCE5F0CE89CD
:10007E00F0A42EFFE435F0CD89F0A42DFEE435F08A
:10008E008067EF4E7005BD80D780C3EF8BF0A4ACB8
:10009E00F0EE8BF0A42CFCE435F0F8EF8AF0A42CF3
:1000AE00E5F038FCE433CB8DF0A42CFCE5F03BF806
:1000BE00EE8AF0A42CFCE5F038F8E433CF89F0A4F6
:1000CE002CFCE5F038CF3400CE89F0A42FFFE5F0FC
:1000DE003EFEE433C98DF0A42EFEE5F039CD8AF054
:1000EE00A42FFFE5F03EFEE43DFD33D0E0FB5007CC
:1000FE000BBB000F020268EC2CFCEF33FFEE33FE5D
:06010E00ED33FD0202408A
:10011400020268EC5D046005E85904700302025EA3
:10012400120229580460F6EC4860F2EC7004FDFEFB
:10013400FF22C860DB2481C85009C39860025006BE
:100144000202659850CAF582E9294B4A7005AB82D0
:1001540002025475F0007C1A7880C3EF9BEE9AED8E
:1001640099400DC3EF9BFFEE9AFEED99FDE842F036
:10017400DC23ACF0D0E0FFD0E0FED0E0FDAB822089
:10018400E7101BEB60BAEC2CFCEF33FFEE33FEED13
:1001940033FD020240E803F830E705C0F075F000D3
:1001A400EF2FFFEE33FEED33FD40B830E7C280AAF7
:1001B40075F020800E75F010800575F0087D007EC6
:1001C400007F003392D530D5031205DCEC334010A8
:1001D400EF33FFEE33FEED33FDEC33FCD5F0ED22CF
:0E01E400E5F0247EA2D513CC92E7CDCEFF220B
:1001F200EDD2E7CD33EC3392D524814006E4FFFE05
:10020200FDFC22FCE4CFCECDCC24E0501174FF8063
:10021200EDC3CC13CCCD13CDCE13CECF13CF047000
:07022200F030D5DE0205DC1F
:10062000E53E242AF8E6053E227827300F02782A94
:10063000E475F0011205EA02050D2008EB7F2ED2C9
:10064000088018EF540F2490D43440D4FF300C0BA2
:10065000EF24BFB41A0050032461FFE53F60021588
:100660003F0542E54270020541300F0D7827E475E1
:10067000F0011205EAEF020553020D2F7403D20FA9
:100680008003E4C20FF53E8B278A288929E4F53FD1
:10069000F541F542E53F60077F2012065B80F57566
:1006A00040FFC209C208C20AC20BC20DC20EC2106C
:1006B000120629FF700D300F057F0012066CAF4245
:1006C000AE4122B4255FC2D5C20C120629FF24D048
:1006D000B40A00501A75F00A783F30D50508B6FF05
:1006E0000106C6A426F620D5047002D20B80D924B8
:1006F000CFB41A00EF5004C2E5D20C020959D20956
:1007000080C6D20880C0D20A80BCD2D580BAD20DB1
:1007100080B47F2012065B200A077401B53F0040B9
:10072000F1120620FF12065B020694D210D20E8050
:1007300095120620FB120620FA120620F94A4B7089
:100740000679507A0A7BFF200A2EE53F602A7E0058
:100750008E8275830012052660060EEE654070F0ED
:10076000C2D5EBC0E0EAC0E0E9C0E0EE1209B9D0C2
:10077000E0F9D0E0FAD0E0FB12050DFF60AAEBC073
:10078000E0EAC0E0E9C0E012065BD0E02401F9D065
:10079000E03400FAD0E0FBE5400460DCD540D980CD
:1007A00087D20A80A212099C60F7E540700104120A
:1007B0000273A940600DE540600914F540120A4338
:1007C000EF60F3EA30E702F404C3995077EAF425C6
:1007D000400430E701E404F540800D12099C60C13B
:1007E000EA05402540120273EA783DF630E701E45D
:1007F000254004D54004200D01141209B9E4C0E0DD
:10080000120A43783DE6601320E70714F612064308
:10081000802204F6D0E014C0E07F00120643E540D9
:10082000600712063A1540800B300D0312063AD0CD
:10083000E0020694D0E00480C512099C60A0E54067
:1008400004120273783DEAF6E540200D02600104CF
:0508500024041209B9A7
:1008550074FF04C0E0120A43120643E540200D026E
:10086500600312063AD0E0B540E87F4512064D78A0
:100875003DE67F2B30E7047F2DF404C0E012065BD4
:10088500D0E075F00A84C0F0120644D0E0120644A8
:10089500020694791080027908C20EC2108008D22F
:1008A500D5790A8004790AC2D5E540047002F5407D
:1008B500E4FAFDFEFF120620FC7B08200913120650
:1008C50020FD7B1030080A120620FE120620FF7B51
:1008D50020EC3382D592D55013C3E43008069FFF30
:1008E500E49EFEE42009039DFDE49CFCE4CBF8C2F4
:1008F50009EC700CCFCECDCCE824F8F870F3801756
:10090500C3EF33FFEE33FEED33FDEC33FCEB33FB8E
:10091500994002FB0FD8E9EB300905F8D0E0C4484F
:10092500B209C0E00AEC4D4E4F78207B0070C2EA58
:10093500B5400040BCC0E01209BBD0F0D0E02009B2
:1009450004C4C0E0C4B209C0F0120644D0F0D5F02A
:10095500EB0206941205FA07315308985807024C22
:1009650006FE42089C4F08A44408A44907174308FB
:10097500AA5507DB4608394507A5470A70500706FB
:100985002D070A2E072D2B070E23072B200A592A80
:1009950006C64800000725E540B4FF03754006126A
:1009A5000620FC120620FD120620FE120620FF7806
:1009B500360202A2790AA2D5200B14300D09B9100E
:1009C500020404B9080104A2D5200E025001042036
:1009D5000A68920AB53F005034C0E07F20300B19F9
:1009E5007F30A20A720E720D500F120A12C20AC28D
:1009F5000EC20DC2107F30800F300D03E9C0E0122A
:100A0500065B300D03D0E0F9D0E0B53FCC300D17D3
:100A15007F30B9100C12065B7F58300C077F788049
:100A250003B9080312065B300A057F2D02065B7FBA
:100A3500202010F87F2B200EF322920A80CF7F0012
:100A4500B4070050052436F8E6FF22286E756C6C55
:100A55002900D2091206203009F8C209783F30D59D
:100A65000108F60206C62D504349581206202403F4
:100A7500B405004001E4900A6B9312064C743A12D7
:0A0A8500064CD20B753F04020898DE
:10022900E9D2E7C933E833F892D5EDD2E7CD33EC1B
:0702390033FC5002B2D52294
:10024000EC30E7100FBF000C0EBE00080DBD00041F
:100250000BEB6014A2D5EB13FCED92E7FD2274FFCB
:10026000FCFDFEFF22E480F8A2D574FF13FC7D8024
:03027000E480EF38
:10027300F920E72824F950037907E4F42402FB1852
:10028300DBFDE624FB5014E9600DE4F618E604F602
:0F029300B40A08E4F6D9F57401F60A22C2D5229E
:1002A200ED33EC3392D5FA602AB4FF33EDC2E77B2B
:1002B200FF60067A0279C7E4227A0279D020D50457
:1002C2007A0279CB224E614E002B494E46002D49CF
:1002D2004E4600E47A08F608DAFC7B00740722E84E
:1002E200C0E0ECC0E0EDC0E0EEC0E0EFC0E0EA75D7
:1002F200F010A4CAABF075F04DA42BFBE435F0FC72
:10030200EA2410FAEB34C5FBEC34D9FCEDC2E7FF6A
:1003120075F056A4F42411C5F0F434C58FF0A42A64
:10032200E5F03BE43CF620E7141204CDD0E0FFD028
:10033200E0FED0E0FDD0E0FC1201178014F40412BC
:1003420004CDD0E0FFD0E0FED0E0FDD0E0FC120012
:100352000ED0E0F8E6FAEDD2E7CD33EC332482FB9F
:10036200E4C3CF33CFCE33CECD33CD33DBF37B07F4
:1003720075F00A846004F6081B0AE5F0F6088FF0AF
:10038200740AA4FFACF08EF0740AA42CFEACF050F8
:10039200010C8DF0740AA42CFDE435F0F608DBDEC6
:0303A200740722BB
:1003A50002025EE86480F8E933E83360110460F026
:1003B500ED33EC337009E8FCE9FDEAFEEBFF2204BE
:1003C50060DED3EB9FEA9EE99DE8C2E78CF0C2F7B9
:1003D50095F0400CE8CCF8E9CDF9EACEFAEBCFFB85
:1003E50012022985D0F05804700320D5B3E80470B3
:1003F500075002B2D502026892D5EC0460F7E4CC4E
:10040500C0E0C398F8603B94186008400DD0E0FB4D
:10041500020240E4FBFAC9FC8028E830E406E4C99E
:10042500FBE4CAFCE830E305E4C9CACBFCE85407A1
:100435006010F8C3E913F9EA13FAEB13FBEC13FCAC
:10044500D8F130F52FC3E49CFCEF9BFFEE9AFEED4F
:1004550099FDD0E0FBEF4E4D4C701222DB030202FA
:1004650065EC2CFCEF33FFEE33FEED33FDED30E7AD
:10047500EB020240EF2BFFEE3AFEED39FDD0E0FB3B
:1004850050130BBB0003020268ED13FDEE13FEEFE4
:0804950013FFEC13FC0202400E
:10049D003F8000004120000042C80000447A000067
:1004AD00461C400047C35000497424004B189680E9
:1004BD004CBEBC205A0E1BCA6753C21C749DC5AEE0
:1004CD00FB60065407601C23231204FBEB543860B9
:1004DD00091204E71204F612000EECF8EDF9EEFA2B
:1004ED00EFCB22EB1204F680F1543803241C900458
:1004FD009DFE93FC0EEE93FD0EEE930ECE93FF221A
:100B6200020A8FE493A3F8E493A34003F68001F210
:100B720008DFF48029E493A3F85407240CC8C33394
:100B8200C4540F4420C8834004F456800146F6DF63
:100B9200E4800B0102040810204080900003E47EF0
:100BA200019360BCA3FF543F30E509541FFEE49358
:100BB200A360010ECF54C025E060A840B8E493A31F
:100BC200FAE493A3F8E493A3C8C582C8CAC583CA4A
:100BD200F0A3C8C582C8CAC583CADFE9DEE780BE02
:0100060000F9
:10050D00BB010689828A83E0225002E722BBFE02EC
:09051D00E32289828A83E493221F
:10052600BB010CE58229F582E5833AF583E022508A
:1005360006E92582F8E622BBFE06E92582F8E222D4
:0D054600E58229F582E5833AF583E49322EE
:10055300BB010689828A83F0225002F722BBFE0187
:02056300F32281
:10056500F8BB010DE58229F582E5833AF583E8F0CC
:10057500225006E92582C8F622BBFE05E92582C878
:02058500F22260
:10058700BC000BBE0029EF8DF084FFADF022E4CC58
:10059700F875F008EF2FFFEE33FEEC33FCEE9DEC21
:1005A700984005FCEE9DFE0FD5F0E9E4CEFD22ED67
:1005B700F8F5F0EE8420D21CFEADF075F008EF2FB1
:1005C700FFED33FD4007985006D5F0F222C398FDA2
:0505D7000FD5F0EA223F
:0E05DC00C3E49FFFE49EFEE49DFDE49CFC2230
:1005EA00FAE6FB0808E6F925F0F618E6CA3AF62212
:1005FA00D083D082F8E4937012740193700DA3A390
:10060A0093F8740193F5828883E4737402936860A3
:06061A00EFA3A3A380DFA3
:100D2F00EFB40A07740D120D3A740A309811A8998E
:100D3F00B8130CC2983098FDA899C298B811F63024
:070D4F0099FDC299F59922FC
:00000001FF
