BL51 BANKED LINKER/LOCATER V6.22.2.0                                                    08/25/2021  00:03:43  PAGE 1


BL51 BANKED LINKER/LOCATER V6.22.2.0, INVOKED BY:
D:\KEIL_V5\C51\BIN\BL51.EXE .\Objects\STARTUP.obj, .\Objects\adc8032.obj TO .\Objects\adc0832 PRINT (.\Listings\adc0832.
>> m51)


MEMORY MODEL: SMALL WITH FLOATING POINT ARITHMETIC


INPUT MODULES INCLUDED:
  .\Objects\STARTUP.obj (?C_STARTUP)
  .\Objects\adc8032.obj (ADC8032)
  D:\KEIL_V5\C51\LIB\C51FPS.LIB (?C?FPMUL)
  D:\KEIL_V5\C51\LIB\C51FPS.LIB (?C?FPDIV)
  D:\KEIL_V5\C51\LIB\C51FPS.LIB (?C?FCAST)
  D:\KEIL_V5\C51\LIB\C51FPS.LIB (?C?CASTF)
  D:\KEIL_V5\C51\LIB\C51FPS.LIB (PRINTF)
  D:\KEIL_V5\C51\LIB\C51FPS.LIB (?C?FPGETOPN)
  D:\KEIL_V5\C51\LIB\C51FPS.LIB (?C?FPROUND)
  D:\KEIL_V5\C51\LIB\C51FPS.LIB (?C?FPCONVERT)
  D:\KEIL_V5\C51\LIB\C51FPS.LIB (?C?FPADD)
  D:\KEIL_V5\C51\LIB\C51FPS.LIB (?C?FTNPWR)
  D:\KEIL_V5\C51\LIB\C51S.LIB (?C_INIT)
  D:\KEIL_V5\C51\LIB\C51S.LIB (?C?CLDPTR)
  D:\KEIL_V5\C51\LIB\C51S.LIB (?C?CLDOPTR)
  D:\KEIL_V5\C51\LIB\C51S.LIB (?C?CSTPTR)
  D:\KEIL_V5\C51\LIB\C51S.LIB (?C?CSTOPTR)
  D:\KEIL_V5\C51\LIB\C51S.LIB (?C?UIDIV)
  D:\KEIL_V5\C51\LIB\C51S.LIB (?C?LNEG)
  D:\KEIL_V5\C51\LIB\C51S.LIB (?C?PLDIIDATA)
  D:\KEIL_V5\C51\LIB\C51S.LIB (?C?CCASE)
  D:\KEIL_V5\C51\LIB\C51S.LIB (PUTCHAR)


LINK MAP OF MODULE:  .\Objects\adc0832 (?C_STARTUP)


            TYPE    BASE      LENGTH    RELOCATION   SEGMENT NAME
            -----------------------------------------------------

            * * * * * * *   D A T A   M E M O R Y   * * * * * * *
            REG     0000H     0008H     ABSOLUTE     "REG BANK 0"
            DATA    0008H     000CH     UNIT         ?DT?ADC8032
            DATA    0014H     0005H     UNIT         ?DT?_SPI_READ_BUF?ADC8032
                    0019H     0007H                  *** GAP ***
            DATA    0020H     0001H     BIT_ADDR     ?BA?ADC8032
            BIT     0021H.0   0001H.1   UNIT         _BIT_GROUP_
                    0022H.1   0000H.7                *** GAP ***
            DATA    0023H     0020H     UNIT         _DATA_GROUP_
            IDATA   0043H     0001H     UNIT         ?STACK

            * * * * * * *   C O D E   M E M O R Y   * * * * * * *
            CODE    0000H     0003H     ABSOLUTE     
            CODE    0003H     0004H     UNIT         ?C_INITSEG
            CODE    0007H     0003H     UNIT         ?PR?TIMER0_INT?ADC8032
                    000AH     0001H                  *** GAP ***
            CODE    000BH     0003H     ABSOLUTE     
            CODE    000EH     0612H     UNIT         ?C?LIB_CODE
            CODE    0620H     046FH     UNIT         ?PR?PRINTF?PRINTF
BL51 BANKED LINKER/LOCATER V6.22.2.0                                                  08/25/2021  00:03:43  PAGE 2


            CODE    0A8FH     00C7H     UNIT         ?PR?MAIN?ADC8032
            CODE    0B56H     008CH     UNIT         ?C_C51STARTUP
            CODE    0BE2H     006DH     UNIT         ?PR?GET_AD_RES?ADC8032
            CODE    0C4FH     0047H     UNIT         ?PR?_TX_MODE?ADC8032
            CODE    0C96H     003AH     UNIT         ?PR?_SPI_WRITE_BUF?ADC8032
            CODE    0CD0H     0031H     UNIT         ?PR?_SPI_READ_BUF?ADC8032
            CODE    0D01H     002EH     UNIT         ?PR?CHECK_ACK?ADC8032
            CODE    0D2FH     0027H     UNIT         ?PR?PUTCHAR?PUTCHAR
            CODE    0D56H     0025H     UNIT         ?PR?RX_MODE?ADC8032
            CODE    0D7BH     0023H     UNIT         ?PR?_DELAYMS?ADC8032
            CODE    0D9EH     0022H     UNIT         ?PR?_SPI_RW?ADC8032
            CODE    0DC0H     001AH     UNIT         ?PR?_SPI_RW_REG?ADC8032
            CODE    0DDAH     0013H     UNIT         ?PR?UARTINIT?ADC8032
            CODE    0DEDH     000FH     UNIT         ?PR?DELAY2US?ADC8032
            CODE    0DFCH     000DH     UNIT         ?PR?_SPI_READ?ADC8032
            CODE    0E09H     000BH     UNIT         ?CO?ADC8032
            CODE    0E14H     0009H     UNIT         ?PR?INIT_IO?ADC8032



OVERLAY MAP OF MODULE:   .\Objects\adc0832 (?C_STARTUP)


SEGMENT                               BIT_GROUP          DATA_GROUP 
  +--> CALLED SEGMENT              START    LENGTH     START    LENGTH
----------------------------------------------------------------------
?C_C51STARTUP                      -----    -----      -----    -----
  +--> ?PR?MAIN?ADC8032
  +--> ?C_INITSEG

?PR?MAIN?ADC8032                   -----    -----      0023H    0004H
  +--> ?PR?UARTINIT?ADC8032
  +--> ?PR?GET_AD_RES?ADC8032
  +--> ?CO?ADC8032
  +--> ?PR?PRINTF?PRINTF
  +--> ?PR?_TX_MODE?ADC8032
  +--> ?PR?CHECK_ACK?ADC8032
  +--> ?PR?_DELAYMS?ADC8032

?PR?GET_AD_RES?ADC8032             -----    -----      -----    -----
  +--> ?PR?DELAY2US?ADC8032

?PR?PRINTF?PRINTF                  0021H.0  0001H.1    0027H    001CH
  +--> ?PR?PUTCHAR?PUTCHAR

?PR?_TX_MODE?ADC8032               -----    -----      0027H    0003H
  +--> ?CO?ADC8032
  +--> ?PR?_SPI_WRITE_BUF?ADC8032
  +--> ?PR?_SPI_RW_REG?ADC8032
  +--> ?PR?_DELAYMS?ADC8032

?PR?_SPI_WRITE_BUF?ADC8032         -----    -----      002AH    0005H
  +--> ?CO?ADC8032
  +--> ?PR?_SPI_RW?ADC8032

?PR?_SPI_RW_REG?ADC8032            -----    -----      -----    -----
  +--> ?PR?_SPI_RW?ADC8032
BL51 BANKED LINKER/LOCATER V6.22.2.0                                                  08/25/2021  00:03:43  PAGE 3



?PR?_DELAYMS?ADC8032               -----    -----      -----    -----
  +--> ?PR?_SPI_RW_REG?ADC8032

?PR?CHECK_ACK?ADC8032              0021H.0  0000H.1    -----    -----
  +--> ?PR?_DELAYMS?ADC8032
  +--> ?PR?_SPI_RW?ADC8032
  +--> ?PR?_SPI_RW_REG?ADC8032



SYMBOL TABLE OF MODULE:  .\Objects\adc0832 (?C_STARTUP)

  VALUE           TYPE          NAME
  ----------------------------------

  -------         MODULE        ?C_STARTUP
  C:0B56H         SEGMENT       ?C_C51STARTUP
  I:0043H         SEGMENT       ?STACK
  C:0000H         PUBLIC        ?C_STARTUP
  D:00E0H         SYMBOL        ACC
  D:00F0H         SYMBOL        B
  D:0083H         SYMBOL        DPH
  D:0082H         SYMBOL        DPL
  N:0000H         SYMBOL        IBPSTACK
  N:0100H         SYMBOL        IBPSTACKTOP
  N:0080H         SYMBOL        IDATALEN
  C:0B59H         SYMBOL        IDATALOOP
  N:0000H         SYMBOL        PBPSTACK
  N:0100H         SYMBOL        PBPSTACKTOP
  N:0000H         SYMBOL        PDATALEN
  N:0000H         SYMBOL        PDATASTART
  N:0000H         SYMBOL        PPAGE
  N:0000H         SYMBOL        PPAGEENABLE
  D:00A0H         SYMBOL        PPAGE_SFR
  D:0081H         SYMBOL        SP
  C:0B56H         SYMBOL        STARTUP1
  N:0000H         SYMBOL        XBPSTACK
  N:0000H         SYMBOL        XBPSTACKTOP
  N:0000H         SYMBOL        XDATALEN
  N:0000H         SYMBOL        XDATASTART
  C:0000H         LINE#         126
  C:0B56H         LINE#         133
  C:0B58H         LINE#         134
  C:0B59H         LINE#         135
  C:0B5AH         LINE#         136
  C:0B5CH         LINE#         185
  C:0B5FH         LINE#         196
  -------         ENDMOD        ?C_STARTUP

  -------         MODULE        ADC8032
  C:0000H         SYMBOL        _ICE_DUMMY_
  C:0007H         PUBLIC        Timer0_INT
  D:0090H         PUBLIC        P1
  D:00A0H         PUBLIC        P2
  D:00B0H         PUBLIC        P3
  B:0090H.0       PUBLIC        CE
BL51 BANKED LINKER/LOCATER V6.22.2.0                                                  08/25/2021  00:03:43  PAGE 4


  D:00A8H         PUBLIC        IE
  C:0D01H         PUBLIC        Check_ACK
  C:0D56H         PUBLIC        RX_Mode
  C:0D84H         PUBLIC        _DelayMS
  C:0C4FH         PUBLIC        _TX_Mode
  B:00A0H.5       PUBLIC        CS
  C:0E0FH         PUBLIC        TX_ADDRESS
  D:00B8H         PUBLIC        IP
  D:0008H         PUBLIC        DATA
  D:0009H         PUBLIC        flag
  B:0098H.1       PUBLIC        TI
  B:0020H.6       PUBLIC        RX_DR
  B:0020H.5       PUBLIC        TX_DS
  C:0A8FH         PUBLIC        main
  C:0DF9H         PUBLIC        delay2us
  C:0BE2H         PUBLIC        get_AD_Res
  D:0098H         PUBLIC        SCON
  D:0089H         PUBLIC        TMOD
  D:0088H         PUBLIC        TCON
  B:0090H.4       PUBLIC        MOSI
  B:0090H.2       PUBLIC        MISO
  D:0020H         PUBLIC        sta
  C:0CD0H         PUBLIC        _SPI_Read_Buf
  C:0DFCH         PUBLIC        _SPI_Read
  D:008DH         PUBLIC        TH1
  D:008BH         PUBLIC        TL1
  C:0DDAH         PUBLIC        uartInit
  B:0088H.6       PUBLIC        TR1
  C:0CA1H         PUBLIC        _SPI_Write_Buf
  B:00A0H.6       PUBLIC        CLK
  B:00A0H.7       PUBLIC        DIO
  B:0090H.1       PUBLIC        SCK
  B:0090H.3       PUBLIC        CSN
  B:0098H.4       PUBLIC        REN
  D:00C8H         PUBLIC        T2CON
  D:000AH         PUBLIC        RX_BUF
  D:000FH         PUBLIC        TX_BUF
  B:0090H.5       PUBLIC        IRQ
  B:0020H.4       PUBLIC        MAX_RT
  C:0E14H         PUBLIC        init_io
  C:0DC9H         PUBLIC        _SPI_RW_Reg
  C:0D9EH         PUBLIC        _SPI_RW
  D:00D0H         PUBLIC        PSW
  -------         PROC          L?0057
  -------         ENDPROC       L?0057
  -------         PROC          DELAY2US
  C:0DF9H         LINE#         45
  C:0DF9H         LINE#         46
  C:0DF9H         LINE#         47
  C:0DFAH         LINE#         48
  C:0DFBH         LINE#         49
  -------         ENDPROC       DELAY2US
  -------         PROC          L?0060
  -------         ENDPROC       L?0060
  -------         PROC          _DELAYMS
  D:0006H         SYMBOL        ms
  -------         DO            
BL51 BANKED LINKER/LOCATER V6.22.2.0                                                  08/25/2021  00:03:43  PAGE 5


  D:0005H         SYMBOL        i
  -------         ENDDO         
  C:0D84H         LINE#         55
  C:0D84H         LINE#         56
  C:0D84H         LINE#         58
  C:0D8EH         LINE#         59
  C:0D9DH         LINE#         61
  -------         ENDPROC       _DELAYMS
  -------         PROC          INIT_IO
  C:0E14H         LINE#         108
  C:0E14H         LINE#         109
  C:0E14H         LINE#         110
  C:0E16H         LINE#         111
  C:0E18H         LINE#         112
  C:0E1AH         LINE#         113
  C:0E1CH         LINE#         115
  -------         ENDPROC       INIT_IO
  -------         PROC          _SPI_RW
  D:0007H         SYMBOL        byte
  -------         DO            
  D:0006H         SYMBOL        i
  -------         ENDDO         
  C:0D9EH         LINE#         124
  C:0D9EH         LINE#         125
  C:0D9EH         LINE#         127
  C:0DAAH         LINE#         128
  C:0DAAH         LINE#         129
  C:0DAEH         LINE#         130
  C:0DB2H         LINE#         131
  C:0DB4H         LINE#         132
  C:0DBAH         LINE#         133
  C:0DBCH         LINE#         134
  C:0DBFH         LINE#         135
  C:0DBFH         LINE#         136
  -------         ENDPROC       _SPI_RW
  -------         PROC          L?0059
  -------         ENDPROC       L?0059
  -------         PROC          _SPI_RW_REG
  D:0007H         SYMBOL        reg
  D:0005H         SYMBOL        value
  -------         DO            
  D:0004H         SYMBOL        status
  -------         ENDDO         
  C:0DC9H         LINE#         144
  C:0DC9H         LINE#         145
  C:0DC9H         LINE#         147
  C:0DCBH         LINE#         148
  C:0DD0H         LINE#         149
  C:0DD5H         LINE#         150
  C:0DD7H         LINE#         151
  C:0DD9H         LINE#         152
  -------         ENDPROC       _SPI_RW_REG
  -------         PROC          _SPI_READ
  D:0007H         SYMBOL        reg
  -------         DO            
  D:0007H         SYMBOL        reg_val
  -------         ENDDO         
BL51 BANKED LINKER/LOCATER V6.22.2.0                                                  08/25/2021  00:03:43  PAGE 6


  C:0DFCH         LINE#         160
  C:0DFCH         LINE#         161
  C:0DFCH         LINE#         163
  C:0DFEH         LINE#         164
  C:0E01H         LINE#         165
  C:0E06H         LINE#         166
  C:0E08H         LINE#         167
  C:0E08H         LINE#         168
  -------         ENDPROC       _SPI_READ
  -------         PROC          _SPI_READ_BUF
  D:0007H         SYMBOL        reg
  D:0015H         SYMBOL        pBuf
  D:0018H         SYMBOL        bytes
  -------         DO            
  D:0005H         SYMBOL        status
  D:0004H         SYMBOL        i
  -------         ENDDO         
  C:0CD0H         LINE#         177
  C:0CD6H         LINE#         178
  C:0CD6H         LINE#         180
  C:0CD8H         LINE#         181
  C:0CDDH         LINE#         182
  C:0CE5H         LINE#         183
  C:0CFCH         LINE#         184
  C:0CFEH         LINE#         185
  C:0D00H         LINE#         186
  -------         ENDPROC       _SPI_READ_BUF
  -------         PROC          L?0058
  -------         ENDPROC       L?0058
  -------         PROC          _SPI_WRITE_BUF
  D:0007H         SYMBOL        reg
  D:002BH         SYMBOL        pBuf
  D:002EH         SYMBOL        bytes
  -------         DO            
  D:0005H         SYMBOL        status
  D:0004H         SYMBOL        i
  -------         ENDDO         
  C:0CA1H         LINE#         195
  C:0CA7H         LINE#         196
  C:0CA7H         LINE#         198
  C:0CA9H         LINE#         199
  C:0CAEH         LINE#         200
  C:0CB6H         LINE#         201
  C:0CCBH         LINE#         202
  C:0CCDH         LINE#         203
  C:0CCFH         LINE#         204
  -------         ENDPROC       _SPI_WRITE_BUF
  -------         PROC          RX_MODE
  C:0D56H         LINE#         212
  C:0D56H         LINE#         213
  C:0D56H         LINE#         214
  C:0D58H         LINE#         215
  C:0D5BH         LINE#         216
  C:0D5BH         LINE#         217
  C:0D5EH         LINE#         218
  C:0D65H         LINE#         219
  C:0D6CH         LINE#         220
BL51 BANKED LINKER/LOCATER V6.22.2.0                                                  08/25/2021  00:03:43  PAGE 7


  C:0D73H         LINE#         221
  C:0D75H         LINE#         222
  C:0D78H         LINE#         223
  C:0D7AH         LINE#         224
  -------         ENDPROC       RX_MODE
  -------         PROC          _TX_MODE
  D:0027H         SYMBOL        BUF
  C:0C4FH         LINE#         234
  C:0C55H         LINE#         235
  C:0C55H         LINE#         236
  C:0C57H         LINE#         237
  C:0C65H         LINE#         238
  C:0C68H         LINE#         239
  C:0C76H         LINE#         240
  C:0C76H         LINE#         241
  C:0C79H         LINE#         242
  C:0C80H         LINE#         243
  C:0C87H         LINE#         244
  C:0C8EH         LINE#         245
  C:0C90H         LINE#         246
  C:0C93H         LINE#         247
  C:0C95H         LINE#         248
  -------         ENDPROC       _TX_MODE
  -------         PROC          CHECK_ACK
  B:0021H.0       SYMBOL        clear
  C:0D01H         LINE#         257
  C:0D01H         LINE#         258
  C:0D01H         LINE#         259
  C:0D08H         LINE#         260
  C:0D0BH         LINE#         262
  C:0D12H         LINE#         263
  C:0D12H         LINE#         264
  C:0D12H         LINE#         267
  C:0D12H         LINE#         269
  C:0D15H         LINE#         270
  C:0D18H         LINE#         271
  C:0D1DH         LINE#         272
  C:0D24H         LINE#         273
  C:0D26H         LINE#         274
  C:0D29H         LINE#         275
  C:0D2CH         LINE#         277
  C:0D2EH         LINE#         278
  -------         ENDPROC       CHECK_ACK
  -------         PROC          GET_AD_RES
  -------         DO            
  D:0005H         SYMBOL        i
  D:0007H         SYMBOL        data1
  D:0006H         SYMBOL        data2
  -------         ENDDO         
  C:0BE2H         LINE#         284
  C:0BE2H         LINE#         285
  C:0BE2H         LINE#         286
  C:0BE5H         LINE#         287
  C:0BE7H         LINE#         289
  C:0BE9H         LINE#         290
  C:0BEBH         LINE#         291
  C:0BEBH         LINE#         292
BL51 BANKED LINKER/LOCATER V6.22.2.0                                                  08/25/2021  00:03:43  PAGE 8


  C:0BEBH         LINE#         293
  C:0BEBH         LINE#         296
  C:0BEBH         LINE#         297
  C:0BEBH         LINE#         298
  C:0BEEH         LINE#         299
  C:0BF0H         LINE#         300
  C:0BF3H         LINE#         303
  C:0BF5H         LINE#         304
  C:0BF7H         LINE#         305
  C:0BF7H         LINE#         306
  C:0BF7H         LINE#         307
  C:0BF7H         LINE#         310
  C:0BF7H         LINE#         311
  C:0BF7H         LINE#         312
  C:0BFAH         LINE#         315
  C:0C05H         LINE#         316
  C:0C05H         LINE#         317
  C:0C07H         LINE#         318
  C:0C0AH         LINE#         319
  C:0C0CH         LINE#         320
  C:0C0FH         LINE#         326
  C:0C19H         LINE#         327
  C:0C1CH         LINE#         330
  C:0C28H         LINE#         331
  C:0C28H         LINE#         337
  C:0C38H         LINE#         338
  C:0C3AH         LINE#         339
  C:0C3DH         LINE#         340
  C:0C3FH         LINE#         341
  C:0C42H         LINE#         342
  C:0C45H         LINE#         345
  C:0C47H         LINE#         347
  C:0C4EH         LINE#         348
  -------         ENDPROC       GET_AD_RES
  -------         PROC          UARTINIT
  C:0DDAH         LINE#         355
  C:0DDAH         LINE#         356
  C:0DDAH         LINE#         357
  C:0DDDH         LINE#         358
  C:0DDFH         LINE#         359
  C:0DE2H         LINE#         360
  C:0DE8H         LINE#         361
  C:0DEAH         LINE#         362
  C:0DECH         LINE#         363
  -------         ENDPROC       UARTINIT
  -------         PROC          MAIN
  -------         DO            
  D:0023H         SYMBOL        i
  D:0024H         SYMBOL        AD
  D:0025H         SYMBOL        d
  D:0006H         SYMBOL        j
  -------         ENDDO         
  C:0A8FH         LINE#         364
  C:0A8FH         LINE#         365
  C:0A8FH         LINE#         366
  C:0A94H         LINE#         367
  C:0A98H         LINE#         369
BL51 BANKED LINKER/LOCATER V6.22.2.0                                                  08/25/2021  00:03:43  PAGE 9


  C:0A99H         LINE#         370
  C:0AA7H         LINE#         371
  C:0AAAH         LINE#         372
  C:0AAAH         LINE#         373
  C:0AAAH         LINE#         374
  C:0AAFH         LINE#         375
  C:0AD1H         LINE#         376
  C:0ADAH         LINE#         377
  C:0AEEH         LINE#         378
  C:0B02H         LINE#         379
  C:0B0FH         LINE#         380
  C:0B12H         LINE#         381
  C:0B20H         LINE#         382
  C:0B35H         LINE#         383
  C:0B3EH         LINE#         384
  C:0B47H         LINE#         385
  C:0B4CH         LINE#         386
  C:0B53H         LINE#         387
  -------         ENDPROC       MAIN
  -------         PROC          TIMER0_INT
  C:0007H         LINE#         392
  C:0007H         LINE#         394
  C:0009H         LINE#         395
  -------         ENDPROC       TIMER0_INT
  -------         ENDMOD        ADC8032

  -------         MODULE        ?C?FPMUL
  C:000EH         PUBLIC        ?C?FPMUL
  -------         ENDMOD        ?C?FPMUL

  -------         MODULE        ?C?FPDIV
  C:0117H         PUBLIC        ?C?FPDIV
  -------         ENDMOD        ?C?FPDIV

  -------         MODULE        ?C?FCAST
  C:01BEH         PUBLIC        ?C?FCASTC
  C:01B9H         PUBLIC        ?C?FCASTI
  C:01B4H         PUBLIC        ?C?FCASTL
  -------         ENDMOD        ?C?FCAST

  -------         MODULE        ?C?CASTF
  C:01F2H         PUBLIC        ?C?CASTF
  -------         ENDMOD        ?C?CASTF

  -------         MODULE        PRINTF
  D:0027H         PUBLIC        ?_PRINTF?BYTE
  D:0027H         PUBLIC        ?_SPRINTF?BYTE
  C:0682H         PUBLIC        _PRINTF
  C:067CH         PUBLIC        _SPRINTF
  -------         ENDMOD        PRINTF

  -------         MODULE        ?C?FPROUND
  C:0273H         PUBLIC        ?C?FPROUND
  -------         ENDMOD        ?C?FPROUND

  -------         MODULE        ?C?FPCONVERT
  C:02A2H         PUBLIC        ?C?FPCONVERT
BL51 BANKED LINKER/LOCATER V6.22.2.0                                                  08/25/2021  00:03:43  PAGE 10


  -------         ENDMOD        ?C?FPCONVERT

  -------         MODULE        ?C?FPADD
  C:03ACH         PUBLIC        ?C?FPADD
  C:03A8H         PUBLIC        ?C?FPSUB
  -------         ENDMOD        ?C?FPADD

  -------         MODULE        ?C?FTNPWR
  C:04CDH         PUBLIC        ?C?FTNPWR
  -------         ENDMOD        ?C?FTNPWR

  -------         MODULE        ?C?CLDPTR
  C:050DH         PUBLIC        ?C?CLDPTR
  -------         ENDMOD        ?C?CLDPTR

  -------         MODULE        ?C?CLDOPTR
  C:0526H         PUBLIC        ?C?CLDOPTR
  -------         ENDMOD        ?C?CLDOPTR

  -------         MODULE        ?C?CSTPTR
  C:0553H         PUBLIC        ?C?CSTPTR
  -------         ENDMOD        ?C?CSTPTR

  -------         MODULE        ?C?CSTOPTR
  C:0565H         PUBLIC        ?C?CSTOPTR
  -------         ENDMOD        ?C?CSTOPTR

  -------         MODULE        ?C?UIDIV
  C:0587H         PUBLIC        ?C?UIDIV
  -------         ENDMOD        ?C?UIDIV

  -------         MODULE        ?C?LNEG
  C:05DCH         PUBLIC        ?C?LNEG
  -------         ENDMOD        ?C?LNEG

  -------         MODULE        ?C?PLDIIDATA
  C:05EAH         PUBLIC        ?C?PLDIIDATA
  -------         ENDMOD        ?C?PLDIIDATA

  -------         MODULE        ?C?CCASE
  C:05FAH         PUBLIC        ?C?CCASE
  -------         ENDMOD        ?C?CCASE

  -------         MODULE        PUTCHAR
  C:0D2FH         PUBLIC        _PUTCHAR
  -------         ENDMOD        PUTCHAR

*** WARNING L16: UNCALLED SEGMENT, IGNORED FOR OVERLAY PROCESS
    SEGMENT: ?PR?INIT_IO?ADC8032

*** WARNING L16: UNCALLED SEGMENT, IGNORED FOR OVERLAY PROCESS
    SEGMENT: ?PR?_SPI_READ?ADC8032

*** WARNING L16: UNCALLED SEGMENT, IGNORED FOR OVERLAY PROCESS
    SEGMENT: ?PR?_SPI_READ_BUF?ADC8032

*** WARNING L16: UNCALLED SEGMENT, IGNORED FOR OVERLAY PROCESS
BL51 BANKED LINKER/LOCATER V6.22.2.0                                                  08/25/2021  00:03:43  PAGE 11


    SEGMENT: ?PR?RX_MODE?ADC8032

Program Size: data=60.1 xdata=0 code=3612
LINK/LOCATE RUN COMPLETE.  4 WARNING(S),  0 ERROR(S)
