BL51 BANKED LINKER/LOCATER V6.22.2.0                                                    08/19/2021  01:37:01  PAGE 1


BL51 BANKED LINKER/LOCATER V6.22.2.0, INVOKED BY:
D:\KEIL_V5\C51\BIN\BL51.EXE .\Objects\STARTUP.obj, .\Objects\adc0809.obj TO .\Objects\adc0809 PRINT (.\Listings\adc0809.
>> m51) RAMSIZE (256)


MEMORY MODEL: SMALL WITH FLOATING POINT ARITHMETIC


INPUT MODULES INCLUDED:
  .\Objects\STARTUP.obj (?C_STARTUP)
  .\Objects\adc0809.obj (ADC0809)
  D:\KEIL_V5\C51\LIB\C51FPS.LIB (?C?FPMUL)
  D:\KEIL_V5\C51\LIB\C51FPS.LIB (?C?FPDIV)
  D:\KEIL_V5\C51\LIB\C51FPS.LIB (?C?FCAST)
  D:\KEIL_V5\C51\LIB\C51FPS.LIB (?C?CASTF)
  D:\KEIL_V5\C51\LIB\C51FPS.LIB (?C?FPGETOPN)
  D:\KEIL_V5\C51\LIB\C51S.LIB (?C?CLDOPTR)
  D:\KEIL_V5\C51\LIB\C51S.LIB (?C?UIDIV)
  D:\KEIL_V5\C51\LIB\C51S.LIB (?C?SIDIV)
  D:\KEIL_V5\C51\LIB\C51S.LIB (?C?LNEG)


LINK MAP OF MODULE:  .\Objects\adc0809 (?C_STARTUP)


            TYPE    BASE      LENGTH    RELOCATION   SEGMENT NAME
            -----------------------------------------------------

            * * * * * * *   D A T A   M E M O R Y   * * * * * * *
            REG     0000H     0008H     ABSOLUTE     "REG BANK 0"
            DATA    0008H     000AH     UNIT         _DATA_GROUP_
            DATA    0012H     0005H     UNIT         ?DT?_NUM2CHAR?ADC0809
            IDATA   0017H     0001H     UNIT         ?STACK

            * * * * * * *   C O D E   M E M O R Y   * * * * * * *
            CODE    0000H     0003H     ABSOLUTE     
            CODE    0003H     0003H     UNIT         ?PR?TIMER0_INT?ADC0809
                    0006H     0005H                  *** GAP ***
            CODE    000BH     0003H     ABSOLUTE     
            CODE    000EH     0013H     UNIT         ?PR?UARTINIT?ADC0809
                    0021H     0002H                  *** GAP ***
            CODE    0023H     0003H     ABSOLUTE     
            CODE    0026H     032BH     UNIT         ?C?LIB_CODE
            CODE    0351H     00A7H     UNIT         ?PR?_DISPLAY_RESULT?ADC0809
            CODE    03F8H     003CH     UNIT         ?PR?_NUM2CHAR?ADC0809
            CODE    0434H     003CH     UNIT         ?PR?_DELAYMS?ADC0809
            CODE    0470H     0032H     UNIT         ?PR?_SENDSTR?ADC0809
            CODE    04A2H     002CH     UNIT         ?PR?MAIN?ADC0809
            CODE    04CEH     0019H     UNIT         ?PR?UART?ADC0809
            CODE    04E7H     0010H     UNIT         ?PR?ADCINIT?ADC0809
            CODE    04F7H     000CH     UNIT         ?C_C51STARTUP
            CODE    0503H     000AH     UNIT         ?CO?ADC0809



OVERLAY MAP OF MODULE:   .\Objects\adc0809 (?C_STARTUP)


BL51 BANKED LINKER/LOCATER V6.22.2.0                                                  08/19/2021  01:37:01  PAGE 2


SEGMENT                               DATA_GROUP 
  +--> CALLED SEGMENT               START    LENGTH
---------------------------------------------------
?C_C51STARTUP                       -----    -----
  +--> ?PR?MAIN?ADC0809

?PR?MAIN?ADC0809                    0008H    0004H
  +--> ?PR?ADCINIT?ADC0809
  +--> ?PR?UARTINIT?ADC0809
  +--> ?PR?_DISPLAY_RESULT?ADC0809
  +--> ?PR?_SENDSTR?ADC0809
  +--> ?PR?_DELAYMS?ADC0809

?PR?_DISPLAY_RESULT?ADC0809         000CH    0006H
  +--> ?PR?_DELAYMS?ADC0809
  +--> ?CO?ADC0809

?PR?_DELAYMS?ADC0809                -----    -----
  +--> ?CO?ADC0809

?PR?_SENDSTR?ADC0809                000CH    0005H
  +--> ?PR?_DELAYMS?ADC0809



SYMBOL TABLE OF MODULE:  .\Objects\adc0809 (?C_STARTUP)

  VALUE           TYPE          NAME
  ----------------------------------

  -------         MODULE        ?C_STARTUP
  C:04F7H         SEGMENT       ?C_C51STARTUP
  I:0017H         SEGMENT       ?STACK
  C:0000H         PUBLIC        ?C_STARTUP
  D:00E0H         SYMBOL        ACC
  D:00F0H         SYMBOL        B
  D:0083H         SYMBOL        DPH
  D:0082H         SYMBOL        DPL
  N:0000H         SYMBOL        IBPSTACK
  N:0100H         SYMBOL        IBPSTACKTOP
  N:0080H         SYMBOL        IDATALEN
  C:04FAH         SYMBOL        IDATALOOP
  N:0000H         SYMBOL        PBPSTACK
  N:0100H         SYMBOL        PBPSTACKTOP
  N:0000H         SYMBOL        PDATALEN
  N:0000H         SYMBOL        PDATASTART
  N:0000H         SYMBOL        PPAGE
  N:0000H         SYMBOL        PPAGEENABLE
  D:00A0H         SYMBOL        PPAGE_SFR
  D:0081H         SYMBOL        SP
  C:04F7H         SYMBOL        STARTUP1
  N:0000H         SYMBOL        XBPSTACK
  N:0000H         SYMBOL        XBPSTACKTOP
  N:0000H         SYMBOL        XDATALEN
  N:0000H         SYMBOL        XDATASTART
  C:0000H         LINE#         126
  C:04F7H         LINE#         133
BL51 BANKED LINKER/LOCATER V6.22.2.0                                                  08/19/2021  01:37:01  PAGE 3


  C:04F9H         LINE#         134
  C:04FAH         LINE#         135
  C:04FBH         LINE#         136
  C:04FDH         LINE#         185
  C:0500H         LINE#         196
  -------         ENDMOD        ?C_STARTUP

  -------         MODULE        ADC0809
  C:0000H         SYMBOL        _ICE_DUMMY_
  D:0080H         PUBLIC        P0
  C:0003H         PUBLIC        Timer0_INT
  D:0090H         PUBLIC        P1
  D:00A0H         PUBLIC        P2
  D:00B0H         PUBLIC        P3
  B:00A8H.7       PUBLIC        EA
  D:00A8H         PUBLIC        IE
  C:0456H         PUBLIC        _DelayMS
  B:0090H.0       PUBLIC        OE
  B:00A8H.4       PUBLIC        ES
  D:00B8H         PUBLIC        IP
  B:0098H.0       PUBLIC        RI
  B:0098H.1       PUBLIC        TI
  C:03F8H         PUBLIC        _num2char
  C:04A2H         PUBLIC        main
  B:0090H.2       PUBLIC        ST
  D:0099H         PUBLIC        SBUF
  D:0098H         PUBLIC        SCON
  D:0089H         PUBLIC        TMOD
  D:0088H         PUBLIC        TCON
  C:04CEH         PUBLIC        uart
  C:0351H         PUBLIC        _Display_Result
  C:04E7H         PUBLIC        adcInit
  B:00A8H.1       PUBLIC        ET0
  D:008CH         PUBLIC        TH0
  D:008DH         PUBLIC        TH1
  D:008AH         PUBLIC        TL0
  D:008BH         PUBLIC        TL1
  C:0503H         PUBLIC        LEDData
  C:000EH         PUBLIC        uartInit
  B:0088H.4       PUBLIC        TR0
  B:0090H.1       PUBLIC        EOC
  B:0088H.6       PUBLIC        TR1
  B:0090H.3       PUBLIC        CLK
  C:0470H         PUBLIC        _sendStr
  D:00C8H         PUBLIC        T2CON
  D:00D0H         PUBLIC        PSW
  -------         PROC          _NUM2CHAR
  D:0012H         SYMBOL        num
  -------         DO            
  D:0002H         SYMBOL        i
  D:0014H         SYMBOL        temp
  -------         ENDDO         
  C:03F8H         LINE#         10
  C:03FCH         LINE#         11
  C:03FCH         LINE#         14
  C:0400H         LINE#         16
  C:0400H         LINE#         17
BL51 BANKED LINKER/LOCATER V6.22.2.0                                                  08/19/2021  01:37:01  PAGE 4


  C:0415H         LINE#         18
  C:0424H         LINE#         19
  C:0429H         LINE#         20
  C:0431H         LINE#         21
  C:0433H         LINE#         22
  -------         ENDPROC       _NUM2CHAR
  C:043DH         SYMBOL        L?0030
  C:0450H         SYMBOL        L?0031
  -------         PROC          L?0029
  -------         ENDPROC       L?0029
  C:043DH         SYMBOL        L?0030
  C:0450H         SYMBOL        L?0031
  -------         PROC          _DELAYMS
  D:0006H         SYMBOL        ms
  -------         DO            
  D:0005H         SYMBOL        i
  -------         ENDDO         
  C:0456H         LINE#         23
  C:0456H         LINE#         24
  C:0456H         LINE#         26
  C:0460H         LINE#         27
  C:046FH         LINE#         29
  -------         ENDPROC       _DELAYMS
  -------         PROC          _SENDSTR
  D:000CH         SYMBOL        s
  -------         DO            
  D:000FH         SYMBOL        i
  -------         ENDDO         
  C:0470H         LINE#         30
  C:0476H         LINE#         31
  C:0476H         LINE#         32
  C:047BH         LINE#         33
  C:048CH         LINE#         34
  C:048CH         LINE#         35
  C:0490H         LINE#         36
  C:0498H         LINE#         37
  C:049FH         LINE#         38
  C:04A1H         LINE#         39
  -------         ENDPROC       _SENDSTR
  -------         PROC          _DISPLAY_RESULT
  D:0007H         SYMBOL        m
  -------         DO            
  D:000CH         SYMBOL        ch
  D:0010H         SYMBOL        d
  D:0004H         SYMBOL        k
  -------         ENDDO         
  C:0351H         LINE#         40
  C:0351H         LINE#         41
  C:0351H         LINE#         43
  C:0356H         LINE#         45
  C:035EH         LINE#         46
  C:0373H         LINE#         47
  C:037AH         LINE#         49
  C:037DH         LINE#         50
  C:0381H         LINE#         51
  C:0384H         LINE#         52
  C:0387H         LINE#         53
BL51 BANKED LINKER/LOCATER V6.22.2.0                                                  08/19/2021  01:37:01  PAGE 5


  C:0389H         LINE#         54
  C:038CH         LINE#         55
  C:038FH         LINE#         56
  C:0391H         LINE#         57
  C:0394H         LINE#         58
  C:0397H         LINE#         59
  C:03B0H         LINE#         60
  C:03B3H         LINE#         61
  C:03C0H         LINE#         62
  C:03D4H         LINE#         63
  C:03E8H         LINE#         64
  C:03F5H         LINE#         65
  C:03F7H         LINE#         66
  -------         ENDPROC       _DISPLAY_RESULT
  -------         PROC          ADCINIT
  C:04E7H         LINE#         67
  C:04E7H         LINE#         68
  C:04E7H         LINE#         69
  C:04EAH         LINE#         70
  C:04EDH         LINE#         71
  C:04F0H         LINE#         74
  C:04F2H         LINE#         75
  C:04F4H         LINE#         76
  C:04F6H         LINE#         77
  -------         ENDPROC       ADCINIT
  -------         PROC          UARTINIT
  C:000EH         LINE#         78
  C:000EH         LINE#         79
  C:000EH         LINE#         80
  C:0011H         LINE#         81
  C:0014H         LINE#         82
  C:0017H         LINE#         83
  C:001AH         LINE#         84
  C:001CH         LINE#         85
  C:001EH         LINE#         86
  C:0020H         LINE#         87
  -------         ENDPROC       UARTINIT
  -------         PROC          MAIN
  -------         DO            
  D:0008H         SYMBOL        d
  -------         ENDDO         
  C:04A2H         LINE#         88
  C:04A2H         LINE#         89
  C:04A2H         LINE#         91
  C:04A5H         LINE#         92
  C:04A8H         LINE#         93
  C:04A8H         LINE#         94
  C:04A8H         LINE#         95
  C:04AAH         LINE#         96
  C:04ACH         LINE#         97
  C:04AEH         LINE#         98
  C:04B1H         LINE#         100
  C:04B3H         LINE#         101
  C:04BAH         LINE#         102
  C:04C3H         LINE#         103
  C:04CAH         LINE#         104
  C:04CCH         LINE#         105
BL51 BANKED LINKER/LOCATER V6.22.2.0                                                  08/19/2021  01:37:01  PAGE 6


  -------         ENDPROC       MAIN
  -------         PROC          TIMER0_INT
  C:0003H         LINE#         107
  C:0003H         LINE#         109
  C:0005H         LINE#         110
  -------         ENDPROC       TIMER0_INT
  -------         PROC          UART
  -------         DO            
  D:0007H         SYMBOL        temp
  -------         ENDDO         
  C:04CEH         LINE#         111
  C:04D5H         LINE#         114
  C:04D8H         LINE#         115
  C:04D8H         LINE#         116
  C:04DAH         LINE#         117
  C:04DCH         LINE#         118
  C:04DEH         LINE#         119
  C:04E0H         LINE#         121
  C:04E0H         LINE#         122
  C:04E2H         LINE#         123
  C:04E2H         LINE#         124
  -------         ENDPROC       UART
  -------         ENDMOD        ADC0809

  -------         MODULE        ?C?FPMUL
  C:0026H         PUBLIC        ?C?FPMUL
  -------         ENDMOD        ?C?FPMUL

  -------         MODULE        ?C?FPDIV
  C:012FH         PUBLIC        ?C?FPDIV
  -------         ENDMOD        ?C?FPDIV

  -------         MODULE        ?C?FCAST
  C:01D6H         PUBLIC        ?C?FCASTC
  C:01D1H         PUBLIC        ?C?FCASTI
  C:01CCH         PUBLIC        ?C?FCASTL
  -------         ENDMOD        ?C?FCAST

  -------         MODULE        ?C?CASTF
  C:020AH         PUBLIC        ?C?CASTF
  -------         ENDMOD        ?C?CASTF

  -------         MODULE        ?C?CLDOPTR
  C:028BH         PUBLIC        ?C?CLDOPTR
  -------         ENDMOD        ?C?CLDOPTR

  -------         MODULE        ?C?UIDIV
  C:02B8H         PUBLIC        ?C?UIDIV
  -------         ENDMOD        ?C?UIDIV

  -------         MODULE        ?C?SIDIV
  C:030DH         PUBLIC        ?C?SIDIV
  -------         ENDMOD        ?C?SIDIV

  -------         MODULE        ?C?LNEG
  C:0343H         PUBLIC        ?C?LNEG
  -------         ENDMOD        ?C?LNEG
BL51 BANKED LINKER/LOCATER V6.22.2.0                                                  08/19/2021  01:37:01  PAGE 7



*** WARNING L16: UNCALLED SEGMENT, IGNORED FOR OVERLAY PROCESS
    SEGMENT: ?PR?_NUM2CHAR?ADC0809

Program Size: data=24.0 xdata=0 code=1286
LINK/LOCATE RUN COMPLETE.  1 WARNING(S),  0 ERROR(S)
