BL51 BANKED LINKER/LOCATER V6.22.2.0                                                    09/21/2021  21:25:33  PAGE 1


BL51 BANKED LINKER/LOCATER V6.22.2.0, INVOKED BY:
D:\KEIL_V5\C51\BIN\BL51.EXE .\Objects\STARTUP.obj, .\Objects\eeprom.obj TO .\Objects\eeprom PRINT (.\Listings\eeprom.m51
>> ) RAMSIZE (256)


MEMORY MODEL: LARGE


INPUT MODULES INCLUDED:
  .\Objects\STARTUP.obj (?C_STARTUP)
  .\Objects\eeprom.obj (EEPROM)
  D:\KEIL_V5\C51\LIB\C51L.LIB (?C_INIT)
  D:\KEIL_V5\C51\LIB\C51L.LIB (?C?CLDOPTR)
  D:\KEIL_V5\C51\LIB\C51L.LIB (?C?ILDIX)


LINK MAP OF MODULE:  .\Objects\eeprom (?C_STARTUP)


            TYPE    BASE      LENGTH    RELOCATION   SEGMENT NAME
            -----------------------------------------------------

            * * * * * * *   D A T A   M E M O R Y   * * * * * * *
            REG     0000H     0008H     ABSOLUTE     "REG BANK 0"
            IDATA   0008H     0001H     UNIT         ?STACK

            * * * * * * *  X D A T A   M E M O R Y  * * * * * * *
            XDATA   0000H     0021H     UNIT         _XDATA_GROUP_
            XDATA   0021H     0005H     UNIT         ?XD?_IAPWRITESTR?EEPROM
            XDATA   0026H     0001H     UNIT         ?XD?EEPROM

            * * * * * * *   C O D E   M E M O R Y   * * * * * * *
            CODE    0000H     0003H     ABSOLUTE     
            CODE    0003H     001CH     UNIT         ?PR?UARTINTERRUPT?EEPROM
                    001FH     0004H                  *** GAP ***
            CODE    0023H     0003H     ABSOLUTE     
            CODE    0026H     008CH     UNIT         ?C_C51STARTUP
            CODE    00B2H     0052H     UNIT         ?PR?_IAPWRITESTR?EEPROM
            CODE    0104H     0043H     UNIT         ?PR?MAIN?EEPROM
            CODE    0147H     0043H     UNIT         ?C?LIB_CODE
            CODE    018AH     0024H     UNIT         ?PR?CHECKFF?EEPROM
            CODE    01AEH     0019H     UNIT         ?PR?_IAPWRITEBYTE?EEPROM
            CODE    01C7H     0018H     UNIT         ?CO?EEPROM
            CODE    01DFH     0017H     UNIT         ?PR?_IAPREADBYTE?EEPROM
            CODE    01F6H     0015H     UNIT         ?PR?_IAPERASESECTOR?EEPROM
            CODE    020BH     0014H     UNIT         ?PR?UART_INIT?EEPROM
            CODE    021FH     0013H     UNIT         ?PR?_DELAYMS?EEPROM
            CODE    0232H     000BH     UNIT         ?PR?_UARTSENDBYTE?EEPROM
            CODE    023DH     0008H     UNIT         ?PR?IAPIDLE?EEPROM
            CODE    0245H     0005H     UNIT         ?C_INITSEG



OVERLAY MAP OF MODULE:   .\Objects\eeprom (?C_STARTUP)


SEGMENT                              XDATA_GROUP
  +--> CALLED SEGMENT              START    LENGTH
BL51 BANKED LINKER/LOCATER V6.22.2.0                                                  09/21/2021  21:25:33  PAGE 2


--------------------------------------------------
?C_C51STARTUP                      -----    -----
  +--> ?PR?MAIN?EEPROM
  +--> ?C_INITSEG

?PR?MAIN?EEPROM                    0000H    0021H
  +--> ?PR?UART_INIT?EEPROM
  +--> ?PR?_IAPREADBYTE?EEPROM
  +--> ?PR?_UARTSENDBYTE?EEPROM

?PR?_IAPREADBYTE?EEPROM            -----    -----
  +--> ?PR?IAPIDLE?EEPROM



SYMBOL TABLE OF MODULE:  .\Objects\eeprom (?C_STARTUP)

  VALUE           TYPE          NAME
  ----------------------------------

  -------         MODULE        ?C_STARTUP
  C:0026H         SEGMENT       ?C_C51STARTUP
  I:0008H         SEGMENT       ?STACK
  C:0000H         PUBLIC        ?C_STARTUP
  D:00E0H         SYMBOL        ACC
  D:00F0H         SYMBOL        B
  D:0083H         SYMBOL        DPH
  D:0082H         SYMBOL        DPL
  N:0000H         SYMBOL        IBPSTACK
  N:0100H         SYMBOL        IBPSTACKTOP
  N:0080H         SYMBOL        IDATALEN
  C:0029H         SYMBOL        IDATALOOP
  N:0000H         SYMBOL        PBPSTACK
  N:0100H         SYMBOL        PBPSTACKTOP
  N:0000H         SYMBOL        PDATALEN
  N:0000H         SYMBOL        PDATASTART
  N:0000H         SYMBOL        PPAGE
  N:0000H         SYMBOL        PPAGEENABLE
  D:00A0H         SYMBOL        PPAGE_SFR
  D:0081H         SYMBOL        SP
  C:0026H         SYMBOL        STARTUP1
  N:0000H         SYMBOL        XBPSTACK
  N:0000H         SYMBOL        XBPSTACKTOP
  N:0000H         SYMBOL        XDATALEN
  N:0000H         SYMBOL        XDATASTART
  C:0000H         LINE#         126
  C:0026H         LINE#         133
  C:0028H         LINE#         134
  C:0029H         LINE#         135
  C:002AH         LINE#         136
  C:002CH         LINE#         185
  C:002FH         LINE#         196
  -------         ENDMOD        ?C_STARTUP

  -------         MODULE        EEPROM
  C:0000H         SYMBOL        _ICE_DUMMY_
  D:0090H         PUBLIC        P1
BL51 BANKED LINKER/LOCATER V6.22.2.0                                                  09/21/2021  21:25:33  PAGE 3


  D:00A0H         PUBLIC        P2
  D:00B0H         PUBLIC        P3
  C:01F6H         PUBLIC        _IapEraseSector
  B:00A8H.7       PUBLIC        EA
  C:01C7H         PUBLIC        table
  D:00A8H         PUBLIC        IE
  D:00E5H         PUBLIC        IAP_CMD
  C:0003H         PUBLIC        uartInterrupt
  C:021FH         PUBLIC        _DelayMS
  C:020BH         PUBLIC        Uart_Init
  B:00A8H.4       PUBLIC        ES
  D:00B8H         PUBLIC        IP
  B:0098H.0       PUBLIC        RI
  C:023DH         PUBLIC        IapIdle
  B:0098H.1       PUBLIC        TI
  D:00E3H         PUBLIC        IAP_ADDRH
  D:00E4H         PUBLIC        IAP_ADDRL
  C:0104H         PUBLIC        main
  C:01DFH         PUBLIC        _IapReadByte
  D:0099H         PUBLIC        SBUF
  D:0087H         PUBLIC        PCON
  D:0098H         PUBLIC        SCON
  D:0089H         PUBLIC        TMOD
  D:0088H         PUBLIC        TCON
  C:01AEH         PUBLIC        _IapWriteByte
  C:0232H         PUBLIC        _UartSendByte
  D:00E7H         PUBLIC        IAP_CONTR
  X:0026H         PUBLIC        busy
  D:008DH         PUBLIC        TH1
  D:008BH         PUBLIC        TL1
  D:00E2H         PUBLIC        IAP_DATA
  B:0088H.6       PUBLIC        TR1
  C:00B2H         PUBLIC        _IapWriteStr
  D:00C8H         PUBLIC        T2CON
  C:018AH         PUBLIC        CheckFF
  D:00E6H         PUBLIC        IAP_TRIG
  D:00D0H         PUBLIC        PSW
  -------         PROC          _DELAYMS
  D:0007H         SYMBOL        ms
  -------         DO            
  D:0006H         SYMBOL        i
  D:0005H         SYMBOL        j
  -------         ENDDO         
  C:021FH         LINE#         50
  C:021FH         LINE#         51
  C:021FH         LINE#         53
  C:0221H         LINE#         54
  C:0226H         LINE#         55
  C:0226H         LINE#         56
  C:0228H         LINE#         57
  C:022AH         LINE#         59
  C:022CH         LINE#         60
  C:022EH         LINE#         62
  C:0231H         LINE#         63
  -------         ENDPROC       _DELAYMS
  -------         PROC          IAPIDLE
  C:023DH         LINE#         70
BL51 BANKED LINKER/LOCATER V6.22.2.0                                                  09/21/2021  21:25:33  PAGE 4


  C:023DH         LINE#         71
  C:023DH         LINE#         72
  C:0240H         LINE#         73
  C:0242H         LINE#         74
  C:0244H         LINE#         77
  -------         ENDPROC       IAPIDLE
  -------         PROC          _IAPREADBYTE
  D:0006H         SYMBOL        addr
  -------         DO            
  D:0007H         SYMBOL        dat
  -------         ENDDO         
  C:01DFH         LINE#         86
  C:01DFH         LINE#         87
  C:01DFH         LINE#         90
  C:01E2H         LINE#         91
  C:01E5H         LINE#         92
  C:01E7H         LINE#         93
  C:01EAH         LINE#         94
  C:01EDH         LINE#         95
  C:01F0H         LINE#         96
  C:01F1H         LINE#         97
  C:01F3H         LINE#         98
  -------         ENDPROC       _IAPREADBYTE
  -------         PROC          _IAPWRITEBYTE
  D:0006H         SYMBOL        addr
  D:0005H         SYMBOL        dat
  C:01AEH         LINE#         109
  C:01AEH         LINE#         110
  C:01AEH         LINE#         111
  C:01B1H         LINE#         112
  C:01B4H         LINE#         113
  C:01B6H         LINE#         114
  C:01B9H         LINE#         115
  C:01BDH         LINE#         116
  C:01C0H         LINE#         117
  C:01C3H         LINE#         118
  C:01C4H         LINE#         119
  -------         ENDPROC       _IAPWRITEBYTE
  -------         PROC          _IAPERASESECTOR
  D:0006H         SYMBOL        addr
  C:01F6H         LINE#         128
  C:01F6H         LINE#         129
  C:01F6H         LINE#         130
  C:01F9H         LINE#         131
  C:01FCH         LINE#         132
  C:01FEH         LINE#         133
  C:0201H         LINE#         134
  C:0204H         LINE#         135
  C:0207H         LINE#         136
  C:0208H         LINE#         137
  -------         ENDPROC       _IAPERASESECTOR
  -------         PROC          CHECKFF
  -------         DO            
  D:0005H         SYMBOL        i
  -------         ENDDO         
  C:018AH         LINE#         143
  C:018AH         LINE#         144
BL51 BANKED LINKER/LOCATER V6.22.2.0                                                  09/21/2021  21:25:33  PAGE 5


  C:018AH         LINE#         146
  C:0196H         LINE#         147
  C:0196H         LINE#         148
  C:01A5H         LINE#         149
  C:01A8H         LINE#         150
  C:01ABH         LINE#         151
  C:01ADH         LINE#         152
  -------         ENDPROC       CHECKFF
  -------         PROC          UART_INIT
  C:020BH         LINE#         38
  C:020BH         LINE#         39
  C:020BH         LINE#         40
  C:020EH         LINE#         41
  C:0211H         LINE#         42
  C:0214H         LINE#         43
  C:021AH         LINE#         44
  C:021CH         LINE#         45
  C:021EH         LINE#         46
  -------         ENDPROC       UART_INIT
  -------         PROC          _UARTSENDBYTE
  D:0007H         SYMBOL        buff
  C:0232H         LINE#         48
  C:0232H         LINE#         49
  C:0232H         LINE#         50
  C:0234H         LINE#         51
  C:023AH         LINE#         53
  C:023CH         LINE#         54
  -------         ENDPROC       _UARTSENDBYTE
  -------         PROC          MAIN
  -------         DO            
  D:0006H         SYMBOL        V
  D:0005H         SYMBOL        i
  X:0000H         SYMBOL        j
  X:0001H         SYMBOL        temp
  D:0002H         SYMBOL        addr
  -------         ENDDO         
  C:0104H         LINE#         56
  C:0104H         LINE#         57
  C:0104H         LINE#         58
  C:010BH         LINE#         60
  C:010EH         LINE#         61
  C:0111H         LINE#         62
  C:0113H         LINE#         63
  C:0117H         LINE#         64
  C:0117H         LINE#         65
  C:0125H         LINE#         66
  C:0131H         LINE#         67
  C:0143H         LINE#         68
  C:0145H         LINE#         85
  C:0145H         LINE#         86
  C:0145H         LINE#         87
  -------         ENDPROC       MAIN
  -------         PROC          UARTINTERRUPT
  C:0003H         LINE#         89
  C:0009H         LINE#         91
  C:000CH         LINE#         92
  C:000CH         LINE#         93
BL51 BANKED LINKER/LOCATER V6.22.2.0                                                  09/21/2021  21:25:33  PAGE 6


  C:000EH         LINE#         94
  C:000EH         LINE#         95
  C:0011H         LINE#         96
  C:0011H         LINE#         97
  C:0013H         LINE#         98
  C:0018H         LINE#         99
  C:0018H         LINE#         100
  -------         ENDPROC       UARTINTERRUPT
  -------         PROC          _IAPWRITESTR
  X:0021H         SYMBOL        addr
  X:0023H         SYMBOL        str
  -------         DO            
  D:0004H         SYMBOL        i
  -------         ENDDO         
  C:00B2H         LINE#         101
  C:00C3H         LINE#         102
  C:00C3H         LINE#         103
  C:00C5H         LINE#         104
  C:00DAH         LINE#         105
  C:00DAH         LINE#         106
  C:0101H         LINE#         107
  C:0103H         LINE#         108
  -------         ENDPROC       _IAPWRITESTR
  -------         ENDMOD        EEPROM

  -------         MODULE        ?C?CLDOPTR
  C:0147H         PUBLIC        ?C?CLDOPTR
  -------         ENDMOD        ?C?CLDOPTR

  -------         MODULE        ?C?ILDIX
  C:0174H         PUBLIC        ?C?ILDIX
  -------         ENDMOD        ?C?ILDIX

*** WARNING L16: UNCALLED SEGMENT, IGNORED FOR OVERLAY PROCESS
    SEGMENT: ?PR?_DELAYMS?EEPROM

*** WARNING L16: UNCALLED SEGMENT, IGNORED FOR OVERLAY PROCESS
    SEGMENT: ?PR?_IAPERASESECTOR?EEPROM

*** WARNING L16: UNCALLED SEGMENT, IGNORED FOR OVERLAY PROCESS
    SEGMENT: ?PR?CHECKFF?EEPROM

*** WARNING L16: UNCALLED SEGMENT, IGNORED FOR OVERLAY PROCESS
    SEGMENT: ?PR?_IAPWRITESTR?EEPROM

*** WARNING L16: UNCALLED SEGMENT, IGNORED FOR OVERLAY PROCESS
    SEGMENT: ?CO?EEPROM

Program Size: data=9.0 xdata=39 code=582
LINK/LOCATE RUN COMPLETE.  5 WARNING(S),  0 ERROR(S)
