:03000000020026D5
:0C002600787FE4F6D8FD75810702006DBC
:1001C7003F065B4F666D7D077F6F777C395E797180
:0801D7007638373E735C4000EE
:04024500410026014D
:10021F00E4FEEEC39F500B7DFADDFE7DFADDFE0E90
:02022F0080F05D
:0102310022AA
:08023D00E4F5E7F5E5F5E62222
:1001DF0075E78175E5018FE4EEF5E375E64675E6A3
:0701EF00B900AFE202023D7E
:1001AE0075E78175E5028FE4EEF5E3AF058FE27535
:0901BE00E64675E6B90002023DB7
:1001F60075E78175E5038FE4EEF5E375E64675E68A
:05020600B90002023DF9
:10018A00E4FDEDC394FF748094805015ED2400FFC4
:10019A00E43420FE1201DFEFF460037F00220D80B9
:0301AA00E17F01F1
:0101AD00222F
:10020B00759850E4F587438920758DFD758BFDD26C
:04021B008ED2AC22B1
:0B0232008F99900026E070FA04F02283
:10010400E4FEFD900000F0FB7A2012020BD2AFEE69
:10011400F4602E0BEBAE0270010A14FF1201DFAE85
:100124000774012DF582E43400F583EEF0AF050D7C
:1001340074012FF582E43400F583E0FF120232806B
:03014400CE80FE6C
:03002300020003D5
:10000300C0E0C083C082309802C298309907C29979
:0C001300900026E4F0D082D083D0E032D0
:1000B200900021EEF0A3EFF0A3EBF0A3EAF0A3E9A6
:0100C200F04D
:1000C300E4FC900023E0FBA3E0FAA3E0F98C827543
:1000D30083001201476029900021E475F0011201A9
:1000E30074AFF0FE900023E0FBA3E0FAA3E0F9ADC8
:1000F300040C8D82758300120147FD1201AE80C28C
:0101030022D9
:10003200020104E493A3F8E493A34003F68001F2DF
:1000420008DFF48029E493A3F85407240CC8C333CF
:10005200C4540F4420C8834004F456800146F6DF9E
:10006200E4800B0102040810204080900245E47EE7
:10007200019360BCA3FF543F30E509541FFEE49393
:10008200A360010ECF54C025E060A840B8E493A35A
:10009200FAE493A3F8E493A3C8C582C8CAC583CA85
:1000A200F0A3C8C582C8CAC583CADFE9DEE780BE3D
:0102490000B4
:10014700BB010CE58229F582E5833AF583E022506D
:1001570006E92582F8E622BBFE06E92582F8E222B7
:0D016700E58229F582E5833AF583E49322D1
:10017400A3F8E0C5F025F0F0E5821582700215833E
:06018400E0C838F0E8229B
:00000001FF
