BL51 BANKED LINKER/LOCATER V6.22.2.0                                                    08/23/2021  20:29:15  PAGE 1


BL51 BANKED LINKER/LOCATER V6.22.2.0, INVOKED BY:
D:\KEIL_V5\C51\BIN\BL51.EXE .\Objects\STARTUP.obj, .\Objects\nrfRecv.obj TO .\Objects\nrfRecv PRINT (.\Listings\nrfRecv.
>> m51)


MEMORY MODEL: SMALL


INPUT MODULES INCLUDED:
  .\Objects\STARTUP.obj (?C_STARTUP)
  .\Objects\nrfRecv.obj (NRFRECV)
  D:\KEIL_V5\C51\LIB\C51S.LIB (?C_INIT)
  D:\KEIL_V5\C51\LIB\C51S.LIB (?C?COPY)
  D:\KEIL_V5\C51\LIB\C51S.LIB (?C?CLDPTR)
  D:\KEIL_V5\C51\LIB\C51S.LIB (?C?CLDOPTR)
  D:\KEIL_V5\C51\LIB\C51S.LIB (?C?CSTOPTR)
  D:\KEIL_V5\C51\LIB\C51S.LIB (PRINTF)
  D:\KEIL_V5\C51\LIB\C51S.LIB (?C?CSTPTR)
  D:\KEIL_V5\C51\LIB\C51S.LIB (?C?PLDIIDATA)
  D:\KEIL_V5\C51\LIB\C51S.LIB (?C?CCASE)
  D:\KEIL_V5\C51\LIB\C51S.LIB (PUTCHAR)


LINK MAP OF MODULE:  .\Objects\nrfRecv (?C_STARTUP)


            TYPE    BASE      LENGTH    RELOCATION   SEGMENT NAME
            -----------------------------------------------------

            * * * * * * *   D A T A   M E M O R Y   * * * * * * *
            REG     0000H     0008H     ABSOLUTE     "REG BANK 0"
            DATA    0008H     0010H     UNIT         ?DT?NRFRECV
            DATA    0018H     0003H     UNIT         ?DT?_TX_MODE?NRFRECV
                    001BH     0005H                  *** GAP ***
            DATA    0020H     0001H     BIT_ADDR     ?BA?NRFRECV
            BIT     0021H.0   0001H.1   UNIT         _BIT_GROUP_
            BIT     0022H.1   0000H.1   UNIT         ?BI?CHECK_ACK?NRFRECV
                    0022H.2   0000H.6                *** GAP ***
            DATA    0023H     002BH     UNIT         _DATA_GROUP_
            IDATA   004EH     0001H     UNIT         ?STACK

            * * * * * * *   C O D E   M E M O R Y   * * * * * * *
            CODE    0000H     0003H     ABSOLUTE     
            CODE    0003H     035CH     UNIT         ?PR?PRINTF?PRINTF
            CODE    035FH     0222H     UNIT         ?PR?_WRITESTR?NRFRECV
            CODE    0581H     01A6H     UNIT         ?C?LIB_CODE
            CODE    0727H     008CH     UNIT         ?C_C51STARTUP
            CODE    07B3H     006AH     UNIT         ?PR?MAIN?NRFRECV
            CODE    081DH     0050H     UNIT         ?PR?_TX_MODE?NRFRECV
            CODE    086DH     003AH     UNIT         ?PR?_SPI_WRITE_BUF?NRFRECV
            CODE    08A7H     0031H     UNIT         ?PR?_DELAYMS?NRFRECV
            CODE    08D8H     0031H     UNIT         ?PR?_SPI_READ_BUF?NRFRECV
            CODE    0909H     002EH     UNIT         ?PR?RX_MODE?NRFRECV
            CODE    0937H     0027H     UNIT         ?PR?CHECK_ACK?NRFRECV
            CODE    095EH     0027H     UNIT         ?PR?PUTCHAR?PUTCHAR
            CODE    0985H     0022H     UNIT         ?PR?_SPI_RW?NRFRECV
            CODE    09A7H     001AH     UNIT         ?PR?_SPI_RW_REG?NRFRECV
            CODE    09C1H     0019H     UNIT         ?CO?NRFRECV
BL51 BANKED LINKER/LOCATER V6.22.2.0                                                  08/23/2021  20:29:15  PAGE 2


            CODE    09DAH     0014H     UNIT         ?PR?LCDINIT?NRFRECV
            CODE    09EEH     0013H     UNIT         ?PR?UARTINIT?NRFRECV
            CODE    0A01H     0012H     UNIT         ?PR?_WRITECMD?NRFRECV
            CODE    0A13H     0012H     UNIT         ?PR?_WRITEDATA?NRFRECV
            CODE    0A25H     0012H     UNIT         ?PR?_STRLEN?NRFRECV
            CODE    0A37H     000DH     UNIT         ?PR?_SPI_READ?NRFRECV
            CODE    0A44H     000CH     UNIT         ?C_INITSEG
            CODE    0A50H     000BH     UNIT         ?PR?INIT_IO?NRFRECV



OVERLAY MAP OF MODULE:   .\Objects\nrfRecv (?C_STARTUP)


SEGMENT                               BIT_GROUP          DATA_GROUP 
  +--> CALLED SEGMENT              START    LENGTH     START    LENGTH
----------------------------------------------------------------------
?C_C51STARTUP                      -----    -----      -----    -----
  +--> ?PR?MAIN?NRFRECV
  +--> ?C_INITSEG

?PR?MAIN?NRFRECV                   -----    -----      0023H    000DH
  +--> ?CO?NRFRECV
  +--> ?PR?LCDINIT?NRFRECV
  +--> ?PR?UARTINIT?NRFRECV
  +--> ?PR?INIT_IO?NRFRECV
  +--> ?PR?RX_MODE?NRFRECV
  +--> ?PR?_SPI_READ?NRFRECV
  +--> ?PR?_SPI_READ_BUF?NRFRECV
  +--> ?PR?_SPI_RW_REG?NRFRECV
  +--> ?PR?_WRITESTR?NRFRECV

?PR?LCDINIT?NRFRECV                -----    -----      -----    -----
  +--> ?PR?_WRITECMD?NRFRECV

?PR?_WRITECMD?NRFRECV              -----    -----      -----    -----
  +--> ?PR?_DELAYMS?NRFRECV

?PR?_DELAYMS?NRFRECV               -----    -----      -----    -----
  +--> ?PR?_WRITEDATA?NRFRECV

?PR?RX_MODE?NRFRECV                -----    -----      -----    -----
  +--> ?PR?_SPI_WRITE_BUF?NRFRECV
  +--> ?PR?_SPI_RW_REG?NRFRECV
  +--> ?PR?_DELAYMS?NRFRECV

?PR?_SPI_WRITE_BUF?NRFRECV         -----    -----      0030H    0005H
  +--> ?CO?NRFRECV
  +--> ?PR?_SPI_RW?NRFRECV

?PR?_SPI_RW_REG?NRFRECV            -----    -----      -----    -----
  +--> ?PR?_SPI_RW?NRFRECV

?PR?_SPI_READ?NRFRECV              -----    -----      -----    -----
  +--> ?PR?_SPI_RW?NRFRECV

?PR?_SPI_READ_BUF?NRFRECV          -----    -----      0030H    0005H
BL51 BANKED LINKER/LOCATER V6.22.2.0                                                  08/23/2021  20:29:15  PAGE 3


  +--> ?PR?_SPI_RW?NRFRECV

?PR?_WRITESTR?NRFRECV              -----    -----      0030H    000AH
  +--> ?CO?NRFRECV
  +--> ?PR?PRINTF?PRINTF
  +--> ?PR?_STRLEN?NRFRECV
  +--> ?PR?_WRITECMD?NRFRECV
  +--> ?PR?_WRITEDATA?NRFRECV
  +--> ?PR?_DELAYMS?NRFRECV

?PR?PRINTF?PRINTF                  0021H.0  0001H.1    003AH    0014H
  +--> ?PR?PUTCHAR?PUTCHAR



SYMBOL TABLE OF MODULE:  .\Objects\nrfRecv (?C_STARTUP)

  VALUE           TYPE          NAME
  ----------------------------------

  -------         MODULE        ?C_STARTUP
  C:0727H         SEGMENT       ?C_C51STARTUP
  I:004EH         SEGMENT       ?STACK
  C:0000H         PUBLIC        ?C_STARTUP
  D:00E0H         SYMBOL        ACC
  D:00F0H         SYMBOL        B
  D:0083H         SYMBOL        DPH
  D:0082H         SYMBOL        DPL
  N:0000H         SYMBOL        IBPSTACK
  N:0100H         SYMBOL        IBPSTACKTOP
  N:0080H         SYMBOL        IDATALEN
  C:072AH         SYMBOL        IDATALOOP
  N:0000H         SYMBOL        PBPSTACK
  N:0100H         SYMBOL        PBPSTACKTOP
  N:0000H         SYMBOL        PDATALEN
  N:0000H         SYMBOL        PDATASTART
  N:0000H         SYMBOL        PPAGE
  N:0000H         SYMBOL        PPAGEENABLE
  D:00A0H         SYMBOL        PPAGE_SFR
  D:0081H         SYMBOL        SP
  C:0727H         SYMBOL        STARTUP1
  N:0000H         SYMBOL        XBPSTACK
  N:0000H         SYMBOL        XBPSTACKTOP
  N:0000H         SYMBOL        XDATALEN
  N:0000H         SYMBOL        XDATASTART
  C:0000H         LINE#         126
  C:0727H         LINE#         133
  C:0729H         LINE#         134
  C:072AH         LINE#         135
  C:072BH         LINE#         136
  C:072DH         LINE#         185
  C:0730H         LINE#         196
  -------         ENDMOD        ?C_STARTUP

  -------         MODULE        NRFRECV
  C:0000H         SYMBOL        _ICE_DUMMY_
  D:0080H         PUBLIC        P0
BL51 BANKED LINKER/LOCATER V6.22.2.0                                                  08/23/2021  20:29:15  PAGE 4


  D:0090H         PUBLIC        P1
  D:00A0H         PUBLIC        P2
  D:00B0H         PUBLIC        P3
  D:0008H         PUBLIC        pos1
  D:000AH         PUBLIC        pos2
  B:0090H.0       PUBLIC        CE
  C:09DAH         PUBLIC        LCDinit
  C:0A13H         PUBLIC        _WriteData
  D:00A8H         PUBLIC        IE
  C:0937H         PUBLIC        Check_ACK
  C:0909H         PUBLIC        RX_Mode
  C:08BEH         PUBLIC        _DelayMS
  C:081DH         PUBLIC        _TX_Mode
  C:09CBH         PUBLIC        TX_ADDRESS
  D:00B8H         PUBLIC        IP
  D:000CH         PUBLIC        DATA
  D:000DH         PUBLIC        flag
  C:0A25H         PUBLIC        _strlen
  B:0098H.1       PUBLIC        TI
  B:0020H.6       PUBLIC        RX_DR
  B:0020H.5       PUBLIC        TX_DS
  B:00A0H.7       PUBLIC        RS
  C:07B3H         PUBLIC        main
  B:00A0H.6       PUBLIC        RW
  D:0098H         PUBLIC        SCON
  D:0089H         PUBLIC        TMOD
  D:0088H         PUBLIC        TCON
  B:0090H.4       PUBLIC        MOSI
  B:0090H.2       PUBLIC        MISO
  C:09D0H         SYMBOL        _?ix1000
  C:09D5H         SYMBOL        _?ix1001
  B:00A0H.5       PUBLIC        E
  C:035FH         PUBLIC        _WriteStr
  D:0020H         PUBLIC        sta
  C:08D8H         PUBLIC        _SPI_Read_Buf
  C:0A37H         PUBLIC        _SPI_Read
  D:008DH         PUBLIC        TH1
  D:008BH         PUBLIC        TL1
  B:00A0H.4       PUBLIC        LED
  C:09EEH         PUBLIC        uartInit
  B:0088H.6       PUBLIC        TR1
  C:0878H         PUBLIC        _SPI_Write_Buf
  B:0090H.1       PUBLIC        SCK
  C:0A01H         PUBLIC        _WriteCMD
  B:0090H.3       PUBLIC        CSN
  B:0098H.4       PUBLIC        REN
  D:00C8H         PUBLIC        T2CON
  D:000EH         PUBLIC        RX_BUF
  D:0013H         PUBLIC        TX_BUF
  B:0090H.5       PUBLIC        IRQ
  B:0020H.4       PUBLIC        MAX_RT
  C:0A50H         PUBLIC        init_io
  C:09B0H         PUBLIC        _SPI_RW_Reg
  C:0985H         PUBLIC        _SPI_RW
  D:00D0H         PUBLIC        PSW
  -------         PROC          UARTINIT
  C:09EEH         LINE#         12
BL51 BANKED LINKER/LOCATER V6.22.2.0                                                  08/23/2021  20:29:15  PAGE 5


  C:09EEH         LINE#         13
  C:09EEH         LINE#         14
  C:09F1H         LINE#         15
  C:09F3H         LINE#         16
  C:09F6H         LINE#         17
  C:09FCH         LINE#         18
  C:09FEH         LINE#         19
  C:0A00H         LINE#         20
  -------         ENDPROC       UARTINIT
  -------         PROC          L?0084
  -------         ENDPROC       L?0084
  -------         PROC          _DELAYMS
  D:0006H         SYMBOL        ms
  -------         DO            
  D:0005H         SYMBOL        i
  -------         ENDDO         
  C:08BEH         LINE#         21
  C:08BEH         LINE#         22
  C:08BEH         LINE#         24
  C:08C8H         LINE#         25
  C:08D7H         LINE#         27
  -------         ENDPROC       _DELAYMS
  -------         PROC          _WRITECMD
  D:0007H         SYMBOL        x
  C:0A01H         LINE#         28
  C:0A01H         LINE#         29
  C:0A01H         LINE#         30
  C:0A03H         LINE#         31
  C:0A05H         LINE#         32
  C:0A07H         LINE#         33
  C:0A09H         LINE#         34
  C:0A10H         LINE#         35
  C:0A12H         LINE#         36
  -------         ENDPROC       _WRITECMD
  -------         PROC          _WRITEDATA
  D:0007H         SYMBOL        x
  C:0A13H         LINE#         37
  C:0A13H         LINE#         38
  C:0A13H         LINE#         39
  C:0A15H         LINE#         40
  C:0A17H         LINE#         41
  C:0A19H         LINE#         42
  C:0A1BH         LINE#         43
  C:0A22H         LINE#         44
  C:0A24H         LINE#         45
  -------         ENDPROC       _WRITEDATA
  -------         PROC          LCDINIT
  C:09DAH         LINE#         46
  C:09DAH         LINE#         47
  C:09DAH         LINE#         48
  C:09DFH         LINE#         49
  C:09E4H         LINE#         50
  C:09E9H         LINE#         51
  -------         ENDPROC       LCDINIT
  -------         PROC          _STRLEN
  D:0001H         SYMBOL        str
  -------         DO            
BL51 BANKED LINKER/LOCATER V6.22.2.0                                                  08/23/2021  20:29:15  PAGE 6


  D:0007H         SYMBOL        len
  -------         ENDDO         
  C:0A25H         LINE#         56
  C:0A25H         LINE#         57
  C:0A25H         LINE#         58
  C:0A27H         LINE#         59
  C:0A27H         LINE#         60
  C:0A27H         LINE#         61
  C:0A2CH         LINE#         62
  C:0A2CH         LINE#         63
  C:0A2DH         LINE#         64
  C:0A34H         LINE#         65
  C:0A36H         LINE#         66
  C:0A36H         LINE#         67
  -------         ENDPROC       _STRLEN
  -------         PROC          INIT_IO
  C:0A50H         LINE#         139
  C:0A50H         LINE#         140
  C:0A50H         LINE#         141
  C:0A52H         LINE#         142
  C:0A54H         LINE#         143
  C:0A56H         LINE#         144
  C:0A58H         LINE#         145
  C:0A5AH         LINE#         146
  -------         ENDPROC       INIT_IO
  -------         PROC          _SPI_RW
  D:0007H         SYMBOL        byte
  -------         DO            
  D:0006H         SYMBOL        i
  -------         ENDDO         
  C:0985H         LINE#         155
  C:0985H         LINE#         156
  C:0985H         LINE#         158
  C:0991H         LINE#         159
  C:0991H         LINE#         160
  C:0995H         LINE#         161
  C:0999H         LINE#         162
  C:099BH         LINE#         163
  C:09A1H         LINE#         164
  C:09A3H         LINE#         165
  C:09A6H         LINE#         166
  C:09A6H         LINE#         167
  -------         ENDPROC       _SPI_RW
  -------         PROC          L?0086
  -------         ENDPROC       L?0086
  -------         PROC          _SPI_RW_REG
  D:0007H         SYMBOL        reg
  D:0005H         SYMBOL        value
  -------         DO            
  D:0004H         SYMBOL        status
  -------         ENDDO         
  C:09B0H         LINE#         175
  C:09B0H         LINE#         176
  C:09B0H         LINE#         178
  C:09B2H         LINE#         179
  C:09B7H         LINE#         180
  C:09BCH         LINE#         181
BL51 BANKED LINKER/LOCATER V6.22.2.0                                                  08/23/2021  20:29:15  PAGE 7


  C:09BEH         LINE#         182
  C:09C0H         LINE#         183
  -------         ENDPROC       _SPI_RW_REG
  -------         PROC          _SPI_READ
  D:0007H         SYMBOL        reg
  -------         DO            
  D:0007H         SYMBOL        reg_val
  -------         ENDDO         
  C:0A37H         LINE#         191
  C:0A37H         LINE#         192
  C:0A37H         LINE#         196
  C:0A39H         LINE#         197
  C:0A3CH         LINE#         198
  C:0A41H         LINE#         200
  C:0A43H         LINE#         201
  C:0A43H         LINE#         202
  -------         ENDPROC       _SPI_READ
  -------         PROC          _SPI_READ_BUF
  D:0007H         SYMBOL        reg
  D:0031H         SYMBOL        pBuf
  D:0034H         SYMBOL        bytes
  -------         DO            
  D:0005H         SYMBOL        status
  D:0004H         SYMBOL        i
  -------         ENDDO         
  C:08D8H         LINE#         211
  C:08DEH         LINE#         212
  C:08DEH         LINE#         214
  C:08E0H         LINE#         215
  C:08E5H         LINE#         216
  C:08EDH         LINE#         217
  C:0904H         LINE#         218
  C:0906H         LINE#         219
  C:0908H         LINE#         220
  -------         ENDPROC       _SPI_READ_BUF
  -------         PROC          L?0085
  -------         ENDPROC       L?0085
  -------         PROC          _SPI_WRITE_BUF
  D:0007H         SYMBOL        reg
  D:0031H         SYMBOL        pBuf
  D:0034H         SYMBOL        bytes
  -------         DO            
  D:0005H         SYMBOL        status
  D:0004H         SYMBOL        i
  -------         ENDDO         
  C:0878H         LINE#         229
  C:087EH         LINE#         230
  C:087EH         LINE#         232
  C:0880H         LINE#         233
  C:0885H         LINE#         234
  C:088DH         LINE#         235
  C:08A2H         LINE#         236
  C:08A4H         LINE#         237
  C:08A6H         LINE#         238
  -------         ENDPROC       _SPI_WRITE_BUF
  -------         PROC          RX_MODE
  C:0909H         LINE#         246
BL51 BANKED LINKER/LOCATER V6.22.2.0                                                  08/23/2021  20:29:15  PAGE 8


  C:0909H         LINE#         247
  C:0909H         LINE#         248
  C:090BH         LINE#         249
  C:090EH         LINE#         250
  C:090EH         LINE#         251
  C:0911H         LINE#         252
  C:0918H         LINE#         253
  C:091FH         LINE#         254
  C:0926H         LINE#         255
  C:092DH         LINE#         256
  C:0934H         LINE#         257
  C:0936H         LINE#         258
  -------         ENDPROC       RX_MODE
  -------         PROC          _TX_MODE
  D:0018H         SYMBOL        BUF
  C:081DH         LINE#         268
  C:0823H         LINE#         269
  C:0823H         LINE#         270
  C:0825H         LINE#         271
  C:0833H         LINE#         272
  C:0836H         LINE#         273
  C:0844H         LINE#         274
  C:0844H         LINE#         275
  C:0847H         LINE#         276
  C:084EH         LINE#         277
  C:0855H         LINE#         278
  C:085CH         LINE#         279
  C:0863H         LINE#         280
  C:086AH         LINE#         281
  C:086CH         LINE#         282
  -------         ENDPROC       _TX_MODE
  -------         PROC          CHECK_ACK
  B:0022H.1       SYMBOL        clear
  C:0937H         LINE#         291
  C:0937H         LINE#         292
  C:0937H         LINE#         293
  C:093AH         LINE#         295
  C:0941H         LINE#         296
  C:0941H         LINE#         297
  C:0941H         LINE#         299
  C:0941H         LINE#         301
  C:0944H         LINE#         302
  C:0947H         LINE#         303
  C:094CH         LINE#         304
  C:0953H         LINE#         305
  C:0955H         LINE#         306
  C:0958H         LINE#         307
  C:095BH         LINE#         309
  C:095DH         LINE#         310
  -------         ENDPROC       CHECK_ACK
  -------         PROC          _WRITESTR
  D:0030H         SYMBOL        pos
  D:0031H         SYMBOL        str
  -------         DO            
  D:0034H         SYMBOL        i
  D:0006H         SYMBOL        len
  D:0036H         SYMBOL        rows
BL51 BANKED LINKER/LOCATER V6.22.2.0                                                  08/23/2021  20:29:15  PAGE 9


  D:0038H         SYMBOL        r
  D:0006H         SYMBOL        t
  -------         ENDDO         
  C:035FH         LINE#         346
  C:0367H         LINE#         347
  C:0367H         LINE#         353
  C:0375H         LINE#         354
  C:038CH         LINE#         355
  C:03A3H         LINE#         356
  C:03BAH         LINE#         357
  C:03D1H         LINE#         358
  C:03E6H         LINE#         359
  C:03E6H         LINE#         360
  C:03E6H         LINE#         361
  C:03EFH         LINE#         362
  C:0404H         LINE#         363
  C:0417H         LINE#         364
  C:0417H         LINE#         365
  C:044CH         LINE#         366
  C:044CH         LINE#         367
  C:0466H         LINE#         368
  C:047CH         LINE#         369
  C:047CH         LINE#         370
  C:047CH         LINE#         371
  C:047CH         LINE#         372
  C:0485H         LINE#         373
  C:0485H         LINE#         374
  C:048DH         LINE#         375
  C:0498H         LINE#         376
  C:049FH         LINE#         378
  C:04A7H         LINE#         379
  C:04A9H         LINE#         381
  C:04A9H         LINE#         382
  C:04AFH         LINE#         383
  C:04B4H         LINE#         384
  C:04BCH         LINE#         385
  C:04C7H         LINE#         386
  C:04C7H         LINE#         387
  C:04CCH         LINE#         388
  C:04CEH         LINE#         390
  C:04D6H         LINE#         391
  C:04D6H         LINE#         392
  C:04F1H         LINE#         393
  C:04F1H         LINE#         394
  C:04F8H         LINE#         395
  C:0501H         LINE#         396
  C:0508H         LINE#         397
  C:050EH         LINE#         398
  C:050EH         LINE#         399
  C:0513H         LINE#         400
  C:0518H         LINE#         401
  C:051AH         LINE#         406
  C:052DH         LINE#         407
  C:0538H         LINE#         408
  C:0543H         LINE#         409
  C:0543H         LINE#         410
  C:0543H         LINE#         411
BL51 BANKED LINKER/LOCATER V6.22.2.0                                                  08/23/2021  20:29:15  PAGE 10


  C:0548H         LINE#         412
  C:054DH         LINE#         413
  C:054DH         LINE#         414
  C:054DH         LINE#         415
  C:0550H         LINE#         416
  C:0562H         LINE#         417
  C:0562H         LINE#         418
  C:0562H         LINE#         419
  C:0567H         LINE#         420
  C:056CH         LINE#         421
  C:056CH         LINE#         422
  C:056CH         LINE#         423
  C:056FH         LINE#         424
  C:0580H         LINE#         425
  C:0580H         LINE#         426
  C:0580H         LINE#         427
  C:0580H         LINE#         428
  C:0580H         LINE#         429
  -------         ENDPROC       _WRITESTR
  -------         PROC          MAIN
  -------         DO            
  D:0023H         SYMBOL        table
  D:0028H         SYMBOL        table1
  D:002DH         SYMBOL        temp
  -------         ENDDO         
  C:07B3H         LINE#         435
  C:07B3H         LINE#         436
  C:07B3H         LINE#         437
  C:07C6H         LINE#         438
  C:07D9H         LINE#         440
  C:07DCH         LINE#         441
  C:07DFH         LINE#         442
  C:07E2H         LINE#         443
  C:07E5H         LINE#         444
  C:07E5H         LINE#         445
  C:07E5H         LINE#         446
  C:07ECH         LINE#         448
  C:07EFH         LINE#         449
  C:07EFH         LINE#         450
  C:07FDH         LINE#         451
  C:0800H         LINE#         452
  C:0800H         LINE#         453
  C:0807H         LINE#         454
  C:080BH         LINE#         455
  C:080BH         LINE#         458
  C:0816H         LINE#         459
  C:0819H         LINE#         460
  C:081BH         LINE#         461
  C:081BH         LINE#         462
  -------         ENDPROC       MAIN
  -------         ENDMOD        NRFRECV

  -------         MODULE        ?C?COPY
  C:0651H         PUBLIC        ?C?COPY
  -------         ENDMOD        ?C?COPY

  -------         MODULE        ?C?CLDPTR
BL51 BANKED LINKER/LOCATER V6.22.2.0                                                  08/23/2021  20:29:15  PAGE 11


  C:0677H         PUBLIC        ?C?CLDPTR
  -------         ENDMOD        ?C?CLDPTR

  -------         MODULE        ?C?CLDOPTR
  C:0690H         PUBLIC        ?C?CLDOPTR
  -------         ENDMOD        ?C?CLDOPTR

  -------         MODULE        ?C?CSTOPTR
  C:06BDH         PUBLIC        ?C?CSTOPTR
  -------         ENDMOD        ?C?CSTOPTR

  -------         MODULE        PRINTF
  D:003AH         PUBLIC        ?_PRINTF517?BYTE
  D:003AH         PUBLIC        ?_PRINTF?BYTE
  D:003AH         PUBLIC        ?_SPRINTF517?BYTE
  D:003AH         PUBLIC        ?_SPRINTF?BYTE
  C:0065H         PUBLIC        _PRINTF
  C:0065H         PUBLIC        _PRINTF517
  C:005FH         PUBLIC        _SPRINTF
  C:005FH         PUBLIC        _SPRINTF517
  -------         ENDMOD        PRINTF

  -------         MODULE        ?C?CSTPTR
  C:06DFH         PUBLIC        ?C?CSTPTR
  -------         ENDMOD        ?C?CSTPTR

  -------         MODULE        ?C?PLDIIDATA
  C:06F1H         PUBLIC        ?C?PLDIIDATA
  -------         ENDMOD        ?C?PLDIIDATA

  -------         MODULE        ?C?CCASE
  C:0701H         PUBLIC        ?C?CCASE
  -------         ENDMOD        ?C?CCASE

  -------         MODULE        PUTCHAR
  C:095EH         PUBLIC        _PUTCHAR
  -------         ENDMOD        PUTCHAR

*** WARNING L16: UNCALLED SEGMENT, IGNORED FOR OVERLAY PROCESS
    SEGMENT: ?PR?_TX_MODE?NRFRECV

*** WARNING L16: UNCALLED SEGMENT, IGNORED FOR OVERLAY PROCESS
    SEGMENT: ?PR?CHECK_ACK?NRFRECV

Program Size: data=73.2 xdata=0 code=2651
LINK/LOCATE RUN COMPLETE.  2 WARNING(S),  0 ERROR(S)
