:030000000201AF4B
:0C01AF00787FE4F6D8FD75810702015F3F
:10019F003F065B4F666D7B077F6F777C395E7971AA
:10017900D2A0120123D2A1120123C2A0120123C2CB
:04018900A1020123AB
:10018D00C2A0120123D2A1120123120123D2A00277
:02019D0001233C
:08000300900002EFF0A3EDF004
:10000B00E4A3F0A3F0E4900005F0900004F090005E
:10001B0004E0C39408748094805028900002E0FFA1
:10002B00C4131313540124FF92A0EF25E0F0120127
:10003B0023D2A1120123C2A1120123900004E004D8
:10004B00F080CBD2A0120123D2A130A01F900003CD
:10005B00E064017017900005E004F0E0D394C874DD
:10006B0080948040E5C2A11201238099C2A11201A4
:03007B00237F01DF
:01007E00225F
:10007F00E4900002F0A3F0D2A0120123E49000025A
:10008F00F0900002E0C39408748094805023D2A1B2
:10009F00120123900003E025E0FFF0A2A0E4334F0C
:1000AF00F0120123C2A1120123900002E004F0809C
:0600BF00D0900003E0FFF9
:0100C5002218
:100123007F01EFD394007480948040127E02EED35B
:0E01330094007480948040031E80F31F80E4CB
:01014100229B
:1000FA00900006EFF0A3EDF01201797D017FA012C6
:10010A000003900006E0FF7D01120003900007E063
:09011A00FFE4FD12000302018D57
:0500C600900000EFF0C6
:1000CB001201797D017FA0120003900000E0FF7DFB
:1000DB00011200031201797D017FA11200031200AE
:0E00EB007F900001EFF012018D900001E0FF08
:0100F90022E4
:10014200EFD394007480948040127E64EED39400C6
:0C0152007480948040031E80F31F80E442
:01015E00227E
:10015F00900008E0FF1200C643A0F0EF75F00A848C
:0A016F0090019F93F580C2A680EE78
:00000001FF
