:03097B00012F0049
:05098E00D2A8D288226E
:1003F00012098E120006C292C291120340EF60FAF7
:10040000D2AFE52FB402FBC294C290D290C290D278
:1004100094D29075250175263F7BEF7A00E4FDFCB0
:10042000FFFE12074BC2AFE4F519F51AE4F51BF510
:100430001CC290AFA0751D008F1EE51E751E00F535
:100440001DD290C290AFA0EF421EE4D290AF1EAE7C
:100450001D120930051CE51C7002051BC394F0E554
:100460001B940040CC051AE51A70020519C394408C
:10047000E519940140B6D2AF75250275267F7BDF62
:100480007A01E4FDFCFFFE12074BE4F52F020402A3
:03000300020822CE
:10082200C0E0C0D0E52F7013C293C290D290C290A4
:10083200D293D290752F01D291800AE52FB401058F
:0A084200C291752F02D0D0D0E03231
:1001B00032002A00110012461206427F4D0063F001
:1001C000641F650066006700690013FF0D410FC5DD
:1001D000140122FF23012476255026A12B006BAAAF
:1001E00013FF900A910192019301945F9553961128
:1001F000971A983D995A9A9E9B009C20A740A84028
:10020000A980AA809E119F02A6067E0C7F16802AD6
:10021000814E8261836F847B8586868E879788A4D2
:1002200089AF8AC58BD78CE88D204EEF4F10506078
:10023000510052005324547A55FC33002299230371
:100240004A00491347084B144C1746050E753D826A
:100250000C503EE229502C783A044010121432809F
:100260001716180419021A7B03060C0C15023E001F
:100270007000710172117309A20211007A207B1CB7
:100280007C287D3C7E557F68807681808288838F44
:10029000849685A386AF87C488D789E813E00000D9
:1002A00010000D001420A505AB072475256326A5B5
:1002B0009F78A068A103A6DFA7DFA8F0A990AA9461
:1002C00013E50E610F4B16021E272102229129070A
:1002D000330B350B371D3871392A3C784D404E2091
:1002E000695D6B4074198D4F8E008F0090009100F6
:1002F000920096009A80B084B10CB20EB382B80A14
:10030000431444F0453446584728483A59885A8897
:100310005B445C675D495E0E640465206605940479
:1003200095086C0A6D554F80508051005222535EE3
:1003300054806E116F9F55405640574070007100B9
:10087200D2B67F327E0012093BD2B77F327E00129F
:10088200093BC2B67F327E0012093BC2B77F327E7D
:040892000002093B1C
:1008BA00C2B67F327E0012093BD2B77F327E001267
:0B08CA00093BD2B67F327E0002093BE2
:10089600D2B67F327E0012093BD2B77F327E00127B
:1008A600093BC2B77F327E0012093BC2B67F327E59
:0408B6000002093BF8
:020599008F26AB
:10059B00E4F527AF27E526A807088002C333D8FC6C
:1005AB0030E704D2B68002C2B67F327E0012093B1E
:1005BB00D2B77F327E0012093BC2B77F147E001286
:1005CB00093B0527E527C3940840C87F0A7E001224
:1005DB00093BD2B77F507E0012093B30B605E4F5DC
:1005EB00288003752801C2B77F327E0012093BAF0A
:0105FB0028D7
:0105FC0022DC
:10078C00E4F5267F32FE12093B752708D2B77F327B
:10079C007E0012093BE52625E0F52630B60205263B
:1007AC00C2B77F327E0012093B1527E527D3940090
:0407BC0050DAAF263A
:0107C0002216
:060708003CF583E493FDC3
:10070E008F228D231208727F42120599EF7002809C
:10071E00207F147E0012093BAF22120599EF700262
:10072E00800F7F147E0012093BAF23120599EF70E4
:0D073E00061208BA7F00221208BA7F0122BD
:1005FD008F228B238A2489251208727F4212059936
:10060D00EF700280267F147E0012093BAF22120587
:10061D0099EF700280151208BA7F147E0012093B03
:10062D001208727F43120599EF70061208BA7F0007
:10063D00227F147E0012093B12078CAB23AA24A93A
:0E064D0025EF1207C11208961208BA7F01228B
:10034000E4F520F521751F80AD1F7F1212070EEF17
:100350007002FF227F207E4E12093B7B007A0079DB
:100360001F7F0B1205FDEF7002FF22E51F64737003
:100370003CF520F521E52125E0FDE52033FC74580E
:100380002DF58274023CF583E493FF74592DF582B8
:100390007402120708EF7002FF220521E5217002A6
:1003A0000520C39474E520940040CA8040E51F6492
:1003B00021703AF520F521E52125E0FDE52033FC0B
:1003C00074B02DF58274013CF583E493FF74B12D74
:1003D000F5827401120708EF7002FF220521E52162
:0F03E00070020520C39454E520940040CAAF1F5B
:0103EF0022EB
:08097E0002080000020AFFFF5D
:0D096E00C2B48FA08D80C297D297D2B42260
:05099300D2B302096E61
:07094E00120930AF18AE17CB
:0B095500AD07AC06C2B3ECFF02096E58
:0C092400E4FF120930E4FF120930E4FF88
:0B093000AD07AC06D2B3ECFF02096E6D
:0E096000AB05AA04120955AF03AE020209301E
:07098700AF14AE1302095585
:04051C008E298F2A6B
:10052000E4F52EF52DF52CF52BE50D24FFFBE50C60
:1005300034FFFAE50F24FFF526E50E34FFF525E438
:10054000FDFCFFFE12074BD2B3C2B4E4F52EF52D2D
:10055000F52CF52BAC0EAD0FAE0CAF0D1207D3E49E
:10056000FCFDAB2EAA2DA92CA82BC31207E5502603
:10057000E529F580C297D297852A80C297D297E560
:100580002E2401F52EE4352DF52DE4352CF52CE443
:08059000352BF52B80BED2B41F
:010598002240
:1008D50012065BC2B4D296D2B3E508F580C297D2B0
:0B08E50097850980C297D297D2B422F9
:10090B00AD07AC06C2B4D296D2B38C80C297D29745
:09091B008D80C297D297D2B4225C
:1008F000D2B57F327E0012084CC2B57F327E001224
:0B090000084CD2B57F327E0002084C8C
:100006001208F0D2967FF97E00120955E4FF120914
:10001600307F081209307FC01209557F1912093046
:100026007F1A1209307FC11209557F4512092B7FAD
:10003600C21209557F331209307FC5120955E4FFF4
:100046001209307F281209307FB11209557F9012AC
:1000560009307F111209307FB41209557F02120947
:10006600307FB6120955E4FF1209307F421209307B
:100076007F3B1209307FB71209557F071209307F7F
:10008600E01209557F1F1209307F251209307F22A1
:100096001209307F0B1209307F061209307F0A12CF
:1000A60009307F4E1209307FC61209307F39120996
:1000B600301209241209247FE11209557F1F120903
:1000C600307F3F1209307F3F1209307F0F1209300F
:1000D6007F1F1209307F0F1209307F461209307FC9
:1000E600491209307F311209307F051209307F0924
:1000F6001209307F031209307F1C1209307F1A1251
:10010600092B7FF11209557F361209307F04120937
:100116002B7F3C1209307F0F1209307F0F120930F6
:100126007FA41209307F021209307FF21209557F2F
:10013600181209307FA31209307F121209307F028C
:100146001209307F321209307F121209307FFF12F6
:1001560009307F3212092B7FF41209557F401209AC
:100166002B7F081209307F911209307F0412093063
:100176007FF81209557F211209307F041209307F5A
:10018600361209557F481209307F3A1209557F55B4
:100196001209307F111209557F7812084C7F297E8B
:0A01A600001209551207F6D2952247
:10074B008E1F8F208D828C83AF16AE15120955E547
:10075B001FFF7E00120930AF20120930EAFF120989
:10076B0030AF0312094EE583FF7E00120930AF82D2
:10077B00120930E525FF120930AF261209300209A4
:01078B0087E6
:10065B00AB05AA048F828E83AF16AE15120955E532
:10066B0083FF7E00120930AF82120930E58224012C
:10067B00E43583FF7E00120930E5822401FFE43567
:10068B0083FE12094EEAFF7E00120930AF031209F6
:10069B0030EB2401E43AFF7E00120930EB2401FF1A
:0906AB00E43AFE1209300209874D
:1007F60075150075162A75170075182B7513007573
:10080600142C751201750C01750DE0750E01750F2E
:0C081600407DA87C007F367E0002096057
:1006B400EF6039146016146023147047750C0175CB
:1006C4000DE0750E01750F407DA8802E750C017527
:1006D4000DE0750E01750F407D68801E750C017567
:1006E4000D40750E01750FE07DC8800E750C017507
:1006F4000D40750E01750FE07D087C007F367E008D
:040704001209602254
:10084C00E4FDFCC3ED9FEE6480F8EC6480985015D9
:10085C00E4FBFA0BBB00010ABA03F8BBE8F50DBDCB
:05086C0000010C80DE1C
:010871002264
:10093B00EEA2E713FEEF13FFEF1FAC0670011E4C88
:03094B0070F62221
:0300000002049067
:0C049000787FE4F6D8FD75812F0204D7B8
:1007C100BB010689828A83F0225002F722BBFE0117
:0207D100F32211
:1007D300EF8DF0A4A8F0CF8CF0A428CE8DF0A42E3A
:0207E300FE22F4
:1007E500EB9FF5F0EA9E42F0E99D42F0E89C45F06A
:0107F50022E1
:10049C000203F0E493A3F8E493A34003F68001F283
:1004AC0008DFF48029E493A3F85407240CC8C33361
:1004BC00C4540F4420C8834004F456800146F6DF30
:1004CC00E4800B010204081020408090097BE47E3C
:1004DC00019360BCA3FF543F30E509541FFEE49325
:1004EC00A360010ECF54C025E060A840B8E493A3EC
:1004FC00FAE493A3F8E493A3C8C582C8CAC583CA17
:10050C00F0A3C8C582C8CAC583CADFE9DEE780BECE
:010986000070
:00000001FF
