:03000000020026D5
:0C002600787FE4F6D8FD75811502006DAE
:04010F0002080000E2
:10000300EF1FAA0670011E4A600FE4FDEDC3947052
:090013007480948050EA0D80F322
:01001C0022C1
:1000F900759850758920E4F587758DFD758BFDD24E
:06010900ACD2AFD28E2241
:05001D001200F980FE55
:030023000200B226
:1000B200C0E0C0D075D000C000C00730982BC298F5
:1000C200AF99EF24F6700B75080075090075997EDB
:1000D2008017AF09740C2FF8A699740C2FF8E6F567
:1000E200990509E509700205083099FDC299D00702
:0700F200D000D0D0D0E032B5
:1000320002001DE493A3F8E493A34003F68001F2C7
:1000420008DFF48029E493A3F85407240CC8C333CF
:10005200C4540F4420C8834004F456800146F6DF9E
:10006200E4800B010204081020408090010FE47E1E
:10007200019360BCA3FF543F30E509541FFEE49393
:10008200A360010ECF54C025E060A840B8E493A35A
:10009200FAE493A3F8E493A3C8C582C8CAC583CA85
:1000A200F0A3C8C582C8CAC583CADFE9DEE780BE3D
:0101130000EB
:00000001FF
