BL51 BANKED LINKER/LOCATER V6.22.2.0                                                    08/22/2021  22:51:53  PAGE 1


BL51 BANKED LINKER/LOCATER V6.22.2.0, INVOKED BY:
D:\KEIL_V5\C51\BIN\BL51.EXE .\Objects\STARTUP.obj, .\Objects\nrf.obj TO .\Objects\nrf PRINT (.\Listings\nrf.m51)


MEMORY MODEL: SMALL WITH FLOATING POINT ARITHMETIC


INPUT MODULES INCLUDED:
  .\Objects\STARTUP.obj (?C_STARTUP)
  .\Objects\nrf.obj (NRF)
  D:\KEIL_V5\C51\LIB\C51FPS.LIB (?C?FPMUL)
  D:\KEIL_V5\C51\LIB\C51FPS.LIB (?C?FPDIV)
  D:\KEIL_V5\C51\LIB\C51FPS.LIB (?C?FCAST)
  D:\KEIL_V5\C51\LIB\C51FPS.LIB (?C?CASTF)
  D:\KEIL_V5\C51\LIB\C51FPS.LIB (?C?FPGETOPN)
  D:\KEIL_V5\C51\LIB\C51S.LIB (?C_INIT)
  D:\KEIL_V5\C51\LIB\C51S.LIB (?C?CLDOPTR)
  D:\KEIL_V5\C51\LIB\C51S.LIB (?C?CSTOPTR)
  D:\KEIL_V5\C51\LIB\C51S.LIB (?C?UIDIV)
  D:\KEIL_V5\C51\LIB\C51S.LIB (?C?LNEG)


LINK MAP OF MODULE:  .\Objects\nrf (?C_STARTUP)


            TYPE    BASE      LENGTH    RELOCATION   SEGMENT NAME
            -----------------------------------------------------

            * * * * * * *   D A T A   M E M O R Y   * * * * * * *
            REG     0000H     0008H     ABSOLUTE     "REG BANK 0"
            DATA    0008H     000BH     UNIT         _DATA_GROUP_
            DATA    0013H     0005H     UNIT         ?DT?_SPI_READ_BUF?NRF
            DATA    0018H     0004H     UNIT         ?DT?_DISPLAY?NRF
            DATA    001CH     0001H     UNIT         ?DT?KEYSCAN4X4?NRF
                    001DH     0003H                  *** GAP ***
            DATA    0020H     0001H     BIT_ADDR     ?BA?NRF
            BIT     0021H.0   0000H.1   UNIT         _BIT_GROUP_
                    0021H.1   0000H.7                *** GAP ***
            DATA    0022H     0026H     UNIT         ?DT?NRF
            IDATA   0048H     0001H     UNIT         ?STACK

            * * * * * * *   C O D E   M E M O R Y   * * * * * * *
            CODE    0000H     0003H     ABSOLUTE     
            CODE    0003H     0005H     UNIT         ?CO?NRF
            CODE    0008H     0003H     UNIT         ?PR?TIMER0_INT?NRF
            CODE    000BH     0003H     ABSOLUTE     
            CODE    000EH     0317H     UNIT         ?C?LIB_CODE
            CODE    0325H     0172H     UNIT         ?PR?KEYSCAN4X4?NRF
            CODE    0497H     008CH     UNIT         ?C_C51STARTUP
            CODE    0523H     0067H     UNIT         ?PR?_ADCVALUE?NRF
            CODE    058AH     0050H     UNIT         ?PR?_TX_MODE?NRF
            CODE    05DAH     0041H     UNIT         ?PR?MAIN?NRF
            CODE    061BH     003AH     UNIT         ?PR?_SPI_WRITE_BUF?NRF
            CODE    0655H     0031H     UNIT         ?PR?_SPI_READ_BUF?NRF
            CODE    0686H     002EH     UNIT         ?PR?RX_MODE?NRF
            CODE    06B4H     002EH     UNIT         ?PR?CHECK_ACK?NRF
            CODE    06E2H     0024H     UNIT         ?C_INITSEG
            CODE    0706H     0022H     UNIT         ?PR?_SPI_RW?NRF
BL51 BANKED LINKER/LOCATER V6.22.2.0                                                  08/22/2021  22:51:53  PAGE 2


            CODE    0728H     0020H     UNIT         ?PR?_DISPLAY?NRF
            CODE    0748H     001EH     UNIT         ?PR?_DELAYMS?NRF
            CODE    0766H     001AH     UNIT         ?PR?_SPI_RW_REG?NRF
            CODE    0780H     0019H     UNIT         ?PR?_DISPLAY1?NRF
            CODE    0799H     0010H     UNIT         ?PR?ADCINIT?NRF
            CODE    07A9H     000DH     UNIT         ?PR?_SPI_READ?NRF
            CODE    07B6H     0009H     UNIT         ?PR?INIT_IO?NRF



OVERLAY MAP OF MODULE:   .\Objects\nrf (?C_STARTUP)


SEGMENT                           BIT_GROUP          DATA_GROUP 
  +--> CALLED SEGMENT          START    LENGTH     START    LENGTH
------------------------------------------------------------------
?C_C51STARTUP                  -----    -----      -----    -----
  +--> ?PR?MAIN?NRF
  +--> ?C_INITSEG

?PR?MAIN?NRF                   -----    -----      0008H    0003H
  +--> ?PR?INIT_IO?NRF
  +--> ?PR?ADCINIT?NRF
  +--> ?PR?_ADCVALUE?NRF
  +--> ?PR?_TX_MODE?NRF
  +--> ?PR?CHECK_ACK?NRF
  +--> ?PR?_DELAYMS?NRF

?PR?_TX_MODE?NRF               -----    -----      000BH    0003H
  +--> ?CO?NRF
  +--> ?PR?_SPI_WRITE_BUF?NRF
  +--> ?PR?_SPI_RW_REG?NRF
  +--> ?PR?_DELAYMS?NRF

?PR?_SPI_WRITE_BUF?NRF         -----    -----      000EH    0005H
  +--> ?CO?NRF
  +--> ?PR?_SPI_RW?NRF

?PR?_SPI_RW_REG?NRF            -----    -----      -----    -----
  +--> ?PR?_SPI_RW?NRF

?PR?CHECK_ACK?NRF              0021H.0  0000H.1    -----    -----
  +--> ?PR?_DELAYMS?NRF
  +--> ?PR?_SPI_RW?NRF
  +--> ?PR?_SPI_RW_REG?NRF



SYMBOL TABLE OF MODULE:  .\Objects\nrf (?C_STARTUP)

  VALUE           TYPE          NAME
  ----------------------------------

  -------         MODULE        ?C_STARTUP
  C:0497H         SEGMENT       ?C_C51STARTUP
  I:0048H         SEGMENT       ?STACK
  C:0000H         PUBLIC        ?C_STARTUP
BL51 BANKED LINKER/LOCATER V6.22.2.0                                                  08/22/2021  22:51:53  PAGE 3


  D:00E0H         SYMBOL        ACC
  D:00F0H         SYMBOL        B
  D:0083H         SYMBOL        DPH
  D:0082H         SYMBOL        DPL
  N:0000H         SYMBOL        IBPSTACK
  N:0100H         SYMBOL        IBPSTACKTOP
  N:0080H         SYMBOL        IDATALEN
  C:049AH         SYMBOL        IDATALOOP
  N:0000H         SYMBOL        PBPSTACK
  N:0100H         SYMBOL        PBPSTACKTOP
  N:0000H         SYMBOL        PDATALEN
  N:0000H         SYMBOL        PDATASTART
  N:0000H         SYMBOL        PPAGE
  N:0000H         SYMBOL        PPAGEENABLE
  D:00A0H         SYMBOL        PPAGE_SFR
  D:0081H         SYMBOL        SP
  C:0497H         SYMBOL        STARTUP1
  N:0000H         SYMBOL        XBPSTACK
  N:0000H         SYMBOL        XBPSTACKTOP
  N:0000H         SYMBOL        XDATALEN
  N:0000H         SYMBOL        XDATASTART
  C:0000H         LINE#         126
  C:0497H         LINE#         133
  C:0499H         LINE#         134
  C:049AH         LINE#         135
  C:049BH         LINE#         136
  C:049DH         LINE#         185
  C:04A0H         LINE#         196
  -------         ENDMOD        ?C_STARTUP

  -------         MODULE        NRF
  C:0000H         SYMBOL        _ICE_DUMMY_
  D:0080H         PUBLIC        P0
  C:0008H         PUBLIC        Timer0_INT
  D:0090H         PUBLIC        P1
  D:00A0H         PUBLIC        P2
  D:00B0H         PUBLIC        P3
  B:00A8H.7       PUBLIC        EA
  B:0090H.0       PUBLIC        CE
  D:00A8H         PUBLIC        IE
  C:06B4H         PUBLIC        Check_ACK
  C:0686H         PUBLIC        RX_Mode
  C:074CH         PUBLIC        _DelayMS
  C:058AH         PUBLIC        _TX_Mode
  B:00B0H.4       PUBLIC        OE
  C:0003H         PUBLIC        TX_ADDRESS
  D:00B8H         PUBLIC        IP
  D:0022H         PUBLIC        DATA
  D:0023H         PUBLIC        flag
  B:0020H.6       PUBLIC        RX_DR
  B:0020H.5       PUBLIC        TX_DS
  C:05DAH         PUBLIC        main
  B:00B0H.6       PUBLIC        ST
  C:0780H         PUBLIC        _display1
  D:0098H         PUBLIC        SCON
  D:0089H         PUBLIC        TMOD
  D:0088H         PUBLIC        TCON
BL51 BANKED LINKER/LOCATER V6.22.2.0                                                  08/22/2021  22:51:53  PAGE 4


  B:0090H.4       PUBLIC        MOSI
  B:0090H.2       PUBLIC        MISO
  C:0799H         PUBLIC        adcInit
  D:0020H         PUBLIC        sta
  B:00A8H.1       PUBLIC        ET0
  C:0655H         PUBLIC        _SPI_Read_Buf
  C:0523H         PUBLIC        _adcvalue
  C:07A9H         PUBLIC        _SPI_Read
  D:008CH         PUBLIC        TH0
  D:008AH         PUBLIC        TL0
  D:0024H         PUBLIC        weitable
  C:0325H         PUBLIC        keyscan4x4
  B:0088H.4       PUBLIC        TR0
  B:00B0H.5       PUBLIC        EOC
  C:0626H         PUBLIC        _SPI_Write_Buf
  B:00B0H.7       PUBLIC        CLK
  B:0090H.1       PUBLIC        SCK
  B:0090H.3       PUBLIC        CSN
  D:00C8H         PUBLIC        T2CON
  D:0028H         PUBLIC        RX_BUF
  D:002CH         PUBLIC        TX_BUF
  B:0090H.5       PUBLIC        IRQ
  D:0030H         PUBLIC        sz
  B:0020H.4       PUBLIC        MAX_RT
  C:07B6H         PUBLIC        init_io
  C:076FH         PUBLIC        _SPI_RW_Reg
  C:0706H         PUBLIC        _SPI_RW
  C:0728H         PUBLIC        _display
  D:00D0H         PUBLIC        PSW
  C:0748H         SYMBOL        L?0087
  -------         PROC          L?0086
  -------         ENDPROC       L?0086
  C:0748H         SYMBOL        L?0087
  -------         PROC          _DELAYMS
  D:0006H         SYMBOL        ms
  -------         DO            
  D:0005H         SYMBOL        i
  -------         ENDDO         
  C:074CH         LINE#         75
  C:074CH         LINE#         76
  C:074CH         LINE#         78
  C:0756H         LINE#         79
  C:0765H         LINE#         81
  -------         ENDPROC       _DELAYMS
  -------         PROC          _DISPLAY1
  D:0007H         SYMBOL        wei
  D:0005H         SYMBOL        shu
  C:0780H         LINE#         87
  C:0780H         LINE#         88
  C:0780H         LINE#         89
  C:0781H         LINE#         90
  C:0784H         LINE#         91
  C:078BH         LINE#         92
  C:0792H         LINE#         93
  -------         ENDPROC       _DISPLAY1
  -------         PROC          _DISPLAY
  D:0007H         SYMBOL        a
BL51 BANKED LINKER/LOCATER V6.22.2.0                                                  08/22/2021  22:51:53  PAGE 5


  D:0003H         SYMBOL        b
  D:0004H         SYMBOL        c
  D:001BH         SYMBOL        d
  C:0728H         LINE#         95
  C:072CH         LINE#         96
  C:072CH         LINE#         97
  C:0733H         LINE#         98
  C:073AH         LINE#         99
  C:0741H         LINE#         100
  -------         ENDPROC       _DISPLAY
  -------         PROC          ADCINIT
  C:0799H         LINE#         106
  C:0799H         LINE#         107
  C:0799H         LINE#         108
  C:079CH         LINE#         109
  C:079FH         LINE#         110
  C:07A2H         LINE#         113
  C:07A4H         LINE#         114
  C:07A6H         LINE#         115
  C:07A8H         LINE#         116
  -------         ENDPROC       ADCINIT
  -------         PROC          _ADCVALUE
  D:0007H         SYMBOL        p
  -------         DO            
  D:0002H         SYMBOL        d
  D:0004H         SYMBOL        k
  -------         ENDDO         
  C:0523H         LINE#         144
  C:0523H         LINE#         145
  C:0523H         LINE#         146
  C:0527H         LINE#         148
  C:052FH         LINE#         149
  C:0544H         LINE#         150
  C:054BH         LINE#         151
  C:0554H         LINE#         152
  C:0568H         LINE#         153
  C:057CH         LINE#         154
  C:0589H         LINE#         155
  -------         ENDPROC       _ADCVALUE
  -------         PROC          KEYSCAN4X4
  -------         DO            
  D:001CH         SYMBOL        temp
  D:0082H         SYMBOL        keyvalue
  -------         ENDDO         
  C:0325H         LINE#         162
  C:0325H         LINE#         163
  C:0325H         LINE#         165
  C:0328H         LINE#         167
  C:032BH         LINE#         168
  C:032EH         LINE#         169
  C:0331H         LINE#         170
  C:0337H         LINE#         171
  C:0337H         LINE#         172
  C:033AH         LINE#         173
  C:033DH         LINE#         174
  C:0340H         LINE#         175
  C:0346H         LINE#         176
BL51 BANKED LINKER/LOCATER V6.22.2.0                                                  08/22/2021  22:51:53  PAGE 6


  C:0346H         LINE#         177
  C:0349H         LINE#         178
  C:035BH         LINE#         179
  C:035BH         LINE#         180
  C:035BH         LINE#         181
  C:035EH         LINE#         182
  C:0360H         LINE#         183
  C:0360H         LINE#         184
  C:0363H         LINE#         185
  C:0365H         LINE#         186
  C:0365H         LINE#         187
  C:0368H         LINE#         188
  C:036AH         LINE#         189
  C:036AH         LINE#         190
  C:036DH         LINE#         191
  C:036DH         LINE#         192
  C:036DH         LINE#         193
  C:036DH         LINE#         194
  C:0373H         LINE#         195
  C:0373H         LINE#         196
  C:0376H         LINE#         197
  C:0379H         LINE#         198
  C:037BH         LINE#         199
  C:0384H         LINE#         200
  C:0384H         LINE#         202
  C:0387H         LINE#         203
  C:038AH         LINE#         204
  C:038DH         LINE#         205
  C:0393H         LINE#         206
  C:0393H         LINE#         207
  C:0396H         LINE#         208
  C:0399H         LINE#         209
  C:039CH         LINE#         210
  C:03A2H         LINE#         211
  C:03A2H         LINE#         212
  C:03A5H         LINE#         213
  C:03B7H         LINE#         214
  C:03B7H         LINE#         215
  C:03B7H         LINE#         216
  C:03BAH         LINE#         217
  C:03BCH         LINE#         218
  C:03BCH         LINE#         219
  C:03BFH         LINE#         220
  C:03C1H         LINE#         221
  C:03C1H         LINE#         222
  C:03C4H         LINE#         223
  C:03C6H         LINE#         224
  C:03C6H         LINE#         225
  C:03C9H         LINE#         226
  C:03C9H         LINE#         227
  C:03C9H         LINE#         228
  C:03C9H         LINE#         229
  C:03CFH         LINE#         230
  C:03CFH         LINE#         231
  C:03D2H         LINE#         232
  C:03D5H         LINE#         233
  C:03D7H         LINE#         234
BL51 BANKED LINKER/LOCATER V6.22.2.0                                                  08/22/2021  22:51:53  PAGE 7


  C:03E0H         LINE#         235
  C:03E0H         LINE#         237
  C:03E3H         LINE#         238
  C:03E6H         LINE#         239
  C:03E9H         LINE#         240
  C:03EFH         LINE#         241
  C:03EFH         LINE#         242
  C:03F2H         LINE#         243
  C:03F5H         LINE#         244
  C:03F8H         LINE#         245
  C:03FEH         LINE#         246
  C:03FEH         LINE#         247
  C:0401H         LINE#         248
  C:0413H         LINE#         249
  C:0413H         LINE#         250
  C:0413H         LINE#         251
  C:0416H         LINE#         252
  C:0418H         LINE#         253
  C:0418H         LINE#         254
  C:041BH         LINE#         255
  C:041DH         LINE#         256
  C:041DH         LINE#         257
  C:0420H         LINE#         258
  C:0422H         LINE#         259
  C:0422H         LINE#         260
  C:0425H         LINE#         261
  C:0425H         LINE#         262
  C:0425H         LINE#         263
  C:0425H         LINE#         264
  C:042BH         LINE#         265
  C:042BH         LINE#         266
  C:042EH         LINE#         267
  C:0431H         LINE#         268
  C:0433H         LINE#         269
  C:043CH         LINE#         270
  C:043CH         LINE#         272
  C:043FH         LINE#         273
  C:0442H         LINE#         274
  C:0445H         LINE#         275
  C:044BH         LINE#         276
  C:044BH         LINE#         277
  C:044EH         LINE#         278
  C:0451H         LINE#         279
  C:0454H         LINE#         280
  C:045AH         LINE#         281
  C:045AH         LINE#         282
  C:045DH         LINE#         283
  C:046FH         LINE#         284
  C:046FH         LINE#         285
  C:046FH         LINE#         286
  C:046FH         LINE#         287
  C:0471H         LINE#         288
  C:0471H         LINE#         291
  C:0471H         LINE#         292
  C:0476H         LINE#         293
  C:0478H         LINE#         294
  C:0478H         LINE#         295
BL51 BANKED LINKER/LOCATER V6.22.2.0                                                  08/22/2021  22:51:53  PAGE 8


  C:047BH         LINE#         296
  C:047BH         LINE#         297
  C:047BH         LINE#         298
  C:047BH         LINE#         299
  C:0481H         LINE#         300
  C:0481H         LINE#         301
  C:0484H         LINE#         302
  C:0487H         LINE#         303
  C:0489H         LINE#         304
  C:0492H         LINE#         305
  C:0492H         LINE#         306
  C:0496H         LINE#         307
  -------         ENDPROC       KEYSCAN4X4
  -------         PROC          INIT_IO
  C:07B6H         LINE#         354
  C:07B6H         LINE#         355
  C:07B6H         LINE#         356
  C:07B8H         LINE#         357
  C:07BAH         LINE#         358
  C:07BCH         LINE#         359
  C:07BEH         LINE#         361
  -------         ENDPROC       INIT_IO
  -------         PROC          _SPI_RW
  D:0007H         SYMBOL        byte
  -------         DO            
  D:0006H         SYMBOL        i
  -------         ENDDO         
  C:0706H         LINE#         370
  C:0706H         LINE#         371
  C:0706H         LINE#         373
  C:0712H         LINE#         374
  C:0712H         LINE#         375
  C:0716H         LINE#         376
  C:071AH         LINE#         377
  C:071CH         LINE#         378
  C:0722H         LINE#         379
  C:0724H         LINE#         380
  C:0727H         LINE#         381
  C:0727H         LINE#         382
  -------         ENDPROC       _SPI_RW
  -------         PROC          L?0089
  -------         ENDPROC       L?0089
  -------         PROC          _SPI_RW_REG
  D:0007H         SYMBOL        reg
  D:0005H         SYMBOL        value
  -------         DO            
  D:0004H         SYMBOL        status
  -------         ENDDO         
  C:076FH         LINE#         390
  C:076FH         LINE#         391
  C:076FH         LINE#         393
  C:0771H         LINE#         394
  C:0776H         LINE#         395
  C:077BH         LINE#         396
  C:077DH         LINE#         397
  C:077FH         LINE#         398
  -------         ENDPROC       _SPI_RW_REG
BL51 BANKED LINKER/LOCATER V6.22.2.0                                                  08/22/2021  22:51:53  PAGE 9


  -------         PROC          _SPI_READ
  D:0007H         SYMBOL        reg
  -------         DO            
  D:0007H         SYMBOL        reg_val
  -------         ENDDO         
  C:07A9H         LINE#         406
  C:07A9H         LINE#         407
  C:07A9H         LINE#         409
  C:07ABH         LINE#         410
  C:07AEH         LINE#         411
  C:07B3H         LINE#         412
  C:07B5H         LINE#         413
  C:07B5H         LINE#         414
  -------         ENDPROC       _SPI_READ
  -------         PROC          _SPI_READ_BUF
  D:0007H         SYMBOL        reg
  D:0014H         SYMBOL        pBuf
  D:0017H         SYMBOL        bytes
  -------         DO            
  D:0005H         SYMBOL        status
  D:0004H         SYMBOL        i
  -------         ENDDO         
  C:0655H         LINE#         423
  C:065BH         LINE#         424
  C:065BH         LINE#         426
  C:065DH         LINE#         427
  C:0662H         LINE#         428
  C:066AH         LINE#         429
  C:0681H         LINE#         430
  C:0683H         LINE#         431
  C:0685H         LINE#         432
  -------         ENDPROC       _SPI_READ_BUF
  -------         PROC          L?0088
  -------         ENDPROC       L?0088
  -------         PROC          _SPI_WRITE_BUF
  D:0007H         SYMBOL        reg
  D:000FH         SYMBOL        pBuf
  D:0012H         SYMBOL        bytes
  -------         DO            
  D:0005H         SYMBOL        status
  D:0004H         SYMBOL        i
  -------         ENDDO         
  C:0626H         LINE#         441
  C:062CH         LINE#         442
  C:062CH         LINE#         444
  C:062EH         LINE#         445
  C:0633H         LINE#         446
  C:063BH         LINE#         447
  C:0650H         LINE#         448
  C:0652H         LINE#         449
  C:0654H         LINE#         450
  -------         ENDPROC       _SPI_WRITE_BUF
  -------         PROC          RX_MODE
  C:0686H         LINE#         458
  C:0686H         LINE#         459
  C:0686H         LINE#         460
  C:0688H         LINE#         461
BL51 BANKED LINKER/LOCATER V6.22.2.0                                                  08/22/2021  22:51:53  PAGE 10


  C:068BH         LINE#         462
  C:068BH         LINE#         463
  C:068EH         LINE#         464
  C:0695H         LINE#         465
  C:069CH         LINE#         466
  C:06A3H         LINE#         467
  C:06AAH         LINE#         468
  C:06B1H         LINE#         469
  C:06B3H         LINE#         470
  -------         ENDPROC       RX_MODE
  -------         PROC          _TX_MODE
  D:000BH         SYMBOL        BUF
  C:058AH         LINE#         480
  C:0590H         LINE#         481
  C:0590H         LINE#         482
  C:0592H         LINE#         483
  C:05A0H         LINE#         484
  C:05A3H         LINE#         485
  C:05B1H         LINE#         486
  C:05B1H         LINE#         487
  C:05B4H         LINE#         488
  C:05BBH         LINE#         489
  C:05C2H         LINE#         490
  C:05C9H         LINE#         491
  C:05D0H         LINE#         492
  C:05D7H         LINE#         493
  C:05D9H         LINE#         494
  -------         ENDPROC       _TX_MODE
  -------         PROC          CHECK_ACK
  B:0021H.0       SYMBOL        clear
  C:06B4H         LINE#         503
  C:06B4H         LINE#         504
  C:06B4H         LINE#         505
  C:06BBH         LINE#         506
  C:06BEH         LINE#         508
  C:06C5H         LINE#         509
  C:06C5H         LINE#         510
  C:06C5H         LINE#         513
  C:06C5H         LINE#         515
  C:06C8H         LINE#         516
  C:06CBH         LINE#         517
  C:06D0H         LINE#         518
  C:06D7H         LINE#         519
  C:06D9H         LINE#         520
  C:06DCH         LINE#         521
  C:06DFH         LINE#         523
  C:06E1H         LINE#         524
  -------         ENDPROC       CHECK_ACK
  -------         PROC          MAIN
  -------         DO            
  D:0008H         SYMBOL        i
  D:0006H         SYMBOL        j
  D:000AH         SYMBOL        addr
  -------         ENDDO         
  C:05DAH         LINE#         532
  C:05DAH         LINE#         533
  C:05DAH         LINE#         534
BL51 BANKED LINKER/LOCATER V6.22.2.0                                                  08/22/2021  22:51:53  PAGE 11


  C:05DFH         LINE#         538
  C:05E2H         LINE#         539
  C:05E3H         LINE#         540
  C:05F0H         LINE#         541
  C:05F3H         LINE#         542
  C:05F6H         LINE#         543
  C:05F6H         LINE#         544
  C:05F6H         LINE#         546
  C:05F8H         LINE#         547
  C:05FAH         LINE#         548
  C:05FCH         LINE#         549
  C:05FFH         LINE#         551
  C:0601H         LINE#         552
  C:0606H         LINE#         553
  C:060FH         LINE#         554
  C:0614H         LINE#         555
  C:0617H         LINE#         556
  C:0619H         LINE#         590
  -------         ENDPROC       MAIN
  -------         PROC          TIMER0_INT
  C:0008H         LINE#         592
  C:0008H         LINE#         594
  C:000AH         LINE#         595
  -------         ENDPROC       TIMER0_INT
  -------         ENDMOD        NRF

  -------         MODULE        ?C?FPMUL
  C:000EH         PUBLIC        ?C?FPMUL
  -------         ENDMOD        ?C?FPMUL

  -------         MODULE        ?C?FPDIV
  C:0117H         PUBLIC        ?C?FPDIV
  -------         ENDMOD        ?C?FPDIV

  -------         MODULE        ?C?FCAST
  C:01BEH         PUBLIC        ?C?FCASTC
  C:01B9H         PUBLIC        ?C?FCASTI
  C:01B4H         PUBLIC        ?C?FCASTL
  -------         ENDMOD        ?C?FCAST

  -------         MODULE        ?C?CASTF
  C:01F2H         PUBLIC        ?C?CASTF
  -------         ENDMOD        ?C?CASTF

  -------         MODULE        ?C?CLDOPTR
  C:0273H         PUBLIC        ?C?CLDOPTR
  -------         ENDMOD        ?C?CLDOPTR

  -------         MODULE        ?C?CSTOPTR
  C:02A0H         PUBLIC        ?C?CSTOPTR
  -------         ENDMOD        ?C?CSTOPTR

  -------         MODULE        ?C?UIDIV
  C:02C2H         PUBLIC        ?C?UIDIV
  -------         ENDMOD        ?C?UIDIV

  -------         MODULE        ?C?LNEG
BL51 BANKED LINKER/LOCATER V6.22.2.0                                                  08/22/2021  22:51:53  PAGE 12


  C:0317H         PUBLIC        ?C?LNEG
  -------         ENDMOD        ?C?LNEG

*** WARNING L16: UNCALLED SEGMENT, IGNORED FOR OVERLAY PROCESS
    SEGMENT: ?PR?_DISPLAY?NRF

*** WARNING L16: UNCALLED SEGMENT, IGNORED FOR OVERLAY PROCESS
    SEGMENT: ?PR?KEYSCAN4X4?NRF

*** WARNING L16: UNCALLED SEGMENT, IGNORED FOR OVERLAY PROCESS
    SEGMENT: ?PR?_SPI_READ?NRF

*** WARNING L16: UNCALLED SEGMENT, IGNORED FOR OVERLAY PROCESS
    SEGMENT: ?PR?_SPI_READ_BUF?NRF

*** WARNING L16: UNCALLED SEGMENT, IGNORED FOR OVERLAY PROCESS
    SEGMENT: ?PR?RX_MODE?NRF

Program Size: data=69.1 xdata=0 code=1983
LINK/LOCATE RUN COMPLETE.  5 WARNING(S),  0 ERROR(S)
