BL51 BANKED LINKER/LOCATER V6.22.2.0                                                    09/14/2021  21:49:07  PAGE 1


BL51 BANKED LINKER/LOCATER V6.22.2.0, INVOKED BY:
D:\KEIL_V5\C51\BIN\BL51.EXE .\Objects\STARTUP.obj, .\Objects\nrfRecv.obj TO .\Objects\nrfRecv PRINT (.\Listings\nrfRecv.
>> m51)


MEMORY MODEL: SMALL


INPUT MODULES INCLUDED:
  .\Objects\STARTUP.obj (?C_STARTUP)
  .\Objects\nrfRecv.obj (NRFRECV)
  D:\KEIL_V5\C51\LIB\C51S.LIB (?C_INIT)
  D:\KEIL_V5\C51\LIB\C51S.LIB (?C?CLDPTR)
  D:\KEIL_V5\C51\LIB\C51S.LIB (?C?CLDOPTR)
  D:\KEIL_V5\C51\LIB\C51S.LIB (?C?CSTOPTR)


LINK MAP OF MODULE:  .\Objects\nrfRecv (?C_STARTUP)


            TYPE    BASE      LENGTH    RELOCATION   SEGMENT NAME
            -----------------------------------------------------

            * * * * * * *   D A T A   M E M O R Y   * * * * * * *
            REG     0000H     0008H     ABSOLUTE     "REG BANK 0"
            DATA    0008H     000BH     UNIT         _DATA_GROUP_
            DATA    0013H     0003H     UNIT         ?DT?_TX_MODE?NRFRECV
                    0016H     000AH                  *** GAP ***
            DATA    0020H     0001H     BIT_ADDR     ?BA?NRFRECV
            BIT     0021H.0   0000H.1   UNIT         ?BI?CHECK_ACK?NRFRECV
                    0021H.1   0000H.7                *** GAP ***
            DATA    0022H     0022H     UNIT         ?DT?NRFRECV
            IDATA   0044H     0001H     UNIT         ?STACK

            * * * * * * *   C O D E   M E M O R Y   * * * * * * *
            CODE    0000H     0003H     ABSOLUTE     
            CODE    0003H     0008H     UNIT         ?PR?_WRITECMD?NRFRECV
            CODE    000BH     0003H     ABSOLUTE     
            CODE    000EH     0014H     UNIT         ?PR?LCD_INIT?NRFRECV
                    0022H     0001H                  *** GAP ***
            CODE    0023H     0003H     ABSOLUTE     
            CODE    0026H     008CH     UNIT         ?C_C51STARTUP
            CODE    00B2H     0068H     UNIT         ?C?LIB_CODE
            CODE    011AH     005BH     UNIT         ?PR?_WRITESTR?NRFRECV
            CODE    0175H     004FH     UNIT         ?PR?ET0_INT?NRFRECV
            CODE    01C4H     0049H     UNIT         ?PR?_TX_MODE?NRFRECV
            CODE    020DH     0047H     UNIT         ?PR?_UARTSENDSTRING?NRFRECV
            CODE    0254H     0045H     UNIT         ?PR?_LCD_SHOW?NRFRECV
            CODE    0299H     003FH     UNIT         ?PR?MAIN?NRFRECV
            CODE    02D8H     003AH     UNIT         ?PR?_SPI_WRITE_BUF?NRFRECV
            CODE    0312H     0031H     UNIT         ?PR?_SPI_READ_BUF?NRFRECV
            CODE    0343H     002EH     UNIT         ?PR?RX_MODE?NRFRECV
            CODE    0371H     0027H     UNIT         ?PR?CHECK_ACK?NRFRECV
            CODE    0398H     0022H     UNIT         ?PR?_SPI_RW?NRFRECV
            CODE    03BAH     001BH     UNIT         ?PR?_DELAYMS?NRFRECV
            CODE    03D5H     001AH     UNIT         ?PR?_SPI_RW_REG?NRFRECV
            CODE    03EFH     0014H     UNIT         ?PR?UART_INIT?NRFRECV
            CODE    0403H     0011H     UNIT         ?PR?ET0_INIT?NRFRECV
BL51 BANKED LINKER/LOCATER V6.22.2.0                                                  09/14/2021  21:49:07  PAGE 2


            CODE    0414H     000FH     UNIT         ?PR?_UARTSEND?NRFRECV
            CODE    0423H     000DH     UNIT         ?PR?_SPI_READ?NRFRECV
            CODE    0430H     0009H     UNIT         ?PR?NRF24L01_INIT?NRFRECV
            CODE    0439H     0009H     UNIT         ?PR?UARTTIMER1?NRFRECV
            CODE    0442H     0008H     UNIT         ?PR?_WRITEDATA?NRFRECV
            CODE    044AH     0007H     UNIT         ?C_INITSEG
            CODE    0451H     0005H     UNIT         ?CO?NRFRECV



OVERLAY MAP OF MODULE:   .\Objects\nrfRecv (?C_STARTUP)


SEGMENT                               DATA_GROUP 
  +--> CALLED SEGMENT               START    LENGTH
---------------------------------------------------
?C_C51STARTUP                       -----    -----
  +--> ?PR?MAIN?NRFRECV
  +--> ?C_INITSEG

?PR?MAIN?NRFRECV                    0008H    0001H
  +--> ?PR?UART_INIT?NRFRECV
  +--> ?PR?LCD_INIT?NRFRECV
  +--> ?PR?NRF24L01_INIT?NRFRECV
  +--> ?PR?RX_MODE?NRFRECV
  +--> ?PR?ET0_INIT?NRFRECV
  +--> ?PR?_SPI_READ?NRFRECV
  +--> ?PR?_SPI_READ_BUF?NRFRECV
  +--> ?PR?_SPI_RW_REG?NRFRECV

?PR?LCD_INIT?NRFRECV                -----    -----
  +--> ?PR?_WRITECMD?NRFRECV

?PR?_WRITECMD?NRFRECV               -----    -----
  +--> ?PR?_DELAYMS?NRFRECV

?PR?RX_MODE?NRFRECV                 -----    -----
  +--> ?PR?_SPI_WRITE_BUF?NRFRECV
  +--> ?PR?_SPI_RW_REG?NRFRECV

?PR?_SPI_WRITE_BUF?NRFRECV          0009H    0005H
  +--> ?CO?NRFRECV
  +--> ?PR?_SPI_RW?NRFRECV

?PR?_SPI_RW_REG?NRFRECV             -----    -----
  +--> ?PR?_SPI_RW?NRFRECV

?PR?_SPI_READ?NRFRECV               -----    -----
  +--> ?PR?_SPI_RW?NRFRECV

?PR?_SPI_READ_BUF?NRFRECV           0009H    0005H
  +--> ?PR?_SPI_RW?NRFRECV

*** NEW ROOT ***************************************************

?PR?ET0_INT?NRFRECV                 -----    -----
  +--> ?PR?_UARTSENDSTRING?NRFRECV
BL51 BANKED LINKER/LOCATER V6.22.2.0                                                  09/14/2021  21:49:07  PAGE 3


  +--> ?PR?_LCD_SHOW?NRFRECV

?PR?_UARTSENDSTRING?NRFRECV         000EH    0003H
  +--> ?PR?_DELAYMS?NRFRECV

?PR?_LCD_SHOW?NRFRECV               000EH    0003H
  +--> ?PR?_WRITESTR?NRFRECV
  +--> ?PR?_WRITEDATA?NRFRECV

?PR?_WRITESTR?NRFRECV               0011H    0002H
  +--> ?PR?_WRITECMD?NRFRECV
  +--> ?PR?_WRITEDATA?NRFRECV

?PR?_WRITEDATA?NRFRECV              -----    -----
  +--> ?PR?_DELAYMS?NRFRECV



SYMBOL TABLE OF MODULE:  .\Objects\nrfRecv (?C_STARTUP)

  VALUE           TYPE          NAME
  ----------------------------------

  -------         MODULE        ?C_STARTUP
  C:0026H         SEGMENT       ?C_C51STARTUP
  I:0044H         SEGMENT       ?STACK
  C:0000H         PUBLIC        ?C_STARTUP
  D:00E0H         SYMBOL        ACC
  D:00F0H         SYMBOL        B
  D:0083H         SYMBOL        DPH
  D:0082H         SYMBOL        DPL
  N:0000H         SYMBOL        IBPSTACK
  N:0100H         SYMBOL        IBPSTACKTOP
  N:0080H         SYMBOL        IDATALEN
  C:0029H         SYMBOL        IDATALOOP
  N:0000H         SYMBOL        PBPSTACK
  N:0100H         SYMBOL        PBPSTACKTOP
  N:0000H         SYMBOL        PDATALEN
  N:0000H         SYMBOL        PDATASTART
  N:0000H         SYMBOL        PPAGE
  N:0000H         SYMBOL        PPAGEENABLE
  D:00A0H         SYMBOL        PPAGE_SFR
  D:0081H         SYMBOL        SP
  C:0026H         SYMBOL        STARTUP1
  N:0000H         SYMBOL        XBPSTACK
  N:0000H         SYMBOL        XBPSTACKTOP
  N:0000H         SYMBOL        XDATALEN
  N:0000H         SYMBOL        XDATASTART
  C:0000H         LINE#         126
  C:0026H         LINE#         133
  C:0028H         LINE#         134
  C:0029H         LINE#         135
  C:002AH         LINE#         136
  C:002CH         LINE#         185
  C:002FH         LINE#         196
  -------         ENDMOD        ?C_STARTUP

BL51 BANKED LINKER/LOCATER V6.22.2.0                                                  09/14/2021  21:49:07  PAGE 4


  -------         MODULE        NRFRECV
  C:0000H         SYMBOL        _ICE_DUMMY_
  D:0080H         PUBLIC        P0
  D:0090H         PUBLIC        P1
  D:00A0H         PUBLIC        P2
  D:00B0H         PUBLIC        P3
  B:00A8H.7       PUBLIC        EA
  B:0090H.6       PUBLIC        CE
  C:0442H         PUBLIC        _WriteData
  C:0371H         PUBLIC        Check_ACK
  C:0343H         PUBLIC        RX_Mode
  C:03C2H         PUBLIC        _DelayMS
  C:01C4H         PUBLIC        _TX_Mode
  C:03EFH         PUBLIC        Uart_Init
  C:0175H         PUBLIC        ET0_INT
  C:0451H         PUBLIC        TX_ADDRESS
  B:00A8H.4       PUBLIC        ES
  D:0022H         PUBLIC        flag
  B:0098H.1       PUBLIC        TI
  B:0020H.6       PUBLIC        RX_DR
  B:0020H.5       PUBLIC        TX_DS
  B:00A0H.7       PUBLIC        RS
  C:0299H         PUBLIC        main
  C:020DH         PUBLIC        _UartSendString
  B:00A0H.6       PUBLIC        RW
  C:0414H         PUBLIC        _UartSend
  D:0099H         PUBLIC        SBUF
  D:0087H         PUBLIC        PCON
  D:0098H         PUBLIC        SCON
  D:0089H         PUBLIC        TMOD
  B:0090H.4       PUBLIC        MOSI
  B:0090H.2       PUBLIC        MISO
  B:00A0H.5       PUBLIC        E
  D:0023H         PUBLIC        busy
  C:011AH         PUBLIC        _WriteStr
  D:0020H         PUBLIC        sta
  B:00A8H.1       PUBLIC        ET0
  C:000EH         PUBLIC        LCD_Init
  C:0312H         PUBLIC        _SPI_Read_Buf
  C:0423H         PUBLIC        _SPI_Read
  D:008CH         PUBLIC        TH0
  D:008DH         PUBLIC        TH1
  D:008AH         PUBLIC        TL0
  D:008BH         PUBLIC        TL1
  C:0430H         PUBLIC        Nrf24l01_Init
  B:0088H.4       PUBLIC        TR0
  C:0254H         PUBLIC        _LCD_Show
  B:0088H.6       PUBLIC        TR1
  C:02E3H         PUBLIC        _SPI_Write_Buf
  C:0403H         PUBLIC        ET0_init
  B:0090H.1       PUBLIC        SCK
  C:0003H         PUBLIC        _WriteCMD
  B:0090H.3       PUBLIC        CSN
  D:0024H         PUBLIC        RX_BUF
  D:0034H         PUBLIC        TX_BUF
  B:0090H.5       PUBLIC        IRQ
  B:0020H.4       PUBLIC        MAX_RT
BL51 BANKED LINKER/LOCATER V6.22.2.0                                                  09/14/2021  21:49:07  PAGE 5


  C:0439H         PUBLIC        uartTimer1
  C:03DEH         PUBLIC        _SPI_RW_Reg
  C:0398H         PUBLIC        _SPI_RW
  -------         PROC          L?0080
  -------         ENDPROC       L?0080
  -------         PROC          _DELAYMS
  D:0007H         SYMBOL        ms
  -------         DO            
  D:0006H         SYMBOL        i
  D:0005H         SYMBOL        j
  -------         ENDDO         
  C:03C2H         LINE#         65
  C:03C2H         LINE#         66
  C:03C2H         LINE#         68
  C:03C4H         LINE#         69
  C:03C9H         LINE#         70
  C:03C9H         LINE#         71
  C:03CBH         LINE#         72
  C:03CDH         LINE#         74
  C:03CFH         LINE#         75
  C:03D1H         LINE#         77
  C:03D4H         LINE#         78
  -------         ENDPROC       _DELAYMS
  -------         PROC          NRF24L01_INIT
  C:0430H         LINE#         84
  C:0430H         LINE#         85
  C:0430H         LINE#         86
  C:0432H         LINE#         87
  C:0434H         LINE#         88
  C:0436H         LINE#         89
  C:0438H         LINE#         90
  -------         ENDPROC       NRF24L01_INIT
  -------         PROC          _SPI_RW
  D:0007H         SYMBOL        byte
  -------         DO            
  D:0006H         SYMBOL        i
  -------         ENDDO         
  C:0398H         LINE#         99
  C:0398H         LINE#         100
  C:0398H         LINE#         102
  C:03A4H         LINE#         103
  C:03A4H         LINE#         104
  C:03A8H         LINE#         105
  C:03ACH         LINE#         106
  C:03AEH         LINE#         107
  C:03B4H         LINE#         108
  C:03B6H         LINE#         109
  C:03B9H         LINE#         110
  C:03B9H         LINE#         111
  -------         ENDPROC       _SPI_RW
  -------         PROC          L?0079
  -------         ENDPROC       L?0079
  -------         PROC          _SPI_RW_REG
  D:0007H         SYMBOL        reg
  D:0005H         SYMBOL        value
  -------         DO            
  D:0004H         SYMBOL        status
BL51 BANKED LINKER/LOCATER V6.22.2.0                                                  09/14/2021  21:49:07  PAGE 6


  -------         ENDDO         
  C:03DEH         LINE#         119
  C:03DEH         LINE#         120
  C:03DEH         LINE#         122
  C:03E0H         LINE#         123
  C:03E5H         LINE#         124
  C:03EAH         LINE#         125
  C:03ECH         LINE#         126
  C:03EEH         LINE#         127
  -------         ENDPROC       _SPI_RW_REG
  -------         PROC          _SPI_READ
  D:0007H         SYMBOL        reg
  -------         DO            
  D:0007H         SYMBOL        reg_val
  -------         ENDDO         
  C:0423H         LINE#         135
  C:0423H         LINE#         136
  C:0423H         LINE#         138
  C:0425H         LINE#         139
  C:0428H         LINE#         140
  C:042DH         LINE#         141
  C:042FH         LINE#         142
  C:042FH         LINE#         143
  -------         ENDPROC       _SPI_READ
  -------         PROC          _SPI_READ_BUF
  D:0007H         SYMBOL        reg
  D:000AH         SYMBOL        pBuf
  D:000DH         SYMBOL        bytes
  -------         DO            
  D:0005H         SYMBOL        status
  D:0004H         SYMBOL        i
  -------         ENDDO         
  C:0312H         LINE#         152
  C:0318H         LINE#         153
  C:0318H         LINE#         155
  C:031AH         LINE#         156
  C:031FH         LINE#         157
  C:0327H         LINE#         158
  C:033EH         LINE#         159
  C:0340H         LINE#         160
  C:0342H         LINE#         161
  -------         ENDPROC       _SPI_READ_BUF
  -------         PROC          L?0078
  -------         ENDPROC       L?0078
  -------         PROC          _SPI_WRITE_BUF
  D:0007H         SYMBOL        reg
  D:000AH         SYMBOL        pBuf
  D:000DH         SYMBOL        bytes
  -------         DO            
  D:0005H         SYMBOL        status
  D:0004H         SYMBOL        i
  -------         ENDDO         
  C:02E3H         LINE#         170
  C:02E9H         LINE#         171
  C:02E9H         LINE#         173
  C:02EBH         LINE#         174
  C:02F0H         LINE#         175
BL51 BANKED LINKER/LOCATER V6.22.2.0                                                  09/14/2021  21:49:07  PAGE 7


  C:02F8H         LINE#         176
  C:030DH         LINE#         177
  C:030FH         LINE#         178
  C:0311H         LINE#         179
  -------         ENDPROC       _SPI_WRITE_BUF
  -------         PROC          RX_MODE
  C:0343H         LINE#         187
  C:0343H         LINE#         188
  C:0343H         LINE#         189
  C:0345H         LINE#         190
  C:0348H         LINE#         191
  C:0348H         LINE#         192
  C:034BH         LINE#         193
  C:0352H         LINE#         194
  C:0359H         LINE#         195
  C:0360H         LINE#         196
  C:0367H         LINE#         197
  C:036EH         LINE#         198
  C:0370H         LINE#         199
  -------         ENDPROC       RX_MODE
  -------         PROC          _TX_MODE
  D:0013H         SYMBOL        BUF
  C:01C4H         LINE#         209
  C:01CAH         LINE#         210
  C:01CAH         LINE#         211
  C:01CCH         LINE#         212
  C:01DAH         LINE#         213
  C:01DDH         LINE#         214
  C:01EBH         LINE#         215
  C:01EBH         LINE#         216
  C:01EEH         LINE#         217
  C:01F5H         LINE#         218
  C:01FCH         LINE#         219
  C:0203H         LINE#         220
  C:020AH         LINE#         221
  C:020CH         LINE#         222
  -------         ENDPROC       _TX_MODE
  -------         PROC          CHECK_ACK
  B:0021H.0       SYMBOL        clear
  C:0371H         LINE#         232
  C:0371H         LINE#         233
  C:0371H         LINE#         234
  C:0374H         LINE#         236
  C:037BH         LINE#         237
  C:037EH         LINE#         238
  C:0381H         LINE#         239
  C:0386H         LINE#         240
  C:038DH         LINE#         241
  C:038FH         LINE#         242
  C:0392H         LINE#         243
  C:0395H         LINE#         245
  C:0397H         LINE#         246
  -------         ENDPROC       CHECK_ACK
  -------         PROC          _WRITECMD
  D:0007H         SYMBOL        x
  C:0003H         LINE#         11
  C:0003H         LINE#         12
BL51 BANKED LINKER/LOCATER V6.22.2.0                                                  09/14/2021  21:49:07  PAGE 8


  C:0003H         LINE#         13
  C:0005H         LINE#         14
  C:0005H         LINE#         15
  C:0005H         LINE#         16
  C:0005H         LINE#         17
  C:0008H         LINE#         18
  C:000AH         LINE#         19
  -------         ENDPROC       _WRITECMD
  -------         PROC          _WRITEDATA
  D:0007H         SYMBOL        x
  C:0442H         LINE#         21
  C:0442H         LINE#         22
  C:0442H         LINE#         23
  C:0444H         LINE#         24
  C:0444H         LINE#         25
  C:0444H         LINE#         26
  C:0444H         LINE#         27
  C:0447H         LINE#         28
  C:0449H         LINE#         29
  -------         ENDPROC       _WRITEDATA
  -------         PROC          LCD_INIT
  C:000EH         LINE#         30
  C:000EH         LINE#         31
  C:000EH         LINE#         32
  C:0013H         LINE#         33
  C:0018H         LINE#         34
  C:001DH         LINE#         35
  -------         ENDPROC       LCD_INIT
  -------         PROC          _WRITESTR
  D:0011H         SYMBOL        x
  D:0004H         SYMBOL        y
  D:0001H         SYMBOL        str
  -------         DO            
  D:0012H         SYMBOL        i
  -------         ENDDO         
  C:011AH         LINE#         49
  C:011EH         LINE#         50
  C:011EH         LINE#         51
  C:0121H         LINE#         52
  C:0126H         LINE#         53
  C:0126H         LINE#         54
  C:012EH         LINE#         55
  C:012EH         LINE#         56
  C:0134H         LINE#         57
  C:0134H         LINE#         58
  C:013CH         LINE#         59
  C:013CH         LINE#         61
  C:0143H         LINE#         62
  C:0143H         LINE#         63
  C:014CH         LINE#         64
  C:014CH         LINE#         65
  C:014CH         LINE#         66
  C:014EH         LINE#         67
  C:0150H         LINE#         68
  C:0150H         LINE#         69
  C:0155H         LINE#         70
  C:0155H         LINE#         71
BL51 BANKED LINKER/LOCATER V6.22.2.0                                                  09/14/2021  21:49:07  PAGE 9


  C:0155H         LINE#         72
  C:0155H         LINE#         73
  C:0155H         LINE#         74
  C:0157H         LINE#         75
  C:0160H         LINE#         76
  C:0162H         LINE#         78
  C:016BH         LINE#         79
  C:0172H         LINE#         80
  C:0174H         LINE#         81
  -------         ENDPROC       _WRITESTR
  -------         PROC          _LCD_SHOW
  D:000EH         SYMBOL        str
  C:0254H         LINE#         82
  C:025AH         LINE#         83
  C:025AH         LINE#         84
  C:026BH         LINE#         85
  C:026BH         LINE#         86
  C:026BH         LINE#         87
  C:026DH         LINE#         88
  C:026FH         LINE#         89
  C:026FH         LINE#         90
  C:0279H         LINE#         91
  C:027BH         LINE#         92
  C:027BH         LINE#         93
  C:0285H         LINE#         94
  C:0287H         LINE#         95
  C:0287H         LINE#         96
  C:0294H         LINE#         97
  C:0294H         LINE#         98
  C:0294H         LINE#         99
  C:0294H         LINE#         100
  C:0294H         LINE#         101
  -------         ENDPROC       _LCD_SHOW
  -------         PROC          ET0_INIT
  C:0403H         LINE#         106
  C:0403H         LINE#         107
  C:0403H         LINE#         108
  C:0406H         LINE#         109
  C:0409H         LINE#         110
  C:040CH         LINE#         111
  C:040FH         LINE#         112
  C:0411H         LINE#         113
  C:0413H         LINE#         114
  -------         ENDPROC       ET0_INIT
  -------         PROC          UART_INIT
  C:03EFH         LINE#         118
  C:03EFH         LINE#         119
  C:03EFH         LINE#         120
  C:03F2H         LINE#         128
  C:03F5H         LINE#         129
  C:03F8H         LINE#         130
  C:03FBH         LINE#         131
  C:03FEH         LINE#         132
  C:0400H         LINE#         136
  C:0402H         LINE#         137
  -------         ENDPROC       UART_INIT
  -------         PROC          _UARTSEND
BL51 BANKED LINKER/LOCATER V6.22.2.0                                                  09/14/2021  21:49:07  PAGE 10


  D:0007H         SYMBOL        str
  C:0414H         LINE#         138
  C:0414H         LINE#         139
  C:0414H         LINE#         140
  C:041AH         LINE#         141
  C:041AH         LINE#         142
  C:041CH         LINE#         143
  C:041DH         LINE#         145
  C:041DH         LINE#         146
  C:0422H         LINE#         147
  C:0422H         LINE#         149
  -------         ENDPROC       _UARTSEND
  -------         PROC          _UARTSENDSTRING
  D:000EH         SYMBOL        str
  C:020DH         LINE#         150
  C:0213H         LINE#         151
  C:0213H         LINE#         152
  C:0221H         LINE#         153
  C:0221H         LINE#         154
  C:0227H         LINE#         155
  C:0227H         LINE#         156
  C:022CH         LINE#         157
  C:0237H         LINE#         158
  C:0239H         LINE#         160
  C:024CH         LINE#         161
  C:0251H         LINE#         162
  C:0253H         LINE#         163
  -------         ENDPROC       _UARTSENDSTRING
  -------         PROC          MAIN
  -------         DO            
  D:0008H         SYMBOL        i
  -------         ENDDO         
  C:0299H         LINE#         169
  C:0299H         LINE#         170
  C:0299H         LINE#         171
  C:029CH         LINE#         172
  C:029FH         LINE#         173
  C:02A2H         LINE#         174
  C:02A5H         LINE#         175
  C:02A8H         LINE#         176
  C:02ABH         LINE#         177
  C:02ADH         LINE#         178
  C:02ADH         LINE#         179
  C:02ADH         LINE#         180
  C:02B4H         LINE#         181
  C:02B7H         LINE#         182
  C:02B7H         LINE#         183
  C:02C5H         LINE#         184
  C:02CCH         LINE#         185
  C:02CFH         LINE#         186
  C:02CFH         LINE#         187
  C:02D6H         LINE#         188
  -------         ENDPROC       MAIN
  -------         PROC          ET0_INT
  C:0175H         LINE#         190
  C:018EH         LINE#         192
  C:0191H         LINE#         193
BL51 BANKED LINKER/LOCATER V6.22.2.0                                                  09/14/2021  21:49:07  PAGE 11


  C:0194H         LINE#         194
  C:0198H         LINE#         195
  C:0198H         LINE#         196
  C:01A1H         LINE#         197
  C:01AAH         LINE#         198
  C:01ADH         LINE#         199
  C:01ADH         LINE#         200
  -------         ENDPROC       ET0_INT
  -------         PROC          UARTTIMER1
  C:0439H         LINE#         205
  C:0439H         LINE#         214
  C:043CH         LINE#         215
  C:043CH         LINE#         216
  C:043EH         LINE#         217
  C:0441H         LINE#         218
  C:0441H         LINE#         219
  -------         ENDPROC       UARTTIMER1
  -------         ENDMOD        NRFRECV

  -------         MODULE        ?C?CLDPTR
  C:00B2H         PUBLIC        ?C?CLDPTR
  -------         ENDMOD        ?C?CLDPTR

  -------         MODULE        ?C?CLDOPTR
  C:00CBH         PUBLIC        ?C?CLDOPTR
  -------         ENDMOD        ?C?CLDOPTR

  -------         MODULE        ?C?CSTOPTR
  C:00F8H         PUBLIC        ?C?CSTOPTR
  -------         ENDMOD        ?C?CSTOPTR

*** WARNING L16: UNCALLED SEGMENT, IGNORED FOR OVERLAY PROCESS
    SEGMENT: ?PR?_TX_MODE?NRFRECV

*** WARNING L16: UNCALLED SEGMENT, IGNORED FOR OVERLAY PROCESS
    SEGMENT: ?PR?CHECK_ACK?NRFRECV

*** WARNING L16: UNCALLED SEGMENT, IGNORED FOR OVERLAY PROCESS
    SEGMENT: ?PR?_UARTSEND?NRFRECV

Program Size: data=58.1 xdata=0 code=1109
LINK/LOCATE RUN COMPLETE.  3 WARNING(S),  0 ERROR(S)
