<<<<<<< HEAD
BL51 BANKED LINKER/LOCATER V6.22.2.0                                                    09/18/2021  17:26:43  PAGE 1
=======
BL51 BANKED LINKER/LOCATER V6.22.2.0                                                    09/19/2021  19:20:10  PAGE 1
>>>>>>> 80c79e556fc7fea86ac0ac637f6c29c1a05323c5


BL51 BANKED LINKER/LOCATER V6.22.2.0, INVOKED BY:
D:\KEIL_V5\C51\BIN\BL51.EXE .\Objects\STARTUP.obj, .\Objects\nrfSend.obj TO .\Objects\nrfSend PRINT (.\Listings\nrfSend.
>> m51) RAMSIZE (256)


MEMORY MODEL: SMALL


INPUT MODULES INCLUDED:
  .\Objects\STARTUP.obj (?C_STARTUP)
  .\Objects\nrfSend.obj (NRFSEND)
  D:\KEIL_V5\C51\LIB\C51S.LIB (?C_INIT)
  D:\KEIL_V5\C51\LIB\C51S.LIB (?C?CLDOPTR)
  D:\KEIL_V5\C51\LIB\C51S.LIB (?C?CSTOPTR)
  D:\KEIL_V5\C51\LIB\C51S.LIB (?C?UIDIV)


LINK MAP OF MODULE:  .\Objects\nrfSend (?C_STARTUP)


            TYPE    BASE      LENGTH    RELOCATION   SEGMENT NAME
            -----------------------------------------------------

            * * * * * * *   D A T A   M E M O R Y   * * * * * * *
            REG     0000H     0008H     ABSOLUTE     "REG BANK 0"
            DATA    0008H     0009H     UNIT         _DATA_GROUP_
            DATA    0011H     0005H     UNIT         ?DT?_SPI_READ_BUF?NRFSEND
                    0016H     000AH                  *** GAP ***
            DATA    0020H     0001H     BIT_ADDR     ?BA?NRFSEND
            BIT     0021H.0   0000H.1   UNIT         _BIT_GROUP_
                    0021H.1   0000H.7                *** GAP ***
            DATA    0022H     0023H     UNIT         ?DT?NRFSEND
            IDATA   0045H     0001H     UNIT         ?STACK

            * * * * * * *   C O D E   M E M O R Y   * * * * * * *
            CODE    0000H     0003H     ABSOLUTE     
            CODE    0003H     0007H     UNIT         ?C_INITSEG
                    000AH     0001H                  *** GAP ***
            CODE    000BH     0003H     ABSOLUTE     
            CODE    000EH     000DH     UNIT         ?PR?_SPI_READ?NRFSEND
            CODE    001BH     0003H     ABSOLUTE     
<<<<<<< HEAD
            CODE    001EH     00A4H     UNIT         ?C?LIB_CODE
            CODE    00C2H     008CH     UNIT         ?C_C51STARTUP
            CODE    014EH     0073H     UNIT         ?PR?ET1_INT?NRFSEND
            CODE    01C1H     006DH     UNIT         ?PR?GET_AD_RES?NRFSEND
            CODE    022EH     0063H     UNIT         ?PR?ET0_INT?NRFSEND
            CODE    0291H     0049H     UNIT         ?PR?_TX_MODE?NRFSEND
            CODE    02DAH     003AH     UNIT         ?PR?_SPI_WRITE_BUF?NRFSEND
            CODE    0314H     0031H     UNIT         ?PR?_SPI_READ_BUF?NRFSEND
            CODE    0345H     002EH     UNIT         ?PR?RX_MODE?NRFSEND
            CODE    0373H     002EH     UNIT         ?PR?MAIN?NRFSEND
            CODE    03A1H     0027H     UNIT         ?PR?CHECK_ACK?NRFSEND
            CODE    03C8H     0022H     UNIT         ?PR?_SPI_RW?NRFSEND
            CODE    03EAH     001DH     UNIT         ?CO?NRFSEND
            CODE    0407H     001AH     UNIT         ?PR?_SPI_RW_REG?NRFSEND
            CODE    0421H     0013H     UNIT         ?PR?_DELAYMS?NRFSEND
            CODE    0434H     0011H     UNIT         ?PR?UARTINIT?NRFSEND
            CODE    0445H     0011H     UNIT         ?PR?ET0_INIT?NRFSEND
BL51 BANKED LINKER/LOCATER V6.22.2.0                                                  09/18/2021  17:26:43  PAGE 2


            CODE    0456H     0011H     UNIT         ?PR?ET1_INIT?NRFSEND
            CODE    0467H     000FH     UNIT         ?PR?DELAY2US?NRFSEND
            CODE    0476H     0009H     UNIT         ?PR?NRF24L01_INIT?NRFSEND
=======
            CODE    001EH     0317H     UNIT         ?C?LIB_CODE
            CODE    0335H     00A0H     UNIT         ?PR?ET1_INT?NRFSEND
            CODE    03D5H     008CH     UNIT         ?C_C51STARTUP
            CODE    0461H     006DH     UNIT         ?PR?GET_AD_RES?NRFSEND
            CODE    04CEH     0063H     UNIT         ?PR?ET0_INT?NRFSEND
            CODE    0531H     0049H     UNIT         ?PR?_TX_MODE?NRFSEND
            CODE    057AH     003AH     UNIT         ?PR?_SPI_WRITE_BUF?NRFSEND
            CODE    05B4H     0031H     UNIT         ?PR?_SPI_READ_BUF?NRFSEND
            CODE    05E5H     002EH     UNIT         ?PR?RX_MODE?NRFSEND
            CODE    0613H     002EH     UNIT         ?PR?MAIN?NRFSEND
            CODE    0641H     0027H     UNIT         ?PR?CHECK_ACK?NRFSEND
BL51 BANKED LINKER/LOCATER V6.22.2.0                                                  09/19/2021  19:20:10  PAGE 2


            CODE    0668H     0022H     UNIT         ?PR?_SPI_RW?NRFSEND
            CODE    068AH     001DH     UNIT         ?CO?NRFSEND
            CODE    06A7H     001AH     UNIT         ?PR?_SPI_RW_REG?NRFSEND
            CODE    06C1H     0013H     UNIT         ?PR?_DELAYMS?NRFSEND
            CODE    06D4H     0011H     UNIT         ?PR?UARTINIT?NRFSEND
            CODE    06E5H     0011H     UNIT         ?PR?ET0_INIT?NRFSEND
            CODE    06F6H     0011H     UNIT         ?PR?ET1_INIT?NRFSEND
            CODE    0707H     000FH     UNIT         ?PR?DELAY2US?NRFSEND
            CODE    0716H     0009H     UNIT         ?PR?NRF24L01_INIT?NRFSEND
>>>>>>> 80c79e556fc7fea86ac0ac637f6c29c1a05323c5



OVERLAY MAP OF MODULE:   .\Objects\nrfSend (?C_STARTUP)


SEGMENT                               BIT_GROUP          DATA_GROUP 
  +--> CALLED SEGMENT              START    LENGTH     START    LENGTH
----------------------------------------------------------------------
?C_C51STARTUP                      -----    -----      -----    -----
  +--> ?PR?MAIN?NRFSEND
  +--> ?C_INITSEG

?PR?MAIN?NRFSEND                   -----    -----      -----    -----
  +--> ?PR?NRF24L01_INIT?NRFSEND
  +--> ?PR?ET0_INIT?NRFSEND
  +--> ?PR?ET1_INIT?NRFSEND
  +--> ?PR?_TX_MODE?NRFSEND
  +--> ?PR?CHECK_ACK?NRFSEND
  +--> ?PR?_DELAYMS?NRFSEND

?PR?_TX_MODE?NRFSEND               -----    -----      0008H    0003H
  +--> ?CO?NRFSEND
  +--> ?PR?_SPI_WRITE_BUF?NRFSEND
  +--> ?PR?_SPI_RW_REG?NRFSEND

?PR?_SPI_WRITE_BUF?NRFSEND         -----    -----      000BH    0005H
  +--> ?CO?NRFSEND
  +--> ?PR?_SPI_RW?NRFSEND

?PR?_SPI_RW_REG?NRFSEND            -----    -----      -----    -----
  +--> ?PR?_SPI_RW?NRFSEND

?PR?CHECK_ACK?NRFSEND              0021H.0  0000H.1    -----    -----
  +--> ?PR?_SPI_RW?NRFSEND
  +--> ?PR?_SPI_RW_REG?NRFSEND

*** NEW ROOT ***************************************************

?PR?ET0_INT?NRFSEND                -----    -----      -----    -----
  +--> ?CO?NRFSEND

*** NEW ROOT ***************************************************

<<<<<<< HEAD
?PR?ET1_INT?NRFSEND                -----    -----      0010H    0001H
=======
?PR?ET1_INT?NRFSEND                -----    -----      -----    -----
  +--> ?PR?GET_AD_RES?NRFSEND

?PR?GET_AD_RES?NRFSEND             -----    -----      -----    -----
BL51 BANKED LINKER/LOCATER V6.22.2.0                                                  09/19/2021  19:20:10  PAGE 3


  +--> ?PR?DELAY2US?NRFSEND
>>>>>>> 80c79e556fc7fea86ac0ac637f6c29c1a05323c5



SYMBOL TABLE OF MODULE:  .\Objects\nrfSend (?C_STARTUP)

  VALUE           TYPE          NAME
  ----------------------------------

  -------         MODULE        ?C_STARTUP
BL51 BANKED LINKER/LOCATER V6.22.2.0                                                  09/18/2021  17:26:43  PAGE 3


  C:00C2H         SEGMENT       ?C_C51STARTUP
  I:0045H         SEGMENT       ?STACK
  C:0000H         PUBLIC        ?C_STARTUP
  D:00E0H         SYMBOL        ACC
  D:00F0H         SYMBOL        B
  D:0083H         SYMBOL        DPH
  D:0082H         SYMBOL        DPL
  N:0000H         SYMBOL        IBPSTACK
  N:0100H         SYMBOL        IBPSTACKTOP
  N:0080H         SYMBOL        IDATALEN
  C:00C5H         SYMBOL        IDATALOOP
  N:0000H         SYMBOL        PBPSTACK
  N:0100H         SYMBOL        PBPSTACKTOP
  N:0000H         SYMBOL        PDATALEN
  N:0000H         SYMBOL        PDATASTART
  N:0000H         SYMBOL        PPAGE
  N:0000H         SYMBOL        PPAGEENABLE
  D:00A0H         SYMBOL        PPAGE_SFR
  D:0081H         SYMBOL        SP
  C:00C2H         SYMBOL        STARTUP1
  N:0000H         SYMBOL        XBPSTACK
  N:0000H         SYMBOL        XBPSTACKTOP
  N:0000H         SYMBOL        XDATALEN
  N:0000H         SYMBOL        XDATASTART
  C:0000H         LINE#         126
  C:00C2H         LINE#         133
  C:00C4H         LINE#         134
  C:00C5H         LINE#         135
  C:00C6H         LINE#         136
  C:00C8H         LINE#         185
  C:00CBH         LINE#         196
  -------         ENDMOD        ?C_STARTUP

  -------         MODULE        NRFSEND
  C:0000H         SYMBOL        _ICE_DUMMY_
  D:0080H         PUBLIC        P0
  D:0090H         PUBLIC        P1
  D:00A0H         PUBLIC        P2
  D:00B0H         PUBLIC        P3
  B:00A8H.7       PUBLIC        EA
  B:0090H.0       PUBLIC        CE
<<<<<<< HEAD
  C:03A1H         PUBLIC        Check_ACK
  C:0345H         PUBLIC        RX_Mode
  C:0421H         PUBLIC        _DelayMS
  C:0291H         PUBLIC        _TX_Mode
  C:022EH         PUBLIC        ET0_INT
  B:00B0H.5       PUBLIC        CS
  C:03EAH         PUBLIC        TX_ADDRESS
  C:014EH         PUBLIC        ET1_INT
=======
  C:0641H         PUBLIC        Check_ACK
  C:05E5H         PUBLIC        RX_Mode
  C:06C1H         PUBLIC        _DelayMS
  C:0531H         PUBLIC        _TX_Mode
  C:04CEH         PUBLIC        ET0_INT
  B:00B0H.5       PUBLIC        CS
BL51 BANKED LINKER/LOCATER V6.22.2.0                                                  09/19/2021  19:20:10  PAGE 4


  C:068AH         PUBLIC        TX_ADDRESS
  C:0335H         PUBLIC        ET1_INT
>>>>>>> 80c79e556fc7fea86ac0ac637f6c29c1a05323c5
  D:0023H         PUBLIC        flag
  B:0098H.1       PUBLIC        TI
  B:0020H.6       PUBLIC        RX_DR
  D:0024H         PUBLIC        name
  B:0020H.5       PUBLIC        TX_DS
<<<<<<< HEAD
  C:0373H         PUBLIC        main
  B:00A0H.4       PUBLIC        qian
  B:00A0H.5       PUBLIC        bai
BL51 BANKED LINKER/LOCATER V6.22.2.0                                                  09/18/2021  17:26:43  PAGE 4


  C:0473H         PUBLIC        delay2us
  C:01C1H         PUBLIC        get_AD_Res
  C:03EFH         PUBLIC        ledData
=======
  C:0613H         PUBLIC        main
  B:00A0H.4       PUBLIC        qian
  B:00A0H.5       PUBLIC        bai
  C:0713H         PUBLIC        delay2us
  C:0461H         PUBLIC        get_AD_Res
  C:068FH         PUBLIC        ledData
>>>>>>> 80c79e556fc7fea86ac0ac637f6c29c1a05323c5
  D:0098H         PUBLIC        SCON
  D:0089H         PUBLIC        TMOD
  B:0090H.4       PUBLIC        MOSI
  B:0090H.2       PUBLIC        MISO
  B:00A0H.6       PUBLIC        shi
  D:0020H         PUBLIC        sta
  B:00A8H.1       PUBLIC        ET0
<<<<<<< HEAD
  C:0314H         PUBLIC        _SPI_Read_Buf
=======
  C:05B4H         PUBLIC        _SPI_Read_Buf
>>>>>>> 80c79e556fc7fea86ac0ac637f6c29c1a05323c5
  B:00A8H.3       PUBLIC        ET1
  C:000EH         PUBLIC        _SPI_Read
  B:00A0H.7       PUBLIC        ge
  D:008CH         PUBLIC        TH0
  D:008DH         PUBLIC        TH1
  D:008AH         PUBLIC        TL0
  D:008BH         PUBLIC        TL1
<<<<<<< HEAD
  C:0476H         PUBLIC        Nrf24l01_Init
  C:0434H         PUBLIC        uartInit
=======
  C:0716H         PUBLIC        Nrf24l01_Init
  C:06D4H         PUBLIC        uartInit
>>>>>>> 80c79e556fc7fea86ac0ac637f6c29c1a05323c5
  B:0088H.4       PUBLIC        TR0
  B:0088H.6       PUBLIC        TR1
  B:00B0H.6       PUBLIC        CLK
  C:02E5H         PUBLIC        _SPI_Write_Buf
  B:00B0H.7       PUBLIC        DIO
<<<<<<< HEAD
  C:0445H         PUBLIC        ET0_init
  C:0456H         PUBLIC        ET1_init
=======
  C:06E5H         PUBLIC        ET0_init
  C:06F6H         PUBLIC        ET1_init
>>>>>>> 80c79e556fc7fea86ac0ac637f6c29c1a05323c5
  B:0090H.1       PUBLIC        SCK
  B:0090H.3       PUBLIC        CSN
  B:0098H.4       PUBLIC        REN
  D:0025H         PUBLIC        RX_BUF
  D:0035H         PUBLIC        TX_BUF
  B:0090H.5       PUBLIC        IRQ
  B:0020H.4       PUBLIC        MAX_RT
<<<<<<< HEAD
  C:0410H         PUBLIC        _SPI_RW_Reg
  C:03C8H         PUBLIC        _SPI_RW
=======
  C:06B0H         PUBLIC        _SPI_RW_Reg
  C:0668H         PUBLIC        _SPI_RW
>>>>>>> 80c79e556fc7fea86ac0ac637f6c29c1a05323c5
  -------         PROC          _DELAYMS
  D:0007H         SYMBOL        ms
  -------         DO            
  D:0006H         SYMBOL        i
  D:0005H         SYMBOL        j
  -------         ENDDO         
<<<<<<< HEAD
  C:0421H         LINE#         65
  C:0421H         LINE#         66
  C:0421H         LINE#         68
  C:0423H         LINE#         69
  C:0428H         LINE#         70
  C:0428H         LINE#         71
  C:042AH         LINE#         72
  C:042CH         LINE#         74
  C:042EH         LINE#         75
  C:0430H         LINE#         77
  C:0433H         LINE#         78
  -------         ENDPROC       _DELAYMS
  -------         PROC          NRF24L01_INIT
  C:0476H         LINE#         84
  C:0476H         LINE#         85
BL51 BANKED LINKER/LOCATER V6.22.2.0                                                  09/18/2021  17:26:43  PAGE 5


  C:0476H         LINE#         86
  C:0478H         LINE#         87
  C:047AH         LINE#         88
  C:047CH         LINE#         89
  C:047EH         LINE#         90
=======
  C:06C1H         LINE#         65
  C:06C1H         LINE#         66
  C:06C1H         LINE#         68
  C:06C3H         LINE#         69
  C:06C8H         LINE#         70
BL51 BANKED LINKER/LOCATER V6.22.2.0                                                  09/19/2021  19:20:10  PAGE 5


  C:06C8H         LINE#         71
  C:06CAH         LINE#         72
  C:06CCH         LINE#         74
  C:06CEH         LINE#         75
  C:06D0H         LINE#         77
  C:06D3H         LINE#         78
  -------         ENDPROC       _DELAYMS
  -------         PROC          NRF24L01_INIT
  C:0716H         LINE#         84
  C:0716H         LINE#         85
  C:0716H         LINE#         86
  C:0718H         LINE#         87
  C:071AH         LINE#         88
  C:071CH         LINE#         89
  C:071EH         LINE#         90
>>>>>>> 80c79e556fc7fea86ac0ac637f6c29c1a05323c5
  -------         ENDPROC       NRF24L01_INIT
  -------         PROC          _SPI_RW
  D:0007H         SYMBOL        byte
  -------         DO            
  D:0006H         SYMBOL        i
  -------         ENDDO         
<<<<<<< HEAD
  C:03C8H         LINE#         99
  C:03C8H         LINE#         100
  C:03C8H         LINE#         102
  C:03D4H         LINE#         103
  C:03D4H         LINE#         104
  C:03D8H         LINE#         105
  C:03DCH         LINE#         106
  C:03DEH         LINE#         107
  C:03E4H         LINE#         108
  C:03E6H         LINE#         109
  C:03E9H         LINE#         110
  C:03E9H         LINE#         111
=======
  C:0668H         LINE#         99
  C:0668H         LINE#         100
  C:0668H         LINE#         102
  C:0674H         LINE#         103
  C:0674H         LINE#         104
  C:0678H         LINE#         105
  C:067CH         LINE#         106
  C:067EH         LINE#         107
  C:0684H         LINE#         108
  C:0686H         LINE#         109
  C:0689H         LINE#         110
  C:0689H         LINE#         111
>>>>>>> 80c79e556fc7fea86ac0ac637f6c29c1a05323c5
  -------         ENDPROC       _SPI_RW
  -------         PROC          L?0063
  -------         ENDPROC       L?0063
  -------         PROC          _SPI_RW_REG
  D:0007H         SYMBOL        reg
  D:0005H         SYMBOL        value
  -------         DO            
  D:0004H         SYMBOL        status
  -------         ENDDO         
<<<<<<< HEAD
  C:0410H         LINE#         119
  C:0410H         LINE#         120
  C:0410H         LINE#         122
  C:0412H         LINE#         123
  C:0417H         LINE#         124
  C:041CH         LINE#         125
  C:041EH         LINE#         126
  C:0420H         LINE#         127
=======
  C:06B0H         LINE#         119
  C:06B0H         LINE#         120
  C:06B0H         LINE#         122
  C:06B2H         LINE#         123
  C:06B7H         LINE#         124
  C:06BCH         LINE#         125
  C:06BEH         LINE#         126
  C:06C0H         LINE#         127
>>>>>>> 80c79e556fc7fea86ac0ac637f6c29c1a05323c5
  -------         ENDPROC       _SPI_RW_REG
  -------         PROC          _SPI_READ
  D:0007H         SYMBOL        reg
  -------         DO            
  D:0007H         SYMBOL        reg_val
  -------         ENDDO         
  C:000EH         LINE#         135
<<<<<<< HEAD
=======
BL51 BANKED LINKER/LOCATER V6.22.2.0                                                  09/19/2021  19:20:10  PAGE 6


>>>>>>> 80c79e556fc7fea86ac0ac637f6c29c1a05323c5
  C:000EH         LINE#         136
  C:000EH         LINE#         138
  C:0010H         LINE#         139
  C:0013H         LINE#         140
  C:0018H         LINE#         141
  C:001AH         LINE#         142
  C:001AH         LINE#         143
  -------         ENDPROC       _SPI_READ
  -------         PROC          _SPI_READ_BUF
  D:0007H         SYMBOL        reg
BL51 BANKED LINKER/LOCATER V6.22.2.0                                                  09/18/2021  17:26:43  PAGE 6


  D:0012H         SYMBOL        pBuf
  D:0015H         SYMBOL        bytes
  -------         DO            
  D:0005H         SYMBOL        status
  D:0004H         SYMBOL        i
  -------         ENDDO         
<<<<<<< HEAD
  C:0314H         LINE#         152
  C:031AH         LINE#         153
  C:031AH         LINE#         155
  C:031CH         LINE#         156
  C:0321H         LINE#         157
  C:0329H         LINE#         158
  C:0340H         LINE#         159
  C:0342H         LINE#         160
  C:0344H         LINE#         161
=======
  C:05B4H         LINE#         152
  C:05BAH         LINE#         153
  C:05BAH         LINE#         155
  C:05BCH         LINE#         156
  C:05C1H         LINE#         157
  C:05C9H         LINE#         158
  C:05E0H         LINE#         159
  C:05E2H         LINE#         160
  C:05E4H         LINE#         161
>>>>>>> 80c79e556fc7fea86ac0ac637f6c29c1a05323c5
  -------         ENDPROC       _SPI_READ_BUF
  -------         PROC          L?0062
  -------         ENDPROC       L?0062
  -------         PROC          _SPI_WRITE_BUF
  D:0007H         SYMBOL        reg
  D:000CH         SYMBOL        pBuf
  D:000FH         SYMBOL        bytes
  -------         DO            
  D:0005H         SYMBOL        status
  D:0004H         SYMBOL        i
  -------         ENDDO         
  C:02E5H         LINE#         170
  C:02EBH         LINE#         171
  C:02EBH         LINE#         173
  C:02EDH         LINE#         174
  C:02F2H         LINE#         175
  C:02FAH         LINE#         176
  C:030FH         LINE#         177
  C:0311H         LINE#         178
  C:0313H         LINE#         179
  -------         ENDPROC       _SPI_WRITE_BUF
  -------         PROC          RX_MODE
<<<<<<< HEAD
  C:0345H         LINE#         187
  C:0345H         LINE#         188
  C:0345H         LINE#         189
  C:0347H         LINE#         190
  C:034AH         LINE#         191
  C:034AH         LINE#         192
  C:034DH         LINE#         193
  C:0354H         LINE#         194
  C:035BH         LINE#         195
  C:0362H         LINE#         196
  C:0369H         LINE#         197
  C:0370H         LINE#         198
  C:0372H         LINE#         199
=======
  C:05E5H         LINE#         187
  C:05E5H         LINE#         188
  C:05E5H         LINE#         189
  C:05E7H         LINE#         190
  C:05EAH         LINE#         191
  C:05EAH         LINE#         192
  C:05EDH         LINE#         193
  C:05F4H         LINE#         194
  C:05FBH         LINE#         195
  C:0602H         LINE#         196
BL51 BANKED LINKER/LOCATER V6.22.2.0                                                  09/19/2021  19:20:10  PAGE 7


  C:0609H         LINE#         197
  C:0610H         LINE#         198
  C:0612H         LINE#         199
>>>>>>> 80c79e556fc7fea86ac0ac637f6c29c1a05323c5
  -------         ENDPROC       RX_MODE
  -------         PROC          _TX_MODE
  D:0008H         SYMBOL        BUF
  C:0291H         LINE#         209
  C:0297H         LINE#         210
  C:0297H         LINE#         211
  C:0299H         LINE#         212
BL51 BANKED LINKER/LOCATER V6.22.2.0                                                  09/18/2021  17:26:43  PAGE 7


  C:02A7H         LINE#         213
  C:02AAH         LINE#         214
  C:02B8H         LINE#         215
  C:02B8H         LINE#         216
  C:02BBH         LINE#         217
  C:02C2H         LINE#         218
  C:02C9H         LINE#         219
  C:02D0H         LINE#         220
  C:02D7H         LINE#         221
  C:02D9H         LINE#         222
  -------         ENDPROC       _TX_MODE
  -------         PROC          CHECK_ACK
  B:0021H.0       SYMBOL        clear
<<<<<<< HEAD
  C:03A1H         LINE#         232
  C:03A1H         LINE#         233
  C:03A1H         LINE#         234
  C:03A4H         LINE#         236
  C:03ABH         LINE#         237
  C:03AEH         LINE#         238
  C:03B1H         LINE#         239
  C:03B6H         LINE#         240
  C:03BDH         LINE#         241
  C:03BFH         LINE#         242
  C:03C2H         LINE#         243
  C:03C5H         LINE#         245
  C:03C7H         LINE#         246
=======
  C:0641H         LINE#         232
  C:0641H         LINE#         233
  C:0641H         LINE#         234
  C:0644H         LINE#         236
  C:064BH         LINE#         237
  C:064EH         LINE#         238
  C:0651H         LINE#         239
  C:0656H         LINE#         240
  C:065DH         LINE#         241
  C:065FH         LINE#         242
  C:0662H         LINE#         243
  C:0665H         LINE#         245
  C:0667H         LINE#         246
>>>>>>> 80c79e556fc7fea86ac0ac637f6c29c1a05323c5
  -------         ENDPROC       CHECK_ACK
  -------         PROC          L?0061
  -------         ENDPROC       L?0061
  -------         PROC          DELAY2US
<<<<<<< HEAD
  C:0473H         LINE#         50
  C:0473H         LINE#         51
  C:0473H         LINE#         52
  C:0474H         LINE#         53
  C:0475H         LINE#         54
=======
  C:0713H         LINE#         50
  C:0713H         LINE#         51
  C:0713H         LINE#         52
  C:0714H         LINE#         53
  C:0715H         LINE#         54
>>>>>>> 80c79e556fc7fea86ac0ac637f6c29c1a05323c5
  -------         ENDPROC       DELAY2US
  -------         PROC          GET_AD_RES
  -------         DO            
  D:0005H         SYMBOL        i
  D:0007H         SYMBOL        data1
  D:0006H         SYMBOL        data2
  -------         ENDDO         
<<<<<<< HEAD
  C:01C1H         LINE#         61
  C:01C1H         LINE#         62
  C:01C1H         LINE#         63
  C:01C4H         LINE#         64
  C:01C6H         LINE#         66
  C:01C8H         LINE#         67
  C:01CAH         LINE#         68
  C:01CAH         LINE#         69
  C:01CAH         LINE#         70
  C:01CAH         LINE#         72
  C:01CAH         LINE#         73
  C:01CAH         LINE#         74
  C:01CDH         LINE#         75
  C:01CFH         LINE#         76
  C:01D2H         LINE#         78
BL51 BANKED LINKER/LOCATER V6.22.2.0                                                  09/18/2021  17:26:43  PAGE 8


  C:01D4H         LINE#         79
  C:01D6H         LINE#         80
  C:01D6H         LINE#         81
  C:01D6H         LINE#         82
  C:01D6H         LINE#         84
  C:01D6H         LINE#         85
  C:01D6H         LINE#         86
  C:01D9H         LINE#         88
  C:01E4H         LINE#         89
  C:01E4H         LINE#         90
  C:01E6H         LINE#         91
  C:01E9H         LINE#         92
  C:01EBH         LINE#         93
  C:01EEH         LINE#         99
  C:01F8H         LINE#         100
  C:01FBH         LINE#         102
  C:0207H         LINE#         103
  C:0207H         LINE#         109
  C:0217H         LINE#         110
  C:0219H         LINE#         111
  C:021CH         LINE#         112
  C:021EH         LINE#         113
  C:0221H         LINE#         114
  C:0224H         LINE#         116
  C:0226H         LINE#         117
  C:022DH         LINE#         118
  -------         ENDPROC       GET_AD_RES
  -------         PROC          UARTINIT
  C:0434H         LINE#         125
  C:0434H         LINE#         126
  C:0434H         LINE#         127
  C:0437H         LINE#         128
  C:0439H         LINE#         129
  C:043CH         LINE#         130
  C:0442H         LINE#         131
  C:0444H         LINE#         133
  -------         ENDPROC       UARTINIT
  -------         PROC          ET0_INIT
  C:0445H         LINE#         137
  C:0445H         LINE#         138
  C:0445H         LINE#         139
  C:0448H         LINE#         140
  C:044BH         LINE#         141
  C:044EH         LINE#         142
  C:0451H         LINE#         143
  C:0453H         LINE#         144
  C:0455H         LINE#         145
  -------         ENDPROC       ET0_INIT
  -------         PROC          ET1_INIT
  C:0456H         LINE#         150
  C:0456H         LINE#         151
  C:0456H         LINE#         152
  C:0459H         LINE#         153
  C:045CH         LINE#         154
  C:045FH         LINE#         155
  C:0462H         LINE#         156
  C:0464H         LINE#         157
BL51 BANKED LINKER/LOCATER V6.22.2.0                                                  09/18/2021  17:26:43  PAGE 9


  C:0466H         LINE#         158
  -------         ENDPROC       ET1_INIT
  -------         PROC          MAIN
  C:0373H         LINE#         159
  C:0373H         LINE#         160
  C:0373H         LINE#         164
  C:0376H         LINE#         165
  C:0379H         LINE#         166
  C:037CH         LINE#         167
  C:037EH         LINE#         168
  C:0380H         LINE#         169
  C:0382H         LINE#         170
  C:0382H         LINE#         171
  C:0382H         LINE#         172
  C:0386H         LINE#         173
  C:0386H         LINE#         174
  C:038FH         LINE#         175
  C:0394H         LINE#         176
  C:0399H         LINE#         177
  C:039CH         LINE#         178
  C:039FH         LINE#         179
  C:039FH         LINE#         180
=======
  C:0461H         LINE#         61
  C:0461H         LINE#         62
  C:0461H         LINE#         63
  C:0464H         LINE#         64
  C:0466H         LINE#         66
BL51 BANKED LINKER/LOCATER V6.22.2.0                                                  09/19/2021  19:20:10  PAGE 8


  C:0468H         LINE#         67
  C:046AH         LINE#         68
  C:046AH         LINE#         69
  C:046AH         LINE#         70
  C:046AH         LINE#         72
  C:046AH         LINE#         73
  C:046AH         LINE#         74
  C:046DH         LINE#         75
  C:046FH         LINE#         76
  C:0472H         LINE#         78
  C:0474H         LINE#         79
  C:0476H         LINE#         80
  C:0476H         LINE#         81
  C:0476H         LINE#         82
  C:0476H         LINE#         84
  C:0476H         LINE#         85
  C:0476H         LINE#         86
  C:0479H         LINE#         88
  C:0484H         LINE#         89
  C:0484H         LINE#         90
  C:0486H         LINE#         91
  C:0489H         LINE#         92
  C:048BH         LINE#         93
  C:048EH         LINE#         99
  C:0498H         LINE#         100
  C:049BH         LINE#         102
  C:04A7H         LINE#         103
  C:04A7H         LINE#         109
  C:04B7H         LINE#         110
  C:04B9H         LINE#         111
  C:04BCH         LINE#         112
  C:04BEH         LINE#         113
  C:04C1H         LINE#         114
  C:04C4H         LINE#         116
  C:04C6H         LINE#         117
  C:04CDH         LINE#         118
  -------         ENDPROC       GET_AD_RES
  -------         PROC          UARTINIT
  C:06D4H         LINE#         125
  C:06D4H         LINE#         126
  C:06D4H         LINE#         127
  C:06D7H         LINE#         128
  C:06D9H         LINE#         129
  C:06DCH         LINE#         130
  C:06E2H         LINE#         131
  C:06E4H         LINE#         133
  -------         ENDPROC       UARTINIT
  -------         PROC          ET0_INIT
  C:06E5H         LINE#         137
  C:06E5H         LINE#         138
  C:06E5H         LINE#         139
  C:06E8H         LINE#         140
  C:06EBH         LINE#         141
  C:06EEH         LINE#         142
  C:06F1H         LINE#         143
  C:06F3H         LINE#         144
  C:06F5H         LINE#         145
BL51 BANKED LINKER/LOCATER V6.22.2.0                                                  09/19/2021  19:20:10  PAGE 9


  -------         ENDPROC       ET0_INIT
  -------         PROC          ET1_INIT
  C:06F6H         LINE#         150
  C:06F6H         LINE#         151
  C:06F6H         LINE#         152
  C:06F9H         LINE#         153
  C:06FCH         LINE#         154
  C:06FFH         LINE#         155
  C:0702H         LINE#         156
  C:0704H         LINE#         157
  C:0706H         LINE#         158
  -------         ENDPROC       ET1_INIT
  -------         PROC          MAIN
  C:0613H         LINE#         159
  C:0613H         LINE#         160
  C:0613H         LINE#         164
  C:0616H         LINE#         165
  C:0619H         LINE#         166
  C:061CH         LINE#         167
  C:061EH         LINE#         168
  C:0620H         LINE#         169
  C:0622H         LINE#         170
  C:0622H         LINE#         171
  C:0622H         LINE#         172
  C:0626H         LINE#         173
  C:0626H         LINE#         174
  C:062FH         LINE#         175
  C:0634H         LINE#         176
  C:0639H         LINE#         177
  C:063CH         LINE#         178
  C:063FH         LINE#         179
  C:063FH         LINE#         180
>>>>>>> 80c79e556fc7fea86ac0ac637f6c29c1a05323c5
  -------         ENDPROC       MAIN
  -------         PROC          ET0_INT
  -------         DO            
  D:0022H         SYMBOL        w
  -------         ENDDO         
<<<<<<< HEAD
  C:022EH         LINE#         185
  C:0236H         LINE#         189
  C:0239H         LINE#         190
  C:023CH         LINE#         191
  C:023FH         LINE#         192
  C:024EH         LINE#         193
  C:024EH         LINE#         194
  C:024EH         LINE#         195
  C:0256H         LINE#         196
  C:0258H         LINE#         197
  C:025AH         LINE#         198
  C:025AH         LINE#         199
  C:0264H         LINE#         200
  C:0266H         LINE#         201
  C:0268H         LINE#         202
  C:0268H         LINE#         203
  C:0270H         LINE#         204
  C:0272H         LINE#         205
  C:0274H         LINE#         206
  C:0274H         LINE#         207
  C:027CH         LINE#         208
  C:027EH         LINE#         209
  C:027EH         LINE#         210
  C:027EH         LINE#         211
  C:0280H         LINE#         212
  C:0286H         LINE#         213
  C:0286H         LINE#         214
  C:0288H         LINE#         215
  C:0288H         LINE#         216
=======
  C:04CEH         LINE#         185
  C:04D6H         LINE#         189
  C:04D9H         LINE#         190
  C:04DCH         LINE#         191
  C:04DFH         LINE#         192
  C:04EEH         LINE#         193
  C:04EEH         LINE#         194
  C:04EEH         LINE#         195
  C:04F6H         LINE#         196
  C:04F8H         LINE#         197
  C:04FAH         LINE#         198
  C:04FAH         LINE#         199
  C:0504H         LINE#         200
  C:0506H         LINE#         201
  C:0508H         LINE#         202
  C:0508H         LINE#         203
  C:0510H         LINE#         204
  C:0512H         LINE#         205
  C:0514H         LINE#         206
  C:0514H         LINE#         207
BL51 BANKED LINKER/LOCATER V6.22.2.0                                                  09/19/2021  19:20:10  PAGE 10


  C:051CH         LINE#         208
  C:051EH         LINE#         209
  C:051EH         LINE#         210
  C:051EH         LINE#         211
  C:0520H         LINE#         212
  C:0526H         LINE#         213
  C:0526H         LINE#         214
  C:0528H         LINE#         215
  C:0528H         LINE#         216
>>>>>>> 80c79e556fc7fea86ac0ac637f6c29c1a05323c5
  -------         ENDPROC       ET0_INT
BL51 BANKED LINKER/LOCATER V6.22.2.0                                                  09/18/2021  17:26:43  PAGE 10


  -------         PROC          ET1_INT
  -------         DO            
  D:0010H         SYMBOL        AD
  D:0002H         SYMBOL        d
  -------         ENDDO         
  C:014EH         LINE#         221
  C:0165H         LINE#         225
  C:0168H         LINE#         226
  C:016BH         LINE#         227
  C:016FH         LINE#         228
  C:016FH         LINE#         231
  C:016FH         LINE#         232
  C:017BH         LINE#         233
  C:018FH         LINE#         234
  C:01A3H         LINE#         235
  C:01A6H         LINE#         236
  C:01A9H         LINE#         237
  C:01ACH         LINE#         238
  C:01ACH         LINE#         239
  -------         ENDPROC       ET1_INT
  -------         ENDMOD        NRFSEND

  -------         MODULE        ?C?CLDOPTR
  C:001EH         PUBLIC        ?C?CLDOPTR
  -------         ENDMOD        ?C?CLDOPTR

  -------         MODULE        ?C?CSTOPTR
<<<<<<< HEAD
  C:004BH         PUBLIC        ?C?CSTOPTR
=======
  C:02B0H         PUBLIC        ?C?CSTOPTR
BL51 BANKED LINKER/LOCATER V6.22.2.0                                                  09/19/2021  19:20:10  PAGE 11


>>>>>>> 80c79e556fc7fea86ac0ac637f6c29c1a05323c5
  -------         ENDMOD        ?C?CSTOPTR

  -------         MODULE        ?C?UIDIV
  C:006DH         PUBLIC        ?C?UIDIV
  -------         ENDMOD        ?C?UIDIV

*** WARNING L16: UNCALLED SEGMENT, IGNORED FOR OVERLAY PROCESS
    SEGMENT: ?PR?_SPI_READ?NRFSEND

*** WARNING L16: UNCALLED SEGMENT, IGNORED FOR OVERLAY PROCESS
    SEGMENT: ?PR?_SPI_READ_BUF?NRFSEND

*** WARNING L16: UNCALLED SEGMENT, IGNORED FOR OVERLAY PROCESS
    SEGMENT: ?PR?RX_MODE?NRFSEND

*** WARNING L16: UNCALLED SEGMENT, IGNORED FOR OVERLAY PROCESS
    SEGMENT: ?PR?GET_AD_RES?NRFSEND

*** WARNING L16: UNCALLED SEGMENT, IGNORED FOR OVERLAY PROCESS
    SEGMENT: ?PR?UARTINIT?NRFSEND

<<<<<<< HEAD
Program Size: data=59.1 xdata=0 code=1150
LINK/LOCATE RUN COMPLETE.  5 WARNING(S),  0 ERROR(S)
=======
Program Size: data=58.1 xdata=0 code=1822
LINK/LOCATE RUN COMPLETE.  4 WARNING(S),  0 ERROR(S)
>>>>>>> 80c79e556fc7fea86ac0ac637f6c29c1a05323c5
