BL51 BANKED LINKER/LOCATER V6.22.2.0                                                    09/20/2021  17:03:11  PAGE 1


BL51 BANKED LINKER/LOCATER V6.22.2.0, INVOKED BY:
D:\KEIL_V5\C51\BIN\BL51.EXE .\Objects\STARTUP.obj, .\Objects\send2.obj TO .\Objects\nrfSend2 PRINT (.\Listings\nrfSend2.
>> m51) RAMSIZE (256)


MEMORY MODEL: LARGE


INPUT MODULES INCLUDED:
  .\Objects\STARTUP.obj (?C_STARTUP)
  .\Objects\send2.obj (SEND2)
  D:\KEIL_V5\C51\LIB\C51L.LIB (?C_INIT)
  D:\KEIL_V5\C51\LIB\C51L.LIB (?C?CLDOPTR)
  D:\KEIL_V5\C51\LIB\C51L.LIB (?C?CSTOPTR)


LINK MAP OF MODULE:  .\Objects\nrfSend2 (?C_STARTUP)


            TYPE    BASE      LENGTH    RELOCATION   SEGMENT NAME
            -----------------------------------------------------

            * * * * * * *   D A T A   M E M O R Y   * * * * * * *
            REG     0000H     0008H     ABSOLUTE     "REG BANK 0"
                    0008H     0018H                  *** GAP ***
            DATA    0020H     0001H     BIT_ADDR     ?BA?SEND2
            BIT     0021H.0   0000H.1   UNIT         _BIT_GROUP_
                    0021H.1   0000H.7                *** GAP ***
            IDATA   0022H     0001H     UNIT         ?STACK

            * * * * * * *  X D A T A   M E M O R Y  * * * * * * *
            XDATA   0000H     0024H     UNIT         ?XD?SEND2
            XDATA   0024H     0008H     UNIT         _XDATA_GROUP_
            XDATA   002CH     0005H     UNIT         ?XD?_SPI_READ_BUF?SEND2

            * * * * * * *   C O D E   M E M O R Y   * * * * * * *
            CODE    0000H     0003H     ABSOLUTE     
            CODE    0003H     001CH     UNIT         ?PR?UARTINTERRUPT?SEND2
            CODE    001FH     0003H     UNIT         ?PR?DELAY2US?SEND2
                    0022H     0001H                  *** GAP ***
            CODE    0023H     0003H     ABSOLUTE     
            CODE    0026H     008CH     UNIT         ?C_C51STARTUP
            CODE    00B2H     0083H     UNIT         ?PR?MAIN?SEND2
            CODE    0135H     0059H     UNIT         ?PR?_TX_MODE?SEND2
            CODE    018EH     004FH     UNIT         ?C?LIB_CODE
            CODE    01DDH     0041H     UNIT         ?PR?_SPI_WRITE_BUF?SEND2
            CODE    021EH     0035H     UNIT         ?PR?_SPI_READ_BUF?SEND2
            CODE    0253H     002EH     UNIT         ?PR?RX_MODE?SEND2
            CODE    0281H     002CH     UNIT         ?PR?_SPI_RW?SEND2
            CODE    02ADH     0027H     UNIT         ?PR?CHECK_ACK?SEND2
            CODE    02D4H     001AH     UNIT         ?PR?_SPI_RW_REG?SEND2
            CODE    02EEH     0013H     UNIT         ?PR?_DELAYMS?SEND2
            CODE    0301H     0013H     UNIT         ?PR?UART_INIT?SEND2
            CODE    0314H     0011H     UNIT         ?C_INITSEG
            CODE    0325H     000FH     UNIT         ?PR?_UARTSENDBYTE?SEND2
            CODE    0334H     000DH     UNIT         ?PR?_SPI_READ?SEND2
            CODE    0341H     0009H     UNIT         ?PR?NRF24L01_INIT?SEND2
            CODE    034AH     0005H     UNIT         ?CO?SEND2
BL51 BANKED LINKER/LOCATER V6.22.2.0                                                  09/20/2021  17:03:11  PAGE 2





OVERLAY MAP OF MODULE:   .\Objects\nrfSend2 (?C_STARTUP)


SEGMENT                             BIT_GROUP          XDATA_GROUP
  +--> CALLED SEGMENT            START    LENGTH     START    LENGTH
--------------------------------------------------------------------
?C_C51STARTUP                    -----    -----      -----    -----
  +--> ?PR?MAIN?SEND2
  +--> ?C_INITSEG

?PR?MAIN?SEND2                   -----    -----      -----    -----
  +--> ?PR?NRF24L01_INIT?SEND2
  +--> ?PR?UART_INIT?SEND2
  +--> ?PR?_UARTSENDBYTE?SEND2
  +--> ?PR?_TX_MODE?SEND2
  +--> ?PR?CHECK_ACK?SEND2
  +--> ?PR?_DELAYMS?SEND2

?PR?_TX_MODE?SEND2               -----    -----      0024H    0003H
  +--> ?CO?SEND2
  +--> ?PR?_SPI_WRITE_BUF?SEND2
  +--> ?PR?_SPI_RW_REG?SEND2

?PR?_SPI_WRITE_BUF?SEND2         -----    -----      0027H    0005H
  +--> ?CO?SEND2
  +--> ?PR?_SPI_RW?SEND2

?PR?_SPI_RW_REG?SEND2            -----    -----      -----    -----
  +--> ?PR?_SPI_RW?SEND2

?PR?CHECK_ACK?SEND2              0021H.0  0000H.1    -----    -----
  +--> ?PR?_SPI_RW?SEND2
  +--> ?PR?_SPI_RW_REG?SEND2



SYMBOL TABLE OF MODULE:  .\Objects\nrfSend2 (?C_STARTUP)

  VALUE           TYPE          NAME
  ----------------------------------

  -------         MODULE        ?C_STARTUP
  C:0026H         SEGMENT       ?C_C51STARTUP
  I:0022H         SEGMENT       ?STACK
  C:0000H         PUBLIC        ?C_STARTUP
  D:00E0H         SYMBOL        ACC
  D:00F0H         SYMBOL        B
  D:0083H         SYMBOL        DPH
  D:0082H         SYMBOL        DPL
  N:0000H         SYMBOL        IBPSTACK
  N:0100H         SYMBOL        IBPSTACKTOP
  N:0080H         SYMBOL        IDATALEN
  C:0029H         SYMBOL        IDATALOOP
  N:0000H         SYMBOL        PBPSTACK
BL51 BANKED LINKER/LOCATER V6.22.2.0                                                  09/20/2021  17:03:11  PAGE 3


  N:0100H         SYMBOL        PBPSTACKTOP
  N:0000H         SYMBOL        PDATALEN
  N:0000H         SYMBOL        PDATASTART
  N:0000H         SYMBOL        PPAGE
  N:0000H         SYMBOL        PPAGEENABLE
  D:00A0H         SYMBOL        PPAGE_SFR
  D:0081H         SYMBOL        SP
  C:0026H         SYMBOL        STARTUP1
  N:0000H         SYMBOL        XBPSTACK
  N:0000H         SYMBOL        XBPSTACKTOP
  N:0000H         SYMBOL        XDATALEN
  N:0000H         SYMBOL        XDATASTART
  C:0000H         LINE#         126
  C:0026H         LINE#         133
  C:0028H         LINE#         134
  C:0029H         LINE#         135
  C:002AH         LINE#         136
  C:002CH         LINE#         185
  C:002FH         LINE#         196
  -------         ENDMOD        ?C_STARTUP

  -------         MODULE        SEND2
  C:0000H         SYMBOL        _ICE_DUMMY_
  D:0090H         PUBLIC        P1
  B:00A8H.7       PUBLIC        EA
  B:0090H.0       PUBLIC        CE
  C:02ADH         PUBLIC        Check_ACK
  C:0253H         PUBLIC        RX_Mode
  C:02EEH         PUBLIC        _DelayMS
  C:0135H         PUBLIC        _TX_Mode
  C:0301H         PUBLIC        Uart_Init
  C:034AH         PUBLIC        TX_ADDRESS
  B:00A8H.4       PUBLIC        ES
  B:0098H.0       PUBLIC        RI
  X:0000H         PUBLIC        flag
  B:0098H.1       PUBLIC        TI
  B:0020H.6       PUBLIC        RX_DR
  X:0001H         PUBLIC        name
  B:0020H.5       PUBLIC        TX_DS
  C:00B2H         PUBLIC        main
  C:001FH         PUBLIC        delay2us
  D:0099H         PUBLIC        SBUF
  D:0098H         PUBLIC        SCON
  D:0089H         PUBLIC        TMOD
  X:0002H         PUBLIC        temp
  B:0090H.4       PUBLIC        MOSI
  B:0090H.2       PUBLIC        MISO
  C:0329H         PUBLIC        _UartSendByte
  X:0003H         PUBLIC        busy
  D:0020H         PUBLIC        sta
  C:021EH         PUBLIC        _SPI_Read_Buf
  C:0334H         PUBLIC        _SPI_Read
  D:008DH         PUBLIC        TH1
  D:008BH         PUBLIC        TL1
  C:0341H         PUBLIC        Nrf24l01_Init
  B:0088H.6       PUBLIC        TR1
  C:01EBH         PUBLIC        _SPI_Write_Buf
BL51 BANKED LINKER/LOCATER V6.22.2.0                                                  09/20/2021  17:03:11  PAGE 4


  B:0090H.1       PUBLIC        SCK
  B:0090H.3       PUBLIC        CSN
  X:0004H         PUBLIC        RX_BUF
  X:0014H         PUBLIC        TX_BUF
  B:0090H.5       PUBLIC        IRQ
  B:0020H.4       PUBLIC        MAX_RT
  C:0003H         PUBLIC        UartInterrupt
  C:02DDH         PUBLIC        _SPI_RW_Reg
  C:028BH         PUBLIC        _SPI_RW
  -------         PROC          _DELAYMS
  D:0007H         SYMBOL        ms
  -------         DO            
  D:0006H         SYMBOL        i
  D:0005H         SYMBOL        j
  -------         ENDDO         
  C:02EEH         LINE#         65
  C:02EEH         LINE#         66
  C:02EEH         LINE#         68
  C:02F0H         LINE#         69
  C:02F5H         LINE#         70
  C:02F5H         LINE#         71
  C:02F7H         LINE#         72
  C:02F9H         LINE#         74
  C:02FBH         LINE#         75
  C:02FDH         LINE#         77
  C:0300H         LINE#         78
  -------         ENDPROC       _DELAYMS
  -------         PROC          NRF24L01_INIT
  C:0341H         LINE#         84
  C:0341H         LINE#         85
  C:0341H         LINE#         86
  C:0343H         LINE#         87
  C:0345H         LINE#         88
  C:0347H         LINE#         89
  C:0349H         LINE#         90
  -------         ENDPROC       NRF24L01_INIT
  -------         PROC          L?0046
  -------         ENDPROC       L?0046
  -------         PROC          _SPI_RW
  D:0007H         SYMBOL        byte
  -------         DO            
  D:0006H         SYMBOL        i
  -------         ENDDO         
  C:028BH         LINE#         99
  C:028BH         LINE#         100
  C:028BH         LINE#         102
  C:0297H         LINE#         103
  C:0297H         LINE#         104
  C:029BH         LINE#         105
  C:029FH         LINE#         106
  C:02A1H         LINE#         107
  C:02A7H         LINE#         108
  C:02A9H         LINE#         109
  C:02ACH         LINE#         110
  C:02ACH         LINE#         111
  -------         ENDPROC       _SPI_RW
  -------         PROC          L?0047
BL51 BANKED LINKER/LOCATER V6.22.2.0                                                  09/20/2021  17:03:11  PAGE 5


  -------         ENDPROC       L?0047
  -------         PROC          _SPI_RW_REG
  D:0007H         SYMBOL        reg
  D:0005H         SYMBOL        value
  -------         DO            
  D:0004H         SYMBOL        status
  -------         ENDDO         
  C:02DDH         LINE#         119
  C:02DDH         LINE#         120
  C:02DDH         LINE#         122
  C:02DFH         LINE#         123
  C:02E4H         LINE#         124
  C:02E9H         LINE#         125
  C:02EBH         LINE#         126
  C:02EDH         LINE#         127
  -------         ENDPROC       _SPI_RW_REG
  -------         PROC          _SPI_READ
  D:0007H         SYMBOL        reg
  -------         DO            
  D:0007H         SYMBOL        reg_val
  -------         ENDDO         
  C:0334H         LINE#         135
  C:0334H         LINE#         136
  C:0334H         LINE#         138
  C:0336H         LINE#         139
  C:0339H         LINE#         140
  C:033EH         LINE#         141
  C:0340H         LINE#         142
  C:0340H         LINE#         143
  -------         ENDPROC       _SPI_READ
  -------         PROC          _SPI_READ_BUF
  D:0007H         SYMBOL        reg
  X:002DH         SYMBOL        pBuf
  X:0030H         SYMBOL        bytes
  -------         DO            
  D:0005H         SYMBOL        status
  D:0004H         SYMBOL        i
  -------         ENDDO         
  C:021EH         LINE#         152
  C:0221H         LINE#         153
  C:0221H         LINE#         155
  C:0221H         LINE#         156
  C:0226H         LINE#         157
  C:0232H         LINE#         158
  C:024EH         LINE#         159
  C:0250H         LINE#         160
  C:0252H         LINE#         161
  -------         ENDPROC       _SPI_READ_BUF
  -------         PROC          L?0045
  -------         ENDPROC       L?0045
  -------         PROC          _SPI_WRITE_BUF
  D:0007H         SYMBOL        reg
  X:0028H         SYMBOL        pBuf
  X:002BH         SYMBOL        bytes
  -------         DO            
  D:0005H         SYMBOL        status
  D:0004H         SYMBOL        i
BL51 BANKED LINKER/LOCATER V6.22.2.0                                                  09/20/2021  17:03:11  PAGE 6


  -------         ENDDO         
  C:01EBH         LINE#         170
  C:01EEH         LINE#         171
  C:01EEH         LINE#         173
  C:01EEH         LINE#         174
  C:01F3H         LINE#         175
  C:01FFH         LINE#         176
  C:0219H         LINE#         177
  C:021BH         LINE#         178
  C:021DH         LINE#         179
  -------         ENDPROC       _SPI_WRITE_BUF
  -------         PROC          RX_MODE
  C:0253H         LINE#         187
  C:0253H         LINE#         188
  C:0253H         LINE#         189
  C:0255H         LINE#         190
  C:0258H         LINE#         191
  C:0258H         LINE#         192
  C:025BH         LINE#         193
  C:0262H         LINE#         194
  C:0269H         LINE#         195
  C:0270H         LINE#         196
  C:0277H         LINE#         197
  C:027EH         LINE#         198
  C:0280H         LINE#         199
  -------         ENDPROC       RX_MODE
  -------         PROC          _TX_MODE
  X:0024H         SYMBOL        BUF
  C:0135H         LINE#         209
  C:0140H         LINE#         210
  C:0140H         LINE#         211
  C:0142H         LINE#         212
  C:0153H         LINE#         213
  C:0156H         LINE#         214
  C:016CH         LINE#         215
  C:016CH         LINE#         216
  C:016FH         LINE#         217
  C:0176H         LINE#         218
  C:017DH         LINE#         219
  C:0184H         LINE#         220
  C:018BH         LINE#         221
  C:018DH         LINE#         222
  -------         ENDPROC       _TX_MODE
  -------         PROC          CHECK_ACK
  B:0021H.0       SYMBOL        clear
  C:02ADH         LINE#         232
  C:02ADH         LINE#         233
  C:02ADH         LINE#         234
  C:02B0H         LINE#         236
  C:02B7H         LINE#         237
  C:02BAH         LINE#         238
  C:02BDH         LINE#         239
  C:02C2H         LINE#         240
  C:02C9H         LINE#         241
  C:02CBH         LINE#         242
  C:02CEH         LINE#         243
  C:02D1H         LINE#         245
BL51 BANKED LINKER/LOCATER V6.22.2.0                                                  09/20/2021  17:03:11  PAGE 7


  C:02D3H         LINE#         246
  -------         ENDPROC       CHECK_ACK
  -------         PROC          DELAY2US
  C:001FH         LINE#         53
  C:001FH         LINE#         54
  C:001FH         LINE#         55
  C:0020H         LINE#         56
  C:0021H         LINE#         57
  -------         ENDPROC       DELAY2US
  -------         PROC          UART_INIT
  C:0301H         LINE#         128
  C:0301H         LINE#         129
  C:0301H         LINE#         130
  C:0304H         LINE#         131
  C:0307H         LINE#         132
  C:030DH         LINE#         133
  C:030FH         LINE#         134
  C:0311H         LINE#         135
  C:0313H         LINE#         136
  -------         ENDPROC       UART_INIT
  C:0325H         SYMBOL        L?0049
  -------         PROC          L?0048
  -------         ENDPROC       L?0048
  C:0325H         SYMBOL        L?0049
  -------         PROC          _UARTSENDBYTE
  D:0007H         SYMBOL        b
  C:0329H         LINE#         137
  C:0329H         LINE#         138
  C:0329H         LINE#         139
  C:032BH         LINE#         140
  C:0331H         LINE#         142
  C:0333H         LINE#         143
  -------         ENDPROC       _UARTSENDBYTE
  -------         PROC          MAIN
  C:00B2H         LINE#         169
  C:00B2H         LINE#         170
  C:00B2H         LINE#         171
  C:00B5H         LINE#         173
  C:00B8H         LINE#         175
  C:00BAH         LINE#         178
  C:00C2H         LINE#         179
  C:00C8H         LINE#         180
  C:00C8H         LINE#         181
  C:00C8H         LINE#         182
  C:00D4H         LINE#         183
  C:00E0H         LINE#         184
  C:00ECH         LINE#         185
  C:00F9H         LINE#         186
  C:00FBH         LINE#         187
  C:0103H         LINE#         188
  C:0109H         LINE#         189
  C:010FH         LINE#         190
  C:0115H         LINE#         191
  C:011DH         LINE#         192
  C:0126H         LINE#         193
  C:012BH         LINE#         194
  C:0130H         LINE#         195
BL51 BANKED LINKER/LOCATER V6.22.2.0                                                  09/20/2021  17:03:11  PAGE 8


  C:0133H         LINE#         196
  -------         ENDPROC       MAIN
  -------         PROC          UARTINTERRUPT
  C:0003H         LINE#         255
  C:0009H         LINE#         257
  C:000CH         LINE#         258
  C:000CH         LINE#         259
  C:000EH         LINE#         260
  C:000EH         LINE#         261
  C:0011H         LINE#         262
  C:0011H         LINE#         263
  C:0013H         LINE#         264
  C:0018H         LINE#         265
  C:0018H         LINE#         266
  -------         ENDPROC       UARTINTERRUPT
  -------         ENDMOD        SEND2

  -------         MODULE        ?C?CLDOPTR
  C:018EH         PUBLIC        ?C?CLDOPTR
  -------         ENDMOD        ?C?CLDOPTR

  -------         MODULE        ?C?CSTOPTR
  C:01BBH         PUBLIC        ?C?CSTOPTR
  -------         ENDMOD        ?C?CSTOPTR

*** WARNING L16: UNCALLED SEGMENT, IGNORED FOR OVERLAY PROCESS
    SEGMENT: ?PR?_SPI_READ?SEND2

*** WARNING L16: UNCALLED SEGMENT, IGNORED FOR OVERLAY PROCESS
    SEGMENT: ?PR?_SPI_READ_BUF?SEND2

*** WARNING L16: UNCALLED SEGMENT, IGNORED FOR OVERLAY PROCESS
    SEGMENT: ?PR?RX_MODE?SEND2

*** WARNING L16: UNCALLED SEGMENT, IGNORED FOR OVERLAY PROCESS
    SEGMENT: ?PR?DELAY2US?SEND2

Program Size: data=10.1 xdata=49 code=846
LINK/LOCATE RUN COMPLETE.  4 WARNING(S),  0 ERROR(S)
