BL51 BANKED LINKER/LOCATER V6.22.2.0                                                    08/23/2021  22:03:47  PAGE 1


BL51 BANKED LINKER/LOCATER V6.22.2.0, INVOKED BY:
D:\KEIL_V5\C51\BIN\BL51.EXE .\Objects\STARTUP.obj, .\Objects\nrfSend.obj TO .\Objects\test PRINT (.\Listings\test.m51) R
>> AMSIZE (256)


MEMORY MODEL: SMALL WITH FLOATING POINT ARITHMETIC


INPUT MODULES INCLUDED:
  .\Objects\STARTUP.obj (?C_STARTUP)
  .\Objects\nrfSend.obj (NRFSEND)
  D:\KEIL_V5\C51\LIB\C51FPS.LIB (?C?FPMUL)
  D:\KEIL_V5\C51\LIB\C51FPS.LIB (?C?FPDIV)
  D:\KEIL_V5\C51\LIB\C51FPS.LIB (?C?FCAST)
  D:\KEIL_V5\C51\LIB\C51FPS.LIB (?C?CASTF)
  D:\KEIL_V5\C51\LIB\C51FPS.LIB (PRINTF)
  D:\KEIL_V5\C51\LIB\C51FPS.LIB (?C?FPGETOPN)
  D:\KEIL_V5\C51\LIB\C51FPS.LIB (?C?FPROUND)
  D:\KEIL_V5\C51\LIB\C51FPS.LIB (?C?FPCONVERT)
  D:\KEIL_V5\C51\LIB\C51FPS.LIB (?C?FPADD)
  D:\KEIL_V5\C51\LIB\C51FPS.LIB (?C?FTNPWR)
  D:\KEIL_V5\C51\LIB\C51S.LIB (?C_INIT)
  D:\KEIL_V5\C51\LIB\C51S.LIB (?C?CLDPTR)
  D:\KEIL_V5\C51\LIB\C51S.LIB (?C?CLDOPTR)
  D:\KEIL_V5\C51\LIB\C51S.LIB (?C?CSTPTR)
  D:\KEIL_V5\C51\LIB\C51S.LIB (?C?CSTOPTR)
  D:\KEIL_V5\C51\LIB\C51S.LIB (?C?UIDIV)
  D:\KEIL_V5\C51\LIB\C51S.LIB (?C?LNEG)
  D:\KEIL_V5\C51\LIB\C51S.LIB (?C?PLDIIDATA)
  D:\KEIL_V5\C51\LIB\C51S.LIB (?C?CCASE)
  D:\KEIL_V5\C51\LIB\C51S.LIB (PUTCHAR)


LINK MAP OF MODULE:  .\Objects\test (?C_STARTUP)


            TYPE    BASE      LENGTH    RELOCATION   SEGMENT NAME
            -----------------------------------------------------

            * * * * * * *   D A T A   M E M O R Y   * * * * * * *
            REG     0000H     0008H     ABSOLUTE     "REG BANK 0"
            DATA    0008H     0005H     UNIT         ?DT?_SPI_READ_BUF?NRFSEND
            DATA    000DH     0002H     UNIT         ?DT?_DISPLAY_RESULT?NRFSEND
                    000FH     0011H                  *** GAP ***
            DATA    0020H     0001H     BIT_ADDR     ?BA?NRFSEND
            BIT     0021H.0   0001H.1   UNIT         _BIT_GROUP_
                    0022H.1   0000H.7                *** GAP ***
            DATA    0023H     0028H     UNIT         ?DT?NRFSEND
            DATA    004BH     001CH     UNIT         _DATA_GROUP_
            IDATA   0067H     0001H     UNIT         ?STACK

            * * * * * * *   C O D E   M E M O R Y   * * * * * * *
            CODE    0000H     0003H     ABSOLUTE     
            CODE    0003H     0003H     UNIT         ?PR?TIMER0_INT?NRFSEND
                    0006H     0005H                  *** GAP ***
            CODE    000BH     0003H     ABSOLUTE     
            CODE    000EH     0612H     UNIT         ?C?LIB_CODE
            CODE    0620H     046FH     UNIT         ?PR?PRINTF?PRINTF
BL51 BANKED LINKER/LOCATER V6.22.2.0                                                  08/23/2021  22:03:47  PAGE 2


            CODE    0A8FH     008CH     UNIT         ?C_C51STARTUP
            CODE    0B1BH     0074H     UNIT         ?PR?MAIN?NRFSEND
            CODE    0B8FH     0067H     UNIT         ?PR?_ADCVALUE?NRFSEND
            CODE    0BF6H     0061H     UNIT         ?CO?NRFSEND
            CODE    0C57H     0047H     UNIT         ?PR?_TX_MODE?NRFSEND
            CODE    0C9EH     003DH     UNIT         ?PR?_DISPLAY_RESULT?NRFSEND
            CODE    0CDBH     003AH     UNIT         ?PR?_SPI_WRITE_BUF?NRFSEND
            CODE    0D15H     0031H     UNIT         ?PR?_SPI_READ_BUF?NRFSEND
            CODE    0D46H     002EH     UNIT         ?PR?CHECK_ACK?NRFSEND
            CODE    0D74H     0027H     UNIT         ?PR?PUTCHAR?PUTCHAR
            CODE    0D9BH     0025H     UNIT         ?PR?RX_MODE?NRFSEND
            CODE    0DC0H     0024H     UNIT         ?C_INITSEG
            CODE    0DE4H     0023H     UNIT         ?PR?_DELAYMS?NRFSEND
            CODE    0E07H     0022H     UNIT         ?PR?_SPI_RW?NRFSEND
            CODE    0E29H     001AH     UNIT         ?PR?_SPI_RW_REG?NRFSEND
            CODE    0E43H     0013H     UNIT         ?PR?UARTINIT?NRFSEND
            CODE    0E56H     0010H     UNIT         ?PR?ADCINIT?NRFSEND
            CODE    0E66H     000DH     UNIT         ?PR?_SPI_READ?NRFSEND
            CODE    0E73H     0009H     UNIT         ?PR?INIT_IO?NRFSEND



OVERLAY MAP OF MODULE:   .\Objects\test (?C_STARTUP)


SEGMENT                                BIT_GROUP          DATA_GROUP 
  +--> CALLED SEGMENT               START    LENGTH     START    LENGTH
-----------------------------------------------------------------------
?C_C51STARTUP                       -----    -----      -----    -----
  +--> ?PR?MAIN?NRFSEND
  +--> ?C_INITSEG

?PR?MAIN?NRFSEND                    -----    -----      -----    -----
  +--> ?PR?INIT_IO?NRFSEND
  +--> ?PR?ADCINIT?NRFSEND
  +--> ?PR?UARTINIT?NRFSEND
  +--> ?PR?_ADCVALUE?NRFSEND
  +--> ?CO?NRFSEND
  +--> ?PR?PRINTF?PRINTF
  +--> ?PR?_TX_MODE?NRFSEND
  +--> ?PR?CHECK_ACK?NRFSEND
  +--> ?PR?_DELAYMS?NRFSEND

?PR?PRINTF?PRINTF                   0021H.0  0001H.1    004BH    001CH
  +--> ?PR?PUTCHAR?PUTCHAR

?PR?_TX_MODE?NRFSEND                -----    -----      004BH    0003H
  +--> ?CO?NRFSEND
  +--> ?PR?_SPI_WRITE_BUF?NRFSEND
  +--> ?PR?_SPI_RW_REG?NRFSEND
  +--> ?PR?_DELAYMS?NRFSEND

?PR?_SPI_WRITE_BUF?NRFSEND          -----    -----      004EH    0005H
  +--> ?CO?NRFSEND
  +--> ?PR?_SPI_RW?NRFSEND

?PR?_SPI_RW_REG?NRFSEND             -----    -----      -----    -----
BL51 BANKED LINKER/LOCATER V6.22.2.0                                                  08/23/2021  22:03:47  PAGE 3


  +--> ?PR?_SPI_RW?NRFSEND

?PR?_DELAYMS?NRFSEND                -----    -----      -----    -----
  +--> ?PR?_SPI_RW_REG?NRFSEND

?PR?CHECK_ACK?NRFSEND               0021H.0  0000H.1    -----    -----
  +--> ?PR?_DELAYMS?NRFSEND
  +--> ?PR?_SPI_RW?NRFSEND
  +--> ?PR?_SPI_RW_REG?NRFSEND



SYMBOL TABLE OF MODULE:  .\Objects\test (?C_STARTUP)

  VALUE           TYPE          NAME
  ----------------------------------

  -------         MODULE        ?C_STARTUP
  C:0A8FH         SEGMENT       ?C_C51STARTUP
  I:0067H         SEGMENT       ?STACK
  C:0000H         PUBLIC        ?C_STARTUP
  D:00E0H         SYMBOL        ACC
  D:00F0H         SYMBOL        B
  D:0083H         SYMBOL        DPH
  D:0082H         SYMBOL        DPL
  N:0000H         SYMBOL        IBPSTACK
  N:0100H         SYMBOL        IBPSTACKTOP
  N:0080H         SYMBOL        IDATALEN
  C:0A92H         SYMBOL        IDATALOOP
  N:0000H         SYMBOL        PBPSTACK
  N:0100H         SYMBOL        PBPSTACKTOP
  N:0000H         SYMBOL        PDATALEN
  N:0000H         SYMBOL        PDATASTART
  N:0000H         SYMBOL        PPAGE
  N:0000H         SYMBOL        PPAGEENABLE
  D:00A0H         SYMBOL        PPAGE_SFR
  D:0081H         SYMBOL        SP
  C:0A8FH         SYMBOL        STARTUP1
  N:0000H         SYMBOL        XBPSTACK
  N:0000H         SYMBOL        XBPSTACKTOP
  N:0000H         SYMBOL        XDATALEN
  N:0000H         SYMBOL        XDATASTART
  C:0000H         LINE#         126
  C:0A8FH         LINE#         133
  C:0A91H         LINE#         134
  C:0A92H         LINE#         135
  C:0A93H         LINE#         136
  C:0A95H         LINE#         185
  C:0A98H         LINE#         196
  -------         ENDMOD        ?C_STARTUP

  -------         MODULE        NRFSEND
  C:0000H         SYMBOL        _ICE_DUMMY_
  C:0003H         PUBLIC        Timer0_INT
  D:0090H         PUBLIC        P1
  D:00A0H         PUBLIC        P2
  D:00B0H         PUBLIC        P3
BL51 BANKED LINKER/LOCATER V6.22.2.0                                                  08/23/2021  22:03:47  PAGE 4


  B:00A8H.7       PUBLIC        EA
  B:0090H.0       PUBLIC        CE
  D:00A8H         PUBLIC        IE
  C:0D46H         PUBLIC        Check_ACK
  C:0D9BH         PUBLIC        RX_Mode
  C:0DEDH         PUBLIC        _DelayMS
  C:0C57H         PUBLIC        _TX_Mode
  B:00B0H.4       PUBLIC        OE
  C:0C52H         PUBLIC        TX_ADDRESS
  D:00B8H         PUBLIC        IP
  D:0023H         PUBLIC        DATA
  D:0024H         PUBLIC        flag
  B:0098H.1       PUBLIC        TI
  B:0020H.6       PUBLIC        RX_DR
  B:0020H.5       PUBLIC        TX_DS
  C:0B1BH         PUBLIC        main
  B:00B0H.6       PUBLIC        ST
  D:0098H         PUBLIC        SCON
  D:0089H         PUBLIC        TMOD
  D:0088H         PUBLIC        TCON
  B:0090H.4       PUBLIC        MOSI
  B:0090H.2       PUBLIC        MISO
  C:0C9EH         PUBLIC        _Display_Result
  C:0E56H         PUBLIC        adcInit
  D:0020H         PUBLIC        sta
  B:00A8H.1       PUBLIC        ET0
  C:0B8FH         PUBLIC        _adcvalue
  C:0D15H         PUBLIC        _SPI_Read_Buf
  C:0E66H         PUBLIC        _SPI_Read
  D:008CH         PUBLIC        TH0
  D:008DH         PUBLIC        TH1
  D:008AH         PUBLIC        TL0
  D:008BH         PUBLIC        TL1
  D:0025H         PUBLIC        weitable
  D:0029H         PUBLIC        LEDData
  C:0E43H         PUBLIC        uartInit
  B:0088H.4       PUBLIC        TR0
  B:00B0H.5       PUBLIC        EOC
  B:0088H.6       PUBLIC        TR1
  C:0CE6H         PUBLIC        _SPI_Write_Buf
  B:00B0H.7       PUBLIC        CLK
  B:0090H.1       PUBLIC        SCK
  B:0090H.3       PUBLIC        CSN
  B:0098H.4       PUBLIC        REN
  D:00C8H         PUBLIC        T2CON
  D:0041H         PUBLIC        RX_BUF
  D:0046H         PUBLIC        TX_BUF
  B:0090H.5       PUBLIC        IRQ
  B:0020H.4       PUBLIC        MAX_RT
  C:0E73H         PUBLIC        init_io
  C:0E32H         PUBLIC        _SPI_RW_Reg
  C:0E07H         PUBLIC        _SPI_RW
  D:00D0H         PUBLIC        PSW
  -------         PROC          ADCINIT
  C:0E56H         LINE#         69
  C:0E56H         LINE#         70
  C:0E56H         LINE#         71
BL51 BANKED LINKER/LOCATER V6.22.2.0                                                  08/23/2021  22:03:47  PAGE 5


  C:0E59H         LINE#         72
  C:0E5CH         LINE#         73
  C:0E5FH         LINE#         74
  C:0E61H         LINE#         75
  C:0E63H         LINE#         76
  C:0E65H         LINE#         77
  -------         ENDPROC       ADCINIT
  -------         PROC          L?0049
  -------         ENDPROC       L?0049
  -------         PROC          _DELAYMS
  D:0006H         SYMBOL        ms
  -------         DO            
  D:0005H         SYMBOL        i
  -------         ENDDO         
  C:0DEDH         LINE#         83
  C:0DEDH         LINE#         84
  C:0DEDH         LINE#         86
  C:0DF7H         LINE#         87
  C:0E06H         LINE#         89
  -------         ENDPROC       _DELAYMS
  -------         PROC          UARTINIT
  C:0E43H         LINE#         95
  C:0E43H         LINE#         96
  C:0E43H         LINE#         97
  C:0E46H         LINE#         98
  C:0E48H         LINE#         99
  C:0E4BH         LINE#         100
  C:0E51H         LINE#         101
  C:0E53H         LINE#         102
  C:0E55H         LINE#         103
  -------         ENDPROC       UARTINIT
  -------         PROC          _DISPLAY_RESULT
  D:0007H         SYMBOL        m
  -------         DO            
  D:000DH         SYMBOL        d
  D:0004H         SYMBOL        k
  -------         ENDDO         
  C:0C9EH         LINE#         104
  C:0C9EH         LINE#         105
  C:0C9EH         LINE#         106
  C:0CA3H         LINE#         108
  C:0CABH         LINE#         109
  C:0CC0H         LINE#         110
  C:0CC7H         LINE#         111
  C:0CD6H         LINE#         112
  C:0CDAH         LINE#         128
  -------         ENDPROC       _DISPLAY_RESULT
  -------         PROC          INIT_IO
  C:0E73H         LINE#         175
  C:0E73H         LINE#         176
  C:0E73H         LINE#         177
  C:0E75H         LINE#         178
  C:0E77H         LINE#         179
  C:0E79H         LINE#         180
  C:0E7BH         LINE#         182
  -------         ENDPROC       INIT_IO
  -------         PROC          _SPI_RW
BL51 BANKED LINKER/LOCATER V6.22.2.0                                                  08/23/2021  22:03:47  PAGE 6


  D:0007H         SYMBOL        byte
  -------         DO            
  D:0006H         SYMBOL        i
  -------         ENDDO         
  C:0E07H         LINE#         191
  C:0E07H         LINE#         192
  C:0E07H         LINE#         194
  C:0E13H         LINE#         195
  C:0E13H         LINE#         196
  C:0E17H         LINE#         197
  C:0E1BH         LINE#         198
  C:0E1DH         LINE#         199
  C:0E23H         LINE#         200
  C:0E25H         LINE#         201
  C:0E28H         LINE#         202
  C:0E28H         LINE#         203
  -------         ENDPROC       _SPI_RW
  -------         PROC          L?0048
  -------         ENDPROC       L?0048
  -------         PROC          _SPI_RW_REG
  D:0007H         SYMBOL        reg
  D:0005H         SYMBOL        value
  -------         DO            
  D:0004H         SYMBOL        status
  -------         ENDDO         
  C:0E32H         LINE#         211
  C:0E32H         LINE#         212
  C:0E32H         LINE#         214
  C:0E34H         LINE#         215
  C:0E39H         LINE#         216
  C:0E3EH         LINE#         217
  C:0E40H         LINE#         218
  C:0E42H         LINE#         219
  -------         ENDPROC       _SPI_RW_REG
  -------         PROC          _SPI_READ
  D:0007H         SYMBOL        reg
  -------         DO            
  D:0007H         SYMBOL        reg_val
  -------         ENDDO         
  C:0E66H         LINE#         227
  C:0E66H         LINE#         228
  C:0E66H         LINE#         230
  C:0E68H         LINE#         231
  C:0E6BH         LINE#         232
  C:0E70H         LINE#         233
  C:0E72H         LINE#         234
  C:0E72H         LINE#         235
  -------         ENDPROC       _SPI_READ
  -------         PROC          _SPI_READ_BUF
  D:0007H         SYMBOL        reg
  D:0009H         SYMBOL        pBuf
  D:000CH         SYMBOL        bytes
  -------         DO            
  D:0005H         SYMBOL        status
  D:0004H         SYMBOL        i
  -------         ENDDO         
  C:0D15H         LINE#         244
BL51 BANKED LINKER/LOCATER V6.22.2.0                                                  08/23/2021  22:03:47  PAGE 7


  C:0D1BH         LINE#         245
  C:0D1BH         LINE#         247
  C:0D1DH         LINE#         248
  C:0D22H         LINE#         249
  C:0D2AH         LINE#         250
  C:0D41H         LINE#         251
  C:0D43H         LINE#         252
  C:0D45H         LINE#         253
  -------         ENDPROC       _SPI_READ_BUF
  -------         PROC          L?0047
  -------         ENDPROC       L?0047
  -------         PROC          _SPI_WRITE_BUF
  D:0007H         SYMBOL        reg
  D:004FH         SYMBOL        pBuf
  D:0052H         SYMBOL        bytes
  -------         DO            
  D:0005H         SYMBOL        status
  D:0004H         SYMBOL        i
  -------         ENDDO         
  C:0CE6H         LINE#         262
  C:0CECH         LINE#         263
  C:0CECH         LINE#         265
  C:0CEEH         LINE#         266
  C:0CF3H         LINE#         267
  C:0CFBH         LINE#         268
  C:0D10H         LINE#         269
  C:0D12H         LINE#         270
  C:0D14H         LINE#         271
  -------         ENDPROC       _SPI_WRITE_BUF
  -------         PROC          RX_MODE
  C:0D9BH         LINE#         279
  C:0D9BH         LINE#         280
  C:0D9BH         LINE#         281
  C:0D9DH         LINE#         282
  C:0DA0H         LINE#         283
  C:0DA0H         LINE#         284
  C:0DA3H         LINE#         285
  C:0DAAH         LINE#         286
  C:0DB1H         LINE#         287
  C:0DB8H         LINE#         288
  C:0DBAH         LINE#         289
  C:0DBDH         LINE#         290
  C:0DBFH         LINE#         291
  -------         ENDPROC       RX_MODE
  -------         PROC          _TX_MODE
  D:004BH         SYMBOL        BUF
  C:0C57H         LINE#         301
  C:0C5DH         LINE#         302
  C:0C5DH         LINE#         303
  C:0C5FH         LINE#         304
  C:0C6DH         LINE#         305
  C:0C70H         LINE#         306
  C:0C7EH         LINE#         307
  C:0C7EH         LINE#         308
  C:0C81H         LINE#         309
  C:0C88H         LINE#         310
  C:0C8FH         LINE#         311
BL51 BANKED LINKER/LOCATER V6.22.2.0                                                  08/23/2021  22:03:47  PAGE 8


  C:0C96H         LINE#         312
  C:0C98H         LINE#         313
  C:0C9BH         LINE#         314
  C:0C9DH         LINE#         315
  -------         ENDPROC       _TX_MODE
  -------         PROC          CHECK_ACK
  B:0021H.0       SYMBOL        clear
  C:0D46H         LINE#         324
  C:0D46H         LINE#         325
  C:0D46H         LINE#         326
  C:0D4DH         LINE#         327
  C:0D50H         LINE#         329
  C:0D57H         LINE#         330
  C:0D57H         LINE#         331
  C:0D57H         LINE#         334
  C:0D57H         LINE#         336
  C:0D5AH         LINE#         337
  C:0D5DH         LINE#         338
  C:0D62H         LINE#         339
  C:0D69H         LINE#         340
  C:0D6BH         LINE#         341
  C:0D6EH         LINE#         342
  C:0D71H         LINE#         344
  C:0D73H         LINE#         345
  -------         ENDPROC       CHECK_ACK
  -------         PROC          _ADCVALUE
  D:0007H         SYMBOL        p
  -------         DO            
  D:0002H         SYMBOL        d
  D:0004H         SYMBOL        k
  -------         ENDDO         
  C:0B8FH         LINE#         347
  C:0B8FH         LINE#         348
  C:0B8FH         LINE#         349
  C:0B93H         LINE#         351
  C:0B9BH         LINE#         352
  C:0BB0H         LINE#         353
  C:0BB7H         LINE#         354
  C:0BC0H         LINE#         355
  C:0BD4H         LINE#         356
  C:0BE8H         LINE#         357
  C:0BF5H         LINE#         358
  -------         ENDPROC       _ADCVALUE
  -------         PROC          MAIN
  -------         DO            
  D:0006H         SYMBOL        j
  -------         ENDDO         
  C:0B1BH         LINE#         360
  C:0B1BH         LINE#         361
  C:0B1BH         LINE#         363
  C:0B1DH         LINE#         364
  C:0B2AH         LINE#         365
  C:0B2DH         LINE#         366
  C:0B30H         LINE#         367
  C:0B33H         LINE#         368
  C:0B33H         LINE#         369
  C:0B33H         LINE#         370
BL51 BANKED LINKER/LOCATER V6.22.2.0                                                  08/23/2021  22:03:47  PAGE 9


  C:0B35H         LINE#         371
  C:0B37H         LINE#         372
  C:0B39H         LINE#         373
  C:0B3CH         LINE#         375
  C:0B3EH         LINE#         376
  C:0B43H         LINE#         377
  C:0B45H         LINE#         378
  C:0B51H         LINE#         379
  C:0B5DH         LINE#         380
  C:0B69H         LINE#         381
  C:0B75H         LINE#         382
  C:0B78H         LINE#         383
  C:0B81H         LINE#         384
  C:0B86H         LINE#         386
  C:0B8DH         LINE#         387
  -------         ENDPROC       MAIN
  -------         PROC          TIMER0_INT
  C:0003H         LINE#         392
  C:0003H         LINE#         394
  C:0005H         LINE#         395
  -------         ENDPROC       TIMER0_INT
  -------         ENDMOD        NRFSEND

  -------         MODULE        ?C?FPMUL
  C:000EH         PUBLIC        ?C?FPMUL
  -------         ENDMOD        ?C?FPMUL

  -------         MODULE        ?C?FPDIV
  C:0117H         PUBLIC        ?C?FPDIV
  -------         ENDMOD        ?C?FPDIV

  -------         MODULE        ?C?FCAST
  C:01BEH         PUBLIC        ?C?FCASTC
  C:01B9H         PUBLIC        ?C?FCASTI
  C:01B4H         PUBLIC        ?C?FCASTL
  -------         ENDMOD        ?C?FCAST

  -------         MODULE        ?C?CASTF
  C:01F2H         PUBLIC        ?C?CASTF
  -------         ENDMOD        ?C?CASTF

  -------         MODULE        PRINTF
  D:004BH         PUBLIC        ?_PRINTF?BYTE
  D:004BH         PUBLIC        ?_SPRINTF?BYTE
  C:0682H         PUBLIC        _PRINTF
  C:067CH         PUBLIC        _SPRINTF
  -------         ENDMOD        PRINTF

  -------         MODULE        ?C?FPROUND
  C:0273H         PUBLIC        ?C?FPROUND
  -------         ENDMOD        ?C?FPROUND

  -------         MODULE        ?C?FPCONVERT
  C:02A2H         PUBLIC        ?C?FPCONVERT
  -------         ENDMOD        ?C?FPCONVERT

  -------         MODULE        ?C?FPADD
BL51 BANKED LINKER/LOCATER V6.22.2.0                                                  08/23/2021  22:03:47  PAGE 10


  C:03ACH         PUBLIC        ?C?FPADD
  C:03A8H         PUBLIC        ?C?FPSUB
  -------         ENDMOD        ?C?FPADD

  -------         MODULE        ?C?FTNPWR
  C:04CDH         PUBLIC        ?C?FTNPWR
  -------         ENDMOD        ?C?FTNPWR

  -------         MODULE        ?C?CLDPTR
  C:050DH         PUBLIC        ?C?CLDPTR
  -------         ENDMOD        ?C?CLDPTR

  -------         MODULE        ?C?CLDOPTR
  C:0526H         PUBLIC        ?C?CLDOPTR
  -------         ENDMOD        ?C?CLDOPTR

  -------         MODULE        ?C?CSTPTR
  C:0553H         PUBLIC        ?C?CSTPTR
  -------         ENDMOD        ?C?CSTPTR

  -------         MODULE        ?C?CSTOPTR
  C:0565H         PUBLIC        ?C?CSTOPTR
  -------         ENDMOD        ?C?CSTOPTR

  -------         MODULE        ?C?UIDIV
  C:0587H         PUBLIC        ?C?UIDIV
  -------         ENDMOD        ?C?UIDIV

  -------         MODULE        ?C?LNEG
  C:05DCH         PUBLIC        ?C?LNEG
  -------         ENDMOD        ?C?LNEG

  -------         MODULE        ?C?PLDIIDATA
  C:05EAH         PUBLIC        ?C?PLDIIDATA
  -------         ENDMOD        ?C?PLDIIDATA

  -------         MODULE        ?C?CCASE
  C:05FAH         PUBLIC        ?C?CCASE
  -------         ENDMOD        ?C?CCASE

  -------         MODULE        PUTCHAR
  C:0D74H         PUBLIC        _PUTCHAR
  -------         ENDMOD        PUTCHAR

*** WARNING L16: UNCALLED SEGMENT, IGNORED FOR OVERLAY PROCESS
    SEGMENT: ?PR?_DISPLAY_RESULT?NRFSEND

*** WARNING L16: UNCALLED SEGMENT, IGNORED FOR OVERLAY PROCESS
    SEGMENT: ?PR?_SPI_READ?NRFSEND

*** WARNING L16: UNCALLED SEGMENT, IGNORED FOR OVERLAY PROCESS
    SEGMENT: ?PR?_SPI_READ_BUF?NRFSEND

*** WARNING L16: UNCALLED SEGMENT, IGNORED FOR OVERLAY PROCESS
    SEGMENT: ?PR?RX_MODE?NRFSEND

Program Size: data=86.1 xdata=0 code=3703
BL51 BANKED LINKER/LOCATER V6.22.2.0                                                  08/23/2021  22:03:47  PAGE 11


LINK/LOCATE RUN COMPLETE.  4 WARNING(S),  0 ERROR(S)
