:03000000020026D5
:0C002600787FE4F6D8FD75811102006DB2
:10013A007465737420697320626567696E7E0D0A3F
:01014A0000B4
:09015500010E000108000109007F
:10012700759850758920758DFD758BFDD28ED2AC73
:03013700D2AF2222
:0A014B00E50970FC7509018F992287
:1000E9008B0F8A108911AB0FAA10A91112010E608A
:1000F900130511E5117002051014F912010EFF1212
:05010900014B80E22221
:100003001201277BFF7A01793A1200E9E50860FCC7
:0D001300E4F508FB7A00790A1200E980EF9D
:030023000200B226
:0B00B200C0E0C0D075D000C000C00747
:1000BD00309818C298AF99740A250EF8A607050E48
:1000CD00E50E64037005F50E750801309905C299AA
:0300DD00750900A2
:0900E000D007D000D0D0D0E032EE
:10003200020003E493A3F8E493A34003F68001F2E1
:1000420008DFF48029E493A3F85407240CC8C333CF
:10005200C4540F4420C8834004F456800146F6DF9E
:10006200E4800B0102040810204080900155E47ED8
:10007200019360BCA3FF543F30E509541FFEE49393
:10008200A360010ECF54C025E060A840B8E493A35A
:10009200FAE493A3F8E493A3C8C582C8CAC583CA85
:1000A200F0A3C8C582C8CAC583CADFE9DEE780BE3D
:01015E0000A0
:10010E00BB010689828A83E0225002E722BBFE02EF
:09011E00E32289828A83E4932222
:00000001FF
