:03000000020026D5
:0C002600787FE4F6D8FD75814302006D80
:0504510034431010010E
:06044A0001220001230164
:0803BA00C2A68F80D2A57F05C9
:1003C200E4FEEEC39F500B7DFADDFE7DFADDFE0EEC
:0203D20080F0B9
:0103D4002206
:09043000C296D293C291D295222A
:10039800E4FEEEC39408748094805015EF33929471
:1003A800EF25E0FFD291A292E4334207C2910E807A
:0103B800E163
:0103B9002221
:0903D5007D017F211203DE7F226D
:1003DE00C293120398AC07AF05120398D293AF04E1
:0103EE0022EC
:0C042300C293120398E4FF120398D293D6
:01042F0022AA
:060312008B0A8A0B890C26
:10031800C293120398AD07E4FCECC3950D5017E4A3
:10032800FF120398AB0AAA0BA90C8C82758300EF05
:0A0338001200F80C80E3D293AF0529
:010342002298
:0B02D8007BFF7A047951750D057F2A29
:0602E3008B0A8A0B890C56
:1002E900C293120398AD07E4FCECC3950D5015AB0E
:1002F9000AAA0BA90C8C827583001200CBFF12038A
:08030900980C80E5D293AF05CA
:0103110022C9
:10034300C2961202D81203D57D287F251203DE7DC3
:10035300107F311203DE7D077F261203DE7D0F7FC0
:0E036300201203DE7DFF7F271203DED29622DA
:1001C4008B138A148915C2967BFF7A047951750DB5
:1001D400057F301202E31202D8AB13AA14A91575D5
:1001E4000D107FA01202E31203D57D0A7F241203AF
:1001F400DE7D287F251203DE7D077F261203DE7D48
:090204000E7F201203DED29622C7
:100371002095FD7FFF1203988F2030040830080577
:100381007FE1120398AD207F271203DED29530055D
:07039100037F00227FFF2221
:08000300C2A71203BAC2A52234
:08044200D2A71203BAC2A522E1
:10000E007F011200037F381200037F0F1200037F5F
:04001E0006020003D3
:04011A008F11AC0590
:10011E00E4F512EF64017008EC144480FF12000342
:10012E00E51164027008EC1444C0FF1200031200C3
:10013E00B2640A6031E51224FE60070470097F3A4A
:10014E0080027F2E12044205121200B2FFC39441A8
:10015E00400280061200B22430FF120442740129BC
:06016E00F9E43AFA80C832
:010174002268
:100254008B0E8A0F89101200B224BE600E14601730
:10026400146020240370297D018008AB0EAA0FA915
:10027400107D0A7F018016AB0EAA0FA9107D017FA5
:1002840002800AAB0EAA0FA9107D0A7F0212011A7E
:050294007F5602044248
:100403005389F0438901758CF8758A30D2A9D28C4F
:0104130022C6
:1003EF00759850E4F587758920758DFD758BFDD255
:0403FF008ED2AC22CC
:0F041400EFC3944140038F9922EF2430F59922D2
:10020D008B0E8A0F8910AB0EAA0FA9101200B2FF28
:10021D00640A6032EFC394415012EF2430F59974A3
:10022D00012510F510E4350FF50F8013AB0E0510F9
:10023D00E510AA0F7002050F14F91200B2F5997F9F
:07024D00051203C280C0226C
:10029900E4F5081203EF12000E12043012034312A0
:1002A9000403D2AF7F071204238F203006187B0086
:1002B9007A007924750D107F611203127DFF7FE2A8
:0F02C9001203DE752201AD207F271203DE80D5E0
:03000B000201757A
:10017500C0E0C083C082C0D075D000C001C002C03D
:1001850003C004C005C006C007758CF8758A30E544
:100195002260157B007A00792412020D7B007A001B
:1001A5007924120254752200D007D006D005D00458
:0F01B500D003D002D001D0D0D082D083D0E0329E
:030023000204399B
:09043900309905C29975230032C7
:10003200020299E493A3F8E493A34003F68001F249
:1000420008DFF48029E493A3F85407240CC8C333CF
:10005200C4540F4420C8834004F456800146F6DF9E
:10006200E4800B010204081020408090044AE47EE0
:10007200019360BCA3FF543F30E509541FFEE49393
:10008200A360010ECF54C025E060A840B8E493A35A
:10009200FAE493A3F8E493A3C8C582C8CAC583CA85
:1000A200F0A3C8C582C8CAC583CADFE9DEE780BE3D
:0104500000AB
:1000B200BB010689828A83E0225002E722BBFE024C
:0900C200E32289828A83E493227F
:1000CB00BB010CE58229F582E5833AF583E02250EA
:1000DB0006E92582F8E622BBFE06E92582F8E22234
:0D00EB00E58229F582E5833AF583E493224E
:1000F800F8BB010DE58229F582E5833AF583E8F03E
:10010800225006E92582C8F622BBFE05E92582C8E9
:02011800F222D1
:00000001FF
