:03000000020026D5
:0C002600787FE4F6D8FD75812102006DA2
:05034A00344310100116
:10031400410001434100000041000301410002008B
:1002EE00E4FEEEC39F500B7DFADDFE7DFADDFE0EC1
:0202FE0080F08E
:0103000022DA
:09034100C290D293C291D2952220
:0A028100EBF0A3EAF0A3E9F0C2934A
:10028B00E4FEEEC39408748094805015EF3392947F
:10029B00EF25E0FFD291A292E4334FFFC2910E8083
:0102AB00E171
:0102AC00222F
:0902D4007D017F211202DD7F2271
:1002DD00C29312028BAC07AF0512028BD293AF04FF
:0102ED0022EE
:0C033400C29312028BE4FF12028BD293E2
:01034000229A
:03021E0090002D20
:10022100120281AD07E4FC900030E0FFECC39F5067
:100231001CE4FF12028B90002DE0FBA3E0FAA3E087
:10024100F98C82758300EF1201BB0C80DAD293AF77
:0102510005A7
:010252002289
:0E01DD007BFF7A03794A90002B7405F07F2A8D
:0301EB0090002859
:1001EE00120281AD07E4FC90002BE0FFECC39F50A0
:1001FE001A900028E0FBA3E0FAA3E0F98C82758345
:0F020E000012018EFF12028B0C80DCD293AF0521
:01021D0022BE
:10025300C2901201DD1202D47D287F251202DD7DBA
:10026300107F311202DD7D077F261202DD7D0F7FB5
:0E027300201202DD7DFF7F271202DDD29022D5
:10013500900024EBF0A3EAF0A3E9F0C2907BFF7AEC
:1001450003794A90002B7405F07F301201EB120100
:10015500DD900024E0FBA3E0FAA3E0F990002B7406
:1001650010F07FA01201EB1202D47D0A7F24120247
:10017500DD7D287F251202DD7D077F261202DD7DCC
:090185000E7F201202DDD290224F
:1002AD002095FD7FFF12028B8F203004083008054A
:1002BD007FE112028BAD207F271202DDD295300532
:0702CD00037F00227FFF22E6
:03001F00000022BC
:10030100759850438920758DFD758BFDD299D28EDC
:03031100D2AC2249
:04032500E02430FFA1
:0B0329008F99900003E070FA04F022AE
:1000B200120341120301D2AF900001E0900014F04C
:1000C200900018740AF0900002E0FF04F09000150E
:1000D200EFF0900002E0FF04F0900016EFF09000C5
:1000E20002E0FF04F0900017EFF0900002E0D394DA
:1000F20008748094804002E4F0900014E0FF120340
:10010200299000151203259000161203259000175E
:10011200120325900018E0FF1203297B017A00796F
:1001220014120135D2081202AD7FFA1202EE120247
:03013200EE8093C9
:03002300020003D5
:10000300C0E0C083C082309802C298309907C29979
:0C001300900003E4F0D082D083D0E032F3
:100032000200B2E493A3F8E493A34003F68001F232
:1000420008DFF48029E493A3F85407240CC8C333CF
:10005200C4540F4420C8834004F456800146F6DF9E
:10006200E4800B0102040810204080900314E47E17
:10007200019360BCA3FF543F30E509541FFEE49393
:10008200A360010ECF54C025E060A840B8E493A35A
:10009200FAE493A3F8E493A3C8C582C8CAC583CA85
:1000A200F0A3C8C582C8CAC583CADFE9DEE780BE3D
:0103240000D8
:10018E00BB010CE58229F582E5833AF583E0225026
:10019E0006E92582F8E622BBFE06E92582F8E22270
:0D01AE00E58229F582E5833AF583E493228A
:1001BB00F8BB010DE58229F582E5833AF583E8F07A
:1001CB00225006E92582C8F622BBFE05E92582C826
:0201DB00F2220E
:00000001FF
