BL51 BANKED LINKER/LOCATER V6.22.2.0                                                    09/28/2021  17:20:32  PAGE 1


BL51 BANKED LINKER/LOCATER V6.22.2.0, INVOKED BY:
D:\KEIL_V5\C51\BIN\BL51.EXE .\Objects\main.obj, .\Objects\ov7670_fifo.obj TO .\Objects\天级难度任务PCA9685 PRINT (.\List
>> ings\天级难度任务PCA9685.m51) RAMSIZE (256)


MEMORY MODEL: SMALL


INPUT MODULES INCLUDED:
  .\Objects\main.obj (MAIN)
  .\Objects\ov7670_fifo.obj (OV7670_FIFO)
  D:\KEIL_V5\C51\LIB\C51S.LIB (?C_STARTUP)
  D:\KEIL_V5\C51\LIB\C51S.LIB (?C?CSTPTR)
  D:\KEIL_V5\C51\LIB\C51S.LIB (?C_INIT)


LINK MAP OF MODULE:  .\Objects\天级难度任务PCA9685 (MAIN)


            TYPE    BASE      LENGTH    RELOCATION   SEGMENT NAME
            -----------------------------------------------------

            * * * * * * *   D A T A   M E M O R Y   * * * * * * *
            REG     0000H     0008H     ABSOLUTE     "REG BANK 0"
            DATA    0008H     000AH     UNIT         _DATA_GROUP_
            DATA    0012H     0002H     UNIT         ?DT?MAIN
            IDATA   0014H     0001H     UNIT         ?STACK

            * * * * * * *   C O D E   M E M O R Y   * * * * * * *
            CODE    0000H     0003H     ABSOLUTE     
            CODE    0003H     0003H     ABSOLUTE     
            CODE    0006H     001BH     UNIT         ?PR?STOPSCCB?OV7670_FIFO
                    0021H     0002H                  *** GAP ***
            CODE    0023H     0003H     ABSOLUTE     
            CODE    0026H     0190H     UNIT         ?CO?OV7670_FIFO
            CODE    01B6H     00B0H     UNIT         ?PR?SENSOR_INIT?OV7670_FIFO
            CODE    0266H     008CH     UNIT         ?C_C51STARTUP
            CODE    02F2H     006AH     UNIT         ?PR?_SCCBWRITEBYTE?OV7670_FIFO
            CODE    035CH     0063H     UNIT         ?PR?MAIN?MAIN
            CODE    03BFH     005EH     UNIT         ?PR?_RD_SENSOR_REG?OV7670_FIFO
            CODE    041DH     0043H     UNIT         ?PR?_WR_SENSOR_REG?OV7670_FIFO
            CODE    0460H     003BH     UNIT         ?PR?SCCBREADBYTE?OV7670_FIFO
            CODE    049BH     0039H     UNIT         ?PR?INT0?MAIN
            CODE    04D4H     0024H     UNIT         ?PR?STARTSCCB?OV7670_FIFO
            CODE    04F8H     0024H     UNIT         ?PR?NOACK?OV7670_FIFO
            CODE    051CH     0013H     UNIT         ?PR?UART_INIT?MAIN
            CODE    052FH     0012H     UNIT         ?C?LIB_CODE
            CODE    0541H     000AH     UNIT         ?PR?_UARTSENDBYTE?MAIN
            CODE    054BH     0009H     UNIT         ?PR?UARTTIMER1?MAIN
            CODE    0554H     0007H     UNIT         ?C_INITSEG
            CODE    055BH     0005H     UNIT         ?PR?MAIN_INIT?MAIN



OVERLAY MAP OF MODULE:   .\Objects\天级难度任务PCA9685 (MAIN)


SEGMENT                                  DATA_GROUP 
BL51 BANKED LINKER/LOCATER V6.22.2.0                                                  09/28/2021  17:20:32  PAGE 2


  +--> CALLED SEGMENT                  START    LENGTH
------------------------------------------------------
?C_C51STARTUP                          -----    -----
  +--> ?PR?MAIN?MAIN
  +--> ?C_INITSEG

?PR?MAIN?MAIN                          -----    -----
  +--> ?PR?MAIN_INIT?MAIN
  +--> ?PR?SENSOR_INIT?OV7670_FIFO
  +--> ?PR?_UARTSENDBYTE?MAIN

?PR?SENSOR_INIT?OV7670_FIFO            0008H    0003H
  +--> ?PR?_WR_SENSOR_REG?OV7670_FIFO
  +--> ?PR?_RD_SENSOR_REG?OV7670_FIFO
  +--> ?CO?OV7670_FIFO

?PR?_WR_SENSOR_REG?OV7670_FIFO         000BH    0002H
  +--> ?PR?STARTSCCB?OV7670_FIFO
  +--> ?PR?_SCCBWRITEBYTE?OV7670_FIFO
  +--> ?PR?STOPSCCB?OV7670_FIFO

?PR?_SCCBWRITEBYTE?OV7670_FIFO         000FH    0003H

?PR?_RD_SENSOR_REG?OV7670_FIFO         000BH    0004H
  +--> ?PR?STARTSCCB?OV7670_FIFO
  +--> ?PR?_SCCBWRITEBYTE?OV7670_FIFO
  +--> ?PR?STOPSCCB?OV7670_FIFO
  +--> ?PR?SCCBREADBYTE?OV7670_FIFO
  +--> ?PR?NOACK?OV7670_FIFO

?PR?SCCBREADBYTE?OV7670_FIFO           000FH    0002H



UNRESOLVED EXTERNAL SYMBOLS:
   _DELAY_US



SYMBOL TABLE OF MODULE:  .\Objects\天级难度任务PCA9685 (MAIN)

  VALUE           TYPE          NAME
  ----------------------------------

  -------         MODULE        MAIN
  C:0000H         SYMBOL        _ICE_DUMMY_
  D:0090H         PUBLIC        P1
  D:00A0H         PUBLIC        P2
  D:00B0H         PUBLIC        P3
  B:00A8H.7       PUBLIC        EA
  D:00A8H         PUBLIC        IE
  C:051CH         PUBLIC        Uart_Init
  B:00A8H.4       PUBLIC        ES
  D:00B8H         PUBLIC        IP
  B:0090H.0       PUBLIC        FIFO_RD
  B:0090H.2       PUBLIC        FIFO_CS
  B:0098H.1       PUBLIC        TI
BL51 BANKED LINKER/LOCATER V6.22.2.0                                                  09/28/2021  17:20:32  PAGE 3


  B:0090H.1       PUBLIC        FIFO_WE
  C:035CH         PUBLIC        main
  D:0099H         PUBLIC        SBUF
  D:0098H         PUBLIC        SCON
  D:0089H         PUBLIC        TMOD
  D:0088H         PUBLIC        TCON
  C:055BH         PUBLIC        main_init
  C:0541H         PUBLIC        _UartSendByte
  D:0012H         PUBLIC        busy
  B:00A8H.0       PUBLIC        EX0
  B:0088H.0       PUBLIC        IT0
  D:008DH         PUBLIC        TH1
  D:0013H         PUBLIC        bn
  D:008BH         PUBLIC        TL1
  B:0090H.4       PUBLIC        FIFO_RRST
  B:0090H.3       PUBLIC        FIFO_WRST
  B:0088H.6       PUBLIC        TR1
  D:00C8H         PUBLIC        T2CON
  C:054BH         PUBLIC        uartTimer1
  D:00D0H         PUBLIC        PSW
  C:049BH         PUBLIC        int0
  -------         PROC          UART_INIT
  C:051CH         LINE#         9
  C:051CH         LINE#         10
  C:051CH         LINE#         11
  C:051FH         LINE#         12
  C:0522H         LINE#         13
  C:0528H         LINE#         14
  C:052AH         LINE#         15
  C:052CH         LINE#         16
  C:052EH         LINE#         17
  -------         ENDPROC       UART_INIT
  -------         PROC          _UARTSENDBYTE
  D:0007H         SYMBOL        b
  C:0541H         LINE#         18
  C:0541H         LINE#         19
  C:0541H         LINE#         20
  C:0543H         LINE#         21
  C:0547H         LINE#         23
  C:054AH         LINE#         24
  -------         ENDPROC       _UARTSENDBYTE
  -------         PROC          MAIN_INIT
  C:055BH         LINE#         26
  C:055BH         LINE#         27
  C:055BH         LINE#         28
  C:055DH         LINE#         29
  C:055FH         LINE#         31
  -------         ENDPROC       MAIN_INIT
  -------         PROC          MAIN
  -------         DO            
  D:0004H         SYMBOL        a
  D:0002H         SYMBOL        b
  D:0082H         SYMBOL        c_data
  D:0007H         SYMBOL        tmp
  -------         ENDDO         
  C:035CH         LINE#         34
  C:035CH         LINE#         35
BL51 BANKED LINKER/LOCATER V6.22.2.0                                                  09/28/2021  17:20:32  PAGE 4


  C:035CH         LINE#         41
  C:035FH         LINE#         44
  C:0361H         LINE#         45
  C:0363H         LINE#         47
  C:0363H         LINE#         48
  C:0366H         LINE#         49
  C:0369H         LINE#         52
  C:036BH         LINE#         56
  C:036BH         LINE#         57
  C:036BH         LINE#         58
  C:0371H         LINE#         59
  C:0371H         LINE#         60
  C:0371H         LINE#         62
  C:0373H         LINE#         63
  C:0375H         LINE#         64
  C:0377H         LINE#         65
  C:0379H         LINE#         66
  C:037BH         LINE#         67
  C:037DH         LINE#         71
  C:037FH         LINE#         72
  C:0381H         LINE#         73
  C:0381H         LINE#         74
  C:0384H         LINE#         75
  C:0384H         LINE#         76
  C:0386H         LINE#         77
  C:038DH         LINE#         79
  C:0394H         LINE#         80
  C:0396H         LINE#         81
  C:0398H         LINE#         83
  C:039DH         LINE#         84
  C:039FH         LINE#         87
  C:03A2H         LINE#         88
  C:03ADH         LINE#         89
  C:03B8H         LINE#         90
  C:03BAH         LINE#         92
  C:03BDH         LINE#         93
  -------         ENDPROC       MAIN
  -------         PROC          INT0
  C:049BH         LINE#         96
  C:04A6H         LINE#         98
  C:04ADH         LINE#         99
  C:04ADH         LINE#         100
  C:04AFH         LINE#         101
  C:04B1H         LINE#         102
  C:04B3H         LINE#         103
  C:04B5H         LINE#         104
  C:04B7H         LINE#         105
  C:04B9H         LINE#         106
  C:04BCH         LINE#         107
  C:04BEH         LINE#         108
  C:04C0H         LINE#         109
  C:04C6H         LINE#         110
  C:04C6H         LINE#         111
  C:04C8H         LINE#         112
  C:04CBH         LINE#         113
  C:04CBH         LINE#         114
  -------         ENDPROC       INT0
BL51 BANKED LINKER/LOCATER V6.22.2.0                                                  09/28/2021  17:20:32  PAGE 5


  -------         PROC          UARTTIMER1
  C:054BH         LINE#         119
  C:054BH         LINE#         128
  C:054EH         LINE#         129
  C:054EH         LINE#         130
  C:0550H         LINE#         131
  C:0553H         LINE#         132
  C:0553H         LINE#         133
  -------         ENDPROC       UARTTIMER1
  -------         ENDMOD        MAIN

  -------         MODULE        OV7670_FIFO
  C:0000H         SYMBOL        _ICE_DUMMY_
  D:0090H         PUBLIC        P1
  D:00B0H         PUBLIC        P3
  D:00A8H         PUBLIC        IE
  C:01B6H         PUBLIC        Sensor_init
  D:00B8H         PUBLIC        IP
  C:00CEH         PUBLIC        OV7670_reg
  C:0026H         PUBLIC        OV7725_reg
  D:0098H         PUBLIC        SCON
  C:03BFH         PUBLIC        _rd_Sensor_Reg
  D:0088H         PUBLIC        TCON
  C:0423H         PUBLIC        _wr_Sensor_Reg
  C:04D4H         PUBLIC        startSCCB
  C:0460H         PUBLIC        SCCBreadByte
  B:00B0H.7       PUBLIC        SCCB_SIC
  B:00B0H.6       PUBLIC        SCCB_SID
  C:02F2H         PUBLIC        _SCCBwriteByte
  C:0006H         PUBLIC        stopSCCB
  D:00C8H         PUBLIC        T2CON
  C:04F8H         PUBLIC        noAck
  D:00D0H         PUBLIC        PSW
  -------         PROC          STARTSCCB
  C:04D4H         LINE#         50
  C:04D4H         LINE#         51
  C:04D4H         LINE#         52
  C:04D6H         LINE#         53
  C:04DDH         LINE#         55
  C:04DFH         LINE#         56
  C:04E6H         LINE#         58
  C:04E8H         LINE#         59
  C:04EFH         LINE#         61
  C:04F1H         LINE#         62
  -------         ENDPROC       STARTSCCB
  -------         PROC          STOPSCCB
  C:0006H         LINE#         72
  C:0006H         LINE#         73
  C:0006H         LINE#         74
  C:0008H         LINE#         75
  C:000FH         LINE#         77
  C:0011H         LINE#         78
  C:0018H         LINE#         80
  C:001AH         LINE#         81
  -------         ENDPROC       STOPSCCB
  -------         PROC          NOACK
  C:04F8H         LINE#         91
BL51 BANKED LINKER/LOCATER V6.22.2.0                                                  09/28/2021  17:20:32  PAGE 6


  C:04F8H         LINE#         92
  C:04F8H         LINE#         94
  C:04FAH         LINE#         95
  C:0501H         LINE#         97
  C:0503H         LINE#         98
  C:050AH         LINE#         100
  C:050CH         LINE#         101
  C:0513H         LINE#         103
  C:0515H         LINE#         104
  -------         ENDPROC       NOACK
  -------         PROC          _SCCBWRITEBYTE
  D:000FH         SYMBOL        m_data
  -------         DO            
  D:0010H         SYMBOL        j
  D:0011H         SYMBOL        tem
  -------         ENDDO         
  C:02F2H         LINE#         114
  C:02F4H         LINE#         115
  C:02F4H         LINE#         118
  C:0302H         LINE#         119
  C:0302H         LINE#         120
  C:0312H         LINE#         121
  C:0312H         LINE#         122
  C:0314H         LINE#         123
  C:0316H         LINE#         125
  C:0316H         LINE#         126
  C:0318H         LINE#         127
  C:0318H         LINE#         128
  C:031FH         LINE#         129
  C:0321H         LINE#         130
  C:0328H         LINE#         131
  C:032AH         LINE#         132
  C:0331H         LINE#         133
  C:0335H         LINE#         136
  C:033CH         LINE#         137
  C:033EH         LINE#         138
  C:0345H         LINE#         140
  C:0348H         LINE#         141
  C:0348H         LINE#         142
  C:034BH         LINE#         143
  C:034DH         LINE#         145
  C:034DH         LINE#         146
  C:0350H         LINE#         147
  C:0350H         LINE#         148
  C:0352H         LINE#         149
  C:0359H         LINE#         152
  C:035BH         LINE#         153
  -------         ENDPROC       _SCCBWRITEBYTE
  -------         PROC          SCCBREADBYTE
  -------         DO            
  D:000FH         SYMBOL        read
  D:0010H         SYMBOL        j
  -------         ENDDO         
  C:0460H         LINE#         162
  C:0460H         LINE#         163
  C:0460H         LINE#         165
  C:0463H         LINE#         168
BL51 BANKED LINKER/LOCATER V6.22.2.0                                                  09/28/2021  17:20:32  PAGE 7


  C:0469H         LINE#         169
  C:0477H         LINE#         170
  C:0477H         LINE#         172
  C:0479H         LINE#         173
  C:0480H         LINE#         174
  C:0486H         LINE#         175
  C:0489H         LINE#         176
  C:0489H         LINE#         177
  C:048BH         LINE#         178
  C:048BH         LINE#         179
  C:048DH         LINE#         180
  C:0494H         LINE#         181
  C:0498H         LINE#         183
  C:049AH         LINE#         184
  -------         ENDPROC       SCCBREADBYTE
  -------         PROC          L?0047
  -------         ENDPROC       L?0047
  -------         PROC          _WR_SENSOR_REG
  D:000BH         SYMBOL        regID
  D:000CH         SYMBOL        regDat
  C:0423H         LINE#         188
  C:0427H         LINE#         189
  C:0427H         LINE#         190
  C:042AH         LINE#         191
  C:0432H         LINE#         192
  C:0432H         LINE#         193
  C:0432H         LINE#         194
  C:0434H         LINE#         195
  C:0434H         LINE#         196
  C:043BH         LINE#         197
  C:0443H         LINE#         198
  C:0443H         LINE#         199
  C:0443H         LINE#         200
  C:0445H         LINE#         201
  C:0445H         LINE#         202
  C:044CH         LINE#         203
  C:0454H         LINE#         204
  C:0454H         LINE#         205
  C:0457H         LINE#         206
  C:045AH         LINE#         207
  C:045AH         LINE#         208
  C:045DH         LINE#         210
  C:045FH         LINE#         211
  -------         ENDPROC       _WR_SENSOR_REG
  -------         PROC          _RD_SENSOR_REG
  D:000BH         SYMBOL        regID
  D:000CH         SYMBOL        regDat
  C:03BFH         LINE#         215
  C:03C7H         LINE#         216
  C:03C7H         LINE#         218
  C:03CAH         LINE#         219
  C:03D2H         LINE#         220
  C:03D2H         LINE#         221
  C:03D2H         LINE#         222
  C:03D4H         LINE#         223
  C:03D4H         LINE#         224
  C:03DBH         LINE#         225
BL51 BANKED LINKER/LOCATER V6.22.2.0                                                  09/28/2021  17:20:32  PAGE 8


  C:03E3H         LINE#         226
  C:03E3H         LINE#         227
  C:03E3H         LINE#         228
  C:03E5H         LINE#         229
  C:03E5H         LINE#         230
  C:03E8H         LINE#         232
  C:03EFH         LINE#         235
  C:03F2H         LINE#         236
  C:03FAH         LINE#         237
  C:03FAH         LINE#         238
  C:03FDH         LINE#         239
  C:0400H         LINE#         240
  C:0400H         LINE#         241
  C:0407H         LINE#         242
  C:0414H         LINE#         243
  C:0417H         LINE#         244
  C:041AH         LINE#         245
  C:041CH         LINE#         246
  -------         ENDPROC       _RD_SENSOR_REG
  -------         PROC          SENSOR_INIT
  -------         DO            
  D:0008H         SYMBOL        temp
  D:0009H         SYMBOL        i
  -------         ENDDO         
  C:01B6H         LINE#         250
  C:01B6H         LINE#         251
  C:01B6H         LINE#         253
  C:01BBH         LINE#         258
  C:01BEH         LINE#         260
  C:01C8H         LINE#         261
  C:01C8H         LINE#         262
  C:01CAH         LINE#         263
  C:01CAH         LINE#         265
  C:01D1H         LINE#         267
  C:01DFH         LINE#         268
  C:01DFH         LINE#         269
  C:01E1H         LINE#         270
  C:01E1H         LINE#         272
  C:01E7H         LINE#         273
  C:01E7H         LINE#         274
  C:01EBH         LINE#         275
  C:01EBH         LINE#         276
  C:020EH         LINE#         277
  C:020EH         LINE#         278
  C:0210H         LINE#         279
  C:0210H         LINE#         280
  C:0223H         LINE#         281
  C:0223H         LINE#         283
  C:0229H         LINE#         284
  C:0229H         LINE#         285
  C:022DH         LINE#         286
  C:022DH         LINE#         287
  C:0250H         LINE#         288
  C:0250H         LINE#         289
  C:0252H         LINE#         290
  C:0252H         LINE#         291
  C:0263H         LINE#         292
BL51 BANKED LINKER/LOCATER V6.22.2.0                                                  09/28/2021  17:20:32  PAGE 9


  C:0263H         LINE#         293
  C:0265H         LINE#         294
  -------         ENDPROC       SENSOR_INIT
  -------         ENDMOD        OV7670_FIFO

  -------         MODULE        ?C?CSTPTR
  C:052FH         PUBLIC        ?C?CSTPTR
  -------         ENDMOD        ?C?CSTPTR

*** WARNING L16: UNCALLED SEGMENT, IGNORED FOR OVERLAY PROCESS
    SEGMENT: ?PR?UART_INIT?MAIN

*** WARNING L1: UNRESOLVED EXTERNAL SYMBOL
    SYMBOL:  _DELAY_US
    MODULE:  .\Objects\ov7670_fifo.obj (OV7670_FIFO)

*** WARNING L2: REFERENCE MADE TO UNRESOLVED EXTERNAL
    SYMBOL:  _DELAY_US
    MODULE:  .\Objects\ov7670_fifo.obj (OV7670_FIFO)
    ADDRESS: 04DBH

*** WARNING L2: REFERENCE MADE TO UNRESOLVED EXTERNAL
    SYMBOL:  _DELAY_US
    MODULE:  .\Objects\ov7670_fifo.obj (OV7670_FIFO)
    ADDRESS: 04E4H

*** WARNING L2: REFERENCE MADE TO UNRESOLVED EXTERNAL
    SYMBOL:  _DELAY_US
    MODULE:  .\Objects\ov7670_fifo.obj (OV7670_FIFO)
    ADDRESS: 04EDH

*** WARNING L2: REFERENCE MADE TO UNRESOLVED EXTERNAL
    SYMBOL:  _DELAY_US
    MODULE:  .\Objects\ov7670_fifo.obj (OV7670_FIFO)
    ADDRESS: 04F6H

*** WARNING L2: REFERENCE MADE TO UNRESOLVED EXTERNAL
    SYMBOL:  _DELAY_US
    MODULE:  .\Objects\ov7670_fifo.obj (OV7670_FIFO)
    ADDRESS: 000DH

*** WARNING L2: REFERENCE MADE TO UNRESOLVED EXTERNAL
    SYMBOL:  _DELAY_US
    MODULE:  .\Objects\ov7670_fifo.obj (OV7670_FIFO)
    ADDRESS: 0016H

*** WARNING L2: REFERENCE MADE TO UNRESOLVED EXTERNAL
    SYMBOL:  _DELAY_US
    MODULE:  .\Objects\ov7670_fifo.obj (OV7670_FIFO)
    ADDRESS: 001FH

*** WARNING L2: REFERENCE MADE TO UNRESOLVED EXTERNAL
    SYMBOL:  _DELAY_US
    MODULE:  .\Objects\ov7670_fifo.obj (OV7670_FIFO)
    ADDRESS: 04FFH

*** WARNING L2: REFERENCE MADE TO UNRESOLVED EXTERNAL
BL51 BANKED LINKER/LOCATER V6.22.2.0                                                  09/28/2021  17:20:32  PAGE 10


    SYMBOL:  _DELAY_US
    MODULE:  .\Objects\ov7670_fifo.obj (OV7670_FIFO)
    ADDRESS: 0508H

*** WARNING L2: REFERENCE MADE TO UNRESOLVED EXTERNAL
    SYMBOL:  _DELAY_US
    MODULE:  .\Objects\ov7670_fifo.obj (OV7670_FIFO)
    ADDRESS: 0511H

*** WARNING L2: REFERENCE MADE TO UNRESOLVED EXTERNAL
    SYMBOL:  _DELAY_US
    MODULE:  .\Objects\ov7670_fifo.obj (OV7670_FIFO)
    ADDRESS: 051AH

*** WARNING L2: REFERENCE MADE TO UNRESOLVED EXTERNAL
    SYMBOL:  _DELAY_US
    MODULE:  .\Objects\ov7670_fifo.obj (OV7670_FIFO)
    ADDRESS: 031DH

*** WARNING L2: REFERENCE MADE TO UNRESOLVED EXTERNAL
    SYMBOL:  _DELAY_US
    MODULE:  .\Objects\ov7670_fifo.obj (OV7670_FIFO)
    ADDRESS: 0326H

*** WARNING L2: REFERENCE MADE TO UNRESOLVED EXTERNAL
    SYMBOL:  _DELAY_US
    MODULE:  .\Objects\ov7670_fifo.obj (OV7670_FIFO)
    ADDRESS: 032FH

*** WARNING L2: REFERENCE MADE TO UNRESOLVED EXTERNAL
    SYMBOL:  _DELAY_US
    MODULE:  .\Objects\ov7670_fifo.obj (OV7670_FIFO)
    ADDRESS: 033AH

*** WARNING L2: REFERENCE MADE TO UNRESOLVED EXTERNAL
    SYMBOL:  _DELAY_US
    MODULE:  .\Objects\ov7670_fifo.obj (OV7670_FIFO)
    ADDRESS: 0343H

*** WARNING L2: REFERENCE MADE TO UNRESOLVED EXTERNAL
    SYMBOL:  _DELAY_US
    MODULE:  .\Objects\ov7670_fifo.obj (OV7670_FIFO)
    ADDRESS: 0357H

*** WARNING L2: REFERENCE MADE TO UNRESOLVED EXTERNAL
    SYMBOL:  _DELAY_US
    MODULE:  .\Objects\ov7670_fifo.obj (OV7670_FIFO)
    ADDRESS: 0467H

*** WARNING L2: REFERENCE MADE TO UNRESOLVED EXTERNAL
    SYMBOL:  _DELAY_US
    MODULE:  .\Objects\ov7670_fifo.obj (OV7670_FIFO)
    ADDRESS: 047EH

*** WARNING L2: REFERENCE MADE TO UNRESOLVED EXTERNAL
    SYMBOL:  _DELAY_US
    MODULE:  .\Objects\ov7670_fifo.obj (OV7670_FIFO)
BL51 BANKED LINKER/LOCATER V6.22.2.0                                                  09/28/2021  17:20:32  PAGE 11


    ADDRESS: 0492H

*** WARNING L2: REFERENCE MADE TO UNRESOLVED EXTERNAL
    SYMBOL:  _DELAY_US
    MODULE:  .\Objects\ov7670_fifo.obj (OV7670_FIFO)
    ADDRESS: 0439H

*** WARNING L2: REFERENCE MADE TO UNRESOLVED EXTERNAL
    SYMBOL:  _DELAY_US
    MODULE:  .\Objects\ov7670_fifo.obj (OV7670_FIFO)
    ADDRESS: 044AH

*** WARNING L2: REFERENCE MADE TO UNRESOLVED EXTERNAL
    SYMBOL:  _DELAY_US
    MODULE:  .\Objects\ov7670_fifo.obj (OV7670_FIFO)
    ADDRESS: 03D9H

*** WARNING L2: REFERENCE MADE TO UNRESOLVED EXTERNAL
    SYMBOL:  _DELAY_US
    MODULE:  .\Objects\ov7670_fifo.obj (OV7670_FIFO)
    ADDRESS: 03EDH

*** WARNING L2: REFERENCE MADE TO UNRESOLVED EXTERNAL
    SYMBOL:  _DELAY_US
    MODULE:  .\Objects\ov7670_fifo.obj (OV7670_FIFO)
    ADDRESS: 0405H

*** WARNING L2: REFERENCE MADE TO UNRESOLVED EXTERNAL
    SYMBOL:  _DELAY_US
    MODULE:  .\Objects\ov7670_fifo.obj (OV7670_FIFO)
    ADDRESS: 01CFH

Program Size: data=21.0 xdata=0 code=1374
LINK/LOCATE RUN COMPLETE.  28 WARNING(S),  0 ERROR(S)
