BL51 BANKED LINKER/LOCATER V6.22.2.0                                                    09/10/2021  00:33:35  PAGE 1


BL51 BANKED LINKER/LOCATER V6.22.2.0, INVOKED BY:
D:\KEIL_V5\C51\BIN\BL51.EXE .\Objects\STARTUP.obj, .\Objects\i2c.obj TO .\Objects\i2cLcd1602 PRINT (.\Listings\i2cLcd160
>> 2.m51) RAMSIZE (256)


MEMORY MODEL: SMALL


INPUT MODULES INCLUDED:
  .\Objects\STARTUP.obj (?C_STARTUP)
  .\Objects\i2c.obj (I2C)
  D:\KEIL_V5\C51\LIB\C51S.LIB (?C_INIT)
  D:\KEIL_V5\C51\LIB\C51S.LIB (?C?CLDPTR)


LINK MAP OF MODULE:  .\Objects\i2cLcd1602 (?C_STARTUP)


            TYPE    BASE      LENGTH    RELOCATION   SEGMENT NAME
            -----------------------------------------------------

            * * * * * * *   D A T A   M E M O R Y   * * * * * * *
            REG     0000H     0008H     ABSOLUTE     "REG BANK 0"
            DATA    0008H     0006H     UNIT         _DATA_GROUP_
            DATA    000EH     0001H     UNIT         ?DT?I2C
            IDATA   000FH     0001H     UNIT         ?STACK

            * * * * * * *   C O D E   M E M O R Y   * * * * * * *
            CODE    0000H     0003H     ABSOLUTE     
            CODE    0003H     008CH     UNIT         ?C_C51STARTUP
            CODE    008FH     004AH     UNIT         ?PR?_SHOWSTRING?I2C
            CODE    00D9H     003CH     UNIT         ?PR?INIT_LCD?I2C
            CODE    0115H     0033H     UNIT         ?PR?_WRITE_COM?I2C
            CODE    0148H     0033H     UNIT         ?PR?_WRITE_DATE?I2C
            CODE    017BH     002EH     UNIT         ?PR?READ_BYTE?I2C
            CODE    01A9H     0027H     UNIT         ?PR?_WRITE_BYTE?I2C
            CODE    01D0H     001FH     UNIT         ?PR?RESPONS?I2C
            CODE    01EFH     001DH     UNIT         ?PR?_DELAY1?I2C
            CODE    020CH     0019H     UNIT         ?C?LIB_CODE
            CODE    0225H     0016H     UNIT         ?PR?MAIN?I2C
            CODE    023BH     0014H     UNIT         ?PR?READ_ADD?I2C
            CODE    024FH     0012H     UNIT         ?PR?_WRITE_ADD?I2C
            CODE    0261H     000AH     UNIT         ?PR?INIT?I2C
            CODE    026BH     000AH     UNIT         ?PR?START?I2C
            CODE    0275H     000AH     UNIT         ?PR?STOP?I2C
            CODE    027FH     0006H     UNIT         ?PR?DELAY?I2C
            CODE    0285H     0005H     UNIT         ?CO?I2C
            CODE    028AH     0004H     UNIT         ?C_INITSEG



OVERLAY MAP OF MODULE:   .\Objects\i2cLcd1602 (?C_STARTUP)


SEGMENT                          DATA_GROUP 
  +--> CALLED SEGMENT          START    LENGTH
----------------------------------------------
?C_C51STARTUP                  -----    -----
BL51 BANKED LINKER/LOCATER V6.22.2.0                                                  09/10/2021  00:33:35  PAGE 2


  +--> ?PR?MAIN?I2C
  +--> ?C_INITSEG

?PR?MAIN?I2C                   -----    -----
  +--> ?PR?INIT?I2C
  +--> ?PR?INIT_LCD?I2C
  +--> ?PR?_SHOWSTRING?I2C

?PR?INIT?I2C                   -----    -----
  +--> ?PR?DELAY?I2C

?PR?INIT_LCD?I2C               -----    -----
  +--> ?PR?_WRITE_COM?I2C
  +--> ?PR?_DELAY1?I2C

?PR?_WRITE_COM?I2C             -----    -----
  +--> ?PR?_WRITE_ADD?I2C
  +--> ?PR?_DELAY1?I2C

?PR?_WRITE_ADD?I2C             -----    -----
  +--> ?PR?START?I2C
  +--> ?PR?RESPONS?I2C
  +--> ?PR?STOP?I2C

?PR?START?I2C                  -----    -----
  +--> ?PR?DELAY?I2C

?PR?RESPONS?I2C                000DH    0001H
  +--> ?PR?_WRITE_BYTE?I2C
  +--> ?PR?DELAY?I2C

?PR?_WRITE_BYTE?I2C            -----    -----
  +--> ?PR?DELAY?I2C

?PR?STOP?I2C                   -----    -----
  +--> ?PR?DELAY?I2C

?PR?_SHOWSTRING?I2C            0008H    0005H
  +--> ?CO?I2C
  +--> ?PR?_WRITE_COM?I2C
  +--> ?PR?_WRITE_DATE?I2C

?PR?_WRITE_DATE?I2C            -----    -----
  +--> ?PR?_WRITE_ADD?I2C
  +--> ?PR?_DELAY1?I2C



SYMBOL TABLE OF MODULE:  .\Objects\i2cLcd1602 (?C_STARTUP)

  VALUE           TYPE          NAME
  ----------------------------------

  -------         MODULE        ?C_STARTUP
  C:0003H         SEGMENT       ?C_C51STARTUP
  I:000FH         SEGMENT       ?STACK
  C:0000H         PUBLIC        ?C_STARTUP
BL51 BANKED LINKER/LOCATER V6.22.2.0                                                  09/10/2021  00:33:35  PAGE 3


  D:00E0H         SYMBOL        ACC
  D:00F0H         SYMBOL        B
  D:0083H         SYMBOL        DPH
  D:0082H         SYMBOL        DPL
  N:0000H         SYMBOL        IBPSTACK
  N:0100H         SYMBOL        IBPSTACKTOP
  N:0080H         SYMBOL        IDATALEN
  C:0006H         SYMBOL        IDATALOOP
  N:0000H         SYMBOL        PBPSTACK
  N:0100H         SYMBOL        PBPSTACKTOP
  N:0000H         SYMBOL        PDATALEN
  N:0000H         SYMBOL        PDATASTART
  N:0000H         SYMBOL        PPAGE
  N:0000H         SYMBOL        PPAGEENABLE
  D:00A0H         SYMBOL        PPAGE_SFR
  D:0081H         SYMBOL        SP
  C:0003H         SYMBOL        STARTUP1
  N:0000H         SYMBOL        XBPSTACK
  N:0000H         SYMBOL        XBPSTACKTOP
  N:0000H         SYMBOL        XDATALEN
  N:0000H         SYMBOL        XDATASTART
  C:0000H         LINE#         126
  C:0003H         LINE#         133
  C:0005H         LINE#         134
  C:0006H         LINE#         135
  C:0007H         LINE#         136
  C:0009H         LINE#         185
  C:000CH         LINE#         196
  -------         ENDMOD        ?C_STARTUP

  -------         MODULE        I2C
  C:0000H         SYMBOL        _ICE_DUMMY_
  D:0090H         PUBLIC        P1
  D:00B0H         PUBLIC        P3
  D:00A8H         PUBLIC        IE
  C:01D3H         PUBLIC        respons
  C:0284H         PUBLIC        delay
  D:00B8H         PUBLIC        IP
  D:000EH         PUBLIC        ADDR
  B:00D0H.7       PUBLIC        CY
  C:0095H         PUBLIC        _ShowString
  C:0225H         PUBLIC        main
  C:023BH         PUBLIC        read_add
  C:0148H         PUBLIC        _write_date
  C:026BH         PUBLIC        start
  D:0098H         PUBLIC        SCON
  C:017BH         PUBLIC        read_byte
  D:0088H         PUBLIC        TCON
  C:0261H         PUBLIC        init
  C:024FH         PUBLIC        _write_add
  B:00B0H.7       PUBLIC        sda
  C:01EFH         PUBLIC        _delay1
  B:00B0H.6       PUBLIC        scl
  C:01A9H         PUBLIC        _write_byte
  C:0275H         PUBLIC        stop
  C:00D9H         PUBLIC        init_lcd
  C:0115H         PUBLIC        _write_com
BL51 BANKED LINKER/LOCATER V6.22.2.0                                                  09/10/2021  00:33:35  PAGE 4


  D:00C8H         PUBLIC        T2CON
  D:00D0H         PUBLIC        PSW
  C:027FH         SYMBOL        L?0037
  -------         PROC          L?0036
  -------         ENDPROC       L?0036
  C:027FH         SYMBOL        L?0037
  -------         PROC          DELAY
  C:0284H         LINE#         11
  C:0284H         LINE#         12
  C:0284H         LINE#         15
  -------         ENDPROC       DELAY
  -------         PROC          INIT
  C:0261H         LINE#         17
  C:0261H         LINE#         18
  C:0261H         LINE#         19
  C:0263H         LINE#         20
  C:0266H         LINE#         21
  C:0268H         LINE#         22
  -------         ENDPROC       INIT
  -------         PROC          START
  C:026BH         LINE#         24
  C:026BH         LINE#         25
  C:026BH         LINE#         26
  C:026DH         LINE#         27
  C:026DH         LINE#         28
  C:026DH         LINE#         29
  C:0270H         LINE#         30
  C:0272H         LINE#         31
  -------         ENDPROC       START
  -------         PROC          STOP
  C:0275H         LINE#         34
  C:0275H         LINE#         35
  C:0275H         LINE#         36
  C:0277H         LINE#         37
  C:0277H         LINE#         38
  C:0277H         LINE#         39
  C:027AH         LINE#         40
  C:027CH         LINE#         41
  -------         ENDPROC       STOP
  -------         PROC          L?0038
  -------         ENDPROC       L?0038
  -------         PROC          RESPONS
  -------         DO            
  D:000DH         SYMBOL        i
  -------         ENDDO         
  C:01D3H         LINE#         44
  C:01D3H         LINE#         45
  C:01D3H         LINE#         47
  C:01D5H         LINE#         48
  C:01D8H         LINE#         49
  C:01E6H         LINE#         50
  C:01EAH         LINE#         51
  C:01ECH         LINE#         52
  -------         ENDPROC       RESPONS
  -------         PROC          _WRITE_BYTE
  D:0007H         SYMBOL        date
  -------         DO            
BL51 BANKED LINKER/LOCATER V6.22.2.0                                                  09/10/2021  00:33:35  PAGE 5


  D:0006H         SYMBOL        i
  D:0007H         SYMBOL        temp
  -------         ENDDO         
  C:01A9H         LINE#         55
  C:01A9H         LINE#         56
  C:01A9H         LINE#         58
  C:01A9H         LINE#         60
  C:01B5H         LINE#         61
  C:01B5H         LINE#         62
  C:01B9H         LINE#         63
  C:01BBH         LINE#         64
  C:01BEH         LINE#         65
  C:01C0H         LINE#         66
  C:01C0H         LINE#         67
  C:01C0H         LINE#         68
  C:01C3H         LINE#         69
  C:01C6H         LINE#         70
  C:01C8H         LINE#         71
  C:01CBH         LINE#         72
  C:01CDH         LINE#         73
  -------         ENDPROC       _WRITE_BYTE
  -------         PROC          READ_BYTE
  -------         DO            
  D:0006H         SYMBOL        i
  D:0007H         SYMBOL        k
  -------         ENDDO         
  C:017BH         LINE#         76
  C:017BH         LINE#         77
  C:017BH         LINE#         79
  C:017DH         LINE#         80
  C:0180H         LINE#         81
  C:0182H         LINE#         82
  C:0185H         LINE#         83
  C:0191H         LINE#         84
  C:0191H         LINE#         85
  C:0193H         LINE#         86
  C:0196H         LINE#         87
  C:01A0H         LINE#         88
  C:01A2H         LINE#         89
  C:01A5H         LINE#         90
  C:01A8H         LINE#         91
  C:01A8H         LINE#         92
  -------         ENDPROC       READ_BYTE
  -------         PROC          _WRITE_ADD
  D:0005H         SYMBOL        date1
  C:024FH         LINE#         94
  C:0251H         LINE#         95
  C:0251H         LINE#         96
  C:0254H         LINE#         97
  C:0256H         LINE#         98
  C:0259H         LINE#         99
  C:025BH         LINE#         100
  C:025EH         LINE#         101
  -------         ENDPROC       _WRITE_ADD
  -------         PROC          READ_ADD
  -------         DO            
  D:0007H         SYMBOL        date1
BL51 BANKED LINKER/LOCATER V6.22.2.0                                                  09/10/2021  00:33:35  PAGE 6


  -------         ENDDO         
  C:023BH         LINE#         104
  C:023BH         LINE#         105
  C:023BH         LINE#         107
  C:023EH         LINE#         108
  C:0243H         LINE#         109
  C:0246H         LINE#         110
  C:0249H         LINE#         111
  C:024CH         LINE#         112
  -------         ENDPROC       READ_ADD
  -------         PROC          _DELAY1
  D:0007H         SYMBOL        x
  -------         DO            
  D:0007H         SYMBOL        a
  D:0006H         SYMBOL        b
  -------         ENDDO         
  C:01EFH         LINE#         115
  C:01EFH         LINE#         116
  C:01EFH         LINE#         118
  C:01F9H         LINE#         119
  C:020BH         LINE#         121
  -------         ENDPROC       _DELAY1
  -------         PROC          _WRITE_COM
  D:0004H         SYMBOL        com
  -------         DO            
  D:0003H         SYMBOL        com1
  D:0004H         SYMBOL        com2
  -------         ENDDO         
  C:0115H         LINE#         123
  C:0117H         LINE#         124
  C:0117H         LINE#         126
  C:011BH         LINE#         127
  C:0121H         LINE#         128
  C:0126H         LINE#         129
  C:012DH         LINE#         130
  C:0132H         LINE#         131
  C:0135H         LINE#         132
  C:013CH         LINE#         133
  C:0141H         LINE#         134
  -------         ENDPROC       _WRITE_COM
  -------         PROC          _WRITE_DATE
  D:0004H         SYMBOL        date
  -------         DO            
  D:0003H         SYMBOL        date1
  D:0004H         SYMBOL        date2
  -------         ENDDO         
  C:0148H         LINE#         137
  C:014AH         LINE#         138
  C:014AH         LINE#         140
  C:014EH         LINE#         141
  C:0154H         LINE#         142
  C:0159H         LINE#         143
  C:0160H         LINE#         144
  C:0165H         LINE#         145
  C:0168H         LINE#         146
  C:016FH         LINE#         147
  C:0174H         LINE#         148
BL51 BANKED LINKER/LOCATER V6.22.2.0                                                  09/10/2021  00:33:35  PAGE 7


  -------         ENDPROC       _WRITE_DATE
  -------         PROC          INIT_LCD
  C:00D9H         LINE#         151
  C:00D9H         LINE#         152
  C:00D9H         LINE#         153
  C:00DEH         LINE#         154
  C:00E3H         LINE#         155
  C:00E8H         LINE#         156
  C:00EDH         LINE#         157
  C:00F2H         LINE#         158
  C:00F7H         LINE#         159
  C:00FCH         LINE#         160
  C:0101H         LINE#         161
  C:0106H         LINE#         162
  C:010BH         LINE#         163
  C:0110H         LINE#         165
  -------         ENDPROC       INIT_LCD
  -------         PROC          L?0039
  -------         ENDPROC       L?0039
  -------         PROC          _SHOWSTRING
  D:0008H         SYMBOL        x
  D:0009H         SYMBOL        y
  D:000AH         SYMBOL        str
  C:0095H         LINE#         169
  C:009FH         LINE#         170
  C:009FH         LINE#         172
  C:00A4H         LINE#         173
  C:00A4H         LINE#         174
  C:00ADH         LINE#         175
  C:00ADH         LINE#         176
  C:00B3H         LINE#         177
  C:00B3H         LINE#         178
  C:00BCH         LINE#         179
  C:00BCH         LINE#         182
  C:00C8H         LINE#         183
  C:00C8H         LINE#         184
  C:00CBH         LINE#         185
  C:00D6H         LINE#         186
  C:00D8H         LINE#         187
  -------         ENDPROC       _SHOWSTRING
  -------         PROC          MAIN
  C:0225H         LINE#         188
  C:0225H         LINE#         189
  C:0225H         LINE#         190
  C:0228H         LINE#         191
  C:022BH         LINE#         192
  C:0232H         LINE#         193
  C:0232H         LINE#         194
  C:0232H         LINE#         195
  C:0239H         LINE#         196
  -------         ENDPROC       MAIN
  -------         ENDMOD        I2C

  -------         MODULE        ?C?CLDPTR
  C:020CH         PUBLIC        ?C?CLDPTR
  -------         ENDMOD        ?C?CLDPTR

BL51 BANKED LINKER/LOCATER V6.22.2.0                                                  09/10/2021  00:33:35  PAGE 8


*** WARNING L16: UNCALLED SEGMENT, IGNORED FOR OVERLAY PROCESS
    SEGMENT: ?PR?READ_ADD?I2C

Program Size: data=16.0 xdata=0 code=654
LINK/LOCATE RUN COMPLETE.  1 WARNING(S),  0 ERROR(S)
