BL51 BANKED LINKER/LOCATER V6.22                                                        02/09/2021  01:15:36  PAGE 1


BL51 BANKED LINKER/LOCATER V6.22, INVOKED BY:
D:\KEIL_V6\C51\BIN\BL51.EXE .\Objects\main.obj, .\Objects\ov7670_fifo.obj, .\Objects\LCD.obj, .\Objects\sys.obj TO .\Obj
>> ects\天级难度任务PCA9685 PRINT (.\Listings\天级难度任务PCA9685.m51) RAMSIZE (256)


MEMORY MODEL: SMALL


INPUT MODULES INCLUDED:
  .\Objects\main.obj (MAIN)
  .\Objects\ov7670_fifo.obj (OV7670_FIFO)
  .\Objects\LCD.obj (LCD)
  .\Objects\sys.obj (SYS)
  D:\KEIL_V6\C51\LIB\C51S.LIB (?C_STARTUP)
  D:\KEIL_V6\C51\LIB\C51S.LIB (?C?CSTPTR)
  D:\KEIL_V6\C51\LIB\C51S.LIB (?C?IMUL)
  D:\KEIL_V6\C51\LIB\C51S.LIB (?C?ULCMP)
  D:\KEIL_V6\C51\LIB\C51S.LIB (?C_INIT)


LINK MAP OF MODULE:  .\Objects\天级难度任务PCA9685 (MAIN)


            TYPE    BASE      LENGTH    RELOCATION   SEGMENT NAME
            -----------------------------------------------------

            * * * * * * *   D A T A   M E M O R Y   * * * * * * *
            REG     0000H     0008H     ABSOLUTE     "REG BANK 0"
            DATA    0008H     0011H     UNIT         ?DT?LCD
            DATA    0019H     0010H     UNIT         _DATA_GROUP_
            DATA    0029H     0006H     UNIT         ?DT?_LCD_CLEAR?LCD
            DATA    002FH     0001H     UNIT         ?DT?MAIN
            IDATA   0030H     0001H     UNIT         ?STACK

            * * * * * * *   C O D E   M E M O R Y   * * * * * * *
            CODE    0000H     0003H     ABSOLUTE     
            CODE    0003H     0003H     ABSOLUTE     
            CODE    0006H     01AAH     UNIT         ?PR?LCD_INIT?LCD
            CODE    01B0H     0190H     UNIT         ?CO?OV7670_FIFO
            CODE    0340H     00B0H     UNIT         ?PR?SENSOR_INIT?OV7670_FIFO
            CODE    03F0H     00A0H     UNIT         ?PR?MAIN?MAIN
            CODE    0490H     008CH     UNIT         ?C_C51STARTUP
            CODE    051CH     007DH     UNIT         ?PR?_LCD_CLEAR?LCD
            CODE    0599H     0064H     UNIT         ?PR?_SCCBWRITEBYTE?OV7670_FIFO
            CODE    05FDH     005EH     UNIT         ?PR?_RD_SENSOR_REG?OV7670_FIFO
            CODE    065BH     0059H     UNIT         ?PR?_LCD_SETCURSOR?LCD
            CODE    06B4H     0054H     UNIT         ?PR?_LCD_DIRECTION?LCD
            CODE    0708H     0043H     UNIT         ?PR?_WR_SENSOR_REG?OV7670_FIFO
            CODE    074BH     0041H     UNIT         ?PR?_LCD_SETWINDOWS?LCD
            CODE    078CH     0035H     UNIT         ?PR?SCCBREADBYTE?OV7670_FIFO
            CODE    07C1H     0035H     UNIT         ?C?LIB_CODE
            CODE    07F6H     002CH     UNIT         ?PR?LCD_SETPARAM?LCD
            CODE    0822H     002AH     UNIT         ?PR?INT0?MAIN
            CODE    084CH     0026H     UNIT         ?PR?_DELAY_MS?SYS
            CODE    0872H     0024H     UNIT         ?PR?STARTSCCB?OV7670_FIFO
            CODE    0896H     0024H     UNIT         ?PR?NOACK?OV7670_FIFO
            CODE    08BAH     001BH     UNIT         ?PR?STOPSCCB?OV7670_FIFO
            CODE    08D5H     001BH     UNIT         ?PR?_LCD_DRAWPOINT?LCD
BL51 BANKED LINKER/LOCATER V6.22                                                      02/09/2021  01:15:36  PAGE 2


            CODE    08F0H     001BH     UNIT         ?PR?LCD_RESET?LCD
            CODE    090BH     0019H     UNIT         ?PR?_LCD_DRAWPOINT_16BIT?LCD
            CODE    0924H     0017H     UNIT         ?PR?_LCD_WR_DATA?LCD
            CODE    093BH     0013H     UNIT         ?PR?_DELAY_US?SYS
            CODE    094EH     0012H     UNIT         ?PR?_LCD_WR_REG?LCD
            CODE    0960H     000EH     UNIT         ?PR?_LCD_WRITEREG?LCD
            CODE    096EH     000DH     UNIT         ?PR?_LCD_WRITE_BUS?LCD
            CODE    097BH     000CH     UNIT         ?C_INITSEG
            CODE    0987H     0007H     UNIT         ?PR?LCD_WRITERAM_PREPARE?LCD
            CODE    098EH     0005H     UNIT         ?PR?MAIN_INIT?MAIN
            CODE    0993H     0005H     UNIT         ?PR?_LCD_WR_DATA8?LCD



OVERLAY MAP OF MODULE:   .\Objects\天级难度任务PCA9685 (MAIN)


SEGMENT                                  DATA_GROUP 
  +--> CALLED SEGMENT                  START    LENGTH
------------------------------------------------------
?C_C51STARTUP                          -----    -----
  +--> ?PR?MAIN?MAIN
  +--> ?C_INITSEG

?PR?MAIN?MAIN                          0019H    0006H
  +--> ?PR?MAIN_INIT?MAIN
  +--> ?PR?LCD_INIT?LCD
  +--> ?PR?SENSOR_INIT?OV7670_FIFO
  +--> ?PR?_LCD_SETWINDOWS?LCD
  +--> ?PR?_LCD_WR_DATA?LCD

?PR?LCD_INIT?LCD                       -----    -----
  +--> ?PR?LCD_RESET?LCD
  +--> ?PR?_LCD_WR_REG?LCD
  +--> ?PR?_LCD_WR_DATA?LCD
  +--> ?PR?_DELAY_MS?SYS
  +--> ?PR?LCD_SETPARAM?LCD

?PR?LCD_RESET?LCD                      -----    -----
  +--> ?PR?_DELAY_MS?SYS

?PR?_LCD_WR_REG?LCD                    -----    -----
  +--> ?PR?_LCD_WR_DATA?LCD
  +--> ?PR?_LCD_WRITE_BUS?LCD

?PR?_LCD_WR_DATA?LCD                   -----    -----
  +--> ?PR?_LCD_WRITE_BUS?LCD

?PR?LCD_SETPARAM?LCD                   -----    -----
  +--> ?PR?_LCD_WRITEREG?LCD

?PR?_LCD_WRITEREG?LCD                  -----    -----
  +--> ?PR?_LCD_WR_REG?LCD
  +--> ?PR?_LCD_WR_DATA?LCD

?PR?SENSOR_INIT?OV7670_FIFO            001FH    0003H
  +--> ?PR?_WR_SENSOR_REG?OV7670_FIFO
BL51 BANKED LINKER/LOCATER V6.22                                                      02/09/2021  01:15:36  PAGE 3


  +--> ?PR?_DELAY_US?SYS
  +--> ?PR?_RD_SENSOR_REG?OV7670_FIFO
  +--> ?CO?OV7670_FIFO

?PR?_WR_SENSOR_REG?OV7670_FIFO         0022H    0002H
  +--> ?PR?STARTSCCB?OV7670_FIFO
  +--> ?PR?_SCCBWRITEBYTE?OV7670_FIFO
  +--> ?PR?_DELAY_US?SYS
  +--> ?PR?STOPSCCB?OV7670_FIFO

?PR?STARTSCCB?OV7670_FIFO              -----    -----
  +--> ?PR?_DELAY_US?SYS

?PR?_SCCBWRITEBYTE?OV7670_FIFO         0026H    0003H
  +--> ?PR?_DELAY_US?SYS

?PR?STOPSCCB?OV7670_FIFO               -----    -----
  +--> ?PR?_DELAY_US?SYS

?PR?_RD_SENSOR_REG?OV7670_FIFO         0022H    0004H
  +--> ?PR?STARTSCCB?OV7670_FIFO
  +--> ?PR?_SCCBWRITEBYTE?OV7670_FIFO
  +--> ?PR?_DELAY_US?SYS
  +--> ?PR?STOPSCCB?OV7670_FIFO
  +--> ?PR?SCCBREADBYTE?OV7670_FIFO
  +--> ?PR?NOACK?OV7670_FIFO

?PR?SCCBREADBYTE?OV7670_FIFO           0026H    0002H
  +--> ?PR?_DELAY_US?SYS

?PR?NOACK?OV7670_FIFO                  -----    -----
  +--> ?PR?_DELAY_US?SYS

?PR?_LCD_SETWINDOWS?LCD                001FH    0008H
  +--> ?PR?_LCD_WR_REG?LCD
  +--> ?PR?_LCD_WR_DATA?LCD
  +--> ?PR?LCD_WRITERAM_PREPARE?LCD

?PR?LCD_WRITERAM_PREPARE?LCD           -----    -----
  +--> ?PR?_LCD_WR_REG?LCD



SYMBOL TABLE OF MODULE:  .\Objects\天级难度任务PCA9685 (MAIN)

  VALUE           TYPE          NAME
  ----------------------------------

  -------         MODULE        MAIN
  C:0000H         SYMBOL        _ICE_DUMMY_
  D:0080H         PUBLIC        P0
  D:0090H         PUBLIC        P1
  D:00A0H         PUBLIC        P2
  D:00B0H         PUBLIC        P3
  D:00C0H         PUBLIC        P4
  D:00C8H         PUBLIC        P5
  B:00A8H.7       PUBLIC        EA
BL51 BANKED LINKER/LOCATER V6.22                                                      02/09/2021  01:15:36  PAGE 4


  D:00A8H         PUBLIC        IE
  D:00B8H         PUBLIC        IP
  B:0090H.0       PUBLIC        FIFO_RD
  B:0090H.2       PUBLIC        FIFO_CS
  B:0090H.1       PUBLIC        FIFO_WE
  D:00D8H         PUBLIC        CCON
  C:03F0H         PUBLIC        main
  D:0098H         PUBLIC        SCON
  D:0088H         PUBLIC        TCON
  C:098EH         PUBLIC        main_init
  B:0088H.0       PUBLIC        IT0
  B:00A8H.0       PUBLIC        EX0
  D:002FH         PUBLIC        bn
  B:0090H.4       PUBLIC        FIFO_RRST
  B:0090H.3       PUBLIC        FIFO_WRST
  D:00D0H         PUBLIC        PSW
  C:0822H         PUBLIC        int0
  -------         PROC          MAIN_INIT
  C:098EH         LINE#         5
  C:098EH         LINE#         6
  C:098EH         LINE#         7
  C:0990H         LINE#         8
  C:0992H         LINE#         10
  -------         ENDPROC       MAIN_INIT
  -------         PROC          MAIN
  -------         DO            
  D:0019H         SYMBOL        a
  D:001BH         SYMBOL        b
  D:001DH         SYMBOL        c_data
  D:0007H         SYMBOL        tmp
  -------         ENDDO         
  C:03F0H         LINE#         13
  C:03F0H         LINE#         14
  C:03F0H         LINE#         20
  C:03F3H         LINE#         21
  C:03F6H         LINE#         23
  C:03F8H         LINE#         24
  C:03FAH         LINE#         26
  C:03FAH         LINE#         27
  C:03FDH         LINE#         28
  C:03FDH         LINE#         29
  C:0400H         LINE#         32
  C:0402H         LINE#         36
  C:0402H         LINE#         37
  C:0402H         LINE#         38
  C:0407H         LINE#         39
  C:0407H         LINE#         41
  C:0407H         LINE#         43
  C:0409H         LINE#         44
  C:040BH         LINE#         45
  C:040DH         LINE#         46
  C:040FH         LINE#         47
  C:0411H         LINE#         48
  C:0413H         LINE#         51
  C:0425H         LINE#         52
  C:0427H         LINE#         53
  C:042CH         LINE#         54
BL51 BANKED LINKER/LOCATER V6.22                                                      02/09/2021  01:15:36  PAGE 5


  C:042CH         LINE#         55
  C:0431H         LINE#         56
  C:0431H         LINE#         57
  C:0433H         LINE#         58
  C:043AH         LINE#         60
  C:0441H         LINE#         61
  C:0443H         LINE#         62
  C:0445H         LINE#         64
  C:044BH         LINE#         65
  C:044DH         LINE#         67
  C:0454H         LINE#         68
  C:0465H         LINE#         69
  C:0476H         LINE#         70
  C:0478H         LINE#         71
  C:048AH         LINE#         72
  C:048DH         LINE#         73
  -------         ENDPROC       MAIN
  -------         PROC          INT0
  C:0822H         LINE#         76
  C:0826H         LINE#         78
  C:082AH         LINE#         79
  C:082AH         LINE#         80
  C:082CH         LINE#         81
  C:082EH         LINE#         82
  C:0830H         LINE#         83
  C:0832H         LINE#         84
  C:0834H         LINE#         85
  C:0836H         LINE#         86
  C:0839H         LINE#         87
  C:083BH         LINE#         88
  C:083DH         LINE#         89
  C:0842H         LINE#         90
  C:0842H         LINE#         91
  C:0844H         LINE#         92
  C:0847H         LINE#         93
  C:0847H         LINE#         94
  -------         ENDPROC       INT0
  -------         ENDMOD        MAIN

  -------         MODULE        OV7670_FIFO
  C:0000H         SYMBOL        _ICE_DUMMY_
  D:0080H         PUBLIC        P0
  D:0090H         PUBLIC        P1
  D:00A0H         PUBLIC        P2
  D:00B0H         PUBLIC        P3
  D:00C0H         PUBLIC        P4
  D:00C8H         PUBLIC        P5
  D:00A8H         PUBLIC        IE
  C:0340H         PUBLIC        Sensor_init
  D:00B8H         PUBLIC        IP
  C:0258H         PUBLIC        OV7670_reg
  C:01B0H         PUBLIC        OV7725_reg
  D:00D8H         PUBLIC        CCON
  D:0098H         PUBLIC        SCON
  C:05FDH         PUBLIC        _rd_Sensor_Reg
  D:0088H         PUBLIC        TCON
  C:070EH         PUBLIC        _wr_Sensor_Reg
BL51 BANKED LINKER/LOCATER V6.22                                                      02/09/2021  01:15:36  PAGE 6


  C:0872H         PUBLIC        startSCCB
  C:078CH         PUBLIC        SCCBreadByte
  B:00B0H.7       PUBLIC        SCCB_SIC
  B:00B0H.6       PUBLIC        SCCB_SID
  C:0599H         PUBLIC        _SCCBwriteByte
  C:08BAH         PUBLIC        stopSCCB
  C:0896H         PUBLIC        noAck
  D:00D0H         PUBLIC        PSW
  -------         PROC          STARTSCCB
  C:0872H         LINE#         51
  C:0872H         LINE#         52
  C:0872H         LINE#         53
  C:0874H         LINE#         54
  C:087BH         LINE#         56
  C:087DH         LINE#         57
  C:0884H         LINE#         59
  C:0886H         LINE#         60
  C:088DH         LINE#         62
  C:088FH         LINE#         63
  -------         ENDPROC       STARTSCCB
  -------         PROC          STOPSCCB
  C:08BAH         LINE#         74
  C:08BAH         LINE#         75
  C:08BAH         LINE#         76
  C:08BCH         LINE#         77
  C:08C3H         LINE#         79
  C:08C5H         LINE#         80
  C:08CCH         LINE#         83
  C:08CEH         LINE#         84
  -------         ENDPROC       STOPSCCB
  -------         PROC          NOACK
  C:0896H         LINE#         95
  C:0896H         LINE#         96
  C:0896H         LINE#         98
  C:0898H         LINE#         99
  C:089FH         LINE#         101
  C:08A1H         LINE#         102
  C:08A8H         LINE#         104
  C:08AAH         LINE#         105
  C:08B1H         LINE#         107
  C:08B3H         LINE#         108
  -------         ENDPROC       NOACK
  -------         PROC          _SCCBWRITEBYTE
  D:0026H         SYMBOL        m_data
  -------         DO            
  D:0027H         SYMBOL        j
  D:0028H         SYMBOL        tem
  -------         ENDDO         
  C:0599H         LINE#         119
  C:059BH         LINE#         120
  C:059BH         LINE#         123
  C:059EH         LINE#         124
  C:059EH         LINE#         125
  C:05AEH         LINE#         126
  C:05AEH         LINE#         127
  C:05B0H         LINE#         128
  C:05B2H         LINE#         130
BL51 BANKED LINKER/LOCATER V6.22                                                      02/09/2021  01:15:36  PAGE 7


  C:05B2H         LINE#         131
  C:05B4H         LINE#         132
  C:05B4H         LINE#         133
  C:05BBH         LINE#         134
  C:05BDH         LINE#         135
  C:05C4H         LINE#         136
  C:05C6H         LINE#         137
  C:05CDH         LINE#         138
  C:05D6H         LINE#         141
  C:05DDH         LINE#         142
  C:05DFH         LINE#         143
  C:05E6H         LINE#         145
  C:05EEH         LINE#         146
  C:05F1H         LINE#         147
  C:05F3H         LINE#         148
  C:05FAH         LINE#         151
  C:05FCH         LINE#         152
  -------         ENDPROC       _SCCBWRITEBYTE
  -------         PROC          SCCBREADBYTE
  -------         DO            
  D:0026H         SYMBOL        read
  D:0027H         SYMBOL        j
  -------         ENDDO         
  C:078CH         LINE#         161
  C:078CH         LINE#         162
  C:078CH         LINE#         164
  C:078FH         LINE#         167
  C:0795H         LINE#         168
  C:0798H         LINE#         169
  C:0798H         LINE#         171
  C:079AH         LINE#         172
  C:07A1H         LINE#         173
  C:07A7H         LINE#         174
  C:07AAH         LINE#         175
  C:07AAH         LINE#         176
  C:07ACH         LINE#         177
  C:07ACH         LINE#         178
  C:07AEH         LINE#         179
  C:07B5H         LINE#         180
  C:07BEH         LINE#         182
  C:07C0H         LINE#         183
  -------         ENDPROC       SCCBREADBYTE
  -------         PROC          L?0047
  -------         ENDPROC       L?0047
  -------         PROC          _WR_SENSOR_REG
  D:0022H         SYMBOL        regID
  D:0023H         SYMBOL        regDat
  C:070EH         LINE#         187
  C:0712H         LINE#         188
  C:0712H         LINE#         189
  C:0715H         LINE#         190
  C:071DH         LINE#         191
  C:071DH         LINE#         192
  C:071DH         LINE#         193
  C:071FH         LINE#         194
  C:071FH         LINE#         195
  C:0726H         LINE#         196
BL51 BANKED LINKER/LOCATER V6.22                                                      02/09/2021  01:15:36  PAGE 8


  C:072EH         LINE#         197
  C:072EH         LINE#         198
  C:072EH         LINE#         199
  C:0730H         LINE#         200
  C:0730H         LINE#         201
  C:0737H         LINE#         202
  C:073FH         LINE#         203
  C:073FH         LINE#         204
  C:0742H         LINE#         205
  C:0745H         LINE#         206
  C:0745H         LINE#         207
  C:0748H         LINE#         209
  C:074AH         LINE#         210
  -------         ENDPROC       _WR_SENSOR_REG
  -------         PROC          _RD_SENSOR_REG
  D:0022H         SYMBOL        regID
  D:0023H         SYMBOL        regDat
  C:05FDH         LINE#         214
  C:0605H         LINE#         215
  C:0605H         LINE#         217
  C:0608H         LINE#         218
  C:0610H         LINE#         219
  C:0610H         LINE#         220
  C:0610H         LINE#         221
  C:0612H         LINE#         222
  C:0612H         LINE#         223
  C:0619H         LINE#         224
  C:0621H         LINE#         225
  C:0621H         LINE#         226
  C:0621H         LINE#         227
  C:0623H         LINE#         228
  C:0623H         LINE#         229
  C:0626H         LINE#         231
  C:062DH         LINE#         234
  C:0630H         LINE#         235
  C:0638H         LINE#         236
  C:0638H         LINE#         237
  C:063BH         LINE#         238
  C:063EH         LINE#         239
  C:063EH         LINE#         240
  C:0645H         LINE#         241
  C:0652H         LINE#         242
  C:0655H         LINE#         243
  C:0658H         LINE#         244
  C:065AH         LINE#         245
  -------         ENDPROC       _RD_SENSOR_REG
  -------         PROC          SENSOR_INIT
  -------         DO            
  D:001FH         SYMBOL        temp
  D:0020H         SYMBOL        i
  -------         ENDDO         
  C:0340H         LINE#         249
  C:0340H         LINE#         250
  C:0340H         LINE#         252
  C:0345H         LINE#         257
  C:0348H         LINE#         259
  C:0352H         LINE#         260
BL51 BANKED LINKER/LOCATER V6.22                                                      02/09/2021  01:15:36  PAGE 9


  C:0352H         LINE#         261
  C:0354H         LINE#         262
  C:0354H         LINE#         264
  C:035BH         LINE#         266
  C:0369H         LINE#         267
  C:0369H         LINE#         268
  C:036BH         LINE#         269
  C:036BH         LINE#         271
  C:0371H         LINE#         272
  C:0371H         LINE#         273
  C:0375H         LINE#         274
  C:0375H         LINE#         275
  C:0398H         LINE#         276
  C:0398H         LINE#         277
  C:039AH         LINE#         278
  C:039AH         LINE#         279
  C:03ADH         LINE#         280
  C:03ADH         LINE#         282
  C:03B3H         LINE#         283
  C:03B3H         LINE#         284
  C:03B7H         LINE#         285
  C:03B7H         LINE#         286
  C:03DAH         LINE#         287
  C:03DAH         LINE#         288
  C:03DCH         LINE#         289
  C:03DCH         LINE#         290
  C:03EDH         LINE#         291
  C:03EDH         LINE#         292
  C:03EFH         LINE#         293
  -------         ENDPROC       SENSOR_INIT
  -------         ENDMOD        OV7670_FIFO

  -------         MODULE        LCD
  C:0000H         SYMBOL        _ICE_DUMMY_
  D:0080H         PUBLIC        P0
  D:0090H         PUBLIC        P1
  D:00A0H         PUBLIC        P2
  D:00B0H         PUBLIC        P3
  D:00C0H         PUBLIC        P4
  D:00C8H         PUBLIC        P5
  D:00A8H         PUBLIC        IE
  C:0993H         PUBLIC        _LCD_WR_DATA8
  D:00B8H         PUBLIC        IP
  C:0955H         PUBLIC        _LCD_WR_REG
  C:051CH         PUBLIC        _LCD_Clear
  D:00D8H         PUBLIC        CCON
  D:0098H         PUBLIC        SCON
  D:0088H         PUBLIC        TCON
  B:00B0H.5       PUBLIC        LCD_RESET
  C:08F0H         PUBLIC        LCD_Reset
  C:090BH         PUBLIC        _LCD_DrawPoint_16Bit
  B:0090H.5       PUBLIC        LCD_BL
  C:0006H         PUBLIC        LCD_Init
  B:00B0H.4       PUBLIC        LCD_CS
  B:0090H.6       PUBLIC        LCD_RD
  C:096EH         PUBLIC        _LCD_Write_Bus
  C:08D5H         PUBLIC        _LCD_DrawPoint
BL51 BANKED LINKER/LOCATER V6.22                                                      02/09/2021  01:15:36  PAGE 10


  C:074BH         PUBLIC        _LCD_SetWindows
  C:07F6H         PUBLIC        LCD_SetParam
  C:0987H         PUBLIC        LCD_WriteRAM_Prepare
  C:0930H         PUBLIC        _LCD_WR_DATA
  B:00B0H.3       PUBLIC        LCD_RS
  B:0090H.7       PUBLIC        LCD_WR
  C:0960H         PUBLIC        _LCD_WriteReg
  C:065BH         PUBLIC        _LCD_SetCursor
  D:0008H         PUBLIC        POINT_COLOR
  D:000AH         PUBLIC        BACK_COLOR
  D:000CH         PUBLIC        lcddev
  D:00D0H         PUBLIC        PSW
  C:06B4H         PUBLIC        _LCD_direction
  -------         PROC          _LCD_WRITE_BUS
  D:0007H         SYMBOL        VH
  D:0005H         SYMBOL        VL
  C:096EH         LINE#         72
  C:096EH         LINE#         73
  C:096EH         LINE#         74
  C:0970H         LINE#         75
  C:0972H         LINE#         76
  C:0974H         LINE#         77
  C:0976H         LINE#         78
  C:0978H         LINE#         79
  C:097AH         LINE#         80
  -------         ENDPROC       _LCD_WRITE_BUS
  -------         PROC          _LCD_WR_DATA8
  D:0007H         SYMBOL        VH
  D:0005H         SYMBOL        VL
  C:0993H         LINE#         94
  C:0993H         LINE#         95
  C:0993H         LINE#         96
  C:0995H         LINE#         97
  -------         ENDPROC       _LCD_WR_DATA8
  -------         PROC          L?0030
  -------         ENDPROC       L?0030
  -------         PROC          _LCD_WR_REG
  D:0004H         SYMBOL        Reg
  C:0955H         LINE#         109
  C:0959H         LINE#         110
  C:0959H         LINE#         111
  C:095BH         LINE#         112
  -------         ENDPROC       _LCD_WR_REG
  C:092BH         SYMBOL        L?0029
  -------         PROC          L?0028
  -------         ENDPROC       L?0028
  C:092BH         SYMBOL        L?0029
  -------         PROC          _LCD_WR_DATA
  D:0004H         SYMBOL        Data
  C:0930H         LINE#         124
  C:0934H         LINE#         125
  C:0934H         LINE#         126
  C:0936H         LINE#         127
  -------         ENDPROC       _LCD_WR_DATA
  -------         PROC          _LCD_WRITEREG
  D:0006H         SYMBOL        LCD_Reg
  D:0002H         SYMBOL        LCD_RegValue
BL51 BANKED LINKER/LOCATER V6.22                                                      02/09/2021  01:15:36  PAGE 11


  C:0960H         LINE#         140
  C:0964H         LINE#         141
  C:0964H         LINE#         142
  C:0967H         LINE#         143
  -------         ENDPROC       _LCD_WRITEREG
  -------         PROC          LCD_WRITERAM_PREPARE
  C:0987H         LINE#         156
  C:0987H         LINE#         157
  C:0987H         LINE#         158
  -------         ENDPROC       LCD_WRITERAM_PREPARE
  -------         PROC          _LCD_CLEAR
  D:0029H         SYMBOL        Color
  -------         DO            
  D:002BH         SYMBOL        index
  -------         ENDDO         
  C:051CH         LINE#         171
  C:0520H         LINE#         172
  C:0520H         LINE#         173
  C:0529H         LINE#         174
  C:0547H         LINE#         176
  C:0549H         LINE#         177
  C:054BH         LINE#         178
  C:0570H         LINE#         179
  C:0570H         LINE#         180
  C:0574H         LINE#         181
  C:0576H         LINE#         182
  C:0578H         LINE#         184
  C:057BH         LINE#         185
  C:057DH         LINE#         186
  C:057FH         LINE#         187
  C:0596H         LINE#         188
  C:0598H         LINE#         196
  -------         ENDPROC       _LCD_CLEAR
  -------         PROC          _LCD_DRAWPOINT
  D:0006H         SYMBOL        x
  D:0004H         SYMBOL        y
  C:08D5H         LINE#         207
  C:08D5H         LINE#         208
  C:08D5H         LINE#         209
  C:08D8H         LINE#         211
  C:08DAH         LINE#         212
  C:08DCH         LINE#         213
  C:08DEH         LINE#         214
  C:08E2H         LINE#         215
  C:08E4H         LINE#         216
  C:08E6H         LINE#         217
  C:08E9H         LINE#         218
  C:08EBH         LINE#         219
  C:08EDH         LINE#         220
  C:08EFH         LINE#         224
  -------         ENDPROC       _LCD_DRAWPOINT
  -------         PROC          _LCD_DRAWPOINT_16BIT
  D:0004H         SYMBOL        color
  C:090BH         LINE#         234
  C:090FH         LINE#         235
  C:090FH         LINE#         237
  C:0911H         LINE#         238
BL51 BANKED LINKER/LOCATER V6.22                                                      02/09/2021  01:15:36  PAGE 12


  C:0913H         LINE#         239
  C:0915H         LINE#         240
  C:0917H         LINE#         241
  C:0919H         LINE#         242
  C:091BH         LINE#         243
  C:091DH         LINE#         244
  C:091FH         LINE#         245
  C:0921H         LINE#         246
  C:0923H         LINE#         252
  -------         ENDPROC       _LCD_DRAWPOINT_16BIT
  -------         PROC          LCD_RESET
  C:08F0H         LINE#         262
  C:08F0H         LINE#         263
  C:08F0H         LINE#         264
  C:08F2H         LINE#         265
  C:08F9H         LINE#         266
  C:08FBH         LINE#         267
  C:0902H         LINE#         268
  C:0904H         LINE#         269
  -------         ENDPROC       LCD_RESET
  -------         PROC          LCD_INIT
  C:0006H         LINE#         281
  C:0006H         LINE#         282
  C:0006H         LINE#         283
  C:0009H         LINE#         284
  C:000BH         LINE#         287
  C:0012H         LINE#         288
  C:0017H         LINE#         289
  C:001CH         LINE#         291
  C:0021H         LINE#         292
  C:0026H         LINE#         293
  C:002BH         LINE#         295
  C:0030H         LINE#         296
  C:0032H         LINE#         297
  C:0035H         LINE#         299
  C:003AH         LINE#         300
  C:003FH         LINE#         302
  C:0044H         LINE#         303
  C:0049H         LINE#         304
  C:004EH         LINE#         306
  C:0053H         LINE#         307
  C:0058H         LINE#         308
  C:005DH         LINE#         310
  C:0062H         LINE#         311
  C:0067H         LINE#         313
  C:006CH         LINE#         314
  C:0071H         LINE#         315
  C:0076H         LINE#         316
  C:007BH         LINE#         318
  C:0080H         LINE#         319
  C:0085H         LINE#         321
  C:008AH         LINE#         322
  C:008FH         LINE#         323
  C:0094H         LINE#         324
  C:0099H         LINE#         325
  C:009EH         LINE#         326
  C:00A3H         LINE#         327
BL51 BANKED LINKER/LOCATER V6.22                                                      02/09/2021  01:15:36  PAGE 13


  C:00A8H         LINE#         328
  C:00ADH         LINE#         329
  C:00B2H         LINE#         330
  C:00B7H         LINE#         331
  C:00B7H         LINE#         332
  C:00B7H         LINE#         333
  C:00BAH         LINE#         334
  C:00BAH         LINE#         335
  C:00BAH         LINE#         336
  C:00BDH         LINE#         338
  C:00C2H         LINE#         339
  C:00C7H         LINE#         340
  C:00CCH         LINE#         341
  C:00D1H         LINE#         342
  C:00D6H         LINE#         343
  C:00DBH         LINE#         344
  C:00E0H         LINE#         345
  C:00E5H         LINE#         346
  C:00EAH         LINE#         347
  C:00EFH         LINE#         348
  C:00F4H         LINE#         349
  C:00F9H         LINE#         350
  C:00FEH         LINE#         351
  C:0103H         LINE#         352
  C:0105H         LINE#         353
  C:0108H         LINE#         355
  C:010DH         LINE#         356
  C:0112H         LINE#         357
  C:0114H         LINE#         358
  C:0117H         LINE#         359
  C:011CH         LINE#         360
  C:0121H         LINE#         361
  C:0126H         LINE#         362
  C:012BH         LINE#         363
  C:0130H         LINE#         365
  C:0135H         LINE#         366
  C:013AH         LINE#         367
  C:013FH         LINE#         368
  C:0144H         LINE#         369
  C:0149H         LINE#         370
  C:014EH         LINE#         371
  C:0153H         LINE#         372
  C:0158H         LINE#         373
  C:015AH         LINE#         374
  C:015DH         LINE#         376
  C:0162H         LINE#         377
  C:0164H         LINE#         378
  C:0167H         LINE#         379
  C:016CH         LINE#         380
  C:0171H         LINE#         381
  C:0176H         LINE#         383
  C:017BH         LINE#         384
  C:0180H         LINE#         385
  C:0185H         LINE#         387
  C:018AH         LINE#         388
  C:018FH         LINE#         390
  C:0194H         LINE#         391
BL51 BANKED LINKER/LOCATER V6.22                                                      02/09/2021  01:15:36  PAGE 14


  C:0199H         LINE#         393
  C:019EH         LINE#         394
  C:01A3H         LINE#         396
  C:01AAH         LINE#         399
  C:01ADH         LINE#         400
  C:01AFH         LINE#         401
  -------         ENDPROC       LCD_INIT
  -------         PROC          _LCD_SETWINDOWS
  D:001FH         SYMBOL        xStar
  D:0082H         SYMBOL        yStar
  D:0002H         SYMBOL        xEnd
  D:0025H         SYMBOL        yEnd
  C:074BH         LINE#         412
  C:0753H         LINE#         413
  C:0753H         LINE#         414
  C:075AH         LINE#         415
  C:0762H         LINE#         416
  C:0767H         LINE#         417
  C:076CH         LINE#         418
  C:076EH         LINE#         420
  C:0771H         LINE#         421
  C:0779H         LINE#         422
  C:077EH         LINE#         423
  C:0784H         LINE#         424
  C:0789H         LINE#         426
  -------         ENDPROC       _LCD_SETWINDOWS
  -------         PROC          _LCD_SETCURSOR
  D:0082H         SYMBOL        Xpos
  D:0002H         SYMBOL        Ypos
  C:065BH         LINE#         439
  C:0663H         LINE#         440
  C:0663H         LINE#         441
  C:066AH         LINE#         442
  C:0672H         LINE#         443
  C:0677H         LINE#         444
  C:0684H         LINE#         445
  C:068DH         LINE#         447
  C:0690H         LINE#         448
  C:0697H         LINE#         449
  C:069CH         LINE#         450
  C:06A7H         LINE#         451
  C:06B1H         LINE#         452
  -------         ENDPROC       _LCD_SETCURSOR
  -------         PROC          LCD_SETPARAM
  C:07F6H         LINE#         464
  C:07F6H         LINE#         465
  C:07F6H         LINE#         466
  C:07FCH         LINE#         467
  C:0802H         LINE#         468
  C:0808H         LINE#         470
  C:080BH         LINE#         471
  C:0811H         LINE#         472
  C:0817H         LINE#         473
  -------         ENDPROC       LCD_SETPARAM
  -------         PROC          _LCD_DIRECTION
  D:0007H         SYMBOL        direction
  C:06B4H         LINE#         482
BL51 BANKED LINKER/LOCATER V6.22                                                      02/09/2021  01:15:36  PAGE 15


  C:06B4H         LINE#         483
  C:06B4H         LINE#         484
  C:06C0H         LINE#         485
  C:06C0H         LINE#         486
  C:06C6H         LINE#         487
  C:06CCH         LINE#         488
  C:06CEH         LINE#         489
  C:06D0H         LINE#         490
  C:06D0H         LINE#         491
  C:06D6H         LINE#         492
  C:06DCH         LINE#         493
  C:06DEH         LINE#         494
  C:06E0H         LINE#         495
  C:06E0H         LINE#         496
  C:06E6H         LINE#         497
  C:06ECH         LINE#         498
  C:06EEH         LINE#         499
  C:06F0H         LINE#         500
  C:06F0H         LINE#         501
  C:06F6H         LINE#         502
  C:06FCH         LINE#         503
  C:0707H         LINE#         504
  C:0707H         LINE#         505
  C:0707H         LINE#         506
  C:0707H         LINE#         509
  -------         ENDPROC       _LCD_DIRECTION
  -------         ENDMOD        LCD

  -------         MODULE        SYS
  C:0000H         SYMBOL        _ICE_DUMMY_
  D:0080H         PUBLIC        P0
  D:0090H         PUBLIC        P1
  D:00A0H         PUBLIC        P2
  D:00B0H         PUBLIC        P3
  D:00C0H         PUBLIC        P4
  D:00C8H         PUBLIC        P5
  D:00A8H         PUBLIC        IE
  D:00B8H         PUBLIC        IP
  D:00D8H         PUBLIC        CCON
  D:0098H         PUBLIC        SCON
  D:0088H         PUBLIC        TCON
  C:084CH         PUBLIC        _delay_ms
  C:093BH         PUBLIC        _delay_us
  D:00D0H         PUBLIC        PSW
  -------         PROC          _DELAY_MS
  D:0006H         SYMBOL        count
  -------         DO            
  D:0004H         SYMBOL        i
  D:0002H         SYMBOL        j
  -------         ENDDO         
  C:084CH         LINE#         2
  C:084CH         LINE#         3
  C:084CH         LINE#         5
  C:085CH         LINE#         6
  C:0871H         LINE#         7
  -------         ENDPROC       _DELAY_MS
  -------         PROC          _DELAY_US
BL51 BANKED LINKER/LOCATER V6.22                                                      02/09/2021  01:15:36  PAGE 16


  D:0006H         SYMBOL        count
  C:093BH         LINE#         9
  C:093BH         LINE#         10
  C:093BH         LINE#         11
  C:0943H         LINE#         12
  C:094DH         LINE#         15
  -------         ENDPROC       _DELAY_US
  -------         ENDMOD        SYS

  -------         MODULE        ?C?CSTPTR
  C:07C1H         PUBLIC        ?C?CSTPTR
  -------         ENDMOD        ?C?CSTPTR

  -------         MODULE        ?C?IMUL
  C:07D3H         PUBLIC        ?C?IMUL
  -------         ENDMOD        ?C?IMUL

  -------         MODULE        ?C?ULCMP
  C:07E5H         PUBLIC        ?C?ULCMP
  -------         ENDMOD        ?C?ULCMP

*** WARNING L16: UNCALLED SEGMENT, IGNORED FOR OVERLAY PROCESS
    SEGMENT: ?PR?_LCD_WR_DATA8?LCD

*** WARNING L16: UNCALLED SEGMENT, IGNORED FOR OVERLAY PROCESS
    SEGMENT: ?PR?_LCD_CLEAR?LCD

*** WARNING L16: UNCALLED SEGMENT, IGNORED FOR OVERLAY PROCESS
    SEGMENT: ?PR?_LCD_DRAWPOINT?LCD

*** WARNING L16: UNCALLED SEGMENT, IGNORED FOR OVERLAY PROCESS
    SEGMENT: ?PR?_LCD_DRAWPOINT_16BIT?LCD

*** WARNING L16: UNCALLED SEGMENT, IGNORED FOR OVERLAY PROCESS
    SEGMENT: ?PR?_LCD_DIRECTION?LCD

Program Size: data=49.0 xdata=0 code=2456
LINK/LOCATE RUN COMPLETE.  5 WARNING(S),  0 ERROR(S)
